{
  "contractName": "MyWish",
  "abi": [
    {
      "inputs": [],
      "stateMutability": "nonpayable",
      "type": "constructor"
    },
    {
      "anonymous": false,
      "inputs": [
        {
          "indexed": true,
          "internalType": "address",
          "name": "owner",
          "type": "address"
        },
        {
          "indexed": true,
          "internalType": "address",
          "name": "approved",
          "type": "address"
        },
        {
          "indexed": true,
          "internalType": "uint256",
          "name": "tokenId",
          "type": "uint256"
        }
      ],
      "name": "Approval",
      "type": "event"
    },
    {
      "anonymous": false,
      "inputs": [
        {
          "indexed": true,
          "internalType": "address",
          "name": "owner",
          "type": "address"
        },
        {
          "indexed": true,
          "internalType": "address",
          "name": "operator",
          "type": "address"
        },
        {
          "indexed": false,
          "internalType": "bool",
          "name": "approved",
          "type": "bool"
        }
      ],
      "name": "ApprovalForAll",
      "type": "event"
    },
    {
      "anonymous": false,
      "inputs": [
        {
          "indexed": true,
          "internalType": "bytes32",
          "name": "role",
          "type": "bytes32"
        },
        {
          "indexed": true,
          "internalType": "bytes32",
          "name": "previousAdminRole",
          "type": "bytes32"
        },
        {
          "indexed": true,
          "internalType": "bytes32",
          "name": "newAdminRole",
          "type": "bytes32"
        }
      ],
      "name": "RoleAdminChanged",
      "type": "event"
    },
    {
      "anonymous": false,
      "inputs": [
        {
          "indexed": true,
          "internalType": "bytes32",
          "name": "role",
          "type": "bytes32"
        },
        {
          "indexed": true,
          "internalType": "address",
          "name": "account",
          "type": "address"
        },
        {
          "indexed": true,
          "internalType": "address",
          "name": "sender",
          "type": "address"
        }
      ],
      "name": "RoleGranted",
      "type": "event"
    },
    {
      "anonymous": false,
      "inputs": [
        {
          "indexed": true,
          "internalType": "bytes32",
          "name": "role",
          "type": "bytes32"
        },
        {
          "indexed": true,
          "internalType": "address",
          "name": "account",
          "type": "address"
        },
        {
          "indexed": true,
          "internalType": "address",
          "name": "sender",
          "type": "address"
        }
      ],
      "name": "RoleRevoked",
      "type": "event"
    },
    {
      "anonymous": false,
      "inputs": [
        {
          "indexed": true,
          "internalType": "address",
          "name": "from",
          "type": "address"
        },
        {
          "indexed": true,
          "internalType": "address",
          "name": "to",
          "type": "address"
        },
        {
          "indexed": true,
          "internalType": "uint256",
          "name": "tokenId",
          "type": "uint256"
        }
      ],
      "name": "Transfer",
      "type": "event"
    },
    {
      "inputs": [],
      "name": "DEFAULT_ADMIN_ROLE",
      "outputs": [
        {
          "internalType": "bytes32",
          "name": "",
          "type": "bytes32"
        }
      ],
      "stateMutability": "view",
      "type": "function"
    },
    {
      "inputs": [],
      "name": "MINTER_ROLE",
      "outputs": [
        {
          "internalType": "bytes32",
          "name": "",
          "type": "bytes32"
        }
      ],
      "stateMutability": "view",
      "type": "function"
    },
    {
      "inputs": [
        {
          "internalType": "string",
          "name": "",
          "type": "string"
        }
      ],
      "name": "URIS",
      "outputs": [
        {
          "internalType": "string",
          "name": "",
          "type": "string"
        }
      ],
      "stateMutability": "view",
      "type": "function"
    },
    {
      "inputs": [],
      "name": "_maxPurchaseAllowed",
      "outputs": [
        {
          "internalType": "uint256",
          "name": "",
          "type": "uint256"
        }
      ],
      "stateMutability": "view",
      "type": "function"
    },
    {
      "inputs": [],
      "name": "_totalWishes",
      "outputs": [
        {
          "internalType": "uint256",
          "name": "",
          "type": "uint256"
        }
      ],
      "stateMutability": "view",
      "type": "function"
    },
    {
      "inputs": [
        {
          "internalType": "address",
          "name": "to",
          "type": "address"
        },
        {
          "internalType": "uint256",
          "name": "tokenId",
          "type": "uint256"
        }
      ],
      "name": "approve",
      "outputs": [],
      "stateMutability": "nonpayable",
      "type": "function"
    },
    {
      "inputs": [
        {
          "internalType": "address",
          "name": "owner",
          "type": "address"
        }
      ],
      "name": "balanceOf",
      "outputs": [
        {
          "internalType": "uint256",
          "name": "",
          "type": "uint256"
        }
      ],
      "stateMutability": "view",
      "type": "function"
    },
    {
      "inputs": [
        {
          "internalType": "address",
          "name": "",
          "type": "address"
        }
      ],
      "name": "balances",
      "outputs": [
        {
          "internalType": "uint256",
          "name": "",
          "type": "uint256"
        }
      ],
      "stateMutability": "view",
      "type": "function"
    },
    {
      "inputs": [
        {
          "internalType": "uint256",
          "name": "tokenId",
          "type": "uint256"
        }
      ],
      "name": "getApproved",
      "outputs": [
        {
          "internalType": "address",
          "name": "",
          "type": "address"
        }
      ],
      "stateMutability": "view",
      "type": "function"
    },
    {
      "inputs": [
        {
          "internalType": "bytes32",
          "name": "role",
          "type": "bytes32"
        }
      ],
      "name": "getRoleAdmin",
      "outputs": [
        {
          "internalType": "bytes32",
          "name": "",
          "type": "bytes32"
        }
      ],
      "stateMutability": "view",
      "type": "function"
    },
    {
      "inputs": [
        {
          "internalType": "address",
          "name": "",
          "type": "address"
        }
      ],
      "name": "getTokenId",
      "outputs": [
        {
          "internalType": "uint256",
          "name": "",
          "type": "uint256"
        }
      ],
      "stateMutability": "view",
      "type": "function"
    },
    {
      "inputs": [
        {
          "internalType": "bytes32",
          "name": "role",
          "type": "bytes32"
        },
        {
          "internalType": "address",
          "name": "account",
          "type": "address"
        }
      ],
      "name": "grantRole",
      "outputs": [],
      "stateMutability": "nonpayable",
      "type": "function"
    },
    {
      "inputs": [
        {
          "internalType": "bytes32",
          "name": "role",
          "type": "bytes32"
        },
        {
          "internalType": "address",
          "name": "account",
          "type": "address"
        }
      ],
      "name": "hasRole",
      "outputs": [
        {
          "internalType": "bool",
          "name": "",
          "type": "bool"
        }
      ],
      "stateMutability": "view",
      "type": "function"
    },
    {
      "inputs": [
        {
          "internalType": "address",
          "name": "owner",
          "type": "address"
        },
        {
          "internalType": "address",
          "name": "operator",
          "type": "address"
        }
      ],
      "name": "isApprovedForAll",
      "outputs": [
        {
          "internalType": "bool",
          "name": "",
          "type": "bool"
        }
      ],
      "stateMutability": "view",
      "type": "function"
    },
    {
      "inputs": [],
      "name": "name",
      "outputs": [
        {
          "internalType": "string",
          "name": "",
          "type": "string"
        }
      ],
      "stateMutability": "view",
      "type": "function"
    },
    {
      "inputs": [
        {
          "internalType": "uint256",
          "name": "tokenId",
          "type": "uint256"
        }
      ],
      "name": "ownerOf",
      "outputs": [
        {
          "internalType": "address",
          "name": "",
          "type": "address"
        }
      ],
      "stateMutability": "view",
      "type": "function"
    },
    {
      "inputs": [
        {
          "internalType": "bytes32",
          "name": "role",
          "type": "bytes32"
        },
        {
          "internalType": "address",
          "name": "account",
          "type": "address"
        }
      ],
      "name": "renounceRole",
      "outputs": [],
      "stateMutability": "nonpayable",
      "type": "function"
    },
    {
      "inputs": [
        {
          "internalType": "bytes32",
          "name": "role",
          "type": "bytes32"
        },
        {
          "internalType": "address",
          "name": "account",
          "type": "address"
        }
      ],
      "name": "revokeRole",
      "outputs": [],
      "stateMutability": "nonpayable",
      "type": "function"
    },
    {
      "inputs": [
        {
          "internalType": "address",
          "name": "from",
          "type": "address"
        },
        {
          "internalType": "address",
          "name": "to",
          "type": "address"
        },
        {
          "internalType": "uint256",
          "name": "tokenId",
          "type": "uint256"
        }
      ],
      "name": "safeTransferFrom",
      "outputs": [],
      "stateMutability": "nonpayable",
      "type": "function"
    },
    {
      "inputs": [
        {
          "internalType": "address",
          "name": "from",
          "type": "address"
        },
        {
          "internalType": "address",
          "name": "to",
          "type": "address"
        },
        {
          "internalType": "uint256",
          "name": "tokenId",
          "type": "uint256"
        },
        {
          "internalType": "bytes",
          "name": "_data",
          "type": "bytes"
        }
      ],
      "name": "safeTransferFrom",
      "outputs": [],
      "stateMutability": "nonpayable",
      "type": "function"
    },
    {
      "inputs": [
        {
          "internalType": "address",
          "name": "operator",
          "type": "address"
        },
        {
          "internalType": "bool",
          "name": "approved",
          "type": "bool"
        }
      ],
      "name": "setApprovalForAll",
      "outputs": [],
      "stateMutability": "nonpayable",
      "type": "function"
    },
    {
      "inputs": [],
      "name": "symbol",
      "outputs": [
        {
          "internalType": "string",
          "name": "",
          "type": "string"
        }
      ],
      "stateMutability": "view",
      "type": "function"
    },
    {
      "inputs": [
        {
          "internalType": "uint256",
          "name": "index",
          "type": "uint256"
        }
      ],
      "name": "tokenByIndex",
      "outputs": [
        {
          "internalType": "uint256",
          "name": "",
          "type": "uint256"
        }
      ],
      "stateMutability": "view",
      "type": "function"
    },
    {
      "inputs": [
        {
          "internalType": "address",
          "name": "owner",
          "type": "address"
        },
        {
          "internalType": "uint256",
          "name": "index",
          "type": "uint256"
        }
      ],
      "name": "tokenOfOwnerByIndex",
      "outputs": [
        {
          "internalType": "uint256",
          "name": "",
          "type": "uint256"
        }
      ],
      "stateMutability": "view",
      "type": "function"
    },
    {
      "inputs": [],
      "name": "totalSupply",
      "outputs": [
        {
          "internalType": "uint256",
          "name": "",
          "type": "uint256"
        }
      ],
      "stateMutability": "view",
      "type": "function"
    },
    {
      "inputs": [
        {
          "internalType": "address",
          "name": "from",
          "type": "address"
        },
        {
          "internalType": "address",
          "name": "to",
          "type": "address"
        },
        {
          "internalType": "uint256",
          "name": "tokenId",
          "type": "uint256"
        }
      ],
      "name": "transferFrom",
      "outputs": [],
      "stateMutability": "nonpayable",
      "type": "function"
    },
    {
      "inputs": [
        {
          "internalType": "address",
          "name": "to",
          "type": "address"
        },
        {
          "internalType": "string",
          "name": "tokenParams",
          "type": "string"
        }
      ],
      "name": "createCollectable",
      "outputs": [
        {
          "internalType": "bool",
          "name": "",
          "type": "bool"
        }
      ],
      "stateMutability": "nonpayable",
      "type": "function"
    },
    {
      "inputs": [
        {
          "internalType": "bytes4",
          "name": "interfaceId",
          "type": "bytes4"
        }
      ],
      "name": "supportsInterface",
      "outputs": [
        {
          "internalType": "bool",
          "name": "",
          "type": "bool"
        }
      ],
      "stateMutability": "view",
      "type": "function"
    },
    {
      "inputs": [
        {
          "internalType": "uint256",
          "name": "tokenId",
          "type": "uint256"
        },
        {
          "internalType": "string",
          "name": "_tokenUri",
          "type": "string"
        },
        {
          "internalType": "address",
          "name": "to",
          "type": "address"
        }
      ],
      "name": "setTokenURI",
      "outputs": [],
      "stateMutability": "nonpayable",
      "type": "function"
    },
    {
      "inputs": [
        {
          "internalType": "uint256",
          "name": "tokenId",
          "type": "uint256"
        }
      ],
      "name": "tokenURI",
      "outputs": [
        {
          "internalType": "string",
          "name": "",
          "type": "string"
        }
      ],
      "stateMutability": "view",
      "type": "function"
    },
    {
      "inputs": [
        {
          "internalType": "address",
          "name": "minter",
          "type": "address"
        }
      ],
      "name": "setMinterRole",
      "outputs": [],
      "stateMutability": "nonpayable",
      "type": "function"
    },
    {
      "inputs": [],
      "name": "getName_TEST",
      "outputs": [
        {
          "internalType": "bool",
          "name": "",
          "type": "bool"
        }
      ],
      "stateMutability": "view",
      "type": "function"
    },
    {
      "inputs": [
        {
          "internalType": "string",
          "name": "tokenString",
          "type": "string"
        },
        {
          "internalType": "string",
          "name": "URI",
          "type": "string"
        }
      ],
      "name": "setURIMapping",
      "outputs": [],
      "stateMutability": "nonpayable",
      "type": "function"
    }
  ],
  "bytecode": "0x60806040526000600d60006101000a81548160ff0219169083151502179055506040518060400160405280600681526020017f4d79576973680000000000000000000000000000000000000000000000000000815250601190805190602001906200006c92919062000364565b503480156200007a57600080fd5b506040518060400160405280600681526020017f4d795769736800000000000000000000000000000000000000000000000000008152506040518060400160405280600381526020017f57534800000000000000000000000000000000000000000000000000000000008152508160009080519060200190620000ff92919062000364565b5080600190805190602001906200011892919062000364565b505050620001306000801b336200016b60201b60201c565b620001657f9f2df0fed2c77648de5860a4cc508cd0818c85b8b8a1ab4ceeef8d981c8956a66000801b6200018160201b60201c565b62000479565b6200017d8282620001df60201b60201c565b5050565b806200019383620002d160201b60201c565b837fbd79b86ffe0ab8e8776151514217cd7cacd52c909f66475c3af44e129f0b00ff60405160405180910390a480600b6000848152602001908152602001600020600101819055505050565b620001f18282620002f160201b60201c565b620002cd576001600b600084815260200190815260200160002060000160008373ffffffffffffffffffffffffffffffffffffffff1673ffffffffffffffffffffffffffffffffffffffff16815260200190815260200160002060006101000a81548160ff021916908315150217905550620002726200035c60201b60201c565b73ffffffffffffffffffffffffffffffffffffffff168173ffffffffffffffffffffffffffffffffffffffff16837f2f8788117e7eff1d82e926ec794901d17c78024a50270940304540a733656f0d60405160405180910390a45b5050565b6000600b6000838152602001908152602001600020600101549050919050565b6000600b600084815260200190815260200160002060000160008373ffffffffffffffffffffffffffffffffffffffff1673ffffffffffffffffffffffffffffffffffffffff16815260200190815260200160002060009054906101000a900460ff16905092915050565b600033905090565b828054620003729062000414565b90600052602060002090601f016020900481019282620003965760008555620003e2565b82601f10620003b157805160ff1916838001178555620003e2565b82800160010185558215620003e2579182015b82811115620003e1578251825591602001919060010190620003c4565b5b509050620003f19190620003f5565b5090565b5b8082111562000410576000816000905550600101620003f6565b5090565b600060028204905060018216806200042d57607f821691505b602082108114156200044457620004436200044a565b5b50919050565b7f4e487b7100000000000000000000000000000000000000000000000000000000600052602260045260246000fd5b614ab980620004896000396000f3fe608060405234801561001057600080fd5b50600436106101fb5760003560e01c8063642aa5301161011a578063b88d4fde116100ad578063d6a706481161007c578063d6a70648146105f8578063e16cfb8714610616578063e19dba4e14610646578063e985e9c514610664578063f153768614610694576101fb565b8063b88d4fde14610572578063c87b56dd1461058e578063d5391393146105be578063d547741f146105dc576101fb565b8063945d1229116100e9578063945d1229146104fe57806395d89b411461051a578063a217fddf14610538578063a22cb46514610556576101fb565b8063642aa5301461045057806370a082311461048057806387fba230146104b057806391d14854146104ce576101fb565b806327e235e31161019257806342842e0e1161016157806342842e0e146103b85780634f6ccce7146103d457806361c1dcf3146104045780636352211e14610420576101fb565b806327e235e3146103205780632f2ff15d146103505780632f745c591461036c57806336568abe1461039c576101fb565b806318160ddd116101ce57806318160ddd1461029a57806323b872dd146102b8578063248a9ca3146102d45780632682b0e414610304576101fb565b806301ffc9a71461020057806306fdde0314610230578063081812fc1461024e578063095ea7b31461027e575b600080fd5b61021a600480360381019061021591906132f0565b6106c4565b6040516102279190613a43565b60405180910390f35b6102386106d6565b6040516102459190613a79565b60405180910390f35b61026860048036038101906102639190613414565b610768565b60405161027591906139dc565b60405180910390f35b61029860048036038101906102939190613243565b6107ed565b005b6102a2610905565b6040516102af9190613dbb565b60405180910390f35b6102d260048036038101906102cd91906130cd565b610912565b005b6102ee60048036038101906102e99190613283565b610972565b6040516102fb9190613a5e565b60405180910390f35b61031e60048036038101906103199190613441565b610992565b005b61033a60048036038101906103359190613060565b6109ea565b6040516103479190613dbb565b60405180910390f35b61036a600480360381019061036591906132b0565b610a02565b005b61038660048036038101906103819190613243565b610a2b565b6040516103939190613dbb565b60405180910390f35b6103b660048036038101906103b191906132b0565b610ad0565b005b6103d260048036038101906103cd91906130cd565b610b53565b005b6103ee60048036038101906103e99190613414565b610b73565b6040516103fb9190613dbb565b60405180910390f35b61041e6004803603810190610419919061334a565b610be4565b005b61043a60048036038101906104359190613414565b610c1a565b60405161044791906139dc565b60405180910390f35b61046a600480360381019061046591906133cb565b610ccc565b6040516104779190613a79565b60405180910390f35b61049a60048036038101906104959190613060565b610d82565b6040516104a79190613dbb565b60405180910390f35b6104b8610e3a565b6040516104c59190613dbb565b60405180910390f35b6104e860048036038101906104e391906132b0565b610e40565b6040516104f59190613a43565b60405180910390f35b61051860048036038101906105139190613060565b610eab565b005b610522610f5e565b60405161052f9190613a79565b60405180910390f35b610540610ff0565b60405161054d9190613a5e565b60405180910390f35b610570600480360381019061056b91906131a3565b610ff7565b005b61058c60048036038101906105879190613120565b611178565b005b6105a860048036038101906105a39190613414565b6111da565b6040516105b59190613a79565b60405180910390f35b6105c66111ec565b6040516105d39190613a5e565b60405180910390f35b6105f660048036038101906105f191906132b0565b611210565b005b610600611239565b60405161060d9190613dbb565b60405180910390f35b610630600480360381019061062b91906131e3565b61123e565b60405161063d9190613a43565b60405180910390f35b61064e611414565b60405161065b9190613a43565b60405180910390f35b61067e6004803603810190610679919061308d565b611450565b60405161068b9190613a43565b60405180910390f35b6106ae60048036038101906106a99190613060565b6114e4565b6040516106bb9190613dbb565b60405180910390f35b60006106cf826114fc565b9050919050565b6060600080546106e59061409f565b80601f01602080910402602001604051908101604052809291908181526020018280546107119061409f565b801561075e5780601f106107335761010080835404028352916020019161075e565b820191906000526020600020905b81548152906001019060200180831161074157829003601f168201915b5050505050905090565b600061077382611576565b6107b2576040517f08c379a00000000000000000000000000000000000000000000000000000000081526004016107a990613c9b565b60405180910390fd5b6004600083815260200190815260200160002060009054906101000a900473ffffffffffffffffffffffffffffffffffffffff169050919050565b60006107f882610c1a565b90508073ffffffffffffffffffffffffffffffffffffffff168373ffffffffffffffffffffffffffffffffffffffff161415610869576040517f08c379a000000000000000000000000000000000000000000000000000000000815260040161086090613cfb565b60405180910390fd5b8073ffffffffffffffffffffffffffffffffffffffff166108886115e2565b73ffffffffffffffffffffffffffffffffffffffff1614806108b757506108b6816108b16115e2565b611450565b5b6108f6576040517f08c379a00000000000000000000000000000000000000000000000000000000081526004016108ed90613bbb565b60405180910390fd5b61090083836115ea565b505050565b6000600880549050905090565b61092361091d6115e2565b826116a3565b610962576040517f08c379a000000000000000000000000000000000000000000000000000000000815260040161095990613d3b565b60405180910390fd5b61096d838383611781565b505050565b6000600b6000838152602001908152602001600020600101549050919050565b61099c81846116a3565b6109db576040517f08c379a00000000000000000000000000000000000000000000000000000000081526004016109d290613d7b565b60405180910390fd5b6109e583836119dd565b505050565b600f6020528060005260406000206000915090505481565b610a0b82610972565b610a1c81610a176115e2565b611a51565b610a268383611aee565b505050565b6000610a3683610d82565b8210610a77576040517f08c379a0000000000000000000000000000000000000000000000000000000008152600401610a6e90613adb565b60405180910390fd5b600660008473ffffffffffffffffffffffffffffffffffffffff1673ffffffffffffffffffffffffffffffffffffffff168152602001908152602001600020600083815260200190815260200160002054905092915050565b610ad86115e2565b73ffffffffffffffffffffffffffffffffffffffff168173ffffffffffffffffffffffffffffffffffffffff1614610b45576040517f08c379a0000000000000000000000000000000000000000000000000000000008152600401610b3c90613d9b565b60405180910390fd5b610b4f8282611bcf565b5050565b610b6e83838360405180602001604052806000815250611178565b505050565b6000610b7d610905565b8210610bbe576040517f08c379a0000000000000000000000000000000000000000000000000000000008152600401610bb590613d5b565b60405180910390fd5b60088281548110610bd257610bd1614238565b5b90600052602060002001549050919050565b818160108686604051610bf8929190613965565b90815260200160405180910390209190610c13929190612d83565b5050505050565b6000806002600084815260200190815260200160002060009054906101000a900473ffffffffffffffffffffffffffffffffffffffff169050600073ffffffffffffffffffffffffffffffffffffffff168173ffffffffffffffffffffffffffffffffffffffff161415610cc3576040517f08c379a0000000000000000000000000000000000000000000000000000000008152600401610cba90613bfb565b60405180910390fd5b80915050919050565b6010818051602081018201805184825260208301602085012081835280955050505050506000915090508054610d019061409f565b80601f0160208091040260200160405190810160405280929190818152602001828054610d2d9061409f565b8015610d7a5780601f10610d4f57610100808354040283529160200191610d7a565b820191906000526020600020905b815481529060010190602001808311610d5d57829003601f168201915b505050505081565b60008073ffffffffffffffffffffffffffffffffffffffff168273ffffffffffffffffffffffffffffffffffffffff161415610df3576040517f08c379a0000000000000000000000000000000000000000000000000000000008152600401610dea90613bdb565b60405180910390fd5b600360008373ffffffffffffffffffffffffffffffffffffffff1673ffffffffffffffffffffffffffffffffffffffff168152602001908152602001600020549050919050565b61271081565b6000600b600084815260200190815260200160002060000160008373ffffffffffffffffffffffffffffffffffffffff1673ffffffffffffffffffffffffffffffffffffffff16815260200190815260200160002060009054906101000a900460ff16905092915050565b6000801b610ec081610ebb6115e2565b611a51565b600073ffffffffffffffffffffffffffffffffffffffff168273ffffffffffffffffffffffffffffffffffffffff161415610f30576040517f08c379a0000000000000000000000000000000000000000000000000000000008152600401610f2790613c3b565b60405180910390fd5b610f5a7f9f2df0fed2c77648de5860a4cc508cd0818c85b8b8a1ab4ceeef8d981c8956a683610a02565b5050565b606060018054610f6d9061409f565b80601f0160208091040260200160405190810160405280929190818152602001828054610f999061409f565b8015610fe65780601f10610fbb57610100808354040283529160200191610fe6565b820191906000526020600020905b815481529060010190602001808311610fc957829003601f168201915b5050505050905090565b6000801b81565b610fff6115e2565b73ffffffffffffffffffffffffffffffffffffffff168273ffffffffffffffffffffffffffffffffffffffff16141561106d576040517f08c379a000000000000000000000000000000000000000000000000000000000815260040161106490613b5b565b60405180910390fd5b806005600061107a6115e2565b73ffffffffffffffffffffffffffffffffffffffff1673ffffffffffffffffffffffffffffffffffffffff16815260200190815260200160002060008473ffffffffffffffffffffffffffffffffffffffff1673ffffffffffffffffffffffffffffffffffffffff16815260200190815260200160002060006101000a81548160ff0219169083151502179055508173ffffffffffffffffffffffffffffffffffffffff166111276115e2565b73ffffffffffffffffffffffffffffffffffffffff167f17307eab39ab6107e8899845ad3d59bd9653f200f220920489ca2b5937696c318360405161116c9190613a43565b60405180910390a35050565b6111896111836115e2565b836116a3565b6111c8576040517f08c379a00000000000000000000000000000000000000000000000000000000081526004016111bf90613d3b565b60405180910390fd5b6111d484848484611cb1565b50505050565b60606111e582611d0d565b9050919050565b7f9f2df0fed2c77648de5860a4cc508cd0818c85b8b8a1ab4ceeef8d981c8956a681565b61121982610972565b61122a816112256115e2565b611a51565b6112348383611bcf565b505050565b601481565b6000600d60009054906101000a900460ff1661128f576040517f08c379a000000000000000000000000000000000000000000000000000000000815260040161128690613b7b565b60405180910390fd5b61271061129a610905565b106112da576040517f08c379a00000000000000000000000000000000000000000000000000000000081526004016112d190613abb565b60405180910390fd5b6127106112ef6112e8610905565b6001611e5f565b1115611330576040517f08c379a000000000000000000000000000000000000000000000000000000000815260040161132790613d1b565b60405180910390fd5b6113438461133e600c611e75565b611e83565b6113ff611350600c611e75565b60108585604051611362929190613965565b9081526020016040518091039020805461137b9061409f565b80601f01602080910402602001604051908101604052809291908181526020018280546113a79061409f565b80156113f45780601f106113c9576101008083540402835291602001916113f4565b820191906000526020600020905b8154815290600101906020018083116113d757829003601f168201915b505050505086610992565b611409600c611f2c565b600190509392505050565b60006114407f9f2df0fed2c77648de5860a4cc508cd0818c85b8b8a1ab4ceeef8d981c8956a633610e40565b61144957600080fd5b6001905090565b6000600560008473ffffffffffffffffffffffffffffffffffffffff1673ffffffffffffffffffffffffffffffffffffffff16815260200190815260200160002060008373ffffffffffffffffffffffffffffffffffffffff1673ffffffffffffffffffffffffffffffffffffffff16815260200190815260200160002060009054906101000a900460ff16905092915050565b600e6020528060005260406000206000915090505481565b60007f7965db0b000000000000000000000000000000000000000000000000000000007bffffffffffffffffffffffffffffffffffffffffffffffffffffffff1916827bffffffffffffffffffffffffffffffffffffffffffffffffffffffff1916148061156f575061156e82611f42565b5b9050919050565b60008073ffffffffffffffffffffffffffffffffffffffff166002600084815260200190815260200160002060009054906101000a900473ffffffffffffffffffffffffffffffffffffffff1673ffffffffffffffffffffffffffffffffffffffff1614159050919050565b600033905090565b816004600083815260200190815260200160002060006101000a81548173ffffffffffffffffffffffffffffffffffffffff021916908373ffffffffffffffffffffffffffffffffffffffff160217905550808273ffffffffffffffffffffffffffffffffffffffff1661165d83610c1a565b73ffffffffffffffffffffffffffffffffffffffff167f8c5be1e5ebec7d5bd14f71427d1e84f3dd0314c0f7b2291e5b200ac8c7c3b92560405160405180910390a45050565b60006116ae82611576565b6116ed576040517f08c379a00000000000000000000000000000000000000000000000000000000081526004016116e490613b9b565b60405180910390fd5b60006116f883610c1a565b90508073ffffffffffffffffffffffffffffffffffffffff168473ffffffffffffffffffffffffffffffffffffffff16148061176757508373ffffffffffffffffffffffffffffffffffffffff1661174f84610768565b73ffffffffffffffffffffffffffffffffffffffff16145b8061177857506117778185611450565b5b91505092915050565b8273ffffffffffffffffffffffffffffffffffffffff166117a182610c1a565b73ffffffffffffffffffffffffffffffffffffffff16146117f7576040517f08c379a00000000000000000000000000000000000000000000000000000000081526004016117ee90613cbb565b60405180910390fd5b600073ffffffffffffffffffffffffffffffffffffffff168273ffffffffffffffffffffffffffffffffffffffff161415611867576040517f08c379a000000000000000000000000000000000000000000000000000000000815260040161185e90613b3b565b60405180910390fd5b611872838383611fbc565b61187d6000826115ea565b6001600360008573ffffffffffffffffffffffffffffffffffffffff1673ffffffffffffffffffffffffffffffffffffffff16815260200190815260200160002060008282546118cd9190613f81565b925050819055506001600360008473ffffffffffffffffffffffffffffffffffffffff1673ffffffffffffffffffffffffffffffffffffffff16815260200190815260200160002060008282546119249190613ea0565b92505081905550816002600083815260200190815260200160002060006101000a81548173ffffffffffffffffffffffffffffffffffffffff021916908373ffffffffffffffffffffffffffffffffffffffff160217905550808273ffffffffffffffffffffffffffffffffffffffff168473ffffffffffffffffffffffffffffffffffffffff167fddf252ad1be2c89b69c2b068fc378daa952ba7f163c4a11628f55a4df523b3ef60405160405180910390a4505050565b6119e682611576565b611a25576040517f08c379a0000000000000000000000000000000000000000000000000000000008152600401611a1c90613c1b565b60405180910390fd5b80600a60008481526020019081526020016000209080519060200190611a4c929190612e09565b505050565b611a5b8282610e40565b611aea57611a808173ffffffffffffffffffffffffffffffffffffffff166014611fcc565b611a8e8360001c6020611fcc565b604051602001611a9f9291906139a2565b6040516020818303038152906040526040517f08c379a0000000000000000000000000000000000000000000000000000000008152600401611ae19190613a79565b60405180910390fd5b5050565b611af88282610e40565b611bcb576001600b600084815260200190815260200160002060000160008373ffffffffffffffffffffffffffffffffffffffff1673ffffffffffffffffffffffffffffffffffffffff16815260200190815260200160002060006101000a81548160ff021916908315150217905550611b706115e2565b73ffffffffffffffffffffffffffffffffffffffff168173ffffffffffffffffffffffffffffffffffffffff16837f2f8788117e7eff1d82e926ec794901d17c78024a50270940304540a733656f0d60405160405180910390a45b5050565b611bd98282610e40565b15611cad576000600b600084815260200190815260200160002060000160008373ffffffffffffffffffffffffffffffffffffffff1673ffffffffffffffffffffffffffffffffffffffff16815260200190815260200160002060006101000a81548160ff021916908315150217905550611c526115e2565b73ffffffffffffffffffffffffffffffffffffffff168173ffffffffffffffffffffffffffffffffffffffff16837ff6391f5c32d9c69d2a47ea670b442974b53935d1edc7fd64eb21e047a839171b60405160405180910390a45b5050565b611cbc848484611781565b611cc884848484612208565b611d07576040517f08c379a0000000000000000000000000000000000000000000000000000000008152600401611cfe90613afb565b60405180910390fd5b50505050565b6060611d1882611576565b611d57576040517f08c379a0000000000000000000000000000000000000000000000000000000008152600401611d4e90613c7b565b60405180910390fd5b6000600a60008481526020019081526020016000208054611d779061409f565b80601f0160208091040260200160405190810160405280929190818152602001828054611da39061409f565b8015611df05780601f10611dc557610100808354040283529160200191611df0565b820191906000526020600020905b815481529060010190602001808311611dd357829003601f168201915b505050505090506000611e0161239f565b9050600081511415611e17578192505050611e5a565b600082511115611e4c578082604051602001611e3492919061397e565b60405160208183030381529060405292505050611e5a565b611e55846123b6565b925050505b919050565b60008183611e6d9190613ea0565b905092915050565b600081600001549050919050565b611e8d828261245d565b80600e60008473ffffffffffffffffffffffffffffffffffffffff1673ffffffffffffffffffffffffffffffffffffffff168152602001908152602001600020819055506001600f60008473ffffffffffffffffffffffffffffffffffffffff1673ffffffffffffffffffffffffffffffffffffffff1681526020019081526020016000206000828254611f219190613ea0565b925050819055505050565b6001816000016000828254019250508190555050565b60007f780e9d63000000000000000000000000000000000000000000000000000000007bffffffffffffffffffffffffffffffffffffffffffffffffffffffff1916827bffffffffffffffffffffffffffffffffffffffffffffffffffffffff19161480611fb55750611fb48261247b565b5b9050919050565b611fc783838361255d565b505050565b606060006002836002611fdf9190613f27565b611fe99190613ea0565b67ffffffffffffffff81111561200257612001614267565b5b6040519080825280601f01601f1916602001820160405280156120345781602001600182028036833780820191505090505b5090507f30000000000000000000000000000000000000000000000000000000000000008160008151811061206c5761206b614238565b5b60200101907effffffffffffffffffffffffffffffffffffffffffffffffffffffffffffff1916908160001a9053507f7800000000000000000000000000000000000000000000000000000000000000816001815181106120d0576120cf614238565b5b60200101907effffffffffffffffffffffffffffffffffffffffffffffffffffffffffffff1916908160001a905350600060018460026121109190613f27565b61211a9190613ea0565b90505b60018111156121ba577f3031323334353637383961626364656600000000000000000000000000000000600f86166010811061215c5761215b614238565b5b1a60f81b82828151811061217357612172614238565b5b60200101907effffffffffffffffffffffffffffffffffffffffffffffffffffffffffffff1916908160001a905350600485901c9450806121b390614075565b905061211d565b50600084146121fe576040517f08c379a00000000000000000000000000000000000000000000000000000000081526004016121f590613a9b565b60405180910390fd5b8091505092915050565b60006122298473ffffffffffffffffffffffffffffffffffffffff16612671565b15612392578373ffffffffffffffffffffffffffffffffffffffff1663150b7a026122526115e2565b8786866040518563ffffffff1660e01b815260040161227494939291906139f7565b602060405180830381600087803b15801561228e57600080fd5b505af19250505080156122bf57506040513d601f19601f820116820180604052508101906122bc919061331d565b60015b612342573d80600081146122ef576040519150601f19603f3d011682016040523d82523d6000602084013e6122f4565b606091505b5060008151141561233a576040517f08c379a000000000000000000000000000000000000000000000000000000000815260040161233190613afb565b60405180910390fd5b805181602001fd5b63150b7a0260e01b7bffffffffffffffffffffffffffffffffffffffffffffffffffffffff1916817bffffffffffffffffffffffffffffffffffffffffffffffffffffffff191614915050612397565b600190505b949350505050565b606060405180602001604052806000815250905090565b60606123c182611576565b612400576040517f08c379a00000000000000000000000000000000000000000000000000000000081526004016123f790613cdb565b60405180910390fd5b600061240a61239f565b9050600081511161242a5760405180602001604052806000815250612455565b8061243484612684565b60405160200161244592919061397e565b6040516020818303038152906040525b915050919050565b6124778282604051806020016040528060008152506127e5565b5050565b60007f80ac58cd000000000000000000000000000000000000000000000000000000007bffffffffffffffffffffffffffffffffffffffffffffffffffffffff1916827bffffffffffffffffffffffffffffffffffffffffffffffffffffffff1916148061254657507f5b5e139f000000000000000000000000000000000000000000000000000000007bffffffffffffffffffffffffffffffffffffffffffffffffffffffff1916827bffffffffffffffffffffffffffffffffffffffffffffffffffffffff1916145b80612556575061255582612840565b5b9050919050565b6125688383836128aa565b600073ffffffffffffffffffffffffffffffffffffffff168373ffffffffffffffffffffffffffffffffffffffff1614156125ab576125a6816128af565b6125ea565b8173ffffffffffffffffffffffffffffffffffffffff168373ffffffffffffffffffffffffffffffffffffffff16146125e9576125e883826128f8565b5b5b600073ffffffffffffffffffffffffffffffffffffffff168273ffffffffffffffffffffffffffffffffffffffff16141561262d5761262881612a65565b61266c565b8273ffffffffffffffffffffffffffffffffffffffff168273ffffffffffffffffffffffffffffffffffffffff161461266b5761266a8282612b36565b5b5b505050565b600080823b905060008111915050919050565b606060008214156126cc576040518060400160405280600181526020017f300000000000000000000000000000000000000000000000000000000000000081525090506127e0565b600082905060005b600082146126fe5780806126e790614102565b915050600a826126f79190613ef6565b91506126d4565b60008167ffffffffffffffff81111561271a57612719614267565b5b6040519080825280601f01601f19166020018201604052801561274c5781602001600182028036833780820191505090505b5090505b600085146127d9576001826127659190613f81565b9150600a85612774919061414b565b60306127809190613ea0565b60f81b81838151811061279657612795614238565b5b60200101907effffffffffffffffffffffffffffffffffffffffffffffffffffffffffffff1916908160001a905350600a856127d29190613ef6565b9450612750565b8093505050505b919050565b6127ef8383612bb5565b6127fc6000848484612208565b61283b576040517f08c379a000000000000000000000000000000000000000000000000000000000815260040161283290613afb565b60405180910390fd5b505050565b60007f01ffc9a7000000000000000000000000000000000000000000000000000000007bffffffffffffffffffffffffffffffffffffffffffffffffffffffff1916827bffffffffffffffffffffffffffffffffffffffffffffffffffffffff1916149050919050565b505050565b6008805490506009600083815260200190815260200160002081905550600881908060018154018082558091505060019003906000526020600020016000909190919091505550565b6000600161290584610d82565b61290f9190613f81565b90506000600760008481526020019081526020016000205490508181146129f4576000600660008673ffffffffffffffffffffffffffffffffffffffff1673ffffffffffffffffffffffffffffffffffffffff168152602001908152602001600020600084815260200190815260200160002054905080600660008773ffffffffffffffffffffffffffffffffffffffff1673ffffffffffffffffffffffffffffffffffffffff168152602001908152602001600020600084815260200190815260200160002081905550816007600083815260200190815260200160002081905550505b6007600084815260200190815260200160002060009055600660008573ffffffffffffffffffffffffffffffffffffffff1673ffffffffffffffffffffffffffffffffffffffff16815260200190815260200160002060008381526020019081526020016000206000905550505050565b60006001600880549050612a799190613f81565b9050600060096000848152602001908152602001600020549050600060088381548110612aa957612aa8614238565b5b906000526020600020015490508060088381548110612acb57612aca614238565b5b906000526020600020018190555081600960008381526020019081526020016000208190555060096000858152602001908152602001600020600090556008805480612b1a57612b19614209565b5b6001900381819060005260206000200160009055905550505050565b6000612b4183610d82565b905081600660008573ffffffffffffffffffffffffffffffffffffffff1673ffffffffffffffffffffffffffffffffffffffff168152602001908152602001600020600083815260200190815260200160002081905550806007600084815260200190815260200160002081905550505050565b600073ffffffffffffffffffffffffffffffffffffffff168273ffffffffffffffffffffffffffffffffffffffff161415612c25576040517f08c379a0000000000000000000000000000000000000000000000000000000008152600401612c1c90613c5b565b60405180910390fd5b612c2e81611576565b15612c6e576040517f08c379a0000000000000000000000000000000000000000000000000000000008152600401612c6590613b1b565b60405180910390fd5b612c7a60008383611fbc565b6001600360008473ffffffffffffffffffffffffffffffffffffffff1673ffffffffffffffffffffffffffffffffffffffff1681526020019081526020016000206000828254612cca9190613ea0565b92505081905550816002600083815260200190815260200160002060006101000a81548173ffffffffffffffffffffffffffffffffffffffff021916908373ffffffffffffffffffffffffffffffffffffffff160217905550808273ffffffffffffffffffffffffffffffffffffffff16600073ffffffffffffffffffffffffffffffffffffffff167fddf252ad1be2c89b69c2b068fc378daa952ba7f163c4a11628f55a4df523b3ef60405160405180910390a45050565b828054612d8f9061409f565b90600052602060002090601f016020900481019282612db15760008555612df8565b82601f10612dca57803560ff1916838001178555612df8565b82800160010185558215612df8579182015b82811115612df7578235825591602001919060010190612ddc565b5b509050612e059190612e8f565b5090565b828054612e159061409f565b90600052602060002090601f016020900481019282612e375760008555612e7e565b82601f10612e5057805160ff1916838001178555612e7e565b82800160010185558215612e7e579182015b82811115612e7d578251825591602001919060010190612e62565b5b509050612e8b9190612e8f565b5090565b5b80821115612ea8576000816000905550600101612e90565b5090565b6000612ebf612eba84613dfb565b613dd6565b905082815260208101848484011115612edb57612eda6142a5565b5b612ee6848285614033565b509392505050565b6000612f01612efc84613e2c565b613dd6565b905082815260208101848484011115612f1d57612f1c6142a5565b5b612f28848285614033565b509392505050565b600081359050612f3f81614a10565b92915050565b600081359050612f5481614a27565b92915050565b600081359050612f6981614a3e565b92915050565b600081359050612f7e81614a55565b92915050565b600081519050612f9381614a55565b92915050565b600082601f830112612fae57612fad61429b565b5b8135612fbe848260208601612eac565b91505092915050565b60008083601f840112612fdd57612fdc61429b565b5b8235905067ffffffffffffffff811115612ffa57612ff9614296565b5b602083019150836001820283011115613016576130156142a0565b5b9250929050565b600082601f8301126130325761303161429b565b5b8135613042848260208601612eee565b91505092915050565b60008135905061305a81614a6c565b92915050565b600060208284031215613076576130756142af565b5b600061308484828501612f30565b91505092915050565b600080604083850312156130a4576130a36142af565b5b60006130b285828601612f30565b92505060206130c385828601612f30565b9150509250929050565b6000806000606084860312156130e6576130e56142af565b5b60006130f486828701612f30565b935050602061310586828701612f30565b92505060406131168682870161304b565b9150509250925092565b6000806000806080858703121561313a576131396142af565b5b600061314887828801612f30565b945050602061315987828801612f30565b935050604061316a8782880161304b565b925050606085013567ffffffffffffffff81111561318b5761318a6142aa565b5b61319787828801612f99565b91505092959194509250565b600080604083850312156131ba576131b96142af565b5b60006131c885828601612f30565b92505060206131d985828601612f45565b9150509250929050565b6000806000604084860312156131fc576131fb6142af565b5b600061320a86828701612f30565b935050602084013567ffffffffffffffff81111561322b5761322a6142aa565b5b61323786828701612fc7565b92509250509250925092565b6000806040838503121561325a576132596142af565b5b600061326885828601612f30565b92505060206132798582860161304b565b9150509250929050565b600060208284031215613299576132986142af565b5b60006132a784828501612f5a565b91505092915050565b600080604083850312156132c7576132c66142af565b5b60006132d585828601612f5a565b92505060206132e685828601612f30565b9150509250929050565b600060208284031215613306576133056142af565b5b600061331484828501612f6f565b91505092915050565b600060208284031215613333576133326142af565b5b600061334184828501612f84565b91505092915050565b60008060008060408587031215613364576133636142af565b5b600085013567ffffffffffffffff811115613382576133816142aa565b5b61338e87828801612fc7565b9450945050602085013567ffffffffffffffff8111156133b1576133b06142aa565b5b6133bd87828801612fc7565b925092505092959194509250565b6000602082840312156133e1576133e06142af565b5b600082013567ffffffffffffffff8111156133ff576133fe6142aa565b5b61340b8482850161301d565b91505092915050565b60006020828403121561342a576134296142af565b5b60006134388482850161304b565b91505092915050565b60008060006060848603121561345a576134596142af565b5b60006134688682870161304b565b935050602084013567ffffffffffffffff811115613489576134886142aa565b5b6134958682870161301d565b92505060406134a686828701612f30565b9150509250925092565b6134b981613fb5565b82525050565b6134c881613fc7565b82525050565b6134d781613fd3565b82525050565b60006134e882613e5d565b6134f28185613e73565b9350613502818560208601614042565b61350b816142b4565b840191505092915050565b60006135228385613e95565b935061352f838584614033565b82840190509392505050565b600061354682613e68565b6135508185613e84565b9350613560818560208601614042565b613569816142b4565b840191505092915050565b600061357f82613e68565b6135898185613e95565b9350613599818560208601614042565b80840191505092915050565b60006135b2602083613e84565b91506135bd826142c5565b602082019050919050565b60006135d5602483613e84565b91506135e0826142ee565b604082019050919050565b60006135f8602b83613e84565b91506136038261433d565b604082019050919050565b600061361b603283613e84565b91506136268261438c565b604082019050919050565b600061363e601c83613e84565b9150613649826143db565b602082019050919050565b6000613661602483613e84565b915061366c82614404565b604082019050919050565b6000613684601983613e84565b915061368f82614453565b602082019050919050565b60006136a7601883613e84565b91506136b28261447c565b602082019050919050565b60006136ca602c83613e84565b91506136d5826144a5565b604082019050919050565b60006136ed603883613e84565b91506136f8826144f4565b604082019050919050565b6000613710602a83613e84565b915061371b82614543565b604082019050919050565b6000613733602983613e84565b915061373e82614592565b604082019050919050565b6000613756602e83613e84565b9150613761826145e1565b604082019050919050565b6000613779601a83613e84565b915061378482614630565b602082019050919050565b600061379c602083613e84565b91506137a782614659565b602082019050919050565b60006137bf603183613e84565b91506137ca82614682565b604082019050919050565b60006137e2602c83613e84565b91506137ed826146d1565b604082019050919050565b6000613805602983613e84565b915061381082614720565b604082019050919050565b6000613828602f83613e84565b91506138338261476f565b604082019050919050565b600061384b602183613e84565b9150613856826147be565b604082019050919050565b600061386e604983613e84565b91506138798261480d565b606082019050919050565b6000613891603183613e84565b915061389c82614882565b604082019050919050565b60006138b4602c83613e84565b91506138bf826148d1565b604082019050919050565b60006138d7601783613e95565b91506138e282614920565b601782019050919050565b60006138fa602283613e84565b915061390582614949565b604082019050919050565b600061391d601183613e95565b915061392882614998565b601182019050919050565b6000613940602f83613e84565b915061394b826149c1565b604082019050919050565b61395f81614029565b82525050565b6000613972828486613516565b91508190509392505050565b600061398a8285613574565b91506139968284613574565b91508190509392505050565b60006139ad826138ca565b91506139b98285613574565b91506139c482613910565b91506139d08284613574565b91508190509392505050565b60006020820190506139f160008301846134b0565b92915050565b6000608082019050613a0c60008301876134b0565b613a1960208301866134b0565b613a266040830185613956565b8181036060830152613a3881846134dd565b905095945050505050565b6000602082019050613a5860008301846134bf565b92915050565b6000602082019050613a7360008301846134ce565b92915050565b60006020820190508181036000830152613a93818461353b565b905092915050565b60006020820190508181036000830152613ab4816135a5565b9050919050565b60006020820190508181036000830152613ad4816135c8565b9050919050565b60006020820190508181036000830152613af4816135eb565b9050919050565b60006020820190508181036000830152613b148161360e565b9050919050565b60006020820190508181036000830152613b3481613631565b9050919050565b60006020820190508181036000830152613b5481613654565b9050919050565b60006020820190508181036000830152613b7481613677565b9050919050565b60006020820190508181036000830152613b948161369a565b9050919050565b60006020820190508181036000830152613bb4816136bd565b9050919050565b60006020820190508181036000830152613bd4816136e0565b9050919050565b60006020820190508181036000830152613bf481613703565b9050919050565b60006020820190508181036000830152613c1481613726565b9050919050565b60006020820190508181036000830152613c3481613749565b9050919050565b60006020820190508181036000830152613c548161376c565b9050919050565b60006020820190508181036000830152613c748161378f565b9050919050565b60006020820190508181036000830152613c94816137b2565b9050919050565b60006020820190508181036000830152613cb4816137d5565b9050919050565b60006020820190508181036000830152613cd4816137f8565b9050919050565b60006020820190508181036000830152613cf48161381b565b9050919050565b60006020820190508181036000830152613d148161383e565b9050919050565b60006020820190508181036000830152613d3481613861565b9050919050565b60006020820190508181036000830152613d5481613884565b9050919050565b60006020820190508181036000830152613d74816138a7565b9050919050565b60006020820190508181036000830152613d94816138ed565b9050919050565b60006020820190508181036000830152613db481613933565b9050919050565b6000602082019050613dd06000830184613956565b92915050565b6000613de0613df1565b9050613dec82826140d1565b919050565b6000604051905090565b600067ffffffffffffffff821115613e1657613e15614267565b5b613e1f826142b4565b9050602081019050919050565b600067ffffffffffffffff821115613e4757613e46614267565b5b613e50826142b4565b9050602081019050919050565b600081519050919050565b600081519050919050565b600082825260208201905092915050565b600082825260208201905092915050565b600081905092915050565b6000613eab82614029565b9150613eb683614029565b9250827fffffffffffffffffffffffffffffffffffffffffffffffffffffffffffffffff03821115613eeb57613eea61417c565b5b828201905092915050565b6000613f0182614029565b9150613f0c83614029565b925082613f1c57613f1b6141ab565b5b828204905092915050565b6000613f3282614029565b9150613f3d83614029565b9250817fffffffffffffffffffffffffffffffffffffffffffffffffffffffffffffffff0483118215151615613f7657613f7561417c565b5b828202905092915050565b6000613f8c82614029565b9150613f9783614029565b925082821015613faa57613fa961417c565b5b828203905092915050565b6000613fc082614009565b9050919050565b60008115159050919050565b6000819050919050565b60007fffffffff0000000000000000000000000000000000000000000000000000000082169050919050565b600073ffffffffffffffffffffffffffffffffffffffff82169050919050565b6000819050919050565b82818337600083830152505050565b60005b83811015614060578082015181840152602081019050614045565b8381111561406f576000848401525b50505050565b600061408082614029565b915060008214156140945761409361417c565b5b600182039050919050565b600060028204905060018216806140b757607f821691505b602082108114156140cb576140ca6141da565b5b50919050565b6140da826142b4565b810181811067ffffffffffffffff821117156140f9576140f8614267565b5b80604052505050565b600061410d82614029565b91507fffffffffffffffffffffffffffffffffffffffffffffffffffffffffffffffff8214156141405761413f61417c565b5b600182019050919050565b600061415682614029565b915061416183614029565b925082614171576141706141ab565b5b828206905092915050565b7f4e487b7100000000000000000000000000000000000000000000000000000000600052601160045260246000fd5b7f4e487b7100000000000000000000000000000000000000000000000000000000600052601260045260246000fd5b7f4e487b7100000000000000000000000000000000000000000000000000000000600052602260045260246000fd5b7f4e487b7100000000000000000000000000000000000000000000000000000000600052603160045260246000fd5b7f4e487b7100000000000000000000000000000000000000000000000000000000600052603260045260246000fd5b7f4e487b7100000000000000000000000000000000000000000000000000000000600052604160045260246000fd5b600080fd5b600080fd5b600080fd5b600080fd5b600080fd5b600080fd5b6000601f19601f8301169050919050565b7f537472696e67733a20686578206c656e67746820696e73756666696369656e74600082015250565b7f53616c65206973206f7665722c20616c6c20636f6c6c65637461626c6573207360008201527f6f6c642e00000000000000000000000000000000000000000000000000000000602082015250565b7f455243373231456e756d657261626c653a206f776e657220696e646578206f7560008201527f74206f6620626f756e6473000000000000000000000000000000000000000000602082015250565b7f4552433732313a207472616e7366657220746f206e6f6e20455243373231526560008201527f63656976657220696d706c656d656e7465720000000000000000000000000000602082015250565b7f4552433732313a20746f6b656e20616c7265616479206d696e74656400000000600082015250565b7f4552433732313a207472616e7366657220746f20746865207a65726f2061646460008201527f7265737300000000000000000000000000000000000000000000000000000000602082015250565b7f4552433732313a20617070726f766520746f2063616c6c657200000000000000600082015250565b7f53616c65206973206e6f206c6f6e676572206163746976650000000000000000600082015250565b7f4552433732313a206f70657261746f7220717565727920666f72206e6f6e657860008201527f697374656e7420746f6b656e0000000000000000000000000000000000000000602082015250565b7f4552433732313a20617070726f76652063616c6c6572206973206e6f74206f7760008201527f6e6572206e6f7220617070726f76656420666f7220616c6c0000000000000000602082015250565b7f4552433732313a2062616c616e636520717565727920666f7220746865207a6560008201527f726f206164647265737300000000000000000000000000000000000000000000602082015250565b7f4552433732313a206f776e657220717565727920666f72206e6f6e657869737460008201527f656e7420746f6b656e0000000000000000000000000000000000000000000000602082015250565b7f45524337323155524953746f726167653a2055524920736574206f66206e6f6e60008201527f6578697374656e7420746f6b656e000000000000000000000000000000000000602082015250565b7f506c6561736520456e7465722056616c69642041646472657373000000000000600082015250565b7f4552433732313a206d696e7420746f20746865207a65726f2061646472657373600082015250565b7f45524337323155524953746f726167653a2055524920717565727920666f722060008201527f6e6f6e6578697374656e7420746f6b656e000000000000000000000000000000602082015250565b7f4552433732313a20617070726f76656420717565727920666f72206e6f6e657860008201527f697374656e7420746f6b656e0000000000000000000000000000000000000000602082015250565b7f4552433732313a207472616e73666572206f6620746f6b656e2074686174206960008201527f73206e6f74206f776e0000000000000000000000000000000000000000000000602082015250565b7f4552433732314d657461646174613a2055524920717565727920666f72206e6f60008201527f6e6578697374656e7420746f6b656e0000000000000000000000000000000000602082015250565b7f4552433732313a20617070726f76616c20746f2063757272656e74206f776e6560008201527f7200000000000000000000000000000000000000000000000000000000000000602082015250565b7f53616c6520697320616c6d6f7374206f7665722c20776973686573206172652060008201527f72756e6e696e67206c6f772e20506c65617365207075726368617365206c657360208201527f73207769736865732e0000000000000000000000000000000000000000000000604082015250565b7f4552433732313a207472616e736665722063616c6c6572206973206e6f74206f60008201527f776e6572206e6f7220617070726f766564000000000000000000000000000000602082015250565b7f455243373231456e756d657261626c653a20676c6f62616c20696e646578206f60008201527f7574206f6620626f756e64730000000000000000000000000000000000000000602082015250565b7f416363657373436f6e74726f6c3a206163636f756e7420000000000000000000600082015250565b7f596f7520617265206e6f7420617070726f766564206f7220746865206f776e6560008201527f722e000000000000000000000000000000000000000000000000000000000000602082015250565b7f206973206d697373696e6720726f6c6520000000000000000000000000000000600082015250565b7f416363657373436f6e74726f6c3a2063616e206f6e6c792072656e6f756e636560008201527f20726f6c657320666f722073656c660000000000000000000000000000000000602082015250565b614a1981613fb5565b8114614a2457600080fd5b50565b614a3081613fc7565b8114614a3b57600080fd5b50565b614a4781613fd3565b8114614a5257600080fd5b50565b614a5e81613fdd565b8114614a6957600080fd5b50565b614a7581614029565b8114614a8057600080fd5b5056fea264697066735822122001041d236e5c765653370a473300f0a752f66f2619b2c79bb11dc5cd6de1da9c64736f6c63430008070033",
  "immutableReferences": {},
  "source": "// SPDX-License-Identifier: MIT\npragma solidity ^0.8.0;\n\nimport \"@openzeppelin/contracts/token/ERC721/extensions/ERC721URIStorage.sol\";\nimport \"@openzeppelin/contracts/token/ERC721/extensions/ERC721Enumerable.sol\";\nimport \"@openzeppelin/contracts/token/ERC721/ERC721.sol\";\nimport \"@openzeppelin/contracts/access/AccessControl.sol\";\nimport \"@openzeppelin/contracts/utils/Counters.sol\";\nimport \"@openzeppelin/contracts/utils/math/SafeMath.sol\";\n\n\n\n\n\n/*\n* If we are using a .py Script\n*/ \n\ncontract MyWish is ERC721Enumerable, ERC721URIStorage, AccessControl {\n    \n    using Counters for Counters.Counter; \n    using SafeMath for uint256; \n    \n\n    Counters.Counter private _tokenId; \n    bytes32 public constant MINTER_ROLE = keccak256(\"MINTER_ROLE\");\n    uint256 public constant _totalWishes = 10000; \n    bool internal saleIsActive = false; \n    uint256 public constant _maxPurchaseAllowed = 20; \n\n\n    mapping(address => uint256)public getTokenId;\n    mapping(address => uint256)public balances;\n    mapping(string => string)public URIS;\n    string  __name = \"MyWish\";\n    //Add mapping token URIs\n    //Test this need to deploy a test net\\usepackage{graphicx}\n\n\n\n    constructor() ERC721(\"MyWish\",\"WSH\") {\n        _setupRole(DEFAULT_ADMIN_ROLE,msg.sender);\n        _setRoleAdmin(MINTER_ROLE, DEFAULT_ADMIN_ROLE);\n\n        \n    }\n\n    function createCollectable(address to, string calldata tokenParams) public  returns(bool) {\n        require(saleIsActive, \"Sale is no longer active\");\n        require(totalSupply() < _totalWishes, \"Sale is over, all collectables sold.\"); //Might not need this one\n        require(SafeMath.add(totalSupply(), 1) <= _totalWishes, \"Sale is almost over, wishes are running low. Please purchase less wishes.\");\n        \n        safeMint(to, _tokenId.current());\n        \n        setTokenURI(_tokenId.current(), URIS[tokenParams],to);\n\n        _tokenId.increment();\n        return true;\n        \n    }\n\n    function safeMint(address to, uint256 tokenId) private {\n        _safeMint(to, tokenId);\n        getTokenId[to] = tokenId;\n        balances[to] += 1;\n\n    }\n\n    // function flipStateOfSale() public view onlyOwner { //not sure if I need view\n    //     saleIsActive != saleIsActive; \n    // }\n\n    function _beforeTokenTransfer(address from, address to, uint256 tokenId) \n        internal \n        override(ERC721, ERC721Enumerable) {\n\n        super._beforeTokenTransfer(from, to, tokenId);\n    }\n\n    function supportsInterface(bytes4 interfaceId) \n        public \n        view \n        override(ERC721, ERC721Enumerable, AccessControl) \n        returns (bool) {\n\n        return super.supportsInterface(interfaceId);\n    }\n\n    function setTokenURI(uint256 tokenId, string memory _tokenUri, address to) public {\n        require(\n            _isApprovedOrOwner(to, tokenId),\n            \"You are not approved or the owner.\"\n        );\n        _setTokenURI(tokenId,_tokenUri);\n    }\n    \n    function _burn(uint256 tokenId) internal override(ERC721, ERC721URIStorage) {\n        super._burn(tokenId);\n    }\n\n    function tokenURI(uint256 tokenId)\n        public\n        view\n        override(ERC721, ERC721URIStorage)\n        returns (string memory)\n    {\n        return super.tokenURI(tokenId);\n    }\n    \n\n    function setMinterRole(address minter) public onlyRole(DEFAULT_ADMIN_ROLE) {\n        require(minter != address(0),\"Please Enter Valid Address\");\n        grantRole(MINTER_ROLE,minter);\n       \n    }\n  \n    function getName_TEST() public view  returns(bool) {\n        require(hasRole(MINTER_ROLE,msg.sender));\n        return true;\n    }\n\n    function setURIMapping(string calldata tokenString, string calldata URI) public {\n        URIS[tokenString] = URI;\n    }\n\n} \n\n\n\n\n",
  "sourcePath": "/Users/zlederman/Documents/Code/js/truffle-react/contracts/MyWish.sol",
  "compiler": {
    "name": "solc",
    "version": "0.8.7+commit.e28d00a7.Emscripten.clang"
  },
  "schemaVersion": "3.4.2",
  "updatedAt": "2021-09-20T02:45:21.478Z",
  "devdoc": {
    "kind": "dev",
    "methods": {
      "approve(address,uint256)": {
        "details": "See {IERC721-approve}."
      },
      "balanceOf(address)": {
        "details": "See {IERC721-balanceOf}."
      },
      "getApproved(uint256)": {
        "details": "See {IERC721-getApproved}."
      },
      "getRoleAdmin(bytes32)": {
        "details": "Returns the admin role that controls `role`. See {grantRole} and {revokeRole}. To change a role's admin, use {_setRoleAdmin}."
      },
      "grantRole(bytes32,address)": {
        "details": "Grants `role` to `account`. If `account` had not been already granted `role`, emits a {RoleGranted} event. Requirements: - the caller must have ``role``'s admin role."
      },
      "hasRole(bytes32,address)": {
        "details": "Returns `true` if `account` has been granted `role`."
      },
      "isApprovedForAll(address,address)": {
        "details": "See {IERC721-isApprovedForAll}."
      },
      "name()": {
        "details": "See {IERC721Metadata-name}."
      },
      "ownerOf(uint256)": {
        "details": "See {IERC721-ownerOf}."
      },
      "renounceRole(bytes32,address)": {
        "details": "Revokes `role` from the calling account. Roles are often managed via {grantRole} and {revokeRole}: this function's purpose is to provide a mechanism for accounts to lose their privileges if they are compromised (such as when a trusted device is misplaced). If the calling account had been granted `role`, emits a {RoleRevoked} event. Requirements: - the caller must be `account`."
      },
      "revokeRole(bytes32,address)": {
        "details": "Revokes `role` from `account`. If `account` had been granted `role`, emits a {RoleRevoked} event. Requirements: - the caller must have ``role``'s admin role."
      },
      "safeTransferFrom(address,address,uint256)": {
        "details": "See {IERC721-safeTransferFrom}."
      },
      "safeTransferFrom(address,address,uint256,bytes)": {
        "details": "See {IERC721-safeTransferFrom}."
      },
      "setApprovalForAll(address,bool)": {
        "details": "See {IERC721-setApprovalForAll}."
      },
      "symbol()": {
        "details": "See {IERC721Metadata-symbol}."
      },
      "tokenByIndex(uint256)": {
        "details": "See {IERC721Enumerable-tokenByIndex}."
      },
      "tokenOfOwnerByIndex(address,uint256)": {
        "details": "See {IERC721Enumerable-tokenOfOwnerByIndex}."
      },
      "totalSupply()": {
        "details": "See {IERC721Enumerable-totalSupply}."
      },
      "transferFrom(address,address,uint256)": {
        "details": "See {IERC721-transferFrom}."
      }
    },
    "version": 1
  },
  "userdoc": {
    "kind": "user",
    "methods": {},
    "version": 1
  }
}