{
  "contractName": "MyWish",
  "abi": [
    {
      "inputs": [],
      "stateMutability": "nonpayable",
      "type": "constructor"
    },
    {
      "anonymous": false,
      "inputs": [
        {
          "indexed": true,
          "internalType": "address",
          "name": "owner",
          "type": "address"
        },
        {
          "indexed": true,
          "internalType": "address",
          "name": "approved",
          "type": "address"
        },
        {
          "indexed": true,
          "internalType": "uint256",
          "name": "tokenId",
          "type": "uint256"
        }
      ],
      "name": "Approval",
      "type": "event"
    },
    {
      "anonymous": false,
      "inputs": [
        {
          "indexed": true,
          "internalType": "address",
          "name": "owner",
          "type": "address"
        },
        {
          "indexed": true,
          "internalType": "address",
          "name": "operator",
          "type": "address"
        },
        {
          "indexed": false,
          "internalType": "bool",
          "name": "approved",
          "type": "bool"
        }
      ],
      "name": "ApprovalForAll",
      "type": "event"
    },
    {
      "anonymous": false,
      "inputs": [
        {
          "indexed": true,
          "internalType": "bytes32",
          "name": "role",
          "type": "bytes32"
        },
        {
          "indexed": true,
          "internalType": "bytes32",
          "name": "previousAdminRole",
          "type": "bytes32"
        },
        {
          "indexed": true,
          "internalType": "bytes32",
          "name": "newAdminRole",
          "type": "bytes32"
        }
      ],
      "name": "RoleAdminChanged",
      "type": "event"
    },
    {
      "anonymous": false,
      "inputs": [
        {
          "indexed": true,
          "internalType": "bytes32",
          "name": "role",
          "type": "bytes32"
        },
        {
          "indexed": true,
          "internalType": "address",
          "name": "account",
          "type": "address"
        },
        {
          "indexed": true,
          "internalType": "address",
          "name": "sender",
          "type": "address"
        }
      ],
      "name": "RoleGranted",
      "type": "event"
    },
    {
      "anonymous": false,
      "inputs": [
        {
          "indexed": true,
          "internalType": "bytes32",
          "name": "role",
          "type": "bytes32"
        },
        {
          "indexed": true,
          "internalType": "address",
          "name": "account",
          "type": "address"
        },
        {
          "indexed": true,
          "internalType": "address",
          "name": "sender",
          "type": "address"
        }
      ],
      "name": "RoleRevoked",
      "type": "event"
    },
    {
      "anonymous": false,
      "inputs": [
        {
          "indexed": true,
          "internalType": "address",
          "name": "from",
          "type": "address"
        },
        {
          "indexed": true,
          "internalType": "address",
          "name": "to",
          "type": "address"
        },
        {
          "indexed": true,
          "internalType": "uint256",
          "name": "tokenId",
          "type": "uint256"
        }
      ],
      "name": "Transfer",
      "type": "event"
    },
    {
      "inputs": [],
      "name": "DEFAULT_ADMIN_ROLE",
      "outputs": [
        {
          "internalType": "bytes32",
          "name": "",
          "type": "bytes32"
        }
      ],
      "stateMutability": "view",
      "type": "function"
    },
    {
      "inputs": [],
      "name": "MINTER_ROLE",
      "outputs": [
        {
          "internalType": "bytes32",
          "name": "",
          "type": "bytes32"
        }
      ],
      "stateMutability": "view",
      "type": "function"
    },
    {
      "inputs": [
        {
          "internalType": "string",
          "name": "",
          "type": "string"
        }
      ],
      "name": "URIS",
      "outputs": [
        {
          "internalType": "string",
          "name": "",
          "type": "string"
        }
      ],
      "stateMutability": "view",
      "type": "function"
    },
    {
      "inputs": [],
      "name": "_maxPurchaseAllowed",
      "outputs": [
        {
          "internalType": "uint256",
          "name": "",
          "type": "uint256"
        }
      ],
      "stateMutability": "view",
      "type": "function"
    },
    {
      "inputs": [],
      "name": "_totalWishes",
      "outputs": [
        {
          "internalType": "uint256",
          "name": "",
          "type": "uint256"
        }
      ],
      "stateMutability": "view",
      "type": "function"
    },
    {
      "inputs": [
        {
          "internalType": "address",
          "name": "to",
          "type": "address"
        },
        {
          "internalType": "uint256",
          "name": "tokenId",
          "type": "uint256"
        }
      ],
      "name": "approve",
      "outputs": [],
      "stateMutability": "nonpayable",
      "type": "function"
    },
    {
      "inputs": [
        {
          "internalType": "address",
          "name": "owner",
          "type": "address"
        }
      ],
      "name": "balanceOf",
      "outputs": [
        {
          "internalType": "uint256",
          "name": "",
          "type": "uint256"
        }
      ],
      "stateMutability": "view",
      "type": "function"
    },
    {
      "inputs": [
        {
          "internalType": "address",
          "name": "",
          "type": "address"
        }
      ],
      "name": "balances",
      "outputs": [
        {
          "internalType": "uint256",
          "name": "",
          "type": "uint256"
        }
      ],
      "stateMutability": "view",
      "type": "function"
    },
    {
      "inputs": [
        {
          "internalType": "uint256",
          "name": "tokenId",
          "type": "uint256"
        }
      ],
      "name": "getApproved",
      "outputs": [
        {
          "internalType": "address",
          "name": "",
          "type": "address"
        }
      ],
      "stateMutability": "view",
      "type": "function"
    },
    {
      "inputs": [
        {
          "internalType": "bytes32",
          "name": "role",
          "type": "bytes32"
        }
      ],
      "name": "getRoleAdmin",
      "outputs": [
        {
          "internalType": "bytes32",
          "name": "",
          "type": "bytes32"
        }
      ],
      "stateMutability": "view",
      "type": "function"
    },
    {
      "inputs": [
        {
          "internalType": "address",
          "name": "",
          "type": "address"
        }
      ],
      "name": "getTokenId",
      "outputs": [
        {
          "internalType": "uint256",
          "name": "",
          "type": "uint256"
        }
      ],
      "stateMutability": "view",
      "type": "function"
    },
    {
      "inputs": [
        {
          "internalType": "bytes32",
          "name": "role",
          "type": "bytes32"
        },
        {
          "internalType": "address",
          "name": "account",
          "type": "address"
        }
      ],
      "name": "grantRole",
      "outputs": [],
      "stateMutability": "nonpayable",
      "type": "function"
    },
    {
      "inputs": [
        {
          "internalType": "bytes32",
          "name": "role",
          "type": "bytes32"
        },
        {
          "internalType": "address",
          "name": "account",
          "type": "address"
        }
      ],
      "name": "hasRole",
      "outputs": [
        {
          "internalType": "bool",
          "name": "",
          "type": "bool"
        }
      ],
      "stateMutability": "view",
      "type": "function"
    },
    {
      "inputs": [
        {
          "internalType": "address",
          "name": "owner",
          "type": "address"
        },
        {
          "internalType": "address",
          "name": "operator",
          "type": "address"
        }
      ],
      "name": "isApprovedForAll",
      "outputs": [
        {
          "internalType": "bool",
          "name": "",
          "type": "bool"
        }
      ],
      "stateMutability": "view",
      "type": "function"
    },
    {
      "inputs": [],
      "name": "name",
      "outputs": [
        {
          "internalType": "string",
          "name": "",
          "type": "string"
        }
      ],
      "stateMutability": "view",
      "type": "function"
    },
    {
      "inputs": [
        {
          "internalType": "uint256",
          "name": "tokenId",
          "type": "uint256"
        }
      ],
      "name": "ownerOf",
      "outputs": [
        {
          "internalType": "address",
          "name": "",
          "type": "address"
        }
      ],
      "stateMutability": "view",
      "type": "function"
    },
    {
      "inputs": [
        {
          "internalType": "bytes32",
          "name": "role",
          "type": "bytes32"
        },
        {
          "internalType": "address",
          "name": "account",
          "type": "address"
        }
      ],
      "name": "renounceRole",
      "outputs": [],
      "stateMutability": "nonpayable",
      "type": "function"
    },
    {
      "inputs": [
        {
          "internalType": "bytes32",
          "name": "role",
          "type": "bytes32"
        },
        {
          "internalType": "address",
          "name": "account",
          "type": "address"
        }
      ],
      "name": "revokeRole",
      "outputs": [],
      "stateMutability": "nonpayable",
      "type": "function"
    },
    {
      "inputs": [
        {
          "internalType": "address",
          "name": "from",
          "type": "address"
        },
        {
          "internalType": "address",
          "name": "to",
          "type": "address"
        },
        {
          "internalType": "uint256",
          "name": "tokenId",
          "type": "uint256"
        }
      ],
      "name": "safeTransferFrom",
      "outputs": [],
      "stateMutability": "nonpayable",
      "type": "function"
    },
    {
      "inputs": [
        {
          "internalType": "address",
          "name": "from",
          "type": "address"
        },
        {
          "internalType": "address",
          "name": "to",
          "type": "address"
        },
        {
          "internalType": "uint256",
          "name": "tokenId",
          "type": "uint256"
        },
        {
          "internalType": "bytes",
          "name": "_data",
          "type": "bytes"
        }
      ],
      "name": "safeTransferFrom",
      "outputs": [],
      "stateMutability": "nonpayable",
      "type": "function"
    },
    {
      "inputs": [
        {
          "internalType": "address",
          "name": "operator",
          "type": "address"
        },
        {
          "internalType": "bool",
          "name": "approved",
          "type": "bool"
        }
      ],
      "name": "setApprovalForAll",
      "outputs": [],
      "stateMutability": "nonpayable",
      "type": "function"
    },
    {
      "inputs": [],
      "name": "symbol",
      "outputs": [
        {
          "internalType": "string",
          "name": "",
          "type": "string"
        }
      ],
      "stateMutability": "view",
      "type": "function"
    },
    {
      "inputs": [
        {
          "internalType": "uint256",
          "name": "index",
          "type": "uint256"
        }
      ],
      "name": "tokenByIndex",
      "outputs": [
        {
          "internalType": "uint256",
          "name": "",
          "type": "uint256"
        }
      ],
      "stateMutability": "view",
      "type": "function"
    },
    {
      "inputs": [
        {
          "internalType": "address",
          "name": "owner",
          "type": "address"
        },
        {
          "internalType": "uint256",
          "name": "index",
          "type": "uint256"
        }
      ],
      "name": "tokenOfOwnerByIndex",
      "outputs": [
        {
          "internalType": "uint256",
          "name": "",
          "type": "uint256"
        }
      ],
      "stateMutability": "view",
      "type": "function"
    },
    {
      "inputs": [],
      "name": "totalSupply",
      "outputs": [
        {
          "internalType": "uint256",
          "name": "",
          "type": "uint256"
        }
      ],
      "stateMutability": "view",
      "type": "function"
    },
    {
      "inputs": [
        {
          "internalType": "address",
          "name": "from",
          "type": "address"
        },
        {
          "internalType": "address",
          "name": "to",
          "type": "address"
        },
        {
          "internalType": "uint256",
          "name": "tokenId",
          "type": "uint256"
        }
      ],
      "name": "transferFrom",
      "outputs": [],
      "stateMutability": "nonpayable",
      "type": "function"
    },
    {
      "inputs": [
        {
          "internalType": "address",
          "name": "to",
          "type": "address"
        },
        {
          "internalType": "string",
          "name": "tokenParams",
          "type": "string"
        }
      ],
      "name": "createCollectable",
      "outputs": [
        {
          "internalType": "bool",
          "name": "",
          "type": "bool"
        }
      ],
      "stateMutability": "nonpayable",
      "type": "function"
    },
    {
      "inputs": [
        {
          "internalType": "bytes4",
          "name": "interfaceId",
          "type": "bytes4"
        }
      ],
      "name": "supportsInterface",
      "outputs": [
        {
          "internalType": "bool",
          "name": "",
          "type": "bool"
        }
      ],
      "stateMutability": "view",
      "type": "function"
    },
    {
      "inputs": [
        {
          "internalType": "uint256",
          "name": "tokenId",
          "type": "uint256"
        },
        {
          "internalType": "string",
          "name": "_tokenUri",
          "type": "string"
        },
        {
          "internalType": "address",
          "name": "to",
          "type": "address"
        }
      ],
      "name": "setTokenURI",
      "outputs": [],
      "stateMutability": "nonpayable",
      "type": "function"
    },
    {
      "inputs": [
        {
          "internalType": "uint256",
          "name": "tokenId",
          "type": "uint256"
        }
      ],
      "name": "tokenURI",
      "outputs": [
        {
          "internalType": "string",
          "name": "",
          "type": "string"
        }
      ],
      "stateMutability": "view",
      "type": "function"
    },
    {
      "inputs": [
        {
          "internalType": "address",
          "name": "minter",
          "type": "address"
        }
      ],
      "name": "setMinterRole",
      "outputs": [],
      "stateMutability": "nonpayable",
      "type": "function"
    },
    {
      "inputs": [],
      "name": "getRole",
      "outputs": [
        {
          "internalType": "bool",
          "name": "",
          "type": "bool"
        }
      ],
      "stateMutability": "view",
      "type": "function"
    },
    {
      "inputs": [
        {
          "internalType": "string",
          "name": "tokenString",
          "type": "string"
        },
        {
          "internalType": "string",
          "name": "URI",
          "type": "string"
        }
      ],
      "name": "setURIMapping",
      "outputs": [],
      "stateMutability": "nonpayable",
      "type": "function"
    }
  ],
  "bytecode": "0x60806040526000600d60006101000a81548160ff0219169083151502179055506040518060400160405280600681526020017f4d79576973680000000000000000000000000000000000000000000000000000815250601190805190602001906200006c92919062000364565b503480156200007a57600080fd5b506040518060400160405280600681526020017f4d795769736800000000000000000000000000000000000000000000000000008152506040518060400160405280600381526020017f57534800000000000000000000000000000000000000000000000000000000008152508160009080519060200190620000ff92919062000364565b5080600190805190602001906200011892919062000364565b505050620001306000801b336200016b60201b60201c565b620001657f9f2df0fed2c77648de5860a4cc508cd0818c85b8b8a1ab4ceeef8d981c8956a66000801b6200018160201b60201c565b62000479565b6200017d8282620001df60201b60201c565b5050565b806200019383620002d160201b60201c565b837fbd79b86ffe0ab8e8776151514217cd7cacd52c909f66475c3af44e129f0b00ff60405160405180910390a480600b6000848152602001908152602001600020600101819055505050565b620001f18282620002f160201b60201c565b620002cd576001600b600084815260200190815260200160002060000160008373ffffffffffffffffffffffffffffffffffffffff1673ffffffffffffffffffffffffffffffffffffffff16815260200190815260200160002060006101000a81548160ff021916908315150217905550620002726200035c60201b60201c565b73ffffffffffffffffffffffffffffffffffffffff168173ffffffffffffffffffffffffffffffffffffffff16837f2f8788117e7eff1d82e926ec794901d17c78024a50270940304540a733656f0d60405160405180910390a45b5050565b6000600b6000838152602001908152602001600020600101549050919050565b6000600b600084815260200190815260200160002060000160008373ffffffffffffffffffffffffffffffffffffffff1673ffffffffffffffffffffffffffffffffffffffff16815260200190815260200160002060009054906101000a900460ff16905092915050565b600033905090565b828054620003729062000443565b90600052602060002090601f016020900481019282620003965760008555620003e2565b82601f10620003b157805160ff1916838001178555620003e2565b82800160010185558215620003e2579182015b82811115620003e1578251825591602001919060010190620003c4565b5b509050620003f19190620003f5565b5090565b5b8082111562000410576000816000905550600101620003f6565b5090565b7f4e487b7100000000000000000000000000000000000000000000000000000000600052602260045260246000fd5b600060028204905060018216806200045c57607f821691505b6020821081141562000473576200047262000414565b5b50919050565b614aec80620004896000396000f3fe608060405234801561001057600080fd5b50600436106101fb5760003560e01c8063642aa5301161011a578063b88d4fde116100ad578063d6a706481161007c578063d6a70648146105f8578063e16cfb8714610616578063e985e9c514610646578063f153768614610676578063fde08174146106a6576101fb565b8063b88d4fde14610572578063c87b56dd1461058e578063d5391393146105be578063d547741f146105dc576101fb565b8063945d1229116100e9578063945d1229146104fe57806395d89b411461051a578063a217fddf14610538578063a22cb46514610556576101fb565b8063642aa5301461045057806370a082311461048057806387fba230146104b057806391d14854146104ce576101fb565b806327e235e31161019257806342842e0e1161016157806342842e0e146103b85780634f6ccce7146103d457806361c1dcf3146104045780636352211e14610420576101fb565b806327e235e3146103205780632f2ff15d146103505780632f745c591461036c57806336568abe1461039c576101fb565b806318160ddd116101ce57806318160ddd1461029a57806323b872dd146102b8578063248a9ca3146102d45780632682b0e414610304576101fb565b806301ffc9a71461020057806306fdde0314610230578063081812fc1461024e578063095ea7b31461027e575b600080fd5b61021a60048036038101906102159190612f4b565b6106c4565b6040516102279190612f93565b60405180910390f35b6102386106d6565b6040516102459190613047565b60405180910390f35b6102686004803603810190610263919061309f565b610768565b604051610275919061310d565b60405180910390f35b61029860048036038101906102939190613154565b6107ed565b005b6102a2610905565b6040516102af91906131a3565b60405180910390f35b6102d260048036038101906102cd91906131be565b610912565b005b6102ee60048036038101906102e99190613247565b610972565b6040516102fb9190613283565b60405180910390f35b61031e600480360381019061031991906133d3565b610992565b005b61033a60048036038101906103359190613442565b6109ea565b60405161034791906131a3565b60405180910390f35b61036a6004803603810190610365919061346f565b610a02565b005b61038660048036038101906103819190613154565b610a2b565b60405161039391906131a3565b60405180910390f35b6103b660048036038101906103b1919061346f565b610ad0565b005b6103d260048036038101906103cd91906131be565b610b53565b005b6103ee60048036038101906103e9919061309f565b610b73565b6040516103fb91906131a3565b60405180910390f35b61041e6004803603810190610419919061350f565b610be4565b005b61043a6004803603810190610435919061309f565b610c1a565b604051610447919061310d565b60405180910390f35b61046a60048036038101906104659190613590565b610ccc565b6040516104779190613047565b60405180910390f35b61049a60048036038101906104959190613442565b610d82565b6040516104a791906131a3565b60405180910390f35b6104b8610e3a565b6040516104c591906131a3565b60405180910390f35b6104e860048036038101906104e3919061346f565b610e40565b6040516104f59190612f93565b60405180910390f35b61051860048036038101906105139190613442565b610eab565b005b610522610f5e565b60405161052f9190613047565b60405180910390f35b610540610ff0565b60405161054d9190613283565b60405180910390f35b610570600480360381019061056b9190613605565b610ff7565b005b61058c600480360381019061058791906136e6565b611178565b005b6105a860048036038101906105a3919061309f565b6111da565b6040516105b59190613047565b60405180910390f35b6105c66111ec565b6040516105d39190613283565b60405180910390f35b6105f660048036038101906105f1919061346f565b611210565b005b610600611239565b60405161060d91906131a3565b60405180910390f35b610630600480360381019061062b9190613769565b61123e565b60405161063d9190612f93565b60405180910390f35b610660600480360381019061065b91906137c9565b611447565b60405161066d9190612f93565b60405180910390f35b610690600480360381019061068b9190613442565b6114db565b60405161069d91906131a3565b60405180910390f35b6106ae6114f3565b6040516106bb9190612f93565b60405180910390f35b60006106cf8261152f565b9050919050565b6060600080546106e590613838565b80601f016020809104026020016040519081016040528092919081815260200182805461071190613838565b801561075e5780601f106107335761010080835404028352916020019161075e565b820191906000526020600020905b81548152906001019060200180831161074157829003601f168201915b5050505050905090565b6000610773826115a9565b6107b2576040517f08c379a00000000000000000000000000000000000000000000000000000000081526004016107a9906138dc565b60405180910390fd5b6004600083815260200190815260200160002060009054906101000a900473ffffffffffffffffffffffffffffffffffffffff169050919050565b60006107f882610c1a565b90508073ffffffffffffffffffffffffffffffffffffffff168373ffffffffffffffffffffffffffffffffffffffff161415610869576040517f08c379a00000000000000000000000000000000000000000000000000000000081526004016108609061396e565b60405180910390fd5b8073ffffffffffffffffffffffffffffffffffffffff16610888611615565b73ffffffffffffffffffffffffffffffffffffffff1614806108b757506108b6816108b1611615565b611447565b5b6108f6576040517f08c379a00000000000000000000000000000000000000000000000000000000081526004016108ed90613a00565b60405180910390fd5b610900838361161d565b505050565b6000600880549050905090565b61092361091d611615565b826116d6565b610962576040517f08c379a000000000000000000000000000000000000000000000000000000000815260040161095990613a92565b60405180910390fd5b61096d8383836117b4565b505050565b6000600b6000838152602001908152602001600020600101549050919050565b61099c81846116d6565b6109db576040517f08c379a00000000000000000000000000000000000000000000000000000000081526004016109d290613b24565b60405180910390fd5b6109e58383611a10565b505050565b600f6020528060005260406000206000915090505481565b610a0b82610972565b610a1c81610a17611615565b611a84565b610a268383611b21565b505050565b6000610a3683610d82565b8210610a77576040517f08c379a0000000000000000000000000000000000000000000000000000000008152600401610a6e90613bb6565b60405180910390fd5b600660008473ffffffffffffffffffffffffffffffffffffffff1673ffffffffffffffffffffffffffffffffffffffff168152602001908152602001600020600083815260200190815260200160002054905092915050565b610ad8611615565b73ffffffffffffffffffffffffffffffffffffffff168173ffffffffffffffffffffffffffffffffffffffff1614610b45576040517f08c379a0000000000000000000000000000000000000000000000000000000008152600401610b3c90613c48565b60405180910390fd5b610b4f8282611c02565b5050565b610b6e83838360405180602001604052806000815250611178565b505050565b6000610b7d610905565b8210610bbe576040517f08c379a0000000000000000000000000000000000000000000000000000000008152600401610bb590613cda565b60405180910390fd5b60088281548110610bd257610bd1613cfa565b5b90600052602060002001549050919050565b818160108686604051610bf8929190613d59565b90815260200160405180910390209190610c13929190612db6565b5050505050565b6000806002600084815260200190815260200160002060009054906101000a900473ffffffffffffffffffffffffffffffffffffffff169050600073ffffffffffffffffffffffffffffffffffffffff168173ffffffffffffffffffffffffffffffffffffffff161415610cc3576040517f08c379a0000000000000000000000000000000000000000000000000000000008152600401610cba90613de4565b60405180910390fd5b80915050919050565b6010818051602081018201805184825260208301602085012081835280955050505050506000915090508054610d0190613838565b80601f0160208091040260200160405190810160405280929190818152602001828054610d2d90613838565b8015610d7a5780601f10610d4f57610100808354040283529160200191610d7a565b820191906000526020600020905b815481529060010190602001808311610d5d57829003601f168201915b505050505081565b60008073ffffffffffffffffffffffffffffffffffffffff168273ffffffffffffffffffffffffffffffffffffffff161415610df3576040517f08c379a0000000000000000000000000000000000000000000000000000000008152600401610dea90613e76565b60405180910390fd5b600360008373ffffffffffffffffffffffffffffffffffffffff1673ffffffffffffffffffffffffffffffffffffffff168152602001908152602001600020549050919050565b61271081565b6000600b600084815260200190815260200160002060000160008373ffffffffffffffffffffffffffffffffffffffff1673ffffffffffffffffffffffffffffffffffffffff16815260200190815260200160002060009054906101000a900460ff16905092915050565b6000801b610ec081610ebb611615565b611a84565b600073ffffffffffffffffffffffffffffffffffffffff168273ffffffffffffffffffffffffffffffffffffffff161415610f30576040517f08c379a0000000000000000000000000000000000000000000000000000000008152600401610f2790613ee2565b60405180910390fd5b610f5a7f9f2df0fed2c77648de5860a4cc508cd0818c85b8b8a1ab4ceeef8d981c8956a683610a02565b5050565b606060018054610f6d90613838565b80601f0160208091040260200160405190810160405280929190818152602001828054610f9990613838565b8015610fe65780601f10610fbb57610100808354040283529160200191610fe6565b820191906000526020600020905b815481529060010190602001808311610fc957829003601f168201915b5050505050905090565b6000801b81565b610fff611615565b73ffffffffffffffffffffffffffffffffffffffff168273ffffffffffffffffffffffffffffffffffffffff16141561106d576040517f08c379a000000000000000000000000000000000000000000000000000000000815260040161106490613f4e565b60405180910390fd5b806005600061107a611615565b73ffffffffffffffffffffffffffffffffffffffff1673ffffffffffffffffffffffffffffffffffffffff16815260200190815260200160002060008473ffffffffffffffffffffffffffffffffffffffff1673ffffffffffffffffffffffffffffffffffffffff16815260200190815260200160002060006101000a81548160ff0219169083151502179055508173ffffffffffffffffffffffffffffffffffffffff16611127611615565b73ffffffffffffffffffffffffffffffffffffffff167f17307eab39ab6107e8899845ad3d59bd9653f200f220920489ca2b5937696c318360405161116c9190612f93565b60405180910390a35050565b611189611183611615565b836116d6565b6111c8576040517f08c379a00000000000000000000000000000000000000000000000000000000081526004016111bf90613a92565b60405180910390fd5b6111d484848484611ce4565b50505050565b60606111e582611d40565b9050919050565b7f9f2df0fed2c77648de5860a4cc508cd0818c85b8b8a1ab4ceeef8d981c8956a681565b61121982610972565b61122a81611225611615565b611a84565b6112348383611c02565b505050565b601481565b60007f9f2df0fed2c77648de5860a4cc508cd0818c85b8b8a1ab4ceeef8d981c8956a66112728161126d611615565b611a84565b600d60009054906101000a900460ff166112c1576040517f08c379a00000000000000000000000000000000000000000000000000000000081526004016112b890613fba565b60405180910390fd5b6127106112cc610905565b1061130c576040517f08c379a00000000000000000000000000000000000000000000000000000000081526004016113039061404c565b60405180910390fd5b61271061132161131a610905565b6001611e92565b1115611362576040517f08c379a000000000000000000000000000000000000000000000000000000000815260040161135990614104565b60405180910390fd5b61137585611370600c611ea8565b611eb6565b611431611382600c611ea8565b60108686604051611394929190613d59565b908152602001604051809103902080546113ad90613838565b80601f01602080910402602001604051908101604052809291908181526020018280546113d990613838565b80156114265780601f106113fb57610100808354040283529160200191611426565b820191906000526020600020905b81548152906001019060200180831161140957829003601f168201915b505050505087610992565b61143b600c611f5f565b60019150509392505050565b6000600560008473ffffffffffffffffffffffffffffffffffffffff1673ffffffffffffffffffffffffffffffffffffffff16815260200190815260200160002060008373ffffffffffffffffffffffffffffffffffffffff1673ffffffffffffffffffffffffffffffffffffffff16815260200190815260200160002060009054906101000a900460ff16905092915050565b600e6020528060005260406000206000915090505481565b60007f9f2df0fed2c77648de5860a4cc508cd0818c85b8b8a1ab4ceeef8d981c8956a661152781611522611615565b611a84565b600191505090565b60007f7965db0b000000000000000000000000000000000000000000000000000000007bffffffffffffffffffffffffffffffffffffffffffffffffffffffff1916827bffffffffffffffffffffffffffffffffffffffffffffffffffffffff191614806115a257506115a182611f75565b5b9050919050565b60008073ffffffffffffffffffffffffffffffffffffffff166002600084815260200190815260200160002060009054906101000a900473ffffffffffffffffffffffffffffffffffffffff1673ffffffffffffffffffffffffffffffffffffffff1614159050919050565b600033905090565b816004600083815260200190815260200160002060006101000a81548173ffffffffffffffffffffffffffffffffffffffff021916908373ffffffffffffffffffffffffffffffffffffffff160217905550808273ffffffffffffffffffffffffffffffffffffffff1661169083610c1a565b73ffffffffffffffffffffffffffffffffffffffff167f8c5be1e5ebec7d5bd14f71427d1e84f3dd0314c0f7b2291e5b200ac8c7c3b92560405160405180910390a45050565b60006116e1826115a9565b611720576040517f08c379a000000000000000000000000000000000000000000000000000000000815260040161171790614196565b60405180910390fd5b600061172b83610c1a565b90508073ffffffffffffffffffffffffffffffffffffffff168473ffffffffffffffffffffffffffffffffffffffff16148061179a57508373ffffffffffffffffffffffffffffffffffffffff1661178284610768565b73ffffffffffffffffffffffffffffffffffffffff16145b806117ab57506117aa8185611447565b5b91505092915050565b8273ffffffffffffffffffffffffffffffffffffffff166117d482610c1a565b73ffffffffffffffffffffffffffffffffffffffff161461182a576040517f08c379a000000000000000000000000000000000000000000000000000000000815260040161182190614228565b60405180910390fd5b600073ffffffffffffffffffffffffffffffffffffffff168273ffffffffffffffffffffffffffffffffffffffff16141561189a576040517f08c379a0000000000000000000000000000000000000000000000000000000008152600401611891906142ba565b60405180910390fd5b6118a5838383611fef565b6118b060008261161d565b6001600360008573ffffffffffffffffffffffffffffffffffffffff1673ffffffffffffffffffffffffffffffffffffffff16815260200190815260200160002060008282546119009190614309565b925050819055506001600360008473ffffffffffffffffffffffffffffffffffffffff1673ffffffffffffffffffffffffffffffffffffffff1681526020019081526020016000206000828254611957919061433d565b92505081905550816002600083815260200190815260200160002060006101000a81548173ffffffffffffffffffffffffffffffffffffffff021916908373ffffffffffffffffffffffffffffffffffffffff160217905550808273ffffffffffffffffffffffffffffffffffffffff168473ffffffffffffffffffffffffffffffffffffffff167fddf252ad1be2c89b69c2b068fc378daa952ba7f163c4a11628f55a4df523b3ef60405160405180910390a4505050565b611a19826115a9565b611a58576040517f08c379a0000000000000000000000000000000000000000000000000000000008152600401611a4f90614405565b60405180910390fd5b80600a60008481526020019081526020016000209080519060200190611a7f929190612e3c565b505050565b611a8e8282610e40565b611b1d57611ab38173ffffffffffffffffffffffffffffffffffffffff166014611fff565b611ac18360001c6020611fff565b604051602001611ad29291906144ee565b6040516020818303038152906040526040517f08c379a0000000000000000000000000000000000000000000000000000000008152600401611b149190613047565b60405180910390fd5b5050565b611b2b8282610e40565b611bfe576001600b600084815260200190815260200160002060000160008373ffffffffffffffffffffffffffffffffffffffff1673ffffffffffffffffffffffffffffffffffffffff16815260200190815260200160002060006101000a81548160ff021916908315150217905550611ba3611615565b73ffffffffffffffffffffffffffffffffffffffff168173ffffffffffffffffffffffffffffffffffffffff16837f2f8788117e7eff1d82e926ec794901d17c78024a50270940304540a733656f0d60405160405180910390a45b5050565b611c0c8282610e40565b15611ce0576000600b600084815260200190815260200160002060000160008373ffffffffffffffffffffffffffffffffffffffff1673ffffffffffffffffffffffffffffffffffffffff16815260200190815260200160002060006101000a81548160ff021916908315150217905550611c85611615565b73ffffffffffffffffffffffffffffffffffffffff168173ffffffffffffffffffffffffffffffffffffffff16837ff6391f5c32d9c69d2a47ea670b442974b53935d1edc7fd64eb21e047a839171b60405160405180910390a45b5050565b611cef8484846117b4565b611cfb8484848461223b565b611d3a576040517f08c379a0000000000000000000000000000000000000000000000000000000008152600401611d319061459a565b60405180910390fd5b50505050565b6060611d4b826115a9565b611d8a576040517f08c379a0000000000000000000000000000000000000000000000000000000008152600401611d819061462c565b60405180910390fd5b6000600a60008481526020019081526020016000208054611daa90613838565b80601f0160208091040260200160405190810160405280929190818152602001828054611dd690613838565b8015611e235780601f10611df857610100808354040283529160200191611e23565b820191906000526020600020905b815481529060010190602001808311611e0657829003601f168201915b505050505090506000611e346123d2565b9050600081511415611e4a578192505050611e8d565b600082511115611e7f578082604051602001611e6792919061464c565b60405160208183030381529060405292505050611e8d565b611e88846123e9565b925050505b919050565b60008183611ea0919061433d565b905092915050565b600081600001549050919050565b611ec08282612490565b80600e60008473ffffffffffffffffffffffffffffffffffffffff1673ffffffffffffffffffffffffffffffffffffffff168152602001908152602001600020819055506001600f60008473ffffffffffffffffffffffffffffffffffffffff1673ffffffffffffffffffffffffffffffffffffffff1681526020019081526020016000206000828254611f54919061433d565b925050819055505050565b6001816000016000828254019250508190555050565b60007f780e9d63000000000000000000000000000000000000000000000000000000007bffffffffffffffffffffffffffffffffffffffffffffffffffffffff1916827bffffffffffffffffffffffffffffffffffffffffffffffffffffffff19161480611fe85750611fe7826124ae565b5b9050919050565b611ffa838383612590565b505050565b6060600060028360026120129190614670565b61201c919061433d565b67ffffffffffffffff811115612035576120346132a8565b5b6040519080825280601f01601f1916602001820160405280156120675781602001600182028036833780820191505090505b5090507f30000000000000000000000000000000000000000000000000000000000000008160008151811061209f5761209e613cfa565b5b60200101907effffffffffffffffffffffffffffffffffffffffffffffffffffffffffffff1916908160001a9053507f78000000000000000000000000000000000000000000000000000000000000008160018151811061210357612102613cfa565b5b60200101907effffffffffffffffffffffffffffffffffffffffffffffffffffffffffffff1916908160001a905350600060018460026121439190614670565b61214d919061433d565b90505b60018111156121ed577f3031323334353637383961626364656600000000000000000000000000000000600f86166010811061218f5761218e613cfa565b5b1a60f81b8282815181106121a6576121a5613cfa565b5b60200101907effffffffffffffffffffffffffffffffffffffffffffffffffffffffffffff1916908160001a905350600485901c9450806121e6906146ca565b9050612150565b5060008414612231576040517f08c379a000000000000000000000000000000000000000000000000000000000815260040161222890614740565b60405180910390fd5b8091505092915050565b600061225c8473ffffffffffffffffffffffffffffffffffffffff166126a4565b156123c5578373ffffffffffffffffffffffffffffffffffffffff1663150b7a02612285611615565b8786866040518563ffffffff1660e01b81526004016122a794939291906147b5565b602060405180830381600087803b1580156122c157600080fd5b505af19250505080156122f257506040513d601f19601f820116820180604052508101906122ef9190614816565b60015b612375573d8060008114612322576040519150601f19603f3d011682016040523d82523d6000602084013e612327565b606091505b5060008151141561236d576040517f08c379a00000000000000000000000000000000000000000000000000000000081526004016123649061459a565b60405180910390fd5b805181602001fd5b63150b7a0260e01b7bffffffffffffffffffffffffffffffffffffffffffffffffffffffff1916817bffffffffffffffffffffffffffffffffffffffffffffffffffffffff1916149150506123ca565b600190505b949350505050565b606060405180602001604052806000815250905090565b60606123f4826115a9565b612433576040517f08c379a000000000000000000000000000000000000000000000000000000000815260040161242a906148b5565b60405180910390fd5b600061243d6123d2565b9050600081511161245d5760405180602001604052806000815250612488565b80612467846126b7565b60405160200161247892919061464c565b6040516020818303038152906040525b915050919050565b6124aa828260405180602001604052806000815250612818565b5050565b60007f80ac58cd000000000000000000000000000000000000000000000000000000007bffffffffffffffffffffffffffffffffffffffffffffffffffffffff1916827bffffffffffffffffffffffffffffffffffffffffffffffffffffffff1916148061257957507f5b5e139f000000000000000000000000000000000000000000000000000000007bffffffffffffffffffffffffffffffffffffffffffffffffffffffff1916827bffffffffffffffffffffffffffffffffffffffffffffffffffffffff1916145b80612589575061258882612873565b5b9050919050565b61259b8383836128dd565b600073ffffffffffffffffffffffffffffffffffffffff168373ffffffffffffffffffffffffffffffffffffffff1614156125de576125d9816128e2565b61261d565b8173ffffffffffffffffffffffffffffffffffffffff168373ffffffffffffffffffffffffffffffffffffffff161461261c5761261b838261292b565b5b5b600073ffffffffffffffffffffffffffffffffffffffff168273ffffffffffffffffffffffffffffffffffffffff1614156126605761265b81612a98565b61269f565b8273ffffffffffffffffffffffffffffffffffffffff168273ffffffffffffffffffffffffffffffffffffffff161461269e5761269d8282612b69565b5b5b505050565b600080823b905060008111915050919050565b606060008214156126ff576040518060400160405280600181526020017f30000000000000000000000000000000000000000000000000000000000000008152509050612813565b600082905060005b6000821461273157808061271a906148d5565b915050600a8261272a919061494d565b9150612707565b60008167ffffffffffffffff81111561274d5761274c6132a8565b5b6040519080825280601f01601f19166020018201604052801561277f5781602001600182028036833780820191505090505b5090505b6000851461280c576001826127989190614309565b9150600a856127a7919061497e565b60306127b3919061433d565b60f81b8183815181106127c9576127c8613cfa565b5b60200101907effffffffffffffffffffffffffffffffffffffffffffffffffffffffffffff1916908160001a905350600a85612805919061494d565b9450612783565b8093505050505b919050565b6128228383612be8565b61282f600084848461223b565b61286e576040517f08c379a00000000000000000000000000000000000000000000000000000000081526004016128659061459a565b60405180910390fd5b505050565b60007f01ffc9a7000000000000000000000000000000000000000000000000000000007bffffffffffffffffffffffffffffffffffffffffffffffffffffffff1916827bffffffffffffffffffffffffffffffffffffffffffffffffffffffff1916149050919050565b505050565b6008805490506009600083815260200190815260200160002081905550600881908060018154018082558091505060019003906000526020600020016000909190919091505550565b6000600161293884610d82565b6129429190614309565b9050600060076000848152602001908152602001600020549050818114612a27576000600660008673ffffffffffffffffffffffffffffffffffffffff1673ffffffffffffffffffffffffffffffffffffffff168152602001908152602001600020600084815260200190815260200160002054905080600660008773ffffffffffffffffffffffffffffffffffffffff1673ffffffffffffffffffffffffffffffffffffffff168152602001908152602001600020600084815260200190815260200160002081905550816007600083815260200190815260200160002081905550505b6007600084815260200190815260200160002060009055600660008573ffffffffffffffffffffffffffffffffffffffff1673ffffffffffffffffffffffffffffffffffffffff16815260200190815260200160002060008381526020019081526020016000206000905550505050565b60006001600880549050612aac9190614309565b9050600060096000848152602001908152602001600020549050600060088381548110612adc57612adb613cfa565b5b906000526020600020015490508060088381548110612afe57612afd613cfa565b5b906000526020600020018190555081600960008381526020019081526020016000208190555060096000858152602001908152602001600020600090556008805480612b4d57612b4c6149af565b5b6001900381819060005260206000200160009055905550505050565b6000612b7483610d82565b905081600660008573ffffffffffffffffffffffffffffffffffffffff1673ffffffffffffffffffffffffffffffffffffffff168152602001908152602001600020600083815260200190815260200160002081905550806007600084815260200190815260200160002081905550505050565b600073ffffffffffffffffffffffffffffffffffffffff168273ffffffffffffffffffffffffffffffffffffffff161415612c58576040517f08c379a0000000000000000000000000000000000000000000000000000000008152600401612c4f90614a2a565b60405180910390fd5b612c61816115a9565b15612ca1576040517f08c379a0000000000000000000000000000000000000000000000000000000008152600401612c9890614a96565b60405180910390fd5b612cad60008383611fef565b6001600360008473ffffffffffffffffffffffffffffffffffffffff1673ffffffffffffffffffffffffffffffffffffffff1681526020019081526020016000206000828254612cfd919061433d565b92505081905550816002600083815260200190815260200160002060006101000a81548173ffffffffffffffffffffffffffffffffffffffff021916908373ffffffffffffffffffffffffffffffffffffffff160217905550808273ffffffffffffffffffffffffffffffffffffffff16600073ffffffffffffffffffffffffffffffffffffffff167fddf252ad1be2c89b69c2b068fc378daa952ba7f163c4a11628f55a4df523b3ef60405160405180910390a45050565b828054612dc290613838565b90600052602060002090601f016020900481019282612de45760008555612e2b565b82601f10612dfd57803560ff1916838001178555612e2b565b82800160010185558215612e2b579182015b82811115612e2a578235825591602001919060010190612e0f565b5b509050612e389190612ec2565b5090565b828054612e4890613838565b90600052602060002090601f016020900481019282612e6a5760008555612eb1565b82601f10612e8357805160ff1916838001178555612eb1565b82800160010185558215612eb1579182015b82811115612eb0578251825591602001919060010190612e95565b5b509050612ebe9190612ec2565b5090565b5b80821115612edb576000816000905550600101612ec3565b5090565b6000604051905090565b600080fd5b600080fd5b60007fffffffff0000000000000000000000000000000000000000000000000000000082169050919050565b612f2881612ef3565b8114612f3357600080fd5b50565b600081359050612f4581612f1f565b92915050565b600060208284031215612f6157612f60612ee9565b5b6000612f6f84828501612f36565b91505092915050565b60008115159050919050565b612f8d81612f78565b82525050565b6000602082019050612fa86000830184612f84565b92915050565b600081519050919050565b600082825260208201905092915050565b60005b83811015612fe8578082015181840152602081019050612fcd565b83811115612ff7576000848401525b50505050565b6000601f19601f8301169050919050565b600061301982612fae565b6130238185612fb9565b9350613033818560208601612fca565b61303c81612ffd565b840191505092915050565b60006020820190508181036000830152613061818461300e565b905092915050565b6000819050919050565b61307c81613069565b811461308757600080fd5b50565b60008135905061309981613073565b92915050565b6000602082840312156130b5576130b4612ee9565b5b60006130c38482850161308a565b91505092915050565b600073ffffffffffffffffffffffffffffffffffffffff82169050919050565b60006130f7826130cc565b9050919050565b613107816130ec565b82525050565b600060208201905061312260008301846130fe565b92915050565b613131816130ec565b811461313c57600080fd5b50565b60008135905061314e81613128565b92915050565b6000806040838503121561316b5761316a612ee9565b5b60006131798582860161313f565b925050602061318a8582860161308a565b9150509250929050565b61319d81613069565b82525050565b60006020820190506131b86000830184613194565b92915050565b6000806000606084860312156131d7576131d6612ee9565b5b60006131e58682870161313f565b93505060206131f68682870161313f565b92505060406132078682870161308a565b9150509250925092565b6000819050919050565b61322481613211565b811461322f57600080fd5b50565b6000813590506132418161321b565b92915050565b60006020828403121561325d5761325c612ee9565b5b600061326b84828501613232565b91505092915050565b61327d81613211565b82525050565b60006020820190506132986000830184613274565b92915050565b600080fd5b600080fd5b7f4e487b7100000000000000000000000000000000000000000000000000000000600052604160045260246000fd5b6132e082612ffd565b810181811067ffffffffffffffff821117156132ff576132fe6132a8565b5b80604052505050565b6000613312612edf565b905061331e82826132d7565b919050565b600067ffffffffffffffff82111561333e5761333d6132a8565b5b61334782612ffd565b9050602081019050919050565b82818337600083830152505050565b600061337661337184613323565b613308565b905082815260208101848484011115613392576133916132a3565b5b61339d848285613354565b509392505050565b600082601f8301126133ba576133b961329e565b5b81356133ca848260208601613363565b91505092915050565b6000806000606084860312156133ec576133eb612ee9565b5b60006133fa8682870161308a565b935050602084013567ffffffffffffffff81111561341b5761341a612eee565b5b613427868287016133a5565b92505060406134388682870161313f565b9150509250925092565b60006020828403121561345857613457612ee9565b5b60006134668482850161313f565b91505092915050565b6000806040838503121561348657613485612ee9565b5b600061349485828601613232565b92505060206134a58582860161313f565b9150509250929050565b600080fd5b600080fd5b60008083601f8401126134cf576134ce61329e565b5b8235905067ffffffffffffffff8111156134ec576134eb6134af565b5b602083019150836001820283011115613508576135076134b4565b5b9250929050565b6000806000806040858703121561352957613528612ee9565b5b600085013567ffffffffffffffff81111561354757613546612eee565b5b613553878288016134b9565b9450945050602085013567ffffffffffffffff81111561357657613575612eee565b5b613582878288016134b9565b925092505092959194509250565b6000602082840312156135a6576135a5612ee9565b5b600082013567ffffffffffffffff8111156135c4576135c3612eee565b5b6135d0848285016133a5565b91505092915050565b6135e281612f78565b81146135ed57600080fd5b50565b6000813590506135ff816135d9565b92915050565b6000806040838503121561361c5761361b612ee9565b5b600061362a8582860161313f565b925050602061363b858286016135f0565b9150509250929050565b600067ffffffffffffffff8211156136605761365f6132a8565b5b61366982612ffd565b9050602081019050919050565b600061368961368484613645565b613308565b9050828152602081018484840111156136a5576136a46132a3565b5b6136b0848285613354565b509392505050565b600082601f8301126136cd576136cc61329e565b5b81356136dd848260208601613676565b91505092915050565b60008060008060808587031215613700576136ff612ee9565b5b600061370e8782880161313f565b945050602061371f8782880161313f565b93505060406137308782880161308a565b925050606085013567ffffffffffffffff81111561375157613750612eee565b5b61375d878288016136b8565b91505092959194509250565b60008060006040848603121561378257613781612ee9565b5b60006137908682870161313f565b935050602084013567ffffffffffffffff8111156137b1576137b0612eee565b5b6137bd868287016134b9565b92509250509250925092565b600080604083850312156137e0576137df612ee9565b5b60006137ee8582860161313f565b92505060206137ff8582860161313f565b9150509250929050565b7f4e487b7100000000000000000000000000000000000000000000000000000000600052602260045260246000fd5b6000600282049050600182168061385057607f821691505b6020821081141561386457613863613809565b5b50919050565b7f4552433732313a20617070726f76656420717565727920666f72206e6f6e657860008201527f697374656e7420746f6b656e0000000000000000000000000000000000000000602082015250565b60006138c6602c83612fb9565b91506138d18261386a565b604082019050919050565b600060208201905081810360008301526138f5816138b9565b9050919050565b7f4552433732313a20617070726f76616c20746f2063757272656e74206f776e6560008201527f7200000000000000000000000000000000000000000000000000000000000000602082015250565b6000613958602183612fb9565b9150613963826138fc565b604082019050919050565b600060208201905081810360008301526139878161394b565b9050919050565b7f4552433732313a20617070726f76652063616c6c6572206973206e6f74206f7760008201527f6e6572206e6f7220617070726f76656420666f7220616c6c0000000000000000602082015250565b60006139ea603883612fb9565b91506139f58261398e565b604082019050919050565b60006020820190508181036000830152613a19816139dd565b9050919050565b7f4552433732313a207472616e736665722063616c6c6572206973206e6f74206f60008201527f776e6572206e6f7220617070726f766564000000000000000000000000000000602082015250565b6000613a7c603183612fb9565b9150613a8782613a20565b604082019050919050565b60006020820190508181036000830152613aab81613a6f565b9050919050565b7f596f7520617265206e6f7420617070726f766564206f7220746865206f776e6560008201527f722e000000000000000000000000000000000000000000000000000000000000602082015250565b6000613b0e602283612fb9565b9150613b1982613ab2565b604082019050919050565b60006020820190508181036000830152613b3d81613b01565b9050919050565b7f455243373231456e756d657261626c653a206f776e657220696e646578206f7560008201527f74206f6620626f756e6473000000000000000000000000000000000000000000602082015250565b6000613ba0602b83612fb9565b9150613bab82613b44565b604082019050919050565b60006020820190508181036000830152613bcf81613b93565b9050919050565b7f416363657373436f6e74726f6c3a2063616e206f6e6c792072656e6f756e636560008201527f20726f6c657320666f722073656c660000000000000000000000000000000000602082015250565b6000613c32602f83612fb9565b9150613c3d82613bd6565b604082019050919050565b60006020820190508181036000830152613c6181613c25565b9050919050565b7f455243373231456e756d657261626c653a20676c6f62616c20696e646578206f60008201527f7574206f6620626f756e64730000000000000000000000000000000000000000602082015250565b6000613cc4602c83612fb9565b9150613ccf82613c68565b604082019050919050565b60006020820190508181036000830152613cf381613cb7565b9050919050565b7f4e487b7100000000000000000000000000000000000000000000000000000000600052603260045260246000fd5b600081905092915050565b6000613d408385613d29565b9350613d4d838584613354565b82840190509392505050565b6000613d66828486613d34565b91508190509392505050565b7f4552433732313a206f776e657220717565727920666f72206e6f6e657869737460008201527f656e7420746f6b656e0000000000000000000000000000000000000000000000602082015250565b6000613dce602983612fb9565b9150613dd982613d72565b604082019050919050565b60006020820190508181036000830152613dfd81613dc1565b9050919050565b7f4552433732313a2062616c616e636520717565727920666f7220746865207a6560008201527f726f206164647265737300000000000000000000000000000000000000000000602082015250565b6000613e60602a83612fb9565b9150613e6b82613e04565b604082019050919050565b60006020820190508181036000830152613e8f81613e53565b9050919050565b7f506c6561736520456e7465722056616c69642041646472657373000000000000600082015250565b6000613ecc601a83612fb9565b9150613ed782613e96565b602082019050919050565b60006020820190508181036000830152613efb81613ebf565b9050919050565b7f4552433732313a20617070726f766520746f2063616c6c657200000000000000600082015250565b6000613f38601983612fb9565b9150613f4382613f02565b602082019050919050565b60006020820190508181036000830152613f6781613f2b565b9050919050565b7f53616c65206973206e6f206c6f6e676572206163746976650000000000000000600082015250565b6000613fa4601883612fb9565b9150613faf82613f6e565b602082019050919050565b60006020820190508181036000830152613fd381613f97565b9050919050565b7f53616c65206973206f7665722c20616c6c20636f6c6c65637461626c6573207360008201527f6f6c642e00000000000000000000000000000000000000000000000000000000602082015250565b6000614036602483612fb9565b915061404182613fda565b604082019050919050565b6000602082019050818103600083015261406581614029565b9050919050565b7f53616c6520697320616c6d6f7374206f7665722c20776973686573206172652060008201527f72756e6e696e67206c6f772e20506c65617365207075726368617365206c657360208201527f73207769736865732e0000000000000000000000000000000000000000000000604082015250565b60006140ee604983612fb9565b91506140f98261406c565b606082019050919050565b6000602082019050818103600083015261411d816140e1565b9050919050565b7f4552433732313a206f70657261746f7220717565727920666f72206e6f6e657860008201527f697374656e7420746f6b656e0000000000000000000000000000000000000000602082015250565b6000614180602c83612fb9565b915061418b82614124565b604082019050919050565b600060208201905081810360008301526141af81614173565b9050919050565b7f4552433732313a207472616e73666572206f6620746f6b656e2074686174206960008201527f73206e6f74206f776e0000000000000000000000000000000000000000000000602082015250565b6000614212602983612fb9565b915061421d826141b6565b604082019050919050565b6000602082019050818103600083015261424181614205565b9050919050565b7f4552433732313a207472616e7366657220746f20746865207a65726f2061646460008201527f7265737300000000000000000000000000000000000000000000000000000000602082015250565b60006142a4602483612fb9565b91506142af82614248565b604082019050919050565b600060208201905081810360008301526142d381614297565b9050919050565b7f4e487b7100000000000000000000000000000000000000000000000000000000600052601160045260246000fd5b600061431482613069565b915061431f83613069565b925082821015614332576143316142da565b5b828203905092915050565b600061434882613069565b915061435383613069565b9250827fffffffffffffffffffffffffffffffffffffffffffffffffffffffffffffffff03821115614388576143876142da565b5b828201905092915050565b7f45524337323155524953746f726167653a2055524920736574206f66206e6f6e60008201527f6578697374656e7420746f6b656e000000000000000000000000000000000000602082015250565b60006143ef602e83612fb9565b91506143fa82614393565b604082019050919050565b6000602082019050818103600083015261441e816143e2565b9050919050565b7f416363657373436f6e74726f6c3a206163636f756e7420000000000000000000600082015250565b600061445b601783613d29565b915061446682614425565b601782019050919050565b600061447c82612fae565b6144868185613d29565b9350614496818560208601612fca565b80840191505092915050565b7f206973206d697373696e6720726f6c6520000000000000000000000000000000600082015250565b60006144d8601183613d29565b91506144e3826144a2565b601182019050919050565b60006144f98261444e565b91506145058285614471565b9150614510826144cb565b915061451c8284614471565b91508190509392505050565b7f4552433732313a207472616e7366657220746f206e6f6e20455243373231526560008201527f63656976657220696d706c656d656e7465720000000000000000000000000000602082015250565b6000614584603283612fb9565b915061458f82614528565b604082019050919050565b600060208201905081810360008301526145b381614577565b9050919050565b7f45524337323155524953746f726167653a2055524920717565727920666f722060008201527f6e6f6e6578697374656e7420746f6b656e000000000000000000000000000000602082015250565b6000614616603183612fb9565b9150614621826145ba565b604082019050919050565b6000602082019050818103600083015261464581614609565b9050919050565b60006146588285614471565b91506146648284614471565b91508190509392505050565b600061467b82613069565b915061468683613069565b9250817fffffffffffffffffffffffffffffffffffffffffffffffffffffffffffffffff04831182151516156146bf576146be6142da565b5b828202905092915050565b60006146d582613069565b915060008214156146e9576146e86142da565b5b600182039050919050565b7f537472696e67733a20686578206c656e67746820696e73756666696369656e74600082015250565b600061472a602083612fb9565b9150614735826146f4565b602082019050919050565b600060208201905081810360008301526147598161471d565b9050919050565b600081519050919050565b600082825260208201905092915050565b600061478782614760565b614791818561476b565b93506147a1818560208601612fca565b6147aa81612ffd565b840191505092915050565b60006080820190506147ca60008301876130fe565b6147d760208301866130fe565b6147e46040830185613194565b81810360608301526147f6818461477c565b905095945050505050565b60008151905061481081612f1f565b92915050565b60006020828403121561482c5761482b612ee9565b5b600061483a84828501614801565b91505092915050565b7f4552433732314d657461646174613a2055524920717565727920666f72206e6f60008201527f6e6578697374656e7420746f6b656e0000000000000000000000000000000000602082015250565b600061489f602f83612fb9565b91506148aa82614843565b604082019050919050565b600060208201905081810360008301526148ce81614892565b9050919050565b60006148e082613069565b91507fffffffffffffffffffffffffffffffffffffffffffffffffffffffffffffffff821415614913576149126142da565b5b600182019050919050565b7f4e487b7100000000000000000000000000000000000000000000000000000000600052601260045260246000fd5b600061495882613069565b915061496383613069565b9250826149735761497261491e565b5b828204905092915050565b600061498982613069565b915061499483613069565b9250826149a4576149a361491e565b5b828206905092915050565b7f4e487b7100000000000000000000000000000000000000000000000000000000600052603160045260246000fd5b7f4552433732313a206d696e7420746f20746865207a65726f2061646472657373600082015250565b6000614a14602083612fb9565b9150614a1f826149de565b602082019050919050565b60006020820190508181036000830152614a4381614a07565b9050919050565b7f4552433732313a20746f6b656e20616c7265616479206d696e74656400000000600082015250565b6000614a80601c83612fb9565b9150614a8b82614a4a565b602082019050919050565b60006020820190508181036000830152614aaf81614a73565b905091905056fea2646970667358221220c5a59b9395257d1d1f8bd69b559c519700e074ac3a271a39dcfad48bc4129d9564736f6c63430008090033",
  "immutableReferences": {},
  "source": "// SPDX-License-Identifier: MIT\npragma solidity ^0.8.0;\n\nimport \"@openzeppelin/contracts/token/ERC721/extensions/ERC721URIStorage.sol\";\nimport \"@openzeppelin/contracts/token/ERC721/extensions/ERC721Enumerable.sol\";\nimport \"@openzeppelin/contracts/token/ERC721/ERC721.sol\";\nimport \"@openzeppelin/contracts/access/AccessControl.sol\";\nimport \"@openzeppelin/contracts/utils/Counters.sol\";\nimport \"@openzeppelin/contracts/utils/math/SafeMath.sol\";\n\n\n\n\n\n/*\n* If we are using a .py Script\n*/ \n\ncontract MyWish is ERC721Enumerable, ERC721URIStorage, AccessControl {\n    \n    using Counters for Counters.Counter; \n    using SafeMath for uint256; \n    \n\n    Counters.Counter private _tokenId; \n    bytes32 public constant MINTER_ROLE = keccak256(\"MINTER_ROLE\");\n    uint256 public constant _totalWishes = 10000; \n    bool internal saleIsActive = false; \n    uint256 public constant _maxPurchaseAllowed = 20; \n\n\n    mapping(address => uint256)public getTokenId;\n    mapping(address => uint256)public balances;\n    mapping(string => string)public URIS;\n    string  __name = \"MyWish\";\n    //Add mapping token URIs\n\n\n\n\n    constructor() ERC721(\"MyWish\",\"WSH\") {\n        _setupRole(DEFAULT_ADMIN_ROLE,msg.sender);\n        _setRoleAdmin(MINTER_ROLE, DEFAULT_ADMIN_ROLE);\n\n        \n    }\n\n    function createCollectable(address to, string calldata tokenParams) public onlyRole(MINTER_ROLE)  returns(bool) {\n        require(saleIsActive, \"Sale is no longer active\");\n        require(totalSupply() < _totalWishes, \"Sale is over, all collectables sold.\"); //Might not need this one\n        require(SafeMath.add(totalSupply(), 1) <= _totalWishes, \"Sale is almost over, wishes are running low. Please purchase less wishes.\");\n        \n        safeMint(to, _tokenId.current());\n        \n        setTokenURI(_tokenId.current(), URIS[tokenParams],to);\n\n        _tokenId.increment();\n        return true;\n        \n    }\n\n    function safeMint(address to, uint256 tokenId) private {\n        _safeMint(to, tokenId);\n        getTokenId[to] = tokenId;\n        balances[to] += 1;\n\n    }\n\n    // function flipStateOfSale() public view onlyOwner { //not sure if I need view\n    //     saleIsActive != saleIsActive; \n    // }\n\n    function _beforeTokenTransfer(address from, address to, uint256 tokenId) \n        internal \n        override(ERC721, ERC721Enumerable) {\n\n        super._beforeTokenTransfer(from, to, tokenId);\n    }\n\n    function supportsInterface(bytes4 interfaceId) \n        public \n        view \n        override(ERC721, ERC721Enumerable, AccessControl) \n        returns (bool) {\n\n        return super.supportsInterface(interfaceId);\n    }\n\n    function setTokenURI(uint256 tokenId, string memory _tokenUri, address to) public {\n        require(\n            _isApprovedOrOwner(to, tokenId),\n            \"You are not approved or the owner.\"\n        );\n        _setTokenURI(tokenId,_tokenUri);\n    }\n    \n    function _burn(uint256 tokenId) internal override(ERC721, ERC721URIStorage) {\n        super._burn(tokenId);\n    }\n\n    function tokenURI(uint256 tokenId)\n        public\n        view\n        override(ERC721, ERC721URIStorage)\n        returns (string memory)\n    {\n        return super.tokenURI(tokenId);\n    }\n    \n\n    function setMinterRole(address minter) public onlyRole(DEFAULT_ADMIN_ROLE) {\n        require(minter != address(0),\"Please Enter Valid Address\");\n        grantRole(MINTER_ROLE,minter);\n       \n    }\n  \n    function getRole() public onlyRole(MINTER_ROLE) view  returns(bool) {\n       \n        return true;\n    }\n\n    function setURIMapping(string calldata tokenString, string calldata URI) public {\n        URIS[tokenString] = URI;\n    }\n\n} \n\n\n\n\n",
  "sourcePath": "/Users/zlederman/Documents/Code/js/truffle-react/contracts/MyWish.sol",
  "compiler": {
    "name": "solc",
    "version": "0.8.9+commit.e5eed63a.Emscripten.clang"
  },
  "schemaVersion": "3.4.2",
  "updatedAt": "2021-10-07T19:28:03.188Z",
  "devdoc": {
    "kind": "dev",
    "methods": {
      "approve(address,uint256)": {
        "details": "See {IERC721-approve}."
      },
      "balanceOf(address)": {
        "details": "See {IERC721-balanceOf}."
      },
      "getApproved(uint256)": {
        "details": "See {IERC721-getApproved}."
      },
      "getRoleAdmin(bytes32)": {
        "details": "Returns the admin role that controls `role`. See {grantRole} and {revokeRole}. To change a role's admin, use {_setRoleAdmin}."
      },
      "grantRole(bytes32,address)": {
        "details": "Grants `role` to `account`. If `account` had not been already granted `role`, emits a {RoleGranted} event. Requirements: - the caller must have ``role``'s admin role."
      },
      "hasRole(bytes32,address)": {
        "details": "Returns `true` if `account` has been granted `role`."
      },
      "isApprovedForAll(address,address)": {
        "details": "See {IERC721-isApprovedForAll}."
      },
      "name()": {
        "details": "See {IERC721Metadata-name}."
      },
      "ownerOf(uint256)": {
        "details": "See {IERC721-ownerOf}."
      },
      "renounceRole(bytes32,address)": {
        "details": "Revokes `role` from the calling account. Roles are often managed via {grantRole} and {revokeRole}: this function's purpose is to provide a mechanism for accounts to lose their privileges if they are compromised (such as when a trusted device is misplaced). If the calling account had been granted `role`, emits a {RoleRevoked} event. Requirements: - the caller must be `account`."
      },
      "revokeRole(bytes32,address)": {
        "details": "Revokes `role` from `account`. If `account` had been granted `role`, emits a {RoleRevoked} event. Requirements: - the caller must have ``role``'s admin role."
      },
      "safeTransferFrom(address,address,uint256)": {
        "details": "See {IERC721-safeTransferFrom}."
      },
      "safeTransferFrom(address,address,uint256,bytes)": {
        "details": "See {IERC721-safeTransferFrom}."
      },
      "setApprovalForAll(address,bool)": {
        "details": "See {IERC721-setApprovalForAll}."
      },
      "symbol()": {
        "details": "See {IERC721Metadata-symbol}."
      },
      "tokenByIndex(uint256)": {
        "details": "See {IERC721Enumerable-tokenByIndex}."
      },
      "tokenOfOwnerByIndex(address,uint256)": {
        "details": "See {IERC721Enumerable-tokenOfOwnerByIndex}."
      },
      "totalSupply()": {
        "details": "See {IERC721Enumerable-totalSupply}."
      },
      "transferFrom(address,address,uint256)": {
        "details": "See {IERC721-transferFrom}."
      }
    },
    "version": 1
  },
  "userdoc": {
    "kind": "user",
    "methods": {},
    "version": 1
  }
}