{
  "contractName": "MyWish",
  "abi": [
    {
      "inputs": [],
      "stateMutability": "nonpayable",
      "type": "constructor"
    },
    {
      "anonymous": false,
      "inputs": [
        {
          "indexed": true,
          "internalType": "address",
          "name": "owner",
          "type": "address"
        },
        {
          "indexed": true,
          "internalType": "address",
          "name": "approved",
          "type": "address"
        },
        {
          "indexed": true,
          "internalType": "uint256",
          "name": "tokenId",
          "type": "uint256"
        }
      ],
      "name": "Approval",
      "type": "event"
    },
    {
      "anonymous": false,
      "inputs": [
        {
          "indexed": true,
          "internalType": "address",
          "name": "owner",
          "type": "address"
        },
        {
          "indexed": true,
          "internalType": "address",
          "name": "operator",
          "type": "address"
        },
        {
          "indexed": false,
          "internalType": "bool",
          "name": "approved",
          "type": "bool"
        }
      ],
      "name": "ApprovalForAll",
      "type": "event"
    },
    {
      "anonymous": false,
      "inputs": [
        {
          "indexed": true,
          "internalType": "bytes32",
          "name": "role",
          "type": "bytes32"
        },
        {
          "indexed": true,
          "internalType": "bytes32",
          "name": "previousAdminRole",
          "type": "bytes32"
        },
        {
          "indexed": true,
          "internalType": "bytes32",
          "name": "newAdminRole",
          "type": "bytes32"
        }
      ],
      "name": "RoleAdminChanged",
      "type": "event"
    },
    {
      "anonymous": false,
      "inputs": [
        {
          "indexed": true,
          "internalType": "bytes32",
          "name": "role",
          "type": "bytes32"
        },
        {
          "indexed": true,
          "internalType": "address",
          "name": "account",
          "type": "address"
        },
        {
          "indexed": true,
          "internalType": "address",
          "name": "sender",
          "type": "address"
        }
      ],
      "name": "RoleGranted",
      "type": "event"
    },
    {
      "anonymous": false,
      "inputs": [
        {
          "indexed": true,
          "internalType": "bytes32",
          "name": "role",
          "type": "bytes32"
        },
        {
          "indexed": true,
          "internalType": "address",
          "name": "account",
          "type": "address"
        },
        {
          "indexed": true,
          "internalType": "address",
          "name": "sender",
          "type": "address"
        }
      ],
      "name": "RoleRevoked",
      "type": "event"
    },
    {
      "anonymous": false,
      "inputs": [
        {
          "indexed": true,
          "internalType": "address",
          "name": "from",
          "type": "address"
        },
        {
          "indexed": true,
          "internalType": "address",
          "name": "to",
          "type": "address"
        },
        {
          "indexed": true,
          "internalType": "uint256",
          "name": "tokenId",
          "type": "uint256"
        }
      ],
      "name": "Transfer",
      "type": "event"
    },
    {
      "inputs": [],
      "name": "BASEURI_ROLE",
      "outputs": [
        {
          "internalType": "bytes32",
          "name": "",
          "type": "bytes32"
        }
      ],
      "stateMutability": "view",
      "type": "function",
      "constant": true
    },
    {
      "inputs": [],
      "name": "DEFAULT_ADMIN_ROLE",
      "outputs": [
        {
          "internalType": "bytes32",
          "name": "",
          "type": "bytes32"
        }
      ],
      "stateMutability": "view",
      "type": "function",
      "constant": true
    },
    {
      "inputs": [],
      "name": "MINTER_ROLE",
      "outputs": [
        {
          "internalType": "bytes32",
          "name": "",
          "type": "bytes32"
        }
      ],
      "stateMutability": "view",
      "type": "function",
      "constant": true
    },
    {
      "inputs": [],
      "name": "_maxPurchaseAllowed",
      "outputs": [
        {
          "internalType": "uint256",
          "name": "",
          "type": "uint256"
        }
      ],
      "stateMutability": "view",
      "type": "function",
      "constant": true
    },
    {
      "inputs": [],
      "name": "_totalWishes",
      "outputs": [
        {
          "internalType": "uint256",
          "name": "",
          "type": "uint256"
        }
      ],
      "stateMutability": "view",
      "type": "function",
      "constant": true
    },
    {
      "inputs": [
        {
          "internalType": "address",
          "name": "to",
          "type": "address"
        },
        {
          "internalType": "uint256",
          "name": "tokenId",
          "type": "uint256"
        }
      ],
      "name": "approve",
      "outputs": [],
      "stateMutability": "nonpayable",
      "type": "function"
    },
    {
      "inputs": [
        {
          "internalType": "address",
          "name": "owner",
          "type": "address"
        }
      ],
      "name": "balanceOf",
      "outputs": [
        {
          "internalType": "uint256",
          "name": "",
          "type": "uint256"
        }
      ],
      "stateMutability": "view",
      "type": "function",
      "constant": true
    },
    {
      "inputs": [
        {
          "internalType": "address",
          "name": "",
          "type": "address"
        }
      ],
      "name": "balances",
      "outputs": [
        {
          "internalType": "uint256",
          "name": "",
          "type": "uint256"
        }
      ],
      "stateMutability": "view",
      "type": "function",
      "constant": true
    },
    {
      "inputs": [
        {
          "internalType": "uint256",
          "name": "tokenId",
          "type": "uint256"
        }
      ],
      "name": "getApproved",
      "outputs": [
        {
          "internalType": "address",
          "name": "",
          "type": "address"
        }
      ],
      "stateMutability": "view",
      "type": "function",
      "constant": true
    },
    {
      "inputs": [
        {
          "internalType": "bytes32",
          "name": "role",
          "type": "bytes32"
        }
      ],
      "name": "getRoleAdmin",
      "outputs": [
        {
          "internalType": "bytes32",
          "name": "",
          "type": "bytes32"
        }
      ],
      "stateMutability": "view",
      "type": "function",
      "constant": true
    },
    {
      "inputs": [
        {
          "internalType": "bytes32",
          "name": "role",
          "type": "bytes32"
        },
        {
          "internalType": "address",
          "name": "account",
          "type": "address"
        }
      ],
      "name": "grantRole",
      "outputs": [],
      "stateMutability": "nonpayable",
      "type": "function"
    },
    {
      "inputs": [
        {
          "internalType": "bytes32",
          "name": "role",
          "type": "bytes32"
        },
        {
          "internalType": "address",
          "name": "account",
          "type": "address"
        }
      ],
      "name": "hasRole",
      "outputs": [
        {
          "internalType": "bool",
          "name": "",
          "type": "bool"
        }
      ],
      "stateMutability": "view",
      "type": "function",
      "constant": true
    },
    {
      "inputs": [
        {
          "internalType": "address",
          "name": "owner",
          "type": "address"
        },
        {
          "internalType": "address",
          "name": "operator",
          "type": "address"
        }
      ],
      "name": "isApprovedForAll",
      "outputs": [
        {
          "internalType": "bool",
          "name": "",
          "type": "bool"
        }
      ],
      "stateMutability": "view",
      "type": "function",
      "constant": true
    },
    {
      "inputs": [],
      "name": "name",
      "outputs": [
        {
          "internalType": "string",
          "name": "",
          "type": "string"
        }
      ],
      "stateMutability": "view",
      "type": "function",
      "constant": true
    },
    {
      "inputs": [
        {
          "internalType": "uint256",
          "name": "tokenId",
          "type": "uint256"
        }
      ],
      "name": "ownerOf",
      "outputs": [
        {
          "internalType": "address",
          "name": "",
          "type": "address"
        }
      ],
      "stateMutability": "view",
      "type": "function",
      "constant": true
    },
    {
      "inputs": [
        {
          "internalType": "bytes32",
          "name": "role",
          "type": "bytes32"
        },
        {
          "internalType": "address",
          "name": "account",
          "type": "address"
        }
      ],
      "name": "renounceRole",
      "outputs": [],
      "stateMutability": "nonpayable",
      "type": "function"
    },
    {
      "inputs": [
        {
          "internalType": "bytes32",
          "name": "role",
          "type": "bytes32"
        },
        {
          "internalType": "address",
          "name": "account",
          "type": "address"
        }
      ],
      "name": "revokeRole",
      "outputs": [],
      "stateMutability": "nonpayable",
      "type": "function"
    },
    {
      "inputs": [
        {
          "internalType": "address",
          "name": "from",
          "type": "address"
        },
        {
          "internalType": "address",
          "name": "to",
          "type": "address"
        },
        {
          "internalType": "uint256",
          "name": "tokenId",
          "type": "uint256"
        }
      ],
      "name": "safeTransferFrom",
      "outputs": [],
      "stateMutability": "nonpayable",
      "type": "function"
    },
    {
      "inputs": [
        {
          "internalType": "address",
          "name": "from",
          "type": "address"
        },
        {
          "internalType": "address",
          "name": "to",
          "type": "address"
        },
        {
          "internalType": "uint256",
          "name": "tokenId",
          "type": "uint256"
        },
        {
          "internalType": "bytes",
          "name": "_data",
          "type": "bytes"
        }
      ],
      "name": "safeTransferFrom",
      "outputs": [],
      "stateMutability": "nonpayable",
      "type": "function"
    },
    {
      "inputs": [
        {
          "internalType": "address",
          "name": "operator",
          "type": "address"
        },
        {
          "internalType": "bool",
          "name": "approved",
          "type": "bool"
        }
      ],
      "name": "setApprovalForAll",
      "outputs": [],
      "stateMutability": "nonpayable",
      "type": "function"
    },
    {
      "inputs": [],
      "name": "symbol",
      "outputs": [
        {
          "internalType": "string",
          "name": "",
          "type": "string"
        }
      ],
      "stateMutability": "view",
      "type": "function",
      "constant": true
    },
    {
      "inputs": [
        {
          "internalType": "uint256",
          "name": "index",
          "type": "uint256"
        }
      ],
      "name": "tokenByIndex",
      "outputs": [
        {
          "internalType": "uint256",
          "name": "",
          "type": "uint256"
        }
      ],
      "stateMutability": "view",
      "type": "function",
      "constant": true
    },
    {
      "inputs": [
        {
          "internalType": "address",
          "name": "owner",
          "type": "address"
        },
        {
          "internalType": "uint256",
          "name": "index",
          "type": "uint256"
        }
      ],
      "name": "tokenOfOwnerByIndex",
      "outputs": [
        {
          "internalType": "uint256",
          "name": "",
          "type": "uint256"
        }
      ],
      "stateMutability": "view",
      "type": "function",
      "constant": true
    },
    {
      "inputs": [],
      "name": "totalSupply",
      "outputs": [
        {
          "internalType": "uint256",
          "name": "",
          "type": "uint256"
        }
      ],
      "stateMutability": "view",
      "type": "function",
      "constant": true
    },
    {
      "inputs": [
        {
          "internalType": "address",
          "name": "from",
          "type": "address"
        },
        {
          "internalType": "address",
          "name": "to",
          "type": "address"
        },
        {
          "internalType": "uint256",
          "name": "tokenId",
          "type": "uint256"
        }
      ],
      "name": "transferFrom",
      "outputs": [],
      "stateMutability": "nonpayable",
      "type": "function"
    },
    {
      "inputs": [
        {
          "internalType": "string",
          "name": "baseURI_",
          "type": "string"
        }
      ],
      "name": "setBaseURI",
      "outputs": [],
      "stateMutability": "nonpayable",
      "type": "function"
    },
    {
      "inputs": [
        {
          "internalType": "uint256",
          "name": "tokenId",
          "type": "uint256"
        }
      ],
      "name": "tokenURI",
      "outputs": [
        {
          "internalType": "string",
          "name": "",
          "type": "string"
        }
      ],
      "stateMutability": "view",
      "type": "function",
      "constant": true
    },
    {
      "inputs": [
        {
          "internalType": "address",
          "name": "to",
          "type": "address"
        }
      ],
      "name": "createCollectable",
      "outputs": [
        {
          "internalType": "bool",
          "name": "",
          "type": "bool"
        }
      ],
      "stateMutability": "nonpayable",
      "type": "function"
    },
    {
      "inputs": [
        {
          "internalType": "bytes4",
          "name": "interfaceId",
          "type": "bytes4"
        }
      ],
      "name": "supportsInterface",
      "outputs": [
        {
          "internalType": "bool",
          "name": "",
          "type": "bool"
        }
      ],
      "stateMutability": "view",
      "type": "function",
      "constant": true
    },
    {
      "inputs": [
        {
          "internalType": "address",
          "name": "minter",
          "type": "address"
        }
      ],
      "name": "setMinterRole",
      "outputs": [],
      "stateMutability": "nonpayable",
      "type": "function"
    },
    {
      "inputs": [],
      "name": "getRole",
      "outputs": [
        {
          "internalType": "bool",
          "name": "",
          "type": "bool"
        }
      ],
      "stateMutability": "view",
      "type": "function",
      "constant": true
    }
  ],
  "bytecode": "0x60806040526040518060400160405280600681526020017f4d79576973680000000000000000000000000000000000000000000000000000815250600d908051906020019062000051929190620003c8565b506040518060400160405280600c81526020017f5745204e45454420495046530000000000000000000000000000000000000000815250600e90805190602001906200009f929190620003c8565b50348015620000ad57600080fd5b506040518060400160405280600681526020017f4d795769736800000000000000000000000000000000000000000000000000008152506040518060400160405280600381526020017f5753480000000000000000000000000000000000000000000000000000000000815250816001908051906020019062000132929190620003c8565b5080600290805190602001906200014b929190620003c8565b505050620001636000801b33620001d360201b60201c565b620001987f9f2df0fed2c77648de5860a4cc508cd0818c85b8b8a1ab4ceeef8d981c8956a66000801b620001e960201b60201c565b620001cd7f0a1704759791c789e02e7ea2b8b48d3ffe1f2ebace5515b64b3172e6580551756000801b620001e960201b60201c565b620004dd565b620001e582826200024660201b60201c565b5050565b80620001fb836200033760201b60201c565b837fbd79b86ffe0ab8e8776151514217cd7cacd52c909f66475c3af44e129f0b00ff60405160405180910390a480600080848152602001908152602001600020600101819055505050565b6200025882826200035660201b60201c565b6200033357600160008084815260200190815260200160002060000160008373ffffffffffffffffffffffffffffffffffffffff1673ffffffffffffffffffffffffffffffffffffffff16815260200190815260200160002060006101000a81548160ff021916908315150217905550620002d8620003c060201b60201c565b73ffffffffffffffffffffffffffffffffffffffff168173ffffffffffffffffffffffffffffffffffffffff16837f2f8788117e7eff1d82e926ec794901d17c78024a50270940304540a733656f0d60405160405180910390a45b5050565b6000806000838152602001908152602001600020600101549050919050565b600080600084815260200190815260200160002060000160008373ffffffffffffffffffffffffffffffffffffffff1673ffffffffffffffffffffffffffffffffffffffff16815260200190815260200160002060009054906101000a900460ff16905092915050565b600033905090565b828054620003d690620004a7565b90600052602060002090601f016020900481019282620003fa576000855562000446565b82601f106200041557805160ff191683800117855562000446565b8280016001018555821562000446579182015b828111156200044557825182559160200191906001019062000428565b5b50905062000455919062000459565b5090565b5b80821115620004745760008160009055506001016200045a565b5090565b7f4e487b7100000000000000000000000000000000000000000000000000000000600052602260045260246000fd5b60006002820490506001821680620004c057607f821691505b60208210811415620004d757620004d662000478565b5b50919050565b6140c480620004ed6000396000f3fe608060405234801561001057600080fd5b50600436106101e55760003560e01c806370a082311161010f578063b88d4fde116100a2578063d547741f11610071578063d547741f146105c8578063d6a70648146105e4578063e985e9c514610602578063fde0817414610632576101e5565b8063b88d4fde14610540578063c0bf62051461055c578063c87b56dd1461057a578063d5391393146105aa576101e5565b8063945d1229116100de578063945d1229146104cc57806395d89b41146104e8578063a217fddf14610506578063a22cb46514610524576101e5565b806370a082311461041e57806387fba2301461044e5780638d69f5411461046c57806391d148541461049c576101e5565b806327e235e31161018757806342842e0e1161015657806342842e0e146103865780634f6ccce7146103a257806355f804b3146103d25780636352211e146103ee576101e5565b806327e235e3146102ee5780632f2ff15d1461031e5780632f745c591461033a57806336568abe1461036a576101e5565b8063095ea7b3116101c3578063095ea7b31461026857806318160ddd1461028457806323b872dd146102a2578063248a9ca3146102be576101e5565b806301ffc9a7146101ea57806306fdde031461021a578063081812fc14610238575b600080fd5b61020460048036038101906101ff91906129eb565b610650565b6040516102119190612a33565b60405180910390f35b610222610662565b60405161022f9190612ae7565b60405180910390f35b610252600480360381019061024d9190612b3f565b6106f4565b60405161025f9190612bad565b60405180910390f35b610282600480360381019061027d9190612bf4565b610779565b005b61028c610891565b6040516102999190612c43565b60405180910390f35b6102bc60048036038101906102b79190612c5e565b61089e565b005b6102d860048036038101906102d39190612ce7565b6108fe565b6040516102e59190612d23565b60405180910390f35b61030860048036038101906103039190612d3e565b61091d565b6040516103159190612c43565b60405180910390f35b61033860048036038101906103339190612d6b565b610935565b005b610354600480360381019061034f9190612bf4565b61095e565b6040516103619190612c43565b60405180910390f35b610384600480360381019061037f9190612d6b565b610a03565b005b6103a0600480360381019061039b9190612c5e565b610a86565b005b6103bc60048036038101906103b79190612b3f565b610aa6565b6040516103c99190612c43565b60405180910390f35b6103ec60048036038101906103e79190612ee0565b610b17565b005b61040860048036038101906104039190612b3f565b610b64565b6040516104159190612bad565b60405180910390f35b61043860048036038101906104339190612d3e565b610c16565b6040516104459190612c43565b60405180910390f35b610456610cce565b6040516104639190612c43565b60405180910390f35b61048660048036038101906104819190612d3e565b610cd4565b6040516104939190612a33565b60405180910390f35b6104b660048036038101906104b19190612d6b565b610dbe565b6040516104c39190612a33565b60405180910390f35b6104e660048036038101906104e19190612d3e565b610e28565b005b6104f0610edb565b6040516104fd9190612ae7565b60405180910390f35b61050e610f6d565b60405161051b9190612d23565b60405180910390f35b61053e60048036038101906105399190612f55565b610f74565b005b61055a60048036038101906105559190613036565b6110f5565b005b610564611157565b6040516105719190612d23565b60405180910390f35b610594600480360381019061058f9190612b3f565b61117b565b6040516105a19190612ae7565b60405180910390f35b6105b2611253565b6040516105bf9190612d23565b60405180910390f35b6105e260048036038101906105dd9190612d6b565b611277565b005b6105ec6112a0565b6040516105f99190612c43565b60405180910390f35b61061c600480360381019061061791906130b9565b6112a5565b6040516106299190612a33565b60405180910390f35b61063a611339565b6040516106479190612a33565b60405180910390f35b600061065b82611375565b9050919050565b60606001805461067190613128565b80601f016020809104026020016040519081016040528092919081815260200182805461069d90613128565b80156106ea5780601f106106bf576101008083540402835291602001916106ea565b820191906000526020600020905b8154815290600101906020018083116106cd57829003601f168201915b5050505050905090565b60006106ff826113ef565b61073e576040517f08c379a0000000000000000000000000000000000000000000000000000000008152600401610735906131cc565b60405180910390fd5b6005600083815260200190815260200160002060009054906101000a900473ffffffffffffffffffffffffffffffffffffffff169050919050565b600061078482610b64565b90508073ffffffffffffffffffffffffffffffffffffffff168373ffffffffffffffffffffffffffffffffffffffff1614156107f5576040517f08c379a00000000000000000000000000000000000000000000000000000000081526004016107ec9061325e565b60405180910390fd5b8073ffffffffffffffffffffffffffffffffffffffff1661081461145b565b73ffffffffffffffffffffffffffffffffffffffff16148061084357506108428161083d61145b565b6112a5565b5b610882576040517f08c379a0000000000000000000000000000000000000000000000000000000008152600401610879906132f0565b60405180910390fd5b61088c8383611463565b505050565b6000600980549050905090565b6108af6108a961145b565b8261151c565b6108ee576040517f08c379a00000000000000000000000000000000000000000000000000000000081526004016108e590613382565b60405180910390fd5b6108f98383836115fa565b505050565b6000806000838152602001908152602001600020600101549050919050565b600c6020528060005260406000206000915090505481565b61093e826108fe565b61094f8161094a61145b565b611856565b61095983836118f3565b505050565b600061096983610c16565b82106109aa576040517f08c379a00000000000000000000000000000000000000000000000000000000081526004016109a190613414565b60405180910390fd5b600760008473ffffffffffffffffffffffffffffffffffffffff1673ffffffffffffffffffffffffffffffffffffffff168152602001908152602001600020600083815260200190815260200160002054905092915050565b610a0b61145b565b73ffffffffffffffffffffffffffffffffffffffff168173ffffffffffffffffffffffffffffffffffffffff1614610a78576040517f08c379a0000000000000000000000000000000000000000000000000000000008152600401610a6f906134a6565b60405180910390fd5b610a8282826119d3565b5050565b610aa1838383604051806020016040528060008152506110f5565b505050565b6000610ab0610891565b8210610af1576040517f08c379a0000000000000000000000000000000000000000000000000000000008152600401610ae890613538565b60405180910390fd5b60098281548110610b0557610b04613558565b5b90600052602060002001549050919050565b7f0a1704759791c789e02e7ea2b8b48d3ffe1f2ebace5515b64b3172e658055175610b4981610b4461145b565b611856565b81600e9080519060200190610b5f9291906128dc565b505050565b6000806003600084815260200190815260200160002060009054906101000a900473ffffffffffffffffffffffffffffffffffffffff169050600073ffffffffffffffffffffffffffffffffffffffff168173ffffffffffffffffffffffffffffffffffffffff161415610c0d576040517f08c379a0000000000000000000000000000000000000000000000000000000008152600401610c04906135f9565b60405180910390fd5b80915050919050565b60008073ffffffffffffffffffffffffffffffffffffffff168273ffffffffffffffffffffffffffffffffffffffff161415610c87576040517f08c379a0000000000000000000000000000000000000000000000000000000008152600401610c7e9061368b565b60405180910390fd5b600460008373ffffffffffffffffffffffffffffffffffffffff1673ffffffffffffffffffffffffffffffffffffffff168152602001908152602001600020549050919050565b61271081565b60007f9f2df0fed2c77648de5860a4cc508cd0818c85b8b8a1ab4ceeef8d981c8956a6610d0881610d0361145b565b611856565b612710610d13610891565b10610d53576040517f08c379a0000000000000000000000000000000000000000000000000000000008152600401610d4a9061371d565b60405180910390fd5b610d6683610d61600b611ab4565b611ac2565b60008373ffffffffffffffffffffffffffffffffffffffff16610d91610d8c600b611ab4565b610b64565b73ffffffffffffffffffffffffffffffffffffffff16149050610db4600b611ad0565b8092505050919050565b600080600084815260200190815260200160002060000160008373ffffffffffffffffffffffffffffffffffffffff1673ffffffffffffffffffffffffffffffffffffffff16815260200190815260200160002060009054906101000a900460ff16905092915050565b6000801b610e3d81610e3861145b565b611856565b600073ffffffffffffffffffffffffffffffffffffffff168273ffffffffffffffffffffffffffffffffffffffff161415610ead576040517f08c379a0000000000000000000000000000000000000000000000000000000008152600401610ea490613789565b60405180910390fd5b610ed77f9f2df0fed2c77648de5860a4cc508cd0818c85b8b8a1ab4ceeef8d981c8956a683610935565b5050565b606060028054610eea90613128565b80601f0160208091040260200160405190810160405280929190818152602001828054610f1690613128565b8015610f635780601f10610f3857610100808354040283529160200191610f63565b820191906000526020600020905b815481529060010190602001808311610f4657829003601f168201915b5050505050905090565b6000801b81565b610f7c61145b565b73ffffffffffffffffffffffffffffffffffffffff168273ffffffffffffffffffffffffffffffffffffffff161415610fea576040517f08c379a0000000000000000000000000000000000000000000000000000000008152600401610fe1906137f5565b60405180910390fd5b8060066000610ff761145b565b73ffffffffffffffffffffffffffffffffffffffff1673ffffffffffffffffffffffffffffffffffffffff16815260200190815260200160002060008473ffffffffffffffffffffffffffffffffffffffff1673ffffffffffffffffffffffffffffffffffffffff16815260200190815260200160002060006101000a81548160ff0219169083151502179055508173ffffffffffffffffffffffffffffffffffffffff166110a461145b565b73ffffffffffffffffffffffffffffffffffffffff167f17307eab39ab6107e8899845ad3d59bd9653f200f220920489ca2b5937696c31836040516110e99190612a33565b60405180910390a35050565b61110661110061145b565b8361151c565b611145576040517f08c379a000000000000000000000000000000000000000000000000000000000815260040161113c90613382565b60405180910390fd5b61115184848484611ae6565b50505050565b7f0a1704759791c789e02e7ea2b8b48d3ffe1f2ebace5515b64b3172e65805517581565b6060611186826113ef565b6111c5576040517f08c379a00000000000000000000000000000000000000000000000000000000081526004016111bc90613887565b60405180910390fd5b60006111d083611b42565b905060006111dc611ca3565b90506000815114156111f257819250505061124e565b60008251111561122757808260405160200161120f9291906138e3565b6040516020818303038152906040529250505061124e565b808260405160200161123a9291906138e3565b604051602081830303815290604052925050505b919050565b7f9f2df0fed2c77648de5860a4cc508cd0818c85b8b8a1ab4ceeef8d981c8956a681565b611280826108fe565b6112918161128c61145b565b611856565b61129b83836119d3565b505050565b601481565b6000600660008473ffffffffffffffffffffffffffffffffffffffff1673ffffffffffffffffffffffffffffffffffffffff16815260200190815260200160002060008373ffffffffffffffffffffffffffffffffffffffff1673ffffffffffffffffffffffffffffffffffffffff16815260200190815260200160002060009054906101000a900460ff16905092915050565b60007f9f2df0fed2c77648de5860a4cc508cd0818c85b8b8a1ab4ceeef8d981c8956a661136d8161136861145b565b611856565b600191505090565b60007f780e9d63000000000000000000000000000000000000000000000000000000007bffffffffffffffffffffffffffffffffffffffffffffffffffffffff1916827bffffffffffffffffffffffffffffffffffffffffffffffffffffffff191614806113e857506113e782611cba565b5b9050919050565b60008073ffffffffffffffffffffffffffffffffffffffff166003600084815260200190815260200160002060009054906101000a900473ffffffffffffffffffffffffffffffffffffffff1673ffffffffffffffffffffffffffffffffffffffff1614159050919050565b600033905090565b816005600083815260200190815260200160002060006101000a81548173ffffffffffffffffffffffffffffffffffffffff021916908373ffffffffffffffffffffffffffffffffffffffff160217905550808273ffffffffffffffffffffffffffffffffffffffff166114d683610b64565b73ffffffffffffffffffffffffffffffffffffffff167f8c5be1e5ebec7d5bd14f71427d1e84f3dd0314c0f7b2291e5b200ac8c7c3b92560405160405180910390a45050565b6000611527826113ef565b611566576040517f08c379a000000000000000000000000000000000000000000000000000000000815260040161155d90613979565b60405180910390fd5b600061157183610b64565b90508073ffffffffffffffffffffffffffffffffffffffff168473ffffffffffffffffffffffffffffffffffffffff1614806115e057508373ffffffffffffffffffffffffffffffffffffffff166115c8846106f4565b73ffffffffffffffffffffffffffffffffffffffff16145b806115f157506115f081856112a5565b5b91505092915050565b8273ffffffffffffffffffffffffffffffffffffffff1661161a82610b64565b73ffffffffffffffffffffffffffffffffffffffff1614611670576040517f08c379a000000000000000000000000000000000000000000000000000000000815260040161166790613a0b565b60405180910390fd5b600073ffffffffffffffffffffffffffffffffffffffff168273ffffffffffffffffffffffffffffffffffffffff1614156116e0576040517f08c379a00000000000000000000000000000000000000000000000000000000081526004016116d790613a9d565b60405180910390fd5b6116eb838383611d9c565b6116f6600082611463565b6001600460008573ffffffffffffffffffffffffffffffffffffffff1673ffffffffffffffffffffffffffffffffffffffff16815260200190815260200160002060008282546117469190613aec565b925050819055506001600460008473ffffffffffffffffffffffffffffffffffffffff1673ffffffffffffffffffffffffffffffffffffffff168152602001908152602001600020600082825461179d9190613b20565b92505081905550816003600083815260200190815260200160002060006101000a81548173ffffffffffffffffffffffffffffffffffffffff021916908373ffffffffffffffffffffffffffffffffffffffff160217905550808273ffffffffffffffffffffffffffffffffffffffff168473ffffffffffffffffffffffffffffffffffffffff167fddf252ad1be2c89b69c2b068fc378daa952ba7f163c4a11628f55a4df523b3ef60405160405180910390a4505050565b6118608282610dbe565b6118ef576118858173ffffffffffffffffffffffffffffffffffffffff166014611dac565b6118938360001c6020611dac565b6040516020016118a4929190613c0e565b6040516020818303038152906040526040517f08c379a00000000000000000000000000000000000000000000000000000000081526004016118e69190612ae7565b60405180910390fd5b5050565b6118fd8282610dbe565b6119cf57600160008084815260200190815260200160002060000160008373ffffffffffffffffffffffffffffffffffffffff1673ffffffffffffffffffffffffffffffffffffffff16815260200190815260200160002060006101000a81548160ff02191690831515021790555061197461145b565b73ffffffffffffffffffffffffffffffffffffffff168173ffffffffffffffffffffffffffffffffffffffff16837f2f8788117e7eff1d82e926ec794901d17c78024a50270940304540a733656f0d60405160405180910390a45b5050565b6119dd8282610dbe565b15611ab057600080600084815260200190815260200160002060000160008373ffffffffffffffffffffffffffffffffffffffff1673ffffffffffffffffffffffffffffffffffffffff16815260200190815260200160002060006101000a81548160ff021916908315150217905550611a5561145b565b73ffffffffffffffffffffffffffffffffffffffff168173ffffffffffffffffffffffffffffffffffffffff16837ff6391f5c32d9c69d2a47ea670b442974b53935d1edc7fd64eb21e047a839171b60405160405180910390a45b5050565b600081600001549050919050565b611acc8282611fe8565b5050565b6001816000016000828254019250508190555050565b611af18484846115fa565b611afd84848484612006565b611b3c576040517f08c379a0000000000000000000000000000000000000000000000000000000008152600401611b3390613cba565b60405180910390fd5b50505050565b60606000821415611b8a576040518060400160405280600181526020017f30000000000000000000000000000000000000000000000000000000000000008152509050611c9e565b600082905060005b60008214611bbc578080611ba590613cda565b915050600a82611bb59190613d52565b9150611b92565b60008167ffffffffffffffff811115611bd857611bd7612db5565b5b6040519080825280601f01601f191660200182016040528015611c0a5781602001600182028036833780820191505090505b5090505b60008514611c9757600182611c239190613aec565b9150600a85611c329190613d83565b6030611c3e9190613b20565b60f81b818381518110611c5457611c53613558565b5b60200101907effffffffffffffffffffffffffffffffffffffffffffffffffffffffffffff1916908160001a905350600a85611c909190613d52565b9450611c0e565b8093505050505b919050565b606060405180602001604052806000815250905090565b60007f80ac58cd000000000000000000000000000000000000000000000000000000007bffffffffffffffffffffffffffffffffffffffffffffffffffffffff1916827bffffffffffffffffffffffffffffffffffffffffffffffffffffffff19161480611d8557507f5b5e139f000000000000000000000000000000000000000000000000000000007bffffffffffffffffffffffffffffffffffffffffffffffffffffffff1916827bffffffffffffffffffffffffffffffffffffffffffffffffffffffff1916145b80611d955750611d948261219d565b5b9050919050565b611da7838383612217565b505050565b606060006002836002611dbf9190613db4565b611dc99190613b20565b67ffffffffffffffff811115611de257611de1612db5565b5b6040519080825280601f01601f191660200182016040528015611e145781602001600182028036833780820191505090505b5090507f300000000000000000000000000000000000000000000000000000000000000081600081518110611e4c57611e4b613558565b5b60200101907effffffffffffffffffffffffffffffffffffffffffffffffffffffffffffff1916908160001a9053507f780000000000000000000000000000000000000000000000000000000000000081600181518110611eb057611eaf613558565b5b60200101907effffffffffffffffffffffffffffffffffffffffffffffffffffffffffffff1916908160001a90535060006001846002611ef09190613db4565b611efa9190613b20565b90505b6001811115611f9a577f3031323334353637383961626364656600000000000000000000000000000000600f861660108110611f3c57611f3b613558565b5b1a60f81b828281518110611f5357611f52613558565b5b60200101907effffffffffffffffffffffffffffffffffffffffffffffffffffffffffffff1916908160001a905350600485901c945080611f9390613e0e565b9050611efd565b5060008414611fde576040517f08c379a0000000000000000000000000000000000000000000000000000000008152600401611fd590613e84565b60405180910390fd5b8091505092915050565b61200282826040518060200160405280600081525061232b565b5050565b60006120278473ffffffffffffffffffffffffffffffffffffffff16612386565b15612190578373ffffffffffffffffffffffffffffffffffffffff1663150b7a0261205061145b565b8786866040518563ffffffff1660e01b81526004016120729493929190613ef9565b602060405180830381600087803b15801561208c57600080fd5b505af19250505080156120bd57506040513d601f19601f820116820180604052508101906120ba9190613f5a565b60015b612140573d80600081146120ed576040519150601f19603f3d011682016040523d82523d6000602084013e6120f2565b606091505b50600081511415612138576040517f08c379a000000000000000000000000000000000000000000000000000000000815260040161212f90613cba565b60405180910390fd5b805181602001fd5b63150b7a0260e01b7bffffffffffffffffffffffffffffffffffffffffffffffffffffffff1916817bffffffffffffffffffffffffffffffffffffffffffffffffffffffff191614915050612195565b600190505b949350505050565b60007f7965db0b000000000000000000000000000000000000000000000000000000007bffffffffffffffffffffffffffffffffffffffffffffffffffffffff1916827bffffffffffffffffffffffffffffffffffffffffffffffffffffffff19161480612210575061220f82612399565b5b9050919050565b612222838383612403565b600073ffffffffffffffffffffffffffffffffffffffff168373ffffffffffffffffffffffffffffffffffffffff1614156122655761226081612408565b6122a4565b8173ffffffffffffffffffffffffffffffffffffffff168373ffffffffffffffffffffffffffffffffffffffff16146122a3576122a28382612451565b5b5b600073ffffffffffffffffffffffffffffffffffffffff168273ffffffffffffffffffffffffffffffffffffffff1614156122e7576122e2816125be565b612326565b8273ffffffffffffffffffffffffffffffffffffffff168273ffffffffffffffffffffffffffffffffffffffff161461232557612324828261268f565b5b5b505050565b612335838361270e565b6123426000848484612006565b612381576040517f08c379a000000000000000000000000000000000000000000000000000000000815260040161237890613cba565b60405180910390fd5b505050565b600080823b905060008111915050919050565b60007f01ffc9a7000000000000000000000000000000000000000000000000000000007bffffffffffffffffffffffffffffffffffffffffffffffffffffffff1916827bffffffffffffffffffffffffffffffffffffffffffffffffffffffff1916149050919050565b505050565b600980549050600a600083815260200190815260200160002081905550600981908060018154018082558091505060019003906000526020600020016000909190919091505550565b6000600161245e84610c16565b6124689190613aec565b905060006008600084815260200190815260200160002054905081811461254d576000600760008673ffffffffffffffffffffffffffffffffffffffff1673ffffffffffffffffffffffffffffffffffffffff168152602001908152602001600020600084815260200190815260200160002054905080600760008773ffffffffffffffffffffffffffffffffffffffff1673ffffffffffffffffffffffffffffffffffffffff168152602001908152602001600020600084815260200190815260200160002081905550816008600083815260200190815260200160002081905550505b6008600084815260200190815260200160002060009055600760008573ffffffffffffffffffffffffffffffffffffffff1673ffffffffffffffffffffffffffffffffffffffff16815260200190815260200160002060008381526020019081526020016000206000905550505050565b600060016009805490506125d29190613aec565b90506000600a600084815260200190815260200160002054905060006009838154811061260257612601613558565b5b90600052602060002001549050806009838154811061262457612623613558565b5b906000526020600020018190555081600a600083815260200190815260200160002081905550600a600085815260200190815260200160002060009055600980548061267357612672613f87565b5b6001900381819060005260206000200160009055905550505050565b600061269a83610c16565b905081600760008573ffffffffffffffffffffffffffffffffffffffff1673ffffffffffffffffffffffffffffffffffffffff168152602001908152602001600020600083815260200190815260200160002081905550806008600084815260200190815260200160002081905550505050565b600073ffffffffffffffffffffffffffffffffffffffff168273ffffffffffffffffffffffffffffffffffffffff16141561277e576040517f08c379a000000000000000000000000000000000000000000000000000000000815260040161277590614002565b60405180910390fd5b612787816113ef565b156127c7576040517f08c379a00000000000000000000000000000000000000000000000000000000081526004016127be9061406e565b60405180910390fd5b6127d360008383611d9c565b6001600460008473ffffffffffffffffffffffffffffffffffffffff1673ffffffffffffffffffffffffffffffffffffffff16815260200190815260200160002060008282546128239190613b20565b92505081905550816003600083815260200190815260200160002060006101000a81548173ffffffffffffffffffffffffffffffffffffffff021916908373ffffffffffffffffffffffffffffffffffffffff160217905550808273ffffffffffffffffffffffffffffffffffffffff16600073ffffffffffffffffffffffffffffffffffffffff167fddf252ad1be2c89b69c2b068fc378daa952ba7f163c4a11628f55a4df523b3ef60405160405180910390a45050565b8280546128e890613128565b90600052602060002090601f01602090048101928261290a5760008555612951565b82601f1061292357805160ff1916838001178555612951565b82800160010185558215612951579182015b82811115612950578251825591602001919060010190612935565b5b50905061295e9190612962565b5090565b5b8082111561297b576000816000905550600101612963565b5090565b6000604051905090565b600080fd5b600080fd5b60007fffffffff0000000000000000000000000000000000000000000000000000000082169050919050565b6129c881612993565b81146129d357600080fd5b50565b6000813590506129e5816129bf565b92915050565b600060208284031215612a0157612a00612989565b5b6000612a0f848285016129d6565b91505092915050565b60008115159050919050565b612a2d81612a18565b82525050565b6000602082019050612a486000830184612a24565b92915050565b600081519050919050565b600082825260208201905092915050565b60005b83811015612a88578082015181840152602081019050612a6d565b83811115612a97576000848401525b50505050565b6000601f19601f8301169050919050565b6000612ab982612a4e565b612ac38185612a59565b9350612ad3818560208601612a6a565b612adc81612a9d565b840191505092915050565b60006020820190508181036000830152612b018184612aae565b905092915050565b6000819050919050565b612b1c81612b09565b8114612b2757600080fd5b50565b600081359050612b3981612b13565b92915050565b600060208284031215612b5557612b54612989565b5b6000612b6384828501612b2a565b91505092915050565b600073ffffffffffffffffffffffffffffffffffffffff82169050919050565b6000612b9782612b6c565b9050919050565b612ba781612b8c565b82525050565b6000602082019050612bc26000830184612b9e565b92915050565b612bd181612b8c565b8114612bdc57600080fd5b50565b600081359050612bee81612bc8565b92915050565b60008060408385031215612c0b57612c0a612989565b5b6000612c1985828601612bdf565b9250506020612c2a85828601612b2a565b9150509250929050565b612c3d81612b09565b82525050565b6000602082019050612c586000830184612c34565b92915050565b600080600060608486031215612c7757612c76612989565b5b6000612c8586828701612bdf565b9350506020612c9686828701612bdf565b9250506040612ca786828701612b2a565b9150509250925092565b6000819050919050565b612cc481612cb1565b8114612ccf57600080fd5b50565b600081359050612ce181612cbb565b92915050565b600060208284031215612cfd57612cfc612989565b5b6000612d0b84828501612cd2565b91505092915050565b612d1d81612cb1565b82525050565b6000602082019050612d386000830184612d14565b92915050565b600060208284031215612d5457612d53612989565b5b6000612d6284828501612bdf565b91505092915050565b60008060408385031215612d8257612d81612989565b5b6000612d9085828601612cd2565b9250506020612da185828601612bdf565b9150509250929050565b600080fd5b600080fd5b7f4e487b7100000000000000000000000000000000000000000000000000000000600052604160045260246000fd5b612ded82612a9d565b810181811067ffffffffffffffff82111715612e0c57612e0b612db5565b5b80604052505050565b6000612e1f61297f565b9050612e2b8282612de4565b919050565b600067ffffffffffffffff821115612e4b57612e4a612db5565b5b612e5482612a9d565b9050602081019050919050565b82818337600083830152505050565b6000612e83612e7e84612e30565b612e15565b905082815260208101848484011115612e9f57612e9e612db0565b5b612eaa848285612e61565b509392505050565b600082601f830112612ec757612ec6612dab565b5b8135612ed7848260208601612e70565b91505092915050565b600060208284031215612ef657612ef5612989565b5b600082013567ffffffffffffffff811115612f1457612f1361298e565b5b612f2084828501612eb2565b91505092915050565b612f3281612a18565b8114612f3d57600080fd5b50565b600081359050612f4f81612f29565b92915050565b60008060408385031215612f6c57612f6b612989565b5b6000612f7a85828601612bdf565b9250506020612f8b85828601612f40565b9150509250929050565b600067ffffffffffffffff821115612fb057612faf612db5565b5b612fb982612a9d565b9050602081019050919050565b6000612fd9612fd484612f95565b612e15565b905082815260208101848484011115612ff557612ff4612db0565b5b613000848285612e61565b509392505050565b600082601f83011261301d5761301c612dab565b5b813561302d848260208601612fc6565b91505092915050565b600080600080608085870312156130505761304f612989565b5b600061305e87828801612bdf565b945050602061306f87828801612bdf565b935050604061308087828801612b2a565b925050606085013567ffffffffffffffff8111156130a1576130a061298e565b5b6130ad87828801613008565b91505092959194509250565b600080604083850312156130d0576130cf612989565b5b60006130de85828601612bdf565b92505060206130ef85828601612bdf565b9150509250929050565b7f4e487b7100000000000000000000000000000000000000000000000000000000600052602260045260246000fd5b6000600282049050600182168061314057607f821691505b60208210811415613154576131536130f9565b5b50919050565b7f4552433732313a20617070726f76656420717565727920666f72206e6f6e657860008201527f697374656e7420746f6b656e0000000000000000000000000000000000000000602082015250565b60006131b6602c83612a59565b91506131c18261315a565b604082019050919050565b600060208201905081810360008301526131e5816131a9565b9050919050565b7f4552433732313a20617070726f76616c20746f2063757272656e74206f776e6560008201527f7200000000000000000000000000000000000000000000000000000000000000602082015250565b6000613248602183612a59565b9150613253826131ec565b604082019050919050565b600060208201905081810360008301526132778161323b565b9050919050565b7f4552433732313a20617070726f76652063616c6c6572206973206e6f74206f7760008201527f6e6572206e6f7220617070726f76656420666f7220616c6c0000000000000000602082015250565b60006132da603883612a59565b91506132e58261327e565b604082019050919050565b60006020820190508181036000830152613309816132cd565b9050919050565b7f4552433732313a207472616e736665722063616c6c6572206973206e6f74206f60008201527f776e6572206e6f7220617070726f766564000000000000000000000000000000602082015250565b600061336c603183612a59565b915061337782613310565b604082019050919050565b6000602082019050818103600083015261339b8161335f565b9050919050565b7f455243373231456e756d657261626c653a206f776e657220696e646578206f7560008201527f74206f6620626f756e6473000000000000000000000000000000000000000000602082015250565b60006133fe602b83612a59565b9150613409826133a2565b604082019050919050565b6000602082019050818103600083015261342d816133f1565b9050919050565b7f416363657373436f6e74726f6c3a2063616e206f6e6c792072656e6f756e636560008201527f20726f6c657320666f722073656c660000000000000000000000000000000000602082015250565b6000613490602f83612a59565b915061349b82613434565b604082019050919050565b600060208201905081810360008301526134bf81613483565b9050919050565b7f455243373231456e756d657261626c653a20676c6f62616c20696e646578206f60008201527f7574206f6620626f756e64730000000000000000000000000000000000000000602082015250565b6000613522602c83612a59565b915061352d826134c6565b604082019050919050565b6000602082019050818103600083015261355181613515565b9050919050565b7f4e487b7100000000000000000000000000000000000000000000000000000000600052603260045260246000fd5b7f4552433732313a206f776e657220717565727920666f72206e6f6e657869737460008201527f656e7420746f6b656e0000000000000000000000000000000000000000000000602082015250565b60006135e3602983612a59565b91506135ee82613587565b604082019050919050565b60006020820190508181036000830152613612816135d6565b9050919050565b7f4552433732313a2062616c616e636520717565727920666f7220746865207a6560008201527f726f206164647265737300000000000000000000000000000000000000000000602082015250565b6000613675602a83612a59565b915061368082613619565b604082019050919050565b600060208201905081810360008301526136a481613668565b9050919050565b7f53616c65206973206f7665722c20616c6c20636f6c6c65637461626c6573207360008201527f6f6c642e00000000000000000000000000000000000000000000000000000000602082015250565b6000613707602483612a59565b9150613712826136ab565b604082019050919050565b60006020820190508181036000830152613736816136fa565b9050919050565b7f506c6561736520456e7465722056616c69642041646472657373000000000000600082015250565b6000613773601a83612a59565b915061377e8261373d565b602082019050919050565b600060208201905081810360008301526137a281613766565b9050919050565b7f4552433732313a20617070726f766520746f2063616c6c657200000000000000600082015250565b60006137df601983612a59565b91506137ea826137a9565b602082019050919050565b6000602082019050818103600083015261380e816137d2565b9050919050565b7f4552433732314d657461646174613a2055524920717565727920666f72206e6f60008201527f6e6578697374656e7420746f6b656e0000000000000000000000000000000000602082015250565b6000613871602f83612a59565b915061387c82613815565b604082019050919050565b600060208201905081810360008301526138a081613864565b9050919050565b600081905092915050565b60006138bd82612a4e565b6138c781856138a7565b93506138d7818560208601612a6a565b80840191505092915050565b60006138ef82856138b2565b91506138fb82846138b2565b91508190509392505050565b7f4552433732313a206f70657261746f7220717565727920666f72206e6f6e657860008201527f697374656e7420746f6b656e0000000000000000000000000000000000000000602082015250565b6000613963602c83612a59565b915061396e82613907565b604082019050919050565b6000602082019050818103600083015261399281613956565b9050919050565b7f4552433732313a207472616e73666572206f6620746f6b656e2074686174206960008201527f73206e6f74206f776e0000000000000000000000000000000000000000000000602082015250565b60006139f5602983612a59565b9150613a0082613999565b604082019050919050565b60006020820190508181036000830152613a24816139e8565b9050919050565b7f4552433732313a207472616e7366657220746f20746865207a65726f2061646460008201527f7265737300000000000000000000000000000000000000000000000000000000602082015250565b6000613a87602483612a59565b9150613a9282613a2b565b604082019050919050565b60006020820190508181036000830152613ab681613a7a565b9050919050565b7f4e487b7100000000000000000000000000000000000000000000000000000000600052601160045260246000fd5b6000613af782612b09565b9150613b0283612b09565b925082821015613b1557613b14613abd565b5b828203905092915050565b6000613b2b82612b09565b9150613b3683612b09565b9250827fffffffffffffffffffffffffffffffffffffffffffffffffffffffffffffffff03821115613b6b57613b6a613abd565b5b828201905092915050565b7f416363657373436f6e74726f6c3a206163636f756e7420000000000000000000600082015250565b6000613bac6017836138a7565b9150613bb782613b76565b601782019050919050565b7f206973206d697373696e6720726f6c6520000000000000000000000000000000600082015250565b6000613bf86011836138a7565b9150613c0382613bc2565b601182019050919050565b6000613c1982613b9f565b9150613c2582856138b2565b9150613c3082613beb565b9150613c3c82846138b2565b91508190509392505050565b7f4552433732313a207472616e7366657220746f206e6f6e20455243373231526560008201527f63656976657220696d706c656d656e7465720000000000000000000000000000602082015250565b6000613ca4603283612a59565b9150613caf82613c48565b604082019050919050565b60006020820190508181036000830152613cd381613c97565b9050919050565b6000613ce582612b09565b91507fffffffffffffffffffffffffffffffffffffffffffffffffffffffffffffffff821415613d1857613d17613abd565b5b600182019050919050565b7f4e487b7100000000000000000000000000000000000000000000000000000000600052601260045260246000fd5b6000613d5d82612b09565b9150613d6883612b09565b925082613d7857613d77613d23565b5b828204905092915050565b6000613d8e82612b09565b9150613d9983612b09565b925082613da957613da8613d23565b5b828206905092915050565b6000613dbf82612b09565b9150613dca83612b09565b9250817fffffffffffffffffffffffffffffffffffffffffffffffffffffffffffffffff0483118215151615613e0357613e02613abd565b5b828202905092915050565b6000613e1982612b09565b91506000821415613e2d57613e2c613abd565b5b600182039050919050565b7f537472696e67733a20686578206c656e67746820696e73756666696369656e74600082015250565b6000613e6e602083612a59565b9150613e7982613e38565b602082019050919050565b60006020820190508181036000830152613e9d81613e61565b9050919050565b600081519050919050565b600082825260208201905092915050565b6000613ecb82613ea4565b613ed58185613eaf565b9350613ee5818560208601612a6a565b613eee81612a9d565b840191505092915050565b6000608082019050613f0e6000830187612b9e565b613f1b6020830186612b9e565b613f286040830185612c34565b8181036060830152613f3a8184613ec0565b905095945050505050565b600081519050613f54816129bf565b92915050565b600060208284031215613f7057613f6f612989565b5b6000613f7e84828501613f45565b91505092915050565b7f4e487b7100000000000000000000000000000000000000000000000000000000600052603160045260246000fd5b7f4552433732313a206d696e7420746f20746865207a65726f2061646472657373600082015250565b6000613fec602083612a59565b9150613ff782613fb6565b602082019050919050565b6000602082019050818103600083015261401b81613fdf565b9050919050565b7f4552433732313a20746f6b656e20616c7265616479206d696e74656400000000600082015250565b6000614058601c83612a59565b915061406382614022565b602082019050919050565b600060208201905081810360008301526140878161404b565b905091905056fea264697066735822122011192089179f831bbda6800631de3e6f1ea561d6d1d0843c9b2c92ee5c2d4f7564736f6c63430008090033",
  "immutableReferences": {},
  "source": "// SPDX-License-Identifier: MIT\npragma solidity ^0.8.0;\n\nimport \"@openzeppelin/contracts/token/ERC721/extensions/ERC721Enumerable.sol\";\nimport \"@openzeppelin/contracts/access/AccessControl.sol\";\nimport \"@openzeppelin/contracts/utils/Counters.sol\";\nimport \"@openzeppelin/contracts/utils/math/SafeMath.sol\";\n\n\n\n\n\ncontract MyWish is AccessControl, ERC721Enumerable{\n    \n    using Counters for Counters.Counter; \n    using SafeMath for uint256; \n    \n\n    Counters.Counter private _tokenId; \n    bytes32 public constant MINTER_ROLE = keccak256(\"MINTER_ROLE\");\n    bytes32 public constant BASEURI_ROLE = keccak256(\"BASEURI_ROLE\");\n    uint256 public constant _totalWishes = 10000; \n    uint256 public constant _maxPurchaseAllowed = 20; \n\n    mapping(address => uint256)public balances;\n    string  __name = \"MyWish\";\n    string _baseURIextended = 'WE NEED IPFS';\n    \n    //Add mapping token URIs\n\n\n    constructor() ERC721(\"MyWish\",\"WSH\") {\n        _setupRole(DEFAULT_ADMIN_ROLE,msg.sender);\n        _setRoleAdmin(MINTER_ROLE, DEFAULT_ADMIN_ROLE);\n        _setRoleAdmin(BASEURI_ROLE,DEFAULT_ADMIN_ROLE);\n    }\n    \n    function setBaseURI(string memory baseURI_) external onlyRole(BASEURI_ROLE) {\n        _baseURIextended = baseURI_;\n    }\n    \n    function tokenURI(uint256 tokenId) public view virtual override returns (string memory) {\n        require(_exists(tokenId), \"ERC721Metadata: URI query for nonexistent token\");\n\n        string memory _tokenURI = Strings.toString(tokenId);\n        string memory base = _baseURI();\n        \n        // If there is no base URI, return the token URI.\n        if (bytes(base).length == 0) {\n            return _tokenURI;\n        }\n        // If both are set, concatenate the baseURI and tokenURI (via abi.encodePacked).\n        if (bytes(_tokenURI).length > 0) {\n            return string(abi.encodePacked(base, _tokenURI));\n        }\n        // If there is a baseURI but no tokenURI, concatenate the tokenID to the baseURI.\n        return string(abi.encodePacked(base, _tokenURI));\n    }\n\n    function createCollectable(address to) public onlyRole(MINTER_ROLE)  returns(bool) {\n        require(totalSupply() < _totalWishes, \"Sale is over, all collectables sold.\"); //Might not need this one\n        safeMint(to, _tokenId.current());\n        bool success = ownerOf(_tokenId.current()) == to;\n        _tokenId.increment();\n        return success; \n    }\n\n    function safeMint(address to, uint256 tokenId) private {\n        _safeMint(to, tokenId);\n    }\n\n\n    function _beforeTokenTransfer(address from, address to, uint256 tokenId) \n        internal \n        override( ERC721Enumerable) {\n\n        super._beforeTokenTransfer(from, to, tokenId);\n    }\n\n    function supportsInterface(bytes4 interfaceId) \n        public \n        view \n        override( ERC721Enumerable, AccessControl) \n        returns (bool) {\n\n        return super.supportsInterface(interfaceId);\n    }\n\n    \n    function _burn(uint256 tokenId) internal override(ERC721) {\n        super._burn(tokenId);\n    }\n\n\n    function setMinterRole(address minter) public onlyRole(DEFAULT_ADMIN_ROLE) {\n        require(minter != address(0),\"Please Enter Valid Address\");\n        grantRole(MINTER_ROLE,minter);\n       \n    }\n  \n    function getRole() public onlyRole(MINTER_ROLE) view  returns(bool) {\n       \n        return true;\n    }\n\n\n} \n\n\n\n\n",
  "sourcePath": "/Users/zlederman/Documents/Code/js/truffle-react/contracts/MyWish.sol",
  "compiler": {
    "name": "solc",
    "version": "0.8.9+commit.e5eed63a.Emscripten.clang"
  },
  "schemaVersion": "3.4.2",
  "updatedAt": "2021-11-08T17:27:49.180Z",
  "networkType": "ethereum",
  "devdoc": {
    "kind": "dev",
    "methods": {
      "approve(address,uint256)": {
        "details": "See {IERC721-approve}."
      },
      "balanceOf(address)": {
        "details": "See {IERC721-balanceOf}."
      },
      "getApproved(uint256)": {
        "details": "See {IERC721-getApproved}."
      },
      "getRoleAdmin(bytes32)": {
        "details": "Returns the admin role that controls `role`. See {grantRole} and {revokeRole}. To change a role's admin, use {_setRoleAdmin}."
      },
      "grantRole(bytes32,address)": {
        "details": "Grants `role` to `account`. If `account` had not been already granted `role`, emits a {RoleGranted} event. Requirements: - the caller must have ``role``'s admin role."
      },
      "hasRole(bytes32,address)": {
        "details": "Returns `true` if `account` has been granted `role`."
      },
      "isApprovedForAll(address,address)": {
        "details": "See {IERC721-isApprovedForAll}."
      },
      "name()": {
        "details": "See {IERC721Metadata-name}."
      },
      "ownerOf(uint256)": {
        "details": "See {IERC721-ownerOf}."
      },
      "renounceRole(bytes32,address)": {
        "details": "Revokes `role` from the calling account. Roles are often managed via {grantRole} and {revokeRole}: this function's purpose is to provide a mechanism for accounts to lose their privileges if they are compromised (such as when a trusted device is misplaced). If the calling account had been granted `role`, emits a {RoleRevoked} event. Requirements: - the caller must be `account`."
      },
      "revokeRole(bytes32,address)": {
        "details": "Revokes `role` from `account`. If `account` had been granted `role`, emits a {RoleRevoked} event. Requirements: - the caller must have ``role``'s admin role."
      },
      "safeTransferFrom(address,address,uint256)": {
        "details": "See {IERC721-safeTransferFrom}."
      },
      "safeTransferFrom(address,address,uint256,bytes)": {
        "details": "See {IERC721-safeTransferFrom}."
      },
      "setApprovalForAll(address,bool)": {
        "details": "See {IERC721-setApprovalForAll}."
      },
      "symbol()": {
        "details": "See {IERC721Metadata-symbol}."
      },
      "tokenByIndex(uint256)": {
        "details": "See {IERC721Enumerable-tokenByIndex}."
      },
      "tokenOfOwnerByIndex(address,uint256)": {
        "details": "See {IERC721Enumerable-tokenOfOwnerByIndex}."
      },
      "tokenURI(uint256)": {
        "details": "See {IERC721Metadata-tokenURI}."
      },
      "totalSupply()": {
        "details": "See {IERC721Enumerable-totalSupply}."
      },
      "transferFrom(address,address,uint256)": {
        "details": "See {IERC721-transferFrom}."
      }
    },
    "version": 1
  },
  "userdoc": {
    "kind": "user",
    "methods": {},
    "version": 1
  }
}