{
  "contractName": "MyWish",
  "abi": [
    {
      "inputs": [],
      "stateMutability": "nonpayable",
      "type": "constructor"
    },
    {
      "anonymous": false,
      "inputs": [
        {
          "indexed": true,
          "internalType": "address",
          "name": "owner",
          "type": "address"
        },
        {
          "indexed": true,
          "internalType": "address",
          "name": "approved",
          "type": "address"
        },
        {
          "indexed": true,
          "internalType": "uint256",
          "name": "tokenId",
          "type": "uint256"
        }
      ],
      "name": "Approval",
      "type": "event"
    },
    {
      "anonymous": false,
      "inputs": [
        {
          "indexed": true,
          "internalType": "address",
          "name": "owner",
          "type": "address"
        },
        {
          "indexed": true,
          "internalType": "address",
          "name": "operator",
          "type": "address"
        },
        {
          "indexed": false,
          "internalType": "bool",
          "name": "approved",
          "type": "bool"
        }
      ],
      "name": "ApprovalForAll",
      "type": "event"
    },
    {
      "anonymous": false,
      "inputs": [
        {
          "indexed": true,
          "internalType": "bytes32",
          "name": "role",
          "type": "bytes32"
        },
        {
          "indexed": true,
          "internalType": "bytes32",
          "name": "previousAdminRole",
          "type": "bytes32"
        },
        {
          "indexed": true,
          "internalType": "bytes32",
          "name": "newAdminRole",
          "type": "bytes32"
        }
      ],
      "name": "RoleAdminChanged",
      "type": "event"
    },
    {
      "anonymous": false,
      "inputs": [
        {
          "indexed": true,
          "internalType": "bytes32",
          "name": "role",
          "type": "bytes32"
        },
        {
          "indexed": true,
          "internalType": "address",
          "name": "account",
          "type": "address"
        },
        {
          "indexed": true,
          "internalType": "address",
          "name": "sender",
          "type": "address"
        }
      ],
      "name": "RoleGranted",
      "type": "event"
    },
    {
      "anonymous": false,
      "inputs": [
        {
          "indexed": true,
          "internalType": "bytes32",
          "name": "role",
          "type": "bytes32"
        },
        {
          "indexed": true,
          "internalType": "address",
          "name": "account",
          "type": "address"
        },
        {
          "indexed": true,
          "internalType": "address",
          "name": "sender",
          "type": "address"
        }
      ],
      "name": "RoleRevoked",
      "type": "event"
    },
    {
      "anonymous": false,
      "inputs": [
        {
          "indexed": true,
          "internalType": "address",
          "name": "from",
          "type": "address"
        },
        {
          "indexed": true,
          "internalType": "address",
          "name": "to",
          "type": "address"
        },
        {
          "indexed": true,
          "internalType": "uint256",
          "name": "tokenId",
          "type": "uint256"
        }
      ],
      "name": "Transfer",
      "type": "event"
    },
    {
      "inputs": [],
      "name": "BASEURI_ROLE",
      "outputs": [
        {
          "internalType": "bytes32",
          "name": "",
          "type": "bytes32"
        }
      ],
      "stateMutability": "view",
      "type": "function",
      "constant": true
    },
    {
      "inputs": [],
      "name": "DEFAULT_ADMIN_ROLE",
      "outputs": [
        {
          "internalType": "bytes32",
          "name": "",
          "type": "bytes32"
        }
      ],
      "stateMutability": "view",
      "type": "function",
      "constant": true
    },
    {
      "inputs": [],
      "name": "MINTER_ROLE",
      "outputs": [
        {
          "internalType": "bytes32",
          "name": "",
          "type": "bytes32"
        }
      ],
      "stateMutability": "view",
      "type": "function",
      "constant": true
    },
    {
      "inputs": [],
      "name": "_maxPurchaseAllowed",
      "outputs": [
        {
          "internalType": "uint256",
          "name": "",
          "type": "uint256"
        }
      ],
      "stateMutability": "view",
      "type": "function",
      "constant": true
    },
    {
      "inputs": [],
      "name": "_totalWishes",
      "outputs": [
        {
          "internalType": "uint256",
          "name": "",
          "type": "uint256"
        }
      ],
      "stateMutability": "view",
      "type": "function",
      "constant": true
    },
    {
      "inputs": [
        {
          "internalType": "address",
          "name": "to",
          "type": "address"
        },
        {
          "internalType": "uint256",
          "name": "tokenId",
          "type": "uint256"
        }
      ],
      "name": "approve",
      "outputs": [],
      "stateMutability": "nonpayable",
      "type": "function"
    },
    {
      "inputs": [
        {
          "internalType": "address",
          "name": "owner",
          "type": "address"
        }
      ],
      "name": "balanceOf",
      "outputs": [
        {
          "internalType": "uint256",
          "name": "",
          "type": "uint256"
        }
      ],
      "stateMutability": "view",
      "type": "function",
      "constant": true
    },
    {
      "inputs": [
        {
          "internalType": "address",
          "name": "",
          "type": "address"
        }
      ],
      "name": "balances",
      "outputs": [
        {
          "internalType": "uint256",
          "name": "",
          "type": "uint256"
        }
      ],
      "stateMutability": "view",
      "type": "function",
      "constant": true
    },
    {
      "inputs": [
        {
          "internalType": "uint256",
          "name": "tokenId",
          "type": "uint256"
        }
      ],
      "name": "getApproved",
      "outputs": [
        {
          "internalType": "address",
          "name": "",
          "type": "address"
        }
      ],
      "stateMutability": "view",
      "type": "function",
      "constant": true
    },
    {
      "inputs": [
        {
          "internalType": "bytes32",
          "name": "role",
          "type": "bytes32"
        }
      ],
      "name": "getRoleAdmin",
      "outputs": [
        {
          "internalType": "bytes32",
          "name": "",
          "type": "bytes32"
        }
      ],
      "stateMutability": "view",
      "type": "function",
      "constant": true
    },
    {
      "inputs": [
        {
          "internalType": "bytes32",
          "name": "role",
          "type": "bytes32"
        },
        {
          "internalType": "address",
          "name": "account",
          "type": "address"
        }
      ],
      "name": "grantRole",
      "outputs": [],
      "stateMutability": "nonpayable",
      "type": "function"
    },
    {
      "inputs": [
        {
          "internalType": "bytes32",
          "name": "role",
          "type": "bytes32"
        },
        {
          "internalType": "address",
          "name": "account",
          "type": "address"
        }
      ],
      "name": "hasRole",
      "outputs": [
        {
          "internalType": "bool",
          "name": "",
          "type": "bool"
        }
      ],
      "stateMutability": "view",
      "type": "function",
      "constant": true
    },
    {
      "inputs": [
        {
          "internalType": "address",
          "name": "owner",
          "type": "address"
        },
        {
          "internalType": "address",
          "name": "operator",
          "type": "address"
        }
      ],
      "name": "isApprovedForAll",
      "outputs": [
        {
          "internalType": "bool",
          "name": "",
          "type": "bool"
        }
      ],
      "stateMutability": "view",
      "type": "function",
      "constant": true
    },
    {
      "inputs": [],
      "name": "name",
      "outputs": [
        {
          "internalType": "string",
          "name": "",
          "type": "string"
        }
      ],
      "stateMutability": "view",
      "type": "function",
      "constant": true
    },
    {
      "inputs": [
        {
          "internalType": "uint256",
          "name": "tokenId",
          "type": "uint256"
        }
      ],
      "name": "ownerOf",
      "outputs": [
        {
          "internalType": "address",
          "name": "",
          "type": "address"
        }
      ],
      "stateMutability": "view",
      "type": "function",
      "constant": true
    },
    {
      "inputs": [
        {
          "internalType": "bytes32",
          "name": "role",
          "type": "bytes32"
        },
        {
          "internalType": "address",
          "name": "account",
          "type": "address"
        }
      ],
      "name": "renounceRole",
      "outputs": [],
      "stateMutability": "nonpayable",
      "type": "function"
    },
    {
      "inputs": [
        {
          "internalType": "bytes32",
          "name": "role",
          "type": "bytes32"
        },
        {
          "internalType": "address",
          "name": "account",
          "type": "address"
        }
      ],
      "name": "revokeRole",
      "outputs": [],
      "stateMutability": "nonpayable",
      "type": "function"
    },
    {
      "inputs": [
        {
          "internalType": "address",
          "name": "from",
          "type": "address"
        },
        {
          "internalType": "address",
          "name": "to",
          "type": "address"
        },
        {
          "internalType": "uint256",
          "name": "tokenId",
          "type": "uint256"
        }
      ],
      "name": "safeTransferFrom",
      "outputs": [],
      "stateMutability": "nonpayable",
      "type": "function"
    },
    {
      "inputs": [
        {
          "internalType": "address",
          "name": "from",
          "type": "address"
        },
        {
          "internalType": "address",
          "name": "to",
          "type": "address"
        },
        {
          "internalType": "uint256",
          "name": "tokenId",
          "type": "uint256"
        },
        {
          "internalType": "bytes",
          "name": "_data",
          "type": "bytes"
        }
      ],
      "name": "safeTransferFrom",
      "outputs": [],
      "stateMutability": "nonpayable",
      "type": "function"
    },
    {
      "inputs": [
        {
          "internalType": "address",
          "name": "operator",
          "type": "address"
        },
        {
          "internalType": "bool",
          "name": "approved",
          "type": "bool"
        }
      ],
      "name": "setApprovalForAll",
      "outputs": [],
      "stateMutability": "nonpayable",
      "type": "function"
    },
    {
      "inputs": [],
      "name": "symbol",
      "outputs": [
        {
          "internalType": "string",
          "name": "",
          "type": "string"
        }
      ],
      "stateMutability": "view",
      "type": "function",
      "constant": true
    },
    {
      "inputs": [
        {
          "internalType": "uint256",
          "name": "index",
          "type": "uint256"
        }
      ],
      "name": "tokenByIndex",
      "outputs": [
        {
          "internalType": "uint256",
          "name": "",
          "type": "uint256"
        }
      ],
      "stateMutability": "view",
      "type": "function",
      "constant": true
    },
    {
      "inputs": [
        {
          "internalType": "address",
          "name": "owner",
          "type": "address"
        },
        {
          "internalType": "uint256",
          "name": "index",
          "type": "uint256"
        }
      ],
      "name": "tokenOfOwnerByIndex",
      "outputs": [
        {
          "internalType": "uint256",
          "name": "",
          "type": "uint256"
        }
      ],
      "stateMutability": "view",
      "type": "function",
      "constant": true
    },
    {
      "inputs": [],
      "name": "totalSupply",
      "outputs": [
        {
          "internalType": "uint256",
          "name": "",
          "type": "uint256"
        }
      ],
      "stateMutability": "view",
      "type": "function",
      "constant": true
    },
    {
      "inputs": [
        {
          "internalType": "address",
          "name": "from",
          "type": "address"
        },
        {
          "internalType": "address",
          "name": "to",
          "type": "address"
        },
        {
          "internalType": "uint256",
          "name": "tokenId",
          "type": "uint256"
        }
      ],
      "name": "transferFrom",
      "outputs": [],
      "stateMutability": "nonpayable",
      "type": "function"
    },
    {
      "inputs": [
        {
          "internalType": "string",
          "name": "baseURI_",
          "type": "string"
        }
      ],
      "name": "setBaseURI",
      "outputs": [],
      "stateMutability": "nonpayable",
      "type": "function"
    },
    {
      "inputs": [
        {
          "internalType": "uint256",
          "name": "tokenId",
          "type": "uint256"
        }
      ],
      "name": "tokenURI",
      "outputs": [
        {
          "internalType": "string",
          "name": "",
          "type": "string"
        }
      ],
      "stateMutability": "view",
      "type": "function",
      "constant": true
    },
    {
      "inputs": [
        {
          "internalType": "address",
          "name": "to",
          "type": "address"
        }
      ],
      "name": "createCollectable",
      "outputs": [
        {
          "internalType": "bool",
          "name": "",
          "type": "bool"
        }
      ],
      "stateMutability": "nonpayable",
      "type": "function"
    },
    {
      "inputs": [
        {
          "internalType": "bytes4",
          "name": "interfaceId",
          "type": "bytes4"
        }
      ],
      "name": "supportsInterface",
      "outputs": [
        {
          "internalType": "bool",
          "name": "",
          "type": "bool"
        }
      ],
      "stateMutability": "view",
      "type": "function",
      "constant": true
    },
    {
      "inputs": [
        {
          "internalType": "address",
          "name": "minter",
          "type": "address"
        }
      ],
      "name": "setMinterRole",
      "outputs": [],
      "stateMutability": "nonpayable",
      "type": "function"
    },
    {
      "inputs": [],
      "name": "getRole",
      "outputs": [
        {
          "internalType": "bool",
          "name": "",
          "type": "bool"
        }
      ],
      "stateMutability": "view",
      "type": "function",
      "constant": true
    }
  ],
  "bytecode": "0x60806040526000600c60006101000a81548160ff0219169083151502179055506040518060400160405280600681526020017f4d79576973680000000000000000000000000000000000000000000000000000815250600e90805190602001906200006c929190620003e3565b506040518060400160405280600c81526020017f5745204e45454420495046530000000000000000000000000000000000000000815250600f9080519060200190620000ba929190620003e3565b50348015620000c857600080fd5b506040518060400160405280600681526020017f4d795769736800000000000000000000000000000000000000000000000000008152506040518060400160405280600381526020017f575348000000000000000000000000000000000000000000000000000000000081525081600190805190602001906200014d929190620003e3565b50806002908051906020019062000166929190620003e3565b5050506200017e6000801b33620001ee60201b60201c565b620001b37f9f2df0fed2c77648de5860a4cc508cd0818c85b8b8a1ab4ceeef8d981c8956a66000801b6200020460201b60201c565b620001e87f0a1704759791c789e02e7ea2b8b48d3ffe1f2ebace5515b64b3172e6580551756000801b6200020460201b60201c565b620004f8565b6200020082826200026160201b60201c565b5050565b8062000216836200035260201b60201c565b837fbd79b86ffe0ab8e8776151514217cd7cacd52c909f66475c3af44e129f0b00ff60405160405180910390a480600080848152602001908152602001600020600101819055505050565b6200027382826200037160201b60201c565b6200034e57600160008084815260200190815260200160002060000160008373ffffffffffffffffffffffffffffffffffffffff1673ffffffffffffffffffffffffffffffffffffffff16815260200190815260200160002060006101000a81548160ff021916908315150217905550620002f3620003db60201b60201c565b73ffffffffffffffffffffffffffffffffffffffff168173ffffffffffffffffffffffffffffffffffffffff16837f2f8788117e7eff1d82e926ec794901d17c78024a50270940304540a733656f0d60405160405180910390a45b5050565b6000806000838152602001908152602001600020600101549050919050565b600080600084815260200190815260200160002060000160008373ffffffffffffffffffffffffffffffffffffffff1673ffffffffffffffffffffffffffffffffffffffff16815260200190815260200160002060009054906101000a900460ff16905092915050565b600033905090565b828054620003f190620004c2565b90600052602060002090601f01602090048101928262000415576000855562000461565b82601f106200043057805160ff191683800117855562000461565b8280016001018555821562000461579182015b828111156200046057825182559160200191906001019062000443565b5b50905062000470919062000474565b5090565b5b808211156200048f57600081600090555060010162000475565b5090565b7f4e487b7100000000000000000000000000000000000000000000000000000000600052602260045260246000fd5b60006002820490506001821680620004db57607f821691505b60208210811415620004f257620004f162000493565b5b50919050565b61408080620005086000396000f3fe608060405234801561001057600080fd5b50600436106101e55760003560e01c806370a082311161010f578063b88d4fde116100a2578063d547741f11610071578063d547741f146105c8578063d6a70648146105e4578063e985e9c514610602578063fde0817414610632576101e5565b8063b88d4fde14610540578063c0bf62051461055c578063c87b56dd1461057a578063d5391393146105aa576101e5565b8063945d1229116100de578063945d1229146104cc57806395d89b41146104e8578063a217fddf14610506578063a22cb46514610524576101e5565b806370a082311461041e57806387fba2301461044e5780638d69f5411461046c57806391d148541461049c576101e5565b806327e235e31161018757806342842e0e1161015657806342842e0e146103865780634f6ccce7146103a257806355f804b3146103d25780636352211e146103ee576101e5565b806327e235e3146102ee5780632f2ff15d1461031e5780632f745c591461033a57806336568abe1461036a576101e5565b8063095ea7b3116101c3578063095ea7b31461026857806318160ddd1461028457806323b872dd146102a2578063248a9ca3146102be576101e5565b806301ffc9a7146101ea57806306fdde031461021a578063081812fc14610238575b600080fd5b61020460048036038101906101ff91906129a7565b610650565b60405161021191906129ef565b60405180910390f35b610222610662565b60405161022f9190612aa3565b60405180910390f35b610252600480360381019061024d9190612afb565b6106f4565b60405161025f9190612b69565b60405180910390f35b610282600480360381019061027d9190612bb0565b610779565b005b61028c610891565b6040516102999190612bff565b60405180910390f35b6102bc60048036038101906102b79190612c1a565b61089e565b005b6102d860048036038101906102d39190612ca3565b6108fe565b6040516102e59190612cdf565b60405180910390f35b61030860048036038101906103039190612cfa565b61091d565b6040516103159190612bff565b60405180910390f35b61033860048036038101906103339190612d27565b610935565b005b610354600480360381019061034f9190612bb0565b61095e565b6040516103619190612bff565b60405180910390f35b610384600480360381019061037f9190612d27565b610a03565b005b6103a0600480360381019061039b9190612c1a565b610a86565b005b6103bc60048036038101906103b79190612afb565b610aa6565b6040516103c99190612bff565b60405180910390f35b6103ec60048036038101906103e79190612e9c565b610b17565b005b61040860048036038101906104039190612afb565b610b64565b6040516104159190612b69565b60405180910390f35b61043860048036038101906104339190612cfa565b610c16565b6040516104459190612bff565b60405180910390f35b610456610cce565b6040516104639190612bff565b60405180910390f35b61048660048036038101906104819190612cfa565b610cd4565b60405161049391906129ef565b60405180910390f35b6104b660048036038101906104b19190612d27565b610d7a565b6040516104c391906129ef565b60405180910390f35b6104e660048036038101906104e19190612cfa565b610de4565b005b6104f0610e97565b6040516104fd9190612aa3565b60405180910390f35b61050e610f29565b60405161051b9190612cdf565b60405180910390f35b61053e60048036038101906105399190612f11565b610f30565b005b61055a60048036038101906105559190612ff2565b6110b1565b005b610564611113565b6040516105719190612cdf565b60405180910390f35b610594600480360381019061058f9190612afb565b611137565b6040516105a19190612aa3565b60405180910390f35b6105b261120f565b6040516105bf9190612cdf565b60405180910390f35b6105e260048036038101906105dd9190612d27565b611233565b005b6105ec61125c565b6040516105f99190612bff565b60405180910390f35b61061c60048036038101906106179190613075565b611261565b60405161062991906129ef565b60405180910390f35b61063a6112f5565b60405161064791906129ef565b60405180910390f35b600061065b82611331565b9050919050565b606060018054610671906130e4565b80601f016020809104026020016040519081016040528092919081815260200182805461069d906130e4565b80156106ea5780601f106106bf576101008083540402835291602001916106ea565b820191906000526020600020905b8154815290600101906020018083116106cd57829003601f168201915b5050505050905090565b60006106ff826113ab565b61073e576040517f08c379a000000000000000000000000000000000000000000000000000000000815260040161073590613188565b60405180910390fd5b6005600083815260200190815260200160002060009054906101000a900473ffffffffffffffffffffffffffffffffffffffff169050919050565b600061078482610b64565b90508073ffffffffffffffffffffffffffffffffffffffff168373ffffffffffffffffffffffffffffffffffffffff1614156107f5576040517f08c379a00000000000000000000000000000000000000000000000000000000081526004016107ec9061321a565b60405180910390fd5b8073ffffffffffffffffffffffffffffffffffffffff16610814611417565b73ffffffffffffffffffffffffffffffffffffffff16148061084357506108428161083d611417565b611261565b5b610882576040517f08c379a0000000000000000000000000000000000000000000000000000000008152600401610879906132ac565b60405180910390fd5b61088c838361141f565b505050565b6000600980549050905090565b6108af6108a9611417565b826114d8565b6108ee576040517f08c379a00000000000000000000000000000000000000000000000000000000081526004016108e59061333e565b60405180910390fd5b6108f98383836115b6565b505050565b6000806000838152602001908152602001600020600101549050919050565b600d6020528060005260406000206000915090505481565b61093e826108fe565b61094f8161094a611417565b611812565b61095983836118af565b505050565b600061096983610c16565b82106109aa576040517f08c379a00000000000000000000000000000000000000000000000000000000081526004016109a1906133d0565b60405180910390fd5b600760008473ffffffffffffffffffffffffffffffffffffffff1673ffffffffffffffffffffffffffffffffffffffff168152602001908152602001600020600083815260200190815260200160002054905092915050565b610a0b611417565b73ffffffffffffffffffffffffffffffffffffffff168173ffffffffffffffffffffffffffffffffffffffff1614610a78576040517f08c379a0000000000000000000000000000000000000000000000000000000008152600401610a6f90613462565b60405180910390fd5b610a82828261198f565b5050565b610aa1838383604051806020016040528060008152506110b1565b505050565b6000610ab0610891565b8210610af1576040517f08c379a0000000000000000000000000000000000000000000000000000000008152600401610ae8906134f4565b60405180910390fd5b60098281548110610b0557610b04613514565b5b90600052602060002001549050919050565b7f0a1704759791c789e02e7ea2b8b48d3ffe1f2ebace5515b64b3172e658055175610b4981610b44611417565b611812565b81600f9080519060200190610b5f929190612898565b505050565b6000806003600084815260200190815260200160002060009054906101000a900473ffffffffffffffffffffffffffffffffffffffff169050600073ffffffffffffffffffffffffffffffffffffffff168173ffffffffffffffffffffffffffffffffffffffff161415610c0d576040517f08c379a0000000000000000000000000000000000000000000000000000000008152600401610c04906135b5565b60405180910390fd5b80915050919050565b60008073ffffffffffffffffffffffffffffffffffffffff168273ffffffffffffffffffffffffffffffffffffffff161415610c87576040517f08c379a0000000000000000000000000000000000000000000000000000000008152600401610c7e90613647565b60405180910390fd5b600460008373ffffffffffffffffffffffffffffffffffffffff1673ffffffffffffffffffffffffffffffffffffffff168152602001908152602001600020549050919050565b61271081565b60007f9f2df0fed2c77648de5860a4cc508cd0818c85b8b8a1ab4ceeef8d981c8956a6610d0881610d03611417565b611812565b612710610d13610891565b10610d53576040517f08c379a0000000000000000000000000000000000000000000000000000000008152600401610d4a906136d9565b60405180910390fd5b610d6683610d61600b611a70565b611a7e565b610d70600b611a8c565b6001915050919050565b600080600084815260200190815260200160002060000160008373ffffffffffffffffffffffffffffffffffffffff1673ffffffffffffffffffffffffffffffffffffffff16815260200190815260200160002060009054906101000a900460ff16905092915050565b6000801b610df981610df4611417565b611812565b600073ffffffffffffffffffffffffffffffffffffffff168273ffffffffffffffffffffffffffffffffffffffff161415610e69576040517f08c379a0000000000000000000000000000000000000000000000000000000008152600401610e6090613745565b60405180910390fd5b610e937f9f2df0fed2c77648de5860a4cc508cd0818c85b8b8a1ab4ceeef8d981c8956a683610935565b5050565b606060028054610ea6906130e4565b80601f0160208091040260200160405190810160405280929190818152602001828054610ed2906130e4565b8015610f1f5780601f10610ef457610100808354040283529160200191610f1f565b820191906000526020600020905b815481529060010190602001808311610f0257829003601f168201915b5050505050905090565b6000801b81565b610f38611417565b73ffffffffffffffffffffffffffffffffffffffff168273ffffffffffffffffffffffffffffffffffffffff161415610fa6576040517f08c379a0000000000000000000000000000000000000000000000000000000008152600401610f9d906137b1565b60405180910390fd5b8060066000610fb3611417565b73ffffffffffffffffffffffffffffffffffffffff1673ffffffffffffffffffffffffffffffffffffffff16815260200190815260200160002060008473ffffffffffffffffffffffffffffffffffffffff1673ffffffffffffffffffffffffffffffffffffffff16815260200190815260200160002060006101000a81548160ff0219169083151502179055508173ffffffffffffffffffffffffffffffffffffffff16611060611417565b73ffffffffffffffffffffffffffffffffffffffff167f17307eab39ab6107e8899845ad3d59bd9653f200f220920489ca2b5937696c31836040516110a591906129ef565b60405180910390a35050565b6110c26110bc611417565b836114d8565b611101576040517f08c379a00000000000000000000000000000000000000000000000000000000081526004016110f89061333e565b60405180910390fd5b61110d84848484611aa2565b50505050565b7f0a1704759791c789e02e7ea2b8b48d3ffe1f2ebace5515b64b3172e65805517581565b6060611142826113ab565b611181576040517f08c379a000000000000000000000000000000000000000000000000000000000815260040161117890613843565b60405180910390fd5b600061118c83611afe565b90506000611198611c5f565b90506000815114156111ae57819250505061120a565b6000825111156111e35780826040516020016111cb92919061389f565b6040516020818303038152906040529250505061120a565b80826040516020016111f692919061389f565b604051602081830303815290604052925050505b919050565b7f9f2df0fed2c77648de5860a4cc508cd0818c85b8b8a1ab4ceeef8d981c8956a681565b61123c826108fe565b61124d81611248611417565b611812565b611257838361198f565b505050565b601481565b6000600660008473ffffffffffffffffffffffffffffffffffffffff1673ffffffffffffffffffffffffffffffffffffffff16815260200190815260200160002060008373ffffffffffffffffffffffffffffffffffffffff1673ffffffffffffffffffffffffffffffffffffffff16815260200190815260200160002060009054906101000a900460ff16905092915050565b60007f9f2df0fed2c77648de5860a4cc508cd0818c85b8b8a1ab4ceeef8d981c8956a661132981611324611417565b611812565b600191505090565b60007f780e9d63000000000000000000000000000000000000000000000000000000007bffffffffffffffffffffffffffffffffffffffffffffffffffffffff1916827bffffffffffffffffffffffffffffffffffffffffffffffffffffffff191614806113a457506113a382611c76565b5b9050919050565b60008073ffffffffffffffffffffffffffffffffffffffff166003600084815260200190815260200160002060009054906101000a900473ffffffffffffffffffffffffffffffffffffffff1673ffffffffffffffffffffffffffffffffffffffff1614159050919050565b600033905090565b816005600083815260200190815260200160002060006101000a81548173ffffffffffffffffffffffffffffffffffffffff021916908373ffffffffffffffffffffffffffffffffffffffff160217905550808273ffffffffffffffffffffffffffffffffffffffff1661149283610b64565b73ffffffffffffffffffffffffffffffffffffffff167f8c5be1e5ebec7d5bd14f71427d1e84f3dd0314c0f7b2291e5b200ac8c7c3b92560405160405180910390a45050565b60006114e3826113ab565b611522576040517f08c379a000000000000000000000000000000000000000000000000000000000815260040161151990613935565b60405180910390fd5b600061152d83610b64565b90508073ffffffffffffffffffffffffffffffffffffffff168473ffffffffffffffffffffffffffffffffffffffff16148061159c57508373ffffffffffffffffffffffffffffffffffffffff16611584846106f4565b73ffffffffffffffffffffffffffffffffffffffff16145b806115ad57506115ac8185611261565b5b91505092915050565b8273ffffffffffffffffffffffffffffffffffffffff166115d682610b64565b73ffffffffffffffffffffffffffffffffffffffff161461162c576040517f08c379a0000000000000000000000000000000000000000000000000000000008152600401611623906139c7565b60405180910390fd5b600073ffffffffffffffffffffffffffffffffffffffff168273ffffffffffffffffffffffffffffffffffffffff16141561169c576040517f08c379a000000000000000000000000000000000000000000000000000000000815260040161169390613a59565b60405180910390fd5b6116a7838383611d58565b6116b260008261141f565b6001600460008573ffffffffffffffffffffffffffffffffffffffff1673ffffffffffffffffffffffffffffffffffffffff16815260200190815260200160002060008282546117029190613aa8565b925050819055506001600460008473ffffffffffffffffffffffffffffffffffffffff1673ffffffffffffffffffffffffffffffffffffffff16815260200190815260200160002060008282546117599190613adc565b92505081905550816003600083815260200190815260200160002060006101000a81548173ffffffffffffffffffffffffffffffffffffffff021916908373ffffffffffffffffffffffffffffffffffffffff160217905550808273ffffffffffffffffffffffffffffffffffffffff168473ffffffffffffffffffffffffffffffffffffffff167fddf252ad1be2c89b69c2b068fc378daa952ba7f163c4a11628f55a4df523b3ef60405160405180910390a4505050565b61181c8282610d7a565b6118ab576118418173ffffffffffffffffffffffffffffffffffffffff166014611d68565b61184f8360001c6020611d68565b604051602001611860929190613bca565b6040516020818303038152906040526040517f08c379a00000000000000000000000000000000000000000000000000000000081526004016118a29190612aa3565b60405180910390fd5b5050565b6118b98282610d7a565b61198b57600160008084815260200190815260200160002060000160008373ffffffffffffffffffffffffffffffffffffffff1673ffffffffffffffffffffffffffffffffffffffff16815260200190815260200160002060006101000a81548160ff021916908315150217905550611930611417565b73ffffffffffffffffffffffffffffffffffffffff168173ffffffffffffffffffffffffffffffffffffffff16837f2f8788117e7eff1d82e926ec794901d17c78024a50270940304540a733656f0d60405160405180910390a45b5050565b6119998282610d7a565b15611a6c57600080600084815260200190815260200160002060000160008373ffffffffffffffffffffffffffffffffffffffff1673ffffffffffffffffffffffffffffffffffffffff16815260200190815260200160002060006101000a81548160ff021916908315150217905550611a11611417565b73ffffffffffffffffffffffffffffffffffffffff168173ffffffffffffffffffffffffffffffffffffffff16837ff6391f5c32d9c69d2a47ea670b442974b53935d1edc7fd64eb21e047a839171b60405160405180910390a45b5050565b600081600001549050919050565b611a888282611fa4565b5050565b6001816000016000828254019250508190555050565b611aad8484846115b6565b611ab984848484611fc2565b611af8576040517f08c379a0000000000000000000000000000000000000000000000000000000008152600401611aef90613c76565b60405180910390fd5b50505050565b60606000821415611b46576040518060400160405280600181526020017f30000000000000000000000000000000000000000000000000000000000000008152509050611c5a565b600082905060005b60008214611b78578080611b6190613c96565b915050600a82611b719190613d0e565b9150611b4e565b60008167ffffffffffffffff811115611b9457611b93612d71565b5b6040519080825280601f01601f191660200182016040528015611bc65781602001600182028036833780820191505090505b5090505b60008514611c5357600182611bdf9190613aa8565b9150600a85611bee9190613d3f565b6030611bfa9190613adc565b60f81b818381518110611c1057611c0f613514565b5b60200101907effffffffffffffffffffffffffffffffffffffffffffffffffffffffffffff1916908160001a905350600a85611c4c9190613d0e565b9450611bca565b8093505050505b919050565b606060405180602001604052806000815250905090565b60007f80ac58cd000000000000000000000000000000000000000000000000000000007bffffffffffffffffffffffffffffffffffffffffffffffffffffffff1916827bffffffffffffffffffffffffffffffffffffffffffffffffffffffff19161480611d4157507f5b5e139f000000000000000000000000000000000000000000000000000000007bffffffffffffffffffffffffffffffffffffffffffffffffffffffff1916827bffffffffffffffffffffffffffffffffffffffffffffffffffffffff1916145b80611d515750611d5082612159565b5b9050919050565b611d638383836121d3565b505050565b606060006002836002611d7b9190613d70565b611d859190613adc565b67ffffffffffffffff811115611d9e57611d9d612d71565b5b6040519080825280601f01601f191660200182016040528015611dd05781602001600182028036833780820191505090505b5090507f300000000000000000000000000000000000000000000000000000000000000081600081518110611e0857611e07613514565b5b60200101907effffffffffffffffffffffffffffffffffffffffffffffffffffffffffffff1916908160001a9053507f780000000000000000000000000000000000000000000000000000000000000081600181518110611e6c57611e6b613514565b5b60200101907effffffffffffffffffffffffffffffffffffffffffffffffffffffffffffff1916908160001a90535060006001846002611eac9190613d70565b611eb69190613adc565b90505b6001811115611f56577f3031323334353637383961626364656600000000000000000000000000000000600f861660108110611ef857611ef7613514565b5b1a60f81b828281518110611f0f57611f0e613514565b5b60200101907effffffffffffffffffffffffffffffffffffffffffffffffffffffffffffff1916908160001a905350600485901c945080611f4f90613dca565b9050611eb9565b5060008414611f9a576040517f08c379a0000000000000000000000000000000000000000000000000000000008152600401611f9190613e40565b60405180910390fd5b8091505092915050565b611fbe8282604051806020016040528060008152506122e7565b5050565b6000611fe38473ffffffffffffffffffffffffffffffffffffffff16612342565b1561214c578373ffffffffffffffffffffffffffffffffffffffff1663150b7a0261200c611417565b8786866040518563ffffffff1660e01b815260040161202e9493929190613eb5565b602060405180830381600087803b15801561204857600080fd5b505af192505050801561207957506040513d601f19601f820116820180604052508101906120769190613f16565b60015b6120fc573d80600081146120a9576040519150601f19603f3d011682016040523d82523d6000602084013e6120ae565b606091505b506000815114156120f4576040517f08c379a00000000000000000000000000000000000000000000000000000000081526004016120eb90613c76565b60405180910390fd5b805181602001fd5b63150b7a0260e01b7bffffffffffffffffffffffffffffffffffffffffffffffffffffffff1916817bffffffffffffffffffffffffffffffffffffffffffffffffffffffff191614915050612151565b600190505b949350505050565b60007f7965db0b000000000000000000000000000000000000000000000000000000007bffffffffffffffffffffffffffffffffffffffffffffffffffffffff1916827bffffffffffffffffffffffffffffffffffffffffffffffffffffffff191614806121cc57506121cb82612355565b5b9050919050565b6121de8383836123bf565b600073ffffffffffffffffffffffffffffffffffffffff168373ffffffffffffffffffffffffffffffffffffffff1614156122215761221c816123c4565b612260565b8173ffffffffffffffffffffffffffffffffffffffff168373ffffffffffffffffffffffffffffffffffffffff161461225f5761225e838261240d565b5b5b600073ffffffffffffffffffffffffffffffffffffffff168273ffffffffffffffffffffffffffffffffffffffff1614156122a35761229e8161257a565b6122e2565b8273ffffffffffffffffffffffffffffffffffffffff168273ffffffffffffffffffffffffffffffffffffffff16146122e1576122e0828261264b565b5b5b505050565b6122f183836126ca565b6122fe6000848484611fc2565b61233d576040517f08c379a000000000000000000000000000000000000000000000000000000000815260040161233490613c76565b60405180910390fd5b505050565b600080823b905060008111915050919050565b60007f01ffc9a7000000000000000000000000000000000000000000000000000000007bffffffffffffffffffffffffffffffffffffffffffffffffffffffff1916827bffffffffffffffffffffffffffffffffffffffffffffffffffffffff1916149050919050565b505050565b600980549050600a600083815260200190815260200160002081905550600981908060018154018082558091505060019003906000526020600020016000909190919091505550565b6000600161241a84610c16565b6124249190613aa8565b9050600060086000848152602001908152602001600020549050818114612509576000600760008673ffffffffffffffffffffffffffffffffffffffff1673ffffffffffffffffffffffffffffffffffffffff168152602001908152602001600020600084815260200190815260200160002054905080600760008773ffffffffffffffffffffffffffffffffffffffff1673ffffffffffffffffffffffffffffffffffffffff168152602001908152602001600020600084815260200190815260200160002081905550816008600083815260200190815260200160002081905550505b6008600084815260200190815260200160002060009055600760008573ffffffffffffffffffffffffffffffffffffffff1673ffffffffffffffffffffffffffffffffffffffff16815260200190815260200160002060008381526020019081526020016000206000905550505050565b6000600160098054905061258e9190613aa8565b90506000600a60008481526020019081526020016000205490506000600983815481106125be576125bd613514565b5b9060005260206000200154905080600983815481106125e0576125df613514565b5b906000526020600020018190555081600a600083815260200190815260200160002081905550600a600085815260200190815260200160002060009055600980548061262f5761262e613f43565b5b6001900381819060005260206000200160009055905550505050565b600061265683610c16565b905081600760008573ffffffffffffffffffffffffffffffffffffffff1673ffffffffffffffffffffffffffffffffffffffff168152602001908152602001600020600083815260200190815260200160002081905550806008600084815260200190815260200160002081905550505050565b600073ffffffffffffffffffffffffffffffffffffffff168273ffffffffffffffffffffffffffffffffffffffff16141561273a576040517f08c379a000000000000000000000000000000000000000000000000000000000815260040161273190613fbe565b60405180910390fd5b612743816113ab565b15612783576040517f08c379a000000000000000000000000000000000000000000000000000000000815260040161277a9061402a565b60405180910390fd5b61278f60008383611d58565b6001600460008473ffffffffffffffffffffffffffffffffffffffff1673ffffffffffffffffffffffffffffffffffffffff16815260200190815260200160002060008282546127df9190613adc565b92505081905550816003600083815260200190815260200160002060006101000a81548173ffffffffffffffffffffffffffffffffffffffff021916908373ffffffffffffffffffffffffffffffffffffffff160217905550808273ffffffffffffffffffffffffffffffffffffffff16600073ffffffffffffffffffffffffffffffffffffffff167fddf252ad1be2c89b69c2b068fc378daa952ba7f163c4a11628f55a4df523b3ef60405160405180910390a45050565b8280546128a4906130e4565b90600052602060002090601f0160209004810192826128c6576000855561290d565b82601f106128df57805160ff191683800117855561290d565b8280016001018555821561290d579182015b8281111561290c5782518255916020019190600101906128f1565b5b50905061291a919061291e565b5090565b5b8082111561293757600081600090555060010161291f565b5090565b6000604051905090565b600080fd5b600080fd5b60007fffffffff0000000000000000000000000000000000000000000000000000000082169050919050565b6129848161294f565b811461298f57600080fd5b50565b6000813590506129a18161297b565b92915050565b6000602082840312156129bd576129bc612945565b5b60006129cb84828501612992565b91505092915050565b60008115159050919050565b6129e9816129d4565b82525050565b6000602082019050612a0460008301846129e0565b92915050565b600081519050919050565b600082825260208201905092915050565b60005b83811015612a44578082015181840152602081019050612a29565b83811115612a53576000848401525b50505050565b6000601f19601f8301169050919050565b6000612a7582612a0a565b612a7f8185612a15565b9350612a8f818560208601612a26565b612a9881612a59565b840191505092915050565b60006020820190508181036000830152612abd8184612a6a565b905092915050565b6000819050919050565b612ad881612ac5565b8114612ae357600080fd5b50565b600081359050612af581612acf565b92915050565b600060208284031215612b1157612b10612945565b5b6000612b1f84828501612ae6565b91505092915050565b600073ffffffffffffffffffffffffffffffffffffffff82169050919050565b6000612b5382612b28565b9050919050565b612b6381612b48565b82525050565b6000602082019050612b7e6000830184612b5a565b92915050565b612b8d81612b48565b8114612b9857600080fd5b50565b600081359050612baa81612b84565b92915050565b60008060408385031215612bc757612bc6612945565b5b6000612bd585828601612b9b565b9250506020612be685828601612ae6565b9150509250929050565b612bf981612ac5565b82525050565b6000602082019050612c146000830184612bf0565b92915050565b600080600060608486031215612c3357612c32612945565b5b6000612c4186828701612b9b565b9350506020612c5286828701612b9b565b9250506040612c6386828701612ae6565b9150509250925092565b6000819050919050565b612c8081612c6d565b8114612c8b57600080fd5b50565b600081359050612c9d81612c77565b92915050565b600060208284031215612cb957612cb8612945565b5b6000612cc784828501612c8e565b91505092915050565b612cd981612c6d565b82525050565b6000602082019050612cf46000830184612cd0565b92915050565b600060208284031215612d1057612d0f612945565b5b6000612d1e84828501612b9b565b91505092915050565b60008060408385031215612d3e57612d3d612945565b5b6000612d4c85828601612c8e565b9250506020612d5d85828601612b9b565b9150509250929050565b600080fd5b600080fd5b7f4e487b7100000000000000000000000000000000000000000000000000000000600052604160045260246000fd5b612da982612a59565b810181811067ffffffffffffffff82111715612dc857612dc7612d71565b5b80604052505050565b6000612ddb61293b565b9050612de78282612da0565b919050565b600067ffffffffffffffff821115612e0757612e06612d71565b5b612e1082612a59565b9050602081019050919050565b82818337600083830152505050565b6000612e3f612e3a84612dec565b612dd1565b905082815260208101848484011115612e5b57612e5a612d6c565b5b612e66848285612e1d565b509392505050565b600082601f830112612e8357612e82612d67565b5b8135612e93848260208601612e2c565b91505092915050565b600060208284031215612eb257612eb1612945565b5b600082013567ffffffffffffffff811115612ed057612ecf61294a565b5b612edc84828501612e6e565b91505092915050565b612eee816129d4565b8114612ef957600080fd5b50565b600081359050612f0b81612ee5565b92915050565b60008060408385031215612f2857612f27612945565b5b6000612f3685828601612b9b565b9250506020612f4785828601612efc565b9150509250929050565b600067ffffffffffffffff821115612f6c57612f6b612d71565b5b612f7582612a59565b9050602081019050919050565b6000612f95612f9084612f51565b612dd1565b905082815260208101848484011115612fb157612fb0612d6c565b5b612fbc848285612e1d565b509392505050565b600082601f830112612fd957612fd8612d67565b5b8135612fe9848260208601612f82565b91505092915050565b6000806000806080858703121561300c5761300b612945565b5b600061301a87828801612b9b565b945050602061302b87828801612b9b565b935050604061303c87828801612ae6565b925050606085013567ffffffffffffffff81111561305d5761305c61294a565b5b61306987828801612fc4565b91505092959194509250565b6000806040838503121561308c5761308b612945565b5b600061309a85828601612b9b565b92505060206130ab85828601612b9b565b9150509250929050565b7f4e487b7100000000000000000000000000000000000000000000000000000000600052602260045260246000fd5b600060028204905060018216806130fc57607f821691505b602082108114156131105761310f6130b5565b5b50919050565b7f4552433732313a20617070726f76656420717565727920666f72206e6f6e657860008201527f697374656e7420746f6b656e0000000000000000000000000000000000000000602082015250565b6000613172602c83612a15565b915061317d82613116565b604082019050919050565b600060208201905081810360008301526131a181613165565b9050919050565b7f4552433732313a20617070726f76616c20746f2063757272656e74206f776e6560008201527f7200000000000000000000000000000000000000000000000000000000000000602082015250565b6000613204602183612a15565b915061320f826131a8565b604082019050919050565b60006020820190508181036000830152613233816131f7565b9050919050565b7f4552433732313a20617070726f76652063616c6c6572206973206e6f74206f7760008201527f6e6572206e6f7220617070726f76656420666f7220616c6c0000000000000000602082015250565b6000613296603883612a15565b91506132a18261323a565b604082019050919050565b600060208201905081810360008301526132c581613289565b9050919050565b7f4552433732313a207472616e736665722063616c6c6572206973206e6f74206f60008201527f776e6572206e6f7220617070726f766564000000000000000000000000000000602082015250565b6000613328603183612a15565b9150613333826132cc565b604082019050919050565b600060208201905081810360008301526133578161331b565b9050919050565b7f455243373231456e756d657261626c653a206f776e657220696e646578206f7560008201527f74206f6620626f756e6473000000000000000000000000000000000000000000602082015250565b60006133ba602b83612a15565b91506133c58261335e565b604082019050919050565b600060208201905081810360008301526133e9816133ad565b9050919050565b7f416363657373436f6e74726f6c3a2063616e206f6e6c792072656e6f756e636560008201527f20726f6c657320666f722073656c660000000000000000000000000000000000602082015250565b600061344c602f83612a15565b9150613457826133f0565b604082019050919050565b6000602082019050818103600083015261347b8161343f565b9050919050565b7f455243373231456e756d657261626c653a20676c6f62616c20696e646578206f60008201527f7574206f6620626f756e64730000000000000000000000000000000000000000602082015250565b60006134de602c83612a15565b91506134e982613482565b604082019050919050565b6000602082019050818103600083015261350d816134d1565b9050919050565b7f4e487b7100000000000000000000000000000000000000000000000000000000600052603260045260246000fd5b7f4552433732313a206f776e657220717565727920666f72206e6f6e657869737460008201527f656e7420746f6b656e0000000000000000000000000000000000000000000000602082015250565b600061359f602983612a15565b91506135aa82613543565b604082019050919050565b600060208201905081810360008301526135ce81613592565b9050919050565b7f4552433732313a2062616c616e636520717565727920666f7220746865207a6560008201527f726f206164647265737300000000000000000000000000000000000000000000602082015250565b6000613631602a83612a15565b915061363c826135d5565b604082019050919050565b6000602082019050818103600083015261366081613624565b9050919050565b7f53616c65206973206f7665722c20616c6c20636f6c6c65637461626c6573207360008201527f6f6c642e00000000000000000000000000000000000000000000000000000000602082015250565b60006136c3602483612a15565b91506136ce82613667565b604082019050919050565b600060208201905081810360008301526136f2816136b6565b9050919050565b7f506c6561736520456e7465722056616c69642041646472657373000000000000600082015250565b600061372f601a83612a15565b915061373a826136f9565b602082019050919050565b6000602082019050818103600083015261375e81613722565b9050919050565b7f4552433732313a20617070726f766520746f2063616c6c657200000000000000600082015250565b600061379b601983612a15565b91506137a682613765565b602082019050919050565b600060208201905081810360008301526137ca8161378e565b9050919050565b7f4552433732314d657461646174613a2055524920717565727920666f72206e6f60008201527f6e6578697374656e7420746f6b656e0000000000000000000000000000000000602082015250565b600061382d602f83612a15565b9150613838826137d1565b604082019050919050565b6000602082019050818103600083015261385c81613820565b9050919050565b600081905092915050565b600061387982612a0a565b6138838185613863565b9350613893818560208601612a26565b80840191505092915050565b60006138ab828561386e565b91506138b7828461386e565b91508190509392505050565b7f4552433732313a206f70657261746f7220717565727920666f72206e6f6e657860008201527f697374656e7420746f6b656e0000000000000000000000000000000000000000602082015250565b600061391f602c83612a15565b915061392a826138c3565b604082019050919050565b6000602082019050818103600083015261394e81613912565b9050919050565b7f4552433732313a207472616e73666572206f6620746f6b656e2074686174206960008201527f73206e6f74206f776e0000000000000000000000000000000000000000000000602082015250565b60006139b1602983612a15565b91506139bc82613955565b604082019050919050565b600060208201905081810360008301526139e0816139a4565b9050919050565b7f4552433732313a207472616e7366657220746f20746865207a65726f2061646460008201527f7265737300000000000000000000000000000000000000000000000000000000602082015250565b6000613a43602483612a15565b9150613a4e826139e7565b604082019050919050565b60006020820190508181036000830152613a7281613a36565b9050919050565b7f4e487b7100000000000000000000000000000000000000000000000000000000600052601160045260246000fd5b6000613ab382612ac5565b9150613abe83612ac5565b925082821015613ad157613ad0613a79565b5b828203905092915050565b6000613ae782612ac5565b9150613af283612ac5565b9250827fffffffffffffffffffffffffffffffffffffffffffffffffffffffffffffffff03821115613b2757613b26613a79565b5b828201905092915050565b7f416363657373436f6e74726f6c3a206163636f756e7420000000000000000000600082015250565b6000613b68601783613863565b9150613b7382613b32565b601782019050919050565b7f206973206d697373696e6720726f6c6520000000000000000000000000000000600082015250565b6000613bb4601183613863565b9150613bbf82613b7e565b601182019050919050565b6000613bd582613b5b565b9150613be1828561386e565b9150613bec82613ba7565b9150613bf8828461386e565b91508190509392505050565b7f4552433732313a207472616e7366657220746f206e6f6e20455243373231526560008201527f63656976657220696d706c656d656e7465720000000000000000000000000000602082015250565b6000613c60603283612a15565b9150613c6b82613c04565b604082019050919050565b60006020820190508181036000830152613c8f81613c53565b9050919050565b6000613ca182612ac5565b91507fffffffffffffffffffffffffffffffffffffffffffffffffffffffffffffffff821415613cd457613cd3613a79565b5b600182019050919050565b7f4e487b7100000000000000000000000000000000000000000000000000000000600052601260045260246000fd5b6000613d1982612ac5565b9150613d2483612ac5565b925082613d3457613d33613cdf565b5b828204905092915050565b6000613d4a82612ac5565b9150613d5583612ac5565b925082613d6557613d64613cdf565b5b828206905092915050565b6000613d7b82612ac5565b9150613d8683612ac5565b9250817fffffffffffffffffffffffffffffffffffffffffffffffffffffffffffffffff0483118215151615613dbf57613dbe613a79565b5b828202905092915050565b6000613dd582612ac5565b91506000821415613de957613de8613a79565b5b600182039050919050565b7f537472696e67733a20686578206c656e67746820696e73756666696369656e74600082015250565b6000613e2a602083612a15565b9150613e3582613df4565b602082019050919050565b60006020820190508181036000830152613e5981613e1d565b9050919050565b600081519050919050565b600082825260208201905092915050565b6000613e8782613e60565b613e918185613e6b565b9350613ea1818560208601612a26565b613eaa81612a59565b840191505092915050565b6000608082019050613eca6000830187612b5a565b613ed76020830186612b5a565b613ee46040830185612bf0565b8181036060830152613ef68184613e7c565b905095945050505050565b600081519050613f108161297b565b92915050565b600060208284031215613f2c57613f2b612945565b5b6000613f3a84828501613f01565b91505092915050565b7f4e487b7100000000000000000000000000000000000000000000000000000000600052603160045260246000fd5b7f4552433732313a206d696e7420746f20746865207a65726f2061646472657373600082015250565b6000613fa8602083612a15565b9150613fb382613f72565b602082019050919050565b60006020820190508181036000830152613fd781613f9b565b9050919050565b7f4552433732313a20746f6b656e20616c7265616479206d696e74656400000000600082015250565b6000614014601c83612a15565b915061401f82613fde565b602082019050919050565b6000602082019050818103600083015261404381614007565b905091905056fea264697066735822122040185e065e30cf9117ed694331c678cf8bdad594b02e34a7efa3d4c5aad2a95d64736f6c63430008090033",
  "immutableReferences": {},
  "source": "// SPDX-License-Identifier: MIT\npragma solidity ^0.8.0;\n\nimport \"@openzeppelin/contracts/token/ERC721/extensions/ERC721Enumerable.sol\";\nimport \"@openzeppelin/contracts/token/ERC721/ERC721.sol\";\nimport \"@openzeppelin/contracts/token/ERC721/extensions/IERC721Metadata.sol\";\nimport \"@openzeppelin/contracts/access/AccessControl.sol\";\nimport \"@openzeppelin/contracts/utils/Counters.sol\";\nimport \"@openzeppelin/contracts/utils/math/SafeMath.sol\";\n\n\n\n\n\ncontract MyWish is AccessControl, ERC721Enumerable{\n    \n    using Counters for Counters.Counter; \n    using SafeMath for uint256; \n    \n\n    Counters.Counter private _tokenId; \n    bytes32 public constant MINTER_ROLE = keccak256(\"MINTER_ROLE\");\n    bytes32 public constant BASEURI_ROLE = keccak256(\"BASEURI_ROLE\");\n    uint256 public constant _totalWishes = 10000; \n    bool internal saleIsActive = false; \n    uint256 public constant _maxPurchaseAllowed = 20; \n\n    mapping(address => uint256)public balances;\n    string  __name = \"MyWish\";\n    string _baseURIextended = 'WE NEED IPFS';\n    \n    //Add mapping token URIs\n\n\n    constructor() ERC721(\"MyWish\",\"WSH\") {\n        _setupRole(DEFAULT_ADMIN_ROLE,msg.sender);\n        _setRoleAdmin(MINTER_ROLE, DEFAULT_ADMIN_ROLE);\n        _setRoleAdmin(BASEURI_ROLE,DEFAULT_ADMIN_ROLE);\n    }\n    \n    function setBaseURI(string memory baseURI_) external onlyRole(BASEURI_ROLE) {\n        _baseURIextended = baseURI_;\n    }\n    \n    function tokenURI(uint256 tokenId) public view virtual override returns (string memory) {\n        require(_exists(tokenId), \"ERC721Metadata: URI query for nonexistent token\");\n\n        string memory _tokenURI = Strings.toString(tokenId);\n        string memory base = _baseURI();\n        \n        // If there is no base URI, return the token URI.\n        if (bytes(base).length == 0) {\n            return _tokenURI;\n        }\n        // If both are set, concatenate the baseURI and tokenURI (via abi.encodePacked).\n        if (bytes(_tokenURI).length > 0) {\n            return string(abi.encodePacked(base, _tokenURI));\n        }\n        // If there is a baseURI but no tokenURI, concatenate the tokenID to the baseURI.\n        return string(abi.encodePacked(base, _tokenURI));\n    }\n\n    function createCollectable(address to) public onlyRole(MINTER_ROLE)  returns(bool) {\n        require(totalSupply() < _totalWishes, \"Sale is over, all collectables sold.\"); //Might not need this one\n        safeMint(to, _tokenId.current());\n        _tokenId.increment();\n        return true;\n        \n    }\n\n    function safeMint(address to, uint256 tokenId) private {\n        _safeMint(to, tokenId);\n    }\n\n\n    function _beforeTokenTransfer(address from, address to, uint256 tokenId) \n        internal \n        override( ERC721Enumerable) {\n\n        super._beforeTokenTransfer(from, to, tokenId);\n    }\n\n    function supportsInterface(bytes4 interfaceId) \n        public \n        view \n        override( ERC721Enumerable, AccessControl) \n        returns (bool) {\n\n        return super.supportsInterface(interfaceId);\n    }\n\n    \n    function _burn(uint256 tokenId) internal override(ERC721) {\n        super._burn(tokenId);\n    }\n\n\n    function setMinterRole(address minter) public onlyRole(DEFAULT_ADMIN_ROLE) {\n        require(minter != address(0),\"Please Enter Valid Address\");\n        grantRole(MINTER_ROLE,minter);\n       \n    }\n  \n    function getRole() public onlyRole(MINTER_ROLE) view  returns(bool) {\n       \n        return true;\n    }\n\n\n} \n\n\n\n\n",
  "sourcePath": "/Users/zlederman/Documents/Code/js/truffle-react/contracts/MyWish.sol",
  "compiler": {
    "name": "solc",
    "version": "0.8.9+commit.e5eed63a.Emscripten.clang"
  },
  "schemaVersion": "3.4.2",
  "updatedAt": "2021-10-13T19:47:21.082Z",
  "networkType": "ethereum",
  "devdoc": {
    "kind": "dev",
    "methods": {
      "approve(address,uint256)": {
        "details": "See {IERC721-approve}."
      },
      "balanceOf(address)": {
        "details": "See {IERC721-balanceOf}."
      },
      "getApproved(uint256)": {
        "details": "See {IERC721-getApproved}."
      },
      "getRoleAdmin(bytes32)": {
        "details": "Returns the admin role that controls `role`. See {grantRole} and {revokeRole}. To change a role's admin, use {_setRoleAdmin}."
      },
      "grantRole(bytes32,address)": {
        "details": "Grants `role` to `account`. If `account` had not been already granted `role`, emits a {RoleGranted} event. Requirements: - the caller must have ``role``'s admin role."
      },
      "hasRole(bytes32,address)": {
        "details": "Returns `true` if `account` has been granted `role`."
      },
      "isApprovedForAll(address,address)": {
        "details": "See {IERC721-isApprovedForAll}."
      },
      "name()": {
        "details": "See {IERC721Metadata-name}."
      },
      "ownerOf(uint256)": {
        "details": "See {IERC721-ownerOf}."
      },
      "renounceRole(bytes32,address)": {
        "details": "Revokes `role` from the calling account. Roles are often managed via {grantRole} and {revokeRole}: this function's purpose is to provide a mechanism for accounts to lose their privileges if they are compromised (such as when a trusted device is misplaced). If the calling account had been granted `role`, emits a {RoleRevoked} event. Requirements: - the caller must be `account`."
      },
      "revokeRole(bytes32,address)": {
        "details": "Revokes `role` from `account`. If `account` had been granted `role`, emits a {RoleRevoked} event. Requirements: - the caller must have ``role``'s admin role."
      },
      "safeTransferFrom(address,address,uint256)": {
        "details": "See {IERC721-safeTransferFrom}."
      },
      "safeTransferFrom(address,address,uint256,bytes)": {
        "details": "See {IERC721-safeTransferFrom}."
      },
      "setApprovalForAll(address,bool)": {
        "details": "See {IERC721-setApprovalForAll}."
      },
      "symbol()": {
        "details": "See {IERC721Metadata-symbol}."
      },
      "tokenByIndex(uint256)": {
        "details": "See {IERC721Enumerable-tokenByIndex}."
      },
      "tokenOfOwnerByIndex(address,uint256)": {
        "details": "See {IERC721Enumerable-tokenOfOwnerByIndex}."
      },
      "tokenURI(uint256)": {
        "details": "See {IERC721Metadata-tokenURI}."
      },
      "totalSupply()": {
        "details": "See {IERC721Enumerable-totalSupply}."
      },
      "transferFrom(address,address,uint256)": {
        "details": "See {IERC721-transferFrom}."
      }
    },
    "version": 1
  },
  "userdoc": {
    "kind": "user",
    "methods": {},
    "version": 1
  }
}