{
  "contractName": "MyWish",
  "abi": [
    {
      "inputs": [],
      "stateMutability": "nonpayable",
      "type": "constructor"
    },
    {
      "anonymous": false,
      "inputs": [
        {
          "indexed": true,
          "internalType": "address",
          "name": "owner",
          "type": "address"
        },
        {
          "indexed": true,
          "internalType": "address",
          "name": "approved",
          "type": "address"
        },
        {
          "indexed": true,
          "internalType": "uint256",
          "name": "tokenId",
          "type": "uint256"
        }
      ],
      "name": "Approval",
      "type": "event"
    },
    {
      "anonymous": false,
      "inputs": [
        {
          "indexed": true,
          "internalType": "address",
          "name": "owner",
          "type": "address"
        },
        {
          "indexed": true,
          "internalType": "address",
          "name": "operator",
          "type": "address"
        },
        {
          "indexed": false,
          "internalType": "bool",
          "name": "approved",
          "type": "bool"
        }
      ],
      "name": "ApprovalForAll",
      "type": "event"
    },
    {
      "anonymous": false,
      "inputs": [
        {
          "indexed": true,
          "internalType": "address",
          "name": "previousOwner",
          "type": "address"
        },
        {
          "indexed": true,
          "internalType": "address",
          "name": "newOwner",
          "type": "address"
        }
      ],
      "name": "OwnershipTransferred",
      "type": "event"
    },
    {
      "anonymous": false,
      "inputs": [
        {
          "indexed": true,
          "internalType": "address",
          "name": "from",
          "type": "address"
        },
        {
          "indexed": true,
          "internalType": "address",
          "name": "to",
          "type": "address"
        },
        {
          "indexed": true,
          "internalType": "uint256",
          "name": "tokenId",
          "type": "uint256"
        }
      ],
      "name": "Transfer",
      "type": "event"
    },
    {
      "inputs": [],
      "name": "_maxPurchaseAllowed",
      "outputs": [
        {
          "internalType": "uint256",
          "name": "",
          "type": "uint256"
        }
      ],
      "stateMutability": "view",
      "type": "function"
    },
    {
      "inputs": [],
      "name": "_totalWishes",
      "outputs": [
        {
          "internalType": "uint256",
          "name": "",
          "type": "uint256"
        }
      ],
      "stateMutability": "view",
      "type": "function"
    },
    {
      "inputs": [],
      "name": "_wishPrice",
      "outputs": [
        {
          "internalType": "uint256",
          "name": "",
          "type": "uint256"
        }
      ],
      "stateMutability": "view",
      "type": "function"
    },
    {
      "inputs": [
        {
          "internalType": "address",
          "name": "to",
          "type": "address"
        },
        {
          "internalType": "uint256",
          "name": "tokenId",
          "type": "uint256"
        }
      ],
      "name": "approve",
      "outputs": [],
      "stateMutability": "nonpayable",
      "type": "function"
    },
    {
      "inputs": [
        {
          "internalType": "address",
          "name": "owner",
          "type": "address"
        }
      ],
      "name": "balanceOf",
      "outputs": [
        {
          "internalType": "uint256",
          "name": "",
          "type": "uint256"
        }
      ],
      "stateMutability": "view",
      "type": "function"
    },
    {
      "inputs": [
        {
          "internalType": "address",
          "name": "",
          "type": "address"
        }
      ],
      "name": "balances",
      "outputs": [
        {
          "internalType": "uint256",
          "name": "",
          "type": "uint256"
        }
      ],
      "stateMutability": "view",
      "type": "function"
    },
    {
      "inputs": [
        {
          "internalType": "uint256",
          "name": "tokenId",
          "type": "uint256"
        }
      ],
      "name": "getApproved",
      "outputs": [
        {
          "internalType": "address",
          "name": "",
          "type": "address"
        }
      ],
      "stateMutability": "view",
      "type": "function"
    },
    {
      "inputs": [
        {
          "internalType": "address",
          "name": "",
          "type": "address"
        }
      ],
      "name": "getTokenId",
      "outputs": [
        {
          "internalType": "uint256",
          "name": "",
          "type": "uint256"
        }
      ],
      "stateMutability": "view",
      "type": "function"
    },
    {
      "inputs": [
        {
          "internalType": "address",
          "name": "owner",
          "type": "address"
        },
        {
          "internalType": "address",
          "name": "operator",
          "type": "address"
        }
      ],
      "name": "isApprovedForAll",
      "outputs": [
        {
          "internalType": "bool",
          "name": "",
          "type": "bool"
        }
      ],
      "stateMutability": "view",
      "type": "function"
    },
    {
      "inputs": [],
      "name": "name",
      "outputs": [
        {
          "internalType": "string",
          "name": "",
          "type": "string"
        }
      ],
      "stateMutability": "view",
      "type": "function"
    },
    {
      "inputs": [],
      "name": "owner",
      "outputs": [
        {
          "internalType": "address",
          "name": "",
          "type": "address"
        }
      ],
      "stateMutability": "view",
      "type": "function"
    },
    {
      "inputs": [
        {
          "internalType": "uint256",
          "name": "tokenId",
          "type": "uint256"
        }
      ],
      "name": "ownerOf",
      "outputs": [
        {
          "internalType": "address",
          "name": "",
          "type": "address"
        }
      ],
      "stateMutability": "view",
      "type": "function"
    },
    {
      "inputs": [],
      "name": "renounceOwnership",
      "outputs": [],
      "stateMutability": "nonpayable",
      "type": "function"
    },
    {
      "inputs": [
        {
          "internalType": "address",
          "name": "from",
          "type": "address"
        },
        {
          "internalType": "address",
          "name": "to",
          "type": "address"
        },
        {
          "internalType": "uint256",
          "name": "tokenId",
          "type": "uint256"
        }
      ],
      "name": "safeTransferFrom",
      "outputs": [],
      "stateMutability": "nonpayable",
      "type": "function"
    },
    {
      "inputs": [
        {
          "internalType": "address",
          "name": "from",
          "type": "address"
        },
        {
          "internalType": "address",
          "name": "to",
          "type": "address"
        },
        {
          "internalType": "uint256",
          "name": "tokenId",
          "type": "uint256"
        },
        {
          "internalType": "bytes",
          "name": "_data",
          "type": "bytes"
        }
      ],
      "name": "safeTransferFrom",
      "outputs": [],
      "stateMutability": "nonpayable",
      "type": "function"
    },
    {
      "inputs": [
        {
          "internalType": "address",
          "name": "operator",
          "type": "address"
        },
        {
          "internalType": "bool",
          "name": "approved",
          "type": "bool"
        }
      ],
      "name": "setApprovalForAll",
      "outputs": [],
      "stateMutability": "nonpayable",
      "type": "function"
    },
    {
      "inputs": [],
      "name": "symbol",
      "outputs": [
        {
          "internalType": "string",
          "name": "",
          "type": "string"
        }
      ],
      "stateMutability": "view",
      "type": "function"
    },
    {
      "inputs": [
        {
          "internalType": "uint256",
          "name": "index",
          "type": "uint256"
        }
      ],
      "name": "tokenByIndex",
      "outputs": [
        {
          "internalType": "uint256",
          "name": "",
          "type": "uint256"
        }
      ],
      "stateMutability": "view",
      "type": "function"
    },
    {
      "inputs": [
        {
          "internalType": "address",
          "name": "owner",
          "type": "address"
        },
        {
          "internalType": "uint256",
          "name": "index",
          "type": "uint256"
        }
      ],
      "name": "tokenOfOwnerByIndex",
      "outputs": [
        {
          "internalType": "uint256",
          "name": "",
          "type": "uint256"
        }
      ],
      "stateMutability": "view",
      "type": "function"
    },
    {
      "inputs": [],
      "name": "totalSupply",
      "outputs": [
        {
          "internalType": "uint256",
          "name": "",
          "type": "uint256"
        }
      ],
      "stateMutability": "view",
      "type": "function"
    },
    {
      "inputs": [
        {
          "internalType": "address",
          "name": "from",
          "type": "address"
        },
        {
          "internalType": "address",
          "name": "to",
          "type": "address"
        },
        {
          "internalType": "uint256",
          "name": "tokenId",
          "type": "uint256"
        }
      ],
      "name": "transferFrom",
      "outputs": [],
      "stateMutability": "nonpayable",
      "type": "function"
    },
    {
      "inputs": [
        {
          "internalType": "address",
          "name": "newOwner",
          "type": "address"
        }
      ],
      "name": "transferOwnership",
      "outputs": [],
      "stateMutability": "nonpayable",
      "type": "function"
    },
    {
      "inputs": [
        {
          "internalType": "uint256",
          "name": "numberOfTokensMinted",
          "type": "uint256"
        },
        {
          "internalType": "uint256",
          "name": "seed",
          "type": "uint256"
        }
      ],
      "name": "createCollectable",
      "outputs": [],
      "stateMutability": "nonpayable",
      "type": "function"
    },
    {
      "inputs": [],
      "name": "flipStateOfSale",
      "outputs": [],
      "stateMutability": "view",
      "type": "function"
    },
    {
      "inputs": [
        {
          "internalType": "bytes4",
          "name": "interfaceId",
          "type": "bytes4"
        }
      ],
      "name": "supportsInterface",
      "outputs": [
        {
          "internalType": "bool",
          "name": "",
          "type": "bool"
        }
      ],
      "stateMutability": "view",
      "type": "function"
    },
    {
      "inputs": [
        {
          "internalType": "uint256",
          "name": "tokenId",
          "type": "uint256"
        },
        {
          "internalType": "string",
          "name": "_tokenUri",
          "type": "string"
        }
      ],
      "name": "setTokenURI",
      "outputs": [],
      "stateMutability": "nonpayable",
      "type": "function"
    },
    {
      "inputs": [
        {
          "internalType": "uint256",
          "name": "tokenId",
          "type": "uint256"
        }
      ],
      "name": "tokenURI",
      "outputs": [
        {
          "internalType": "string",
          "name": "",
          "type": "string"
        }
      ],
      "stateMutability": "view",
      "type": "function"
    }
  ],
  "bytecode": "0x60806040526000600d60006101000a81548160ff0219169083151502179055503480156200002c57600080fd5b506040518060400160405280600681526020017f4d795769736800000000000000000000000000000000000000000000000000008152506040518060400160405280600381526020017f57534800000000000000000000000000000000000000000000000000000000008152508160009080519060200190620000b1929190620001c1565b508060019080519060200190620000ca929190620001c1565b505050620000ed620000e1620000f360201b60201c565b620000fb60201b60201c565b620002d6565b600033905090565b6000600b60009054906101000a900473ffffffffffffffffffffffffffffffffffffffff16905081600b60006101000a81548173ffffffffffffffffffffffffffffffffffffffff021916908373ffffffffffffffffffffffffffffffffffffffff1602179055508173ffffffffffffffffffffffffffffffffffffffff168173ffffffffffffffffffffffffffffffffffffffff167f8be0079c531659141344cd1fd0a4f28419497f9722a3daafe3b4186f6b6457e060405160405180910390a35050565b828054620001cf9062000271565b90600052602060002090601f016020900481019282620001f357600085556200023f565b82601f106200020e57805160ff19168380011785556200023f565b828001600101855582156200023f579182015b828111156200023e57825182559160200191906001019062000221565b5b5090506200024e919062000252565b5090565b5b808211156200026d57600081600090555060010162000253565b5090565b600060028204905060018216806200028a57607f821691505b60208210811415620002a157620002a0620002a7565b5b50919050565b7f4e487b7100000000000000000000000000000000000000000000000000000000600052602260045260246000fd5b61409980620002e66000396000f3fe608060405234801561001057600080fd5b50600436106101a95760003560e01c806370a08231116100f9578063a51931d811610097578063d6a7064811610071578063d6a70648146104ba578063e985e9c5146104d8578063f153768614610508578063f2fde38b14610538576101a9565b8063a51931d814610452578063b88d4fde1461046e578063c87b56dd1461048a576101a9565b806387fba230116100d357806387fba230146103dc5780638da5cb5b146103fa57806395d89b4114610418578063a22cb46514610436576101a9565b806370a0823114610398578063715018a6146103c8578063773ad82f146103d2576101a9565b80631a2bdbdb116101665780632f745c59116101405780632f745c59146102ec57806342842e0e1461031c5780634f6ccce7146103385780636352211e14610368576101a9565b80631a2bdbdb1461028257806323b872dd146102a057806327e235e3146102bc576101a9565b806301ffc9a7146101ae57806306fdde03146101de578063081812fc146101fc578063095ea7b31461022c578063162094c41461024857806318160ddd14610264575b600080fd5b6101c860048036038101906101c39190612ac4565b610554565b6040516101d591906130d0565b60405180910390f35b6101e6610566565b6040516101f391906130eb565b60405180910390f35b61021660048036038101906102119190612b1e565b6105f8565b6040516102239190613069565b60405180910390f35b61024660048036038101906102419190612a84565b61067d565b005b610262600480360381019061025d9190612b4b565b610795565b005b61026c6107f3565b604051610279919061344d565b60405180910390f35b61028a610800565b604051610297919061344d565b60405180910390f35b6102ba60048036038101906102b5919061296e565b61080b565b005b6102d660048036038101906102d19190612901565b61086b565b6040516102e3919061344d565b60405180910390f35b61030660048036038101906103019190612a84565b610883565b604051610313919061344d565b60405180910390f35b6103366004803603810190610331919061296e565b610928565b005b610352600480360381019061034d9190612b1e565b610948565b60405161035f919061344d565b60405180910390f35b610382600480360381019061037d9190612b1e565b6109b9565b60405161038f9190613069565b60405180910390f35b6103b260048036038101906103ad9190612901565b610a6b565b6040516103bf919061344d565b60405180910390f35b6103d0610b23565b005b6103da610bab565b005b6103e4610c4a565b6040516103f1919061344d565b60405180910390f35b610402610c50565b60405161040f9190613069565b60405180910390f35b610420610c7a565b60405161042d91906130eb565b60405180910390f35b610450600480360381019061044b9190612a44565b610d0c565b005b61046c60048036038101906104679190612ba7565b610e8d565b005b610488600480360381019061048391906129c1565b6110c0565b005b6104a4600480360381019061049f9190612b1e565b611122565b6040516104b191906130eb565b60405180910390f35b6104c2611134565b6040516104cf919061344d565b60405180910390f35b6104f260048036038101906104ed919061292e565b611139565b6040516104ff91906130d0565b60405180910390f35b610522600480360381019061051d9190612901565b6111cd565b60405161052f919061344d565b60405180910390f35b610552600480360381019061054d9190612901565b6111e5565b005b600061055f826112dd565b9050919050565b606060008054610575906136a3565b80601f01602080910402602001604051908101604052809291908181526020018280546105a1906136a3565b80156105ee5780601f106105c3576101008083540402835291602001916105ee565b820191906000526020600020905b8154815290600101906020018083116105d157829003601f168201915b5050505050905090565b600061060382611357565b610642576040517f08c379a0000000000000000000000000000000000000000000000000000000008152600401610639906132ed565b60405180910390fd5b6004600083815260200190815260200160002060009054906101000a900473ffffffffffffffffffffffffffffffffffffffff169050919050565b6000610688826109b9565b90508073ffffffffffffffffffffffffffffffffffffffff168373ffffffffffffffffffffffffffffffffffffffff1614156106f9576040517f08c379a00000000000000000000000000000000000000000000000000000000081526004016106f09061338d565b60405180910390fd5b8073ffffffffffffffffffffffffffffffffffffffff166107186113c3565b73ffffffffffffffffffffffffffffffffffffffff1614806107475750610746816107416113c3565b611139565b5b610786576040517f08c379a000000000000000000000000000000000000000000000000000000000815260040161077d9061322d565b60405180910390fd5b61079083836113cb565b505050565b6107a66107a06113c3565b83611484565b6107e5576040517f08c379a00000000000000000000000000000000000000000000000000000000081526004016107dc9061342d565b60405180910390fd5b6107ef8282611562565b5050565b6000600880549050905090565b666a94d74f43000081565b61081c6108166113c3565b82611484565b61085b576040517f08c379a0000000000000000000000000000000000000000000000000000000008152600401610852906133ed565b60405180910390fd5b6108668383836115d6565b505050565b600f6020528060005260406000206000915090505481565b600061088e83610a6b565b82106108cf576040517f08c379a00000000000000000000000000000000000000000000000000000000081526004016108c69061312d565b60405180910390fd5b600660008473ffffffffffffffffffffffffffffffffffffffff1673ffffffffffffffffffffffffffffffffffffffff168152602001908152602001600020600083815260200190815260200160002054905092915050565b610943838383604051806020016040528060008152506110c0565b505050565b60006109526107f3565b8210610993576040517f08c379a000000000000000000000000000000000000000000000000000000000815260040161098a9061340d565b60405180910390fd5b600882815481106109a7576109a661383c565b5b90600052602060002001549050919050565b6000806002600084815260200190815260200160002060009054906101000a900473ffffffffffffffffffffffffffffffffffffffff169050600073ffffffffffffffffffffffffffffffffffffffff168173ffffffffffffffffffffffffffffffffffffffff161415610a62576040517f08c379a0000000000000000000000000000000000000000000000000000000008152600401610a599061326d565b60405180910390fd5b80915050919050565b60008073ffffffffffffffffffffffffffffffffffffffff168273ffffffffffffffffffffffffffffffffffffffff161415610adc576040517f08c379a0000000000000000000000000000000000000000000000000000000008152600401610ad39061324d565b60405180910390fd5b600360008373ffffffffffffffffffffffffffffffffffffffff1673ffffffffffffffffffffffffffffffffffffffff168152602001908152602001600020549050919050565b610b2b6113c3565b73ffffffffffffffffffffffffffffffffffffffff16610b49610c50565b73ffffffffffffffffffffffffffffffffffffffff1614610b9f576040517f08c379a0000000000000000000000000000000000000000000000000000000008152600401610b969061332d565b60405180910390fd5b610ba96000611832565b565b610bb36113c3565b73ffffffffffffffffffffffffffffffffffffffff16610bd1610c50565b73ffffffffffffffffffffffffffffffffffffffff1614610c27576040517f08c379a0000000000000000000000000000000000000000000000000000000008152600401610c1e9061332d565b60405180910390fd5b600d60009054906101000a900460ff161515600d60009054906101000a90505050565b61271081565b6000600b60009054906101000a900473ffffffffffffffffffffffffffffffffffffffff16905090565b606060018054610c89906136a3565b80601f0160208091040260200160405190810160405280929190818152602001828054610cb5906136a3565b8015610d025780601f10610cd757610100808354040283529160200191610d02565b820191906000526020600020905b815481529060010190602001808311610ce557829003601f168201915b5050505050905090565b610d146113c3565b73ffffffffffffffffffffffffffffffffffffffff168273ffffffffffffffffffffffffffffffffffffffff161415610d82576040517f08c379a0000000000000000000000000000000000000000000000000000000008152600401610d79906131cd565b60405180910390fd5b8060056000610d8f6113c3565b73ffffffffffffffffffffffffffffffffffffffff1673ffffffffffffffffffffffffffffffffffffffff16815260200190815260200160002060008473ffffffffffffffffffffffffffffffffffffffff1673ffffffffffffffffffffffffffffffffffffffff16815260200190815260200160002060006101000a81548160ff0219169083151502179055508173ffffffffffffffffffffffffffffffffffffffff16610e3c6113c3565b73ffffffffffffffffffffffffffffffffffffffff167f17307eab39ab6107e8899845ad3d59bd9653f200f220920489ca2b5937696c3183604051610e8191906130d0565b60405180910390a35050565b610e956113c3565b73ffffffffffffffffffffffffffffffffffffffff16610eb3610c50565b73ffffffffffffffffffffffffffffffffffffffff1614610f09576040517f08c379a0000000000000000000000000000000000000000000000000000000008152600401610f009061332d565b60405180910390fd5b600d60009054906101000a900460ff16610f58576040517f08c379a0000000000000000000000000000000000000000000000000000000008152600401610f4f906131ed565b60405180910390fd5b612710610f636107f3565b10610fa3576040517f08c379a0000000000000000000000000000000000000000000000000000000008152600401610f9a9061310d565b60405180910390fd5b60008211610fe6576040517f08c379a0000000000000000000000000000000000000000000000000000000008152600401610fdd906133ad565b60405180910390fd5b601482111561102a576040517f08c379a00000000000000000000000000000000000000000000000000000000081526004016110219061330d565b60405180910390fd5b61271061103e6110386107f3565b846118f8565b111561107f576040517f08c379a0000000000000000000000000000000000000000000000000000000008152600401611076906133cd565b60405180910390fd5b60005b828110156110bb5761109e33611098600c61190e565b8461191c565b6110a8600c6119c6565b80806110b390613706565b915050611082565b505050565b6110d16110cb6113c3565b83611484565b611110576040517f08c379a0000000000000000000000000000000000000000000000000000000008152600401611107906133ed565b60405180910390fd5b61111c848484846119dc565b50505050565b606061112d82611a38565b9050919050565b601481565b6000600560008473ffffffffffffffffffffffffffffffffffffffff1673ffffffffffffffffffffffffffffffffffffffff16815260200190815260200160002060008373ffffffffffffffffffffffffffffffffffffffff1673ffffffffffffffffffffffffffffffffffffffff16815260200190815260200160002060009054906101000a900460ff16905092915050565b600e6020528060005260406000206000915090505481565b6111ed6113c3565b73ffffffffffffffffffffffffffffffffffffffff1661120b610c50565b73ffffffffffffffffffffffffffffffffffffffff1614611261576040517f08c379a00000000000000000000000000000000000000000000000000000000081526004016112589061332d565b60405180910390fd5b600073ffffffffffffffffffffffffffffffffffffffff168173ffffffffffffffffffffffffffffffffffffffff1614156112d1576040517f08c379a00000000000000000000000000000000000000000000000000000000081526004016112c89061316d565b60405180910390fd5b6112da81611832565b50565b60007f780e9d63000000000000000000000000000000000000000000000000000000007bffffffffffffffffffffffffffffffffffffffffffffffffffffffff1916827bffffffffffffffffffffffffffffffffffffffffffffffffffffffff19161480611350575061134f82611b8a565b5b9050919050565b60008073ffffffffffffffffffffffffffffffffffffffff166002600084815260200190815260200160002060009054906101000a900473ffffffffffffffffffffffffffffffffffffffff1673ffffffffffffffffffffffffffffffffffffffff1614159050919050565b600033905090565b816004600083815260200190815260200160002060006101000a81548173ffffffffffffffffffffffffffffffffffffffff021916908373ffffffffffffffffffffffffffffffffffffffff160217905550808273ffffffffffffffffffffffffffffffffffffffff1661143e836109b9565b73ffffffffffffffffffffffffffffffffffffffff167f8c5be1e5ebec7d5bd14f71427d1e84f3dd0314c0f7b2291e5b200ac8c7c3b92560405160405180910390a45050565b600061148f82611357565b6114ce576040517f08c379a00000000000000000000000000000000000000000000000000000000081526004016114c59061320d565b60405180910390fd5b60006114d9836109b9565b90508073ffffffffffffffffffffffffffffffffffffffff168473ffffffffffffffffffffffffffffffffffffffff16148061154857508373ffffffffffffffffffffffffffffffffffffffff16611530846105f8565b73ffffffffffffffffffffffffffffffffffffffff16145b8061155957506115588185611139565b5b91505092915050565b61156b82611357565b6115aa576040517f08c379a00000000000000000000000000000000000000000000000000000000081526004016115a19061328d565b60405180910390fd5b80600a600084815260200190815260200160002090805190602001906115d1929190612715565b505050565b8273ffffffffffffffffffffffffffffffffffffffff166115f6826109b9565b73ffffffffffffffffffffffffffffffffffffffff161461164c576040517f08c379a00000000000000000000000000000000000000000000000000000000081526004016116439061334d565b60405180910390fd5b600073ffffffffffffffffffffffffffffffffffffffff168273ffffffffffffffffffffffffffffffffffffffff1614156116bc576040517f08c379a00000000000000000000000000000000000000000000000000000000081526004016116b3906131ad565b60405180910390fd5b6116c7838383611c6c565b6116d26000826113cb565b6001600360008573ffffffffffffffffffffffffffffffffffffffff1673ffffffffffffffffffffffffffffffffffffffff168152602001908152602001600020600082825461172291906135b9565b925050819055506001600360008473ffffffffffffffffffffffffffffffffffffffff1673ffffffffffffffffffffffffffffffffffffffff16815260200190815260200160002060008282546117799190613532565b92505081905550816002600083815260200190815260200160002060006101000a81548173ffffffffffffffffffffffffffffffffffffffff021916908373ffffffffffffffffffffffffffffffffffffffff160217905550808273ffffffffffffffffffffffffffffffffffffffff168473ffffffffffffffffffffffffffffffffffffffff167fddf252ad1be2c89b69c2b068fc378daa952ba7f163c4a11628f55a4df523b3ef60405160405180910390a4505050565b6000600b60009054906101000a900473ffffffffffffffffffffffffffffffffffffffff16905081600b60006101000a81548173ffffffffffffffffffffffffffffffffffffffff021916908373ffffffffffffffffffffffffffffffffffffffff1602179055508173ffffffffffffffffffffffffffffffffffffffff168173ffffffffffffffffffffffffffffffffffffffff167f8be0079c531659141344cd1fd0a4f28419497f9722a3daafe3b4186f6b6457e060405160405180910390a35050565b600081836119069190613532565b905092915050565b600081600001549050919050565b6119268383611c7c565b81600e60008573ffffffffffffffffffffffffffffffffffffffff1673ffffffffffffffffffffffffffffffffffffffff168152602001908152602001600020819055506001600f60008573ffffffffffffffffffffffffffffffffffffffff1673ffffffffffffffffffffffffffffffffffffffff16815260200190815260200160002060008282546119ba9190613532565b92505081905550505050565b6001816000016000828254019250508190555050565b6119e78484846115d6565b6119f384848484611c9a565b611a32576040517f08c379a0000000000000000000000000000000000000000000000000000000008152600401611a299061314d565b60405180910390fd5b50505050565b6060611a4382611357565b611a82576040517f08c379a0000000000000000000000000000000000000000000000000000000008152600401611a79906132cd565b60405180910390fd5b6000600a60008481526020019081526020016000208054611aa2906136a3565b80601f0160208091040260200160405190810160405280929190818152602001828054611ace906136a3565b8015611b1b5780601f10611af057610100808354040283529160200191611b1b565b820191906000526020600020905b815481529060010190602001808311611afe57829003601f168201915b505050505090506000611b2c611e31565b9050600081511415611b42578192505050611b85565b600082511115611b77578082604051602001611b5f929190613045565b60405160208183030381529060405292505050611b85565b611b8084611e48565b925050505b919050565b60007f80ac58cd000000000000000000000000000000000000000000000000000000007bffffffffffffffffffffffffffffffffffffffffffffffffffffffff1916827bffffffffffffffffffffffffffffffffffffffffffffffffffffffff19161480611c5557507f5b5e139f000000000000000000000000000000000000000000000000000000007bffffffffffffffffffffffffffffffffffffffffffffffffffffffff1916827bffffffffffffffffffffffffffffffffffffffffffffffffffffffff1916145b80611c655750611c6482611eef565b5b9050919050565b611c77838383611f59565b505050565b611c9682826040518060200160405280600081525061206d565b5050565b6000611cbb8473ffffffffffffffffffffffffffffffffffffffff166120c8565b15611e24578373ffffffffffffffffffffffffffffffffffffffff1663150b7a02611ce46113c3565b8786866040518563ffffffff1660e01b8152600401611d069493929190613084565b602060405180830381600087803b158015611d2057600080fd5b505af1925050508015611d5157506040513d601f19601f82011682018060405250810190611d4e9190612af1565b60015b611dd4573d8060008114611d81576040519150601f19603f3d011682016040523d82523d6000602084013e611d86565b606091505b50600081511415611dcc576040517f08c379a0000000000000000000000000000000000000000000000000000000008152600401611dc39061314d565b60405180910390fd5b805181602001fd5b63150b7a0260e01b7bffffffffffffffffffffffffffffffffffffffffffffffffffffffff1916817bffffffffffffffffffffffffffffffffffffffffffffffffffffffff191614915050611e29565b600190505b949350505050565b606060405180602001604052806000815250905090565b6060611e5382611357565b611e92576040517f08c379a0000000000000000000000000000000000000000000000000000000008152600401611e899061336d565b60405180910390fd5b6000611e9c611e31565b90506000815111611ebc5760405180602001604052806000815250611ee7565b80611ec6846120db565b604051602001611ed7929190613045565b6040516020818303038152906040525b915050919050565b60007f01ffc9a7000000000000000000000000000000000000000000000000000000007bffffffffffffffffffffffffffffffffffffffffffffffffffffffff1916827bffffffffffffffffffffffffffffffffffffffffffffffffffffffff1916149050919050565b611f6483838361223c565b600073ffffffffffffffffffffffffffffffffffffffff168373ffffffffffffffffffffffffffffffffffffffff161415611fa757611fa281612241565b611fe6565b8173ffffffffffffffffffffffffffffffffffffffff168373ffffffffffffffffffffffffffffffffffffffff1614611fe557611fe4838261228a565b5b5b600073ffffffffffffffffffffffffffffffffffffffff168273ffffffffffffffffffffffffffffffffffffffff16141561202957612024816123f7565b612068565b8273ffffffffffffffffffffffffffffffffffffffff168273ffffffffffffffffffffffffffffffffffffffff16146120675761206682826124c8565b5b5b505050565b6120778383612547565b6120846000848484611c9a565b6120c3576040517f08c379a00000000000000000000000000000000000000000000000000000000081526004016120ba9061314d565b60405180910390fd5b505050565b600080823b905060008111915050919050565b60606000821415612123576040518060400160405280600181526020017f30000000000000000000000000000000000000000000000000000000000000008152509050612237565b600082905060005b6000821461215557808061213e90613706565b915050600a8261214e9190613588565b915061212b565b60008167ffffffffffffffff8111156121715761217061386b565b5b6040519080825280601f01601f1916602001820160405280156121a35781602001600182028036833780820191505090505b5090505b60008514612230576001826121bc91906135b9565b9150600a856121cb919061374f565b60306121d79190613532565b60f81b8183815181106121ed576121ec61383c565b5b60200101907effffffffffffffffffffffffffffffffffffffffffffffffffffffffffffff1916908160001a905350600a856122299190613588565b94506121a7565b8093505050505b919050565b505050565b6008805490506009600083815260200190815260200160002081905550600881908060018154018082558091505060019003906000526020600020016000909190919091505550565b6000600161229784610a6b565b6122a191906135b9565b9050600060076000848152602001908152602001600020549050818114612386576000600660008673ffffffffffffffffffffffffffffffffffffffff1673ffffffffffffffffffffffffffffffffffffffff168152602001908152602001600020600084815260200190815260200160002054905080600660008773ffffffffffffffffffffffffffffffffffffffff1673ffffffffffffffffffffffffffffffffffffffff168152602001908152602001600020600084815260200190815260200160002081905550816007600083815260200190815260200160002081905550505b6007600084815260200190815260200160002060009055600660008573ffffffffffffffffffffffffffffffffffffffff1673ffffffffffffffffffffffffffffffffffffffff16815260200190815260200160002060008381526020019081526020016000206000905550505050565b6000600160088054905061240b91906135b9565b905060006009600084815260200190815260200160002054905060006008838154811061243b5761243a61383c565b5b90600052602060002001549050806008838154811061245d5761245c61383c565b5b9060005260206000200181905550816009600083815260200190815260200160002081905550600960008581526020019081526020016000206000905560088054806124ac576124ab61380d565b5b6001900381819060005260206000200160009055905550505050565b60006124d383610a6b565b905081600660008573ffffffffffffffffffffffffffffffffffffffff1673ffffffffffffffffffffffffffffffffffffffff168152602001908152602001600020600083815260200190815260200160002081905550806007600084815260200190815260200160002081905550505050565b600073ffffffffffffffffffffffffffffffffffffffff168273ffffffffffffffffffffffffffffffffffffffff1614156125b7576040517f08c379a00000000000000000000000000000000000000000000000000000000081526004016125ae906132ad565b60405180910390fd5b6125c081611357565b15612600576040517f08c379a00000000000000000000000000000000000000000000000000000000081526004016125f79061318d565b60405180910390fd5b61260c60008383611c6c565b6001600360008473ffffffffffffffffffffffffffffffffffffffff1673ffffffffffffffffffffffffffffffffffffffff168152602001908152602001600020600082825461265c9190613532565b92505081905550816002600083815260200190815260200160002060006101000a81548173ffffffffffffffffffffffffffffffffffffffff021916908373ffffffffffffffffffffffffffffffffffffffff160217905550808273ffffffffffffffffffffffffffffffffffffffff16600073ffffffffffffffffffffffffffffffffffffffff167fddf252ad1be2c89b69c2b068fc378daa952ba7f163c4a11628f55a4df523b3ef60405160405180910390a45050565b828054612721906136a3565b90600052602060002090601f016020900481019282612743576000855561278a565b82601f1061275c57805160ff191683800117855561278a565b8280016001018555821561278a579182015b8281111561278957825182559160200191906001019061276e565b5b509050612797919061279b565b5090565b5b808211156127b457600081600090555060010161279c565b5090565b60006127cb6127c68461348d565b613468565b9050828152602081018484840111156127e7576127e661389f565b5b6127f2848285613661565b509392505050565b600061280d612808846134be565b613468565b9050828152602081018484840111156128295761282861389f565b5b612834848285613661565b509392505050565b60008135905061284b81614007565b92915050565b6000813590506128608161401e565b92915050565b60008135905061287581614035565b92915050565b60008151905061288a81614035565b92915050565b600082601f8301126128a5576128a461389a565b5b81356128b58482602086016127b8565b91505092915050565b600082601f8301126128d3576128d261389a565b5b81356128e38482602086016127fa565b91505092915050565b6000813590506128fb8161404c565b92915050565b600060208284031215612917576129166138a9565b5b60006129258482850161283c565b91505092915050565b60008060408385031215612945576129446138a9565b5b60006129538582860161283c565b92505060206129648582860161283c565b9150509250929050565b600080600060608486031215612987576129866138a9565b5b60006129958682870161283c565b93505060206129a68682870161283c565b92505060406129b7868287016128ec565b9150509250925092565b600080600080608085870312156129db576129da6138a9565b5b60006129e98782880161283c565b94505060206129fa8782880161283c565b9350506040612a0b878288016128ec565b925050606085013567ffffffffffffffff811115612a2c57612a2b6138a4565b5b612a3887828801612890565b91505092959194509250565b60008060408385031215612a5b57612a5a6138a9565b5b6000612a698582860161283c565b9250506020612a7a85828601612851565b9150509250929050565b60008060408385031215612a9b57612a9a6138a9565b5b6000612aa98582860161283c565b9250506020612aba858286016128ec565b9150509250929050565b600060208284031215612ada57612ad96138a9565b5b6000612ae884828501612866565b91505092915050565b600060208284031215612b0757612b066138a9565b5b6000612b158482850161287b565b91505092915050565b600060208284031215612b3457612b336138a9565b5b6000612b42848285016128ec565b91505092915050565b60008060408385031215612b6257612b616138a9565b5b6000612b70858286016128ec565b925050602083013567ffffffffffffffff811115612b9157612b906138a4565b5b612b9d858286016128be565b9150509250929050565b60008060408385031215612bbe57612bbd6138a9565b5b6000612bcc858286016128ec565b9250506020612bdd858286016128ec565b9150509250929050565b612bf0816135ed565b82525050565b612bff816135ff565b82525050565b6000612c10826134ef565b612c1a8185613505565b9350612c2a818560208601613670565b612c33816138ae565b840191505092915050565b6000612c49826134fa565b612c538185613516565b9350612c63818560208601613670565b612c6c816138ae565b840191505092915050565b6000612c82826134fa565b612c8c8185613527565b9350612c9c818560208601613670565b80840191505092915050565b6000612cb5602483613516565b9150612cc0826138bf565b604082019050919050565b6000612cd8602b83613516565b9150612ce38261390e565b604082019050919050565b6000612cfb603283613516565b9150612d068261395d565b604082019050919050565b6000612d1e602683613516565b9150612d29826139ac565b604082019050919050565b6000612d41601c83613516565b9150612d4c826139fb565b602082019050919050565b6000612d64602483613516565b9150612d6f82613a24565b604082019050919050565b6000612d87601983613516565b9150612d9282613a73565b602082019050919050565b6000612daa601883613516565b9150612db582613a9c565b602082019050919050565b6000612dcd602c83613516565b9150612dd882613ac5565b604082019050919050565b6000612df0603883613516565b9150612dfb82613b14565b604082019050919050565b6000612e13602a83613516565b9150612e1e82613b63565b604082019050919050565b6000612e36602983613516565b9150612e4182613bb2565b604082019050919050565b6000612e59602e83613516565b9150612e6482613c01565b604082019050919050565b6000612e7c602083613516565b9150612e8782613c50565b602082019050919050565b6000612e9f603183613516565b9150612eaa82613c79565b604082019050919050565b6000612ec2602c83613516565b9150612ecd82613cc8565b604082019050919050565b6000612ee5602b83613516565b9150612ef082613d17565b604082019050919050565b6000612f08602083613516565b9150612f1382613d66565b602082019050919050565b6000612f2b602983613516565b9150612f3682613d8f565b604082019050919050565b6000612f4e602f83613516565b9150612f5982613dde565b604082019050919050565b6000612f71602183613516565b9150612f7c82613e2d565b604082019050919050565b6000612f94601f83613516565b9150612f9f82613e7c565b602082019050919050565b6000612fb7604983613516565b9150612fc282613ea5565b606082019050919050565b6000612fda603183613516565b9150612fe582613f1a565b604082019050919050565b6000612ffd602c83613516565b915061300882613f69565b604082019050919050565b6000613020602283613516565b915061302b82613fb8565b604082019050919050565b61303f81613657565b82525050565b60006130518285612c77565b915061305d8284612c77565b91508190509392505050565b600060208201905061307e6000830184612be7565b92915050565b60006080820190506130996000830187612be7565b6130a66020830186612be7565b6130b36040830185613036565b81810360608301526130c58184612c05565b905095945050505050565b60006020820190506130e56000830184612bf6565b92915050565b600060208201905081810360008301526131058184612c3e565b905092915050565b6000602082019050818103600083015261312681612ca8565b9050919050565b6000602082019050818103600083015261314681612ccb565b9050919050565b6000602082019050818103600083015261316681612cee565b9050919050565b6000602082019050818103600083015261318681612d11565b9050919050565b600060208201905081810360008301526131a681612d34565b9050919050565b600060208201905081810360008301526131c681612d57565b9050919050565b600060208201905081810360008301526131e681612d7a565b9050919050565b6000602082019050818103600083015261320681612d9d565b9050919050565b6000602082019050818103600083015261322681612dc0565b9050919050565b6000602082019050818103600083015261324681612de3565b9050919050565b6000602082019050818103600083015261326681612e06565b9050919050565b6000602082019050818103600083015261328681612e29565b9050919050565b600060208201905081810360008301526132a681612e4c565b9050919050565b600060208201905081810360008301526132c681612e6f565b9050919050565b600060208201905081810360008301526132e681612e92565b9050919050565b6000602082019050818103600083015261330681612eb5565b9050919050565b6000602082019050818103600083015261332681612ed8565b9050919050565b6000602082019050818103600083015261334681612efb565b9050919050565b6000602082019050818103600083015261336681612f1e565b9050919050565b6000602082019050818103600083015261338681612f41565b9050919050565b600060208201905081810360008301526133a681612f64565b9050919050565b600060208201905081810360008301526133c681612f87565b9050919050565b600060208201905081810360008301526133e681612faa565b9050919050565b6000602082019050818103600083015261340681612fcd565b9050919050565b6000602082019050818103600083015261342681612ff0565b9050919050565b6000602082019050818103600083015261344681613013565b9050919050565b60006020820190506134626000830184613036565b92915050565b6000613472613483565b905061347e82826136d5565b919050565b6000604051905090565b600067ffffffffffffffff8211156134a8576134a761386b565b5b6134b1826138ae565b9050602081019050919050565b600067ffffffffffffffff8211156134d9576134d861386b565b5b6134e2826138ae565b9050602081019050919050565b600081519050919050565b600081519050919050565b600082825260208201905092915050565b600082825260208201905092915050565b600081905092915050565b600061353d82613657565b915061354883613657565b9250827fffffffffffffffffffffffffffffffffffffffffffffffffffffffffffffffff0382111561357d5761357c613780565b5b828201905092915050565b600061359382613657565b915061359e83613657565b9250826135ae576135ad6137af565b5b828204905092915050565b60006135c482613657565b91506135cf83613657565b9250828210156135e2576135e1613780565b5b828203905092915050565b60006135f882613637565b9050919050565b60008115159050919050565b60007fffffffff0000000000000000000000000000000000000000000000000000000082169050919050565b600073ffffffffffffffffffffffffffffffffffffffff82169050919050565b6000819050919050565b82818337600083830152505050565b60005b8381101561368e578082015181840152602081019050613673565b8381111561369d576000848401525b50505050565b600060028204905060018216806136bb57607f821691505b602082108114156136cf576136ce6137de565b5b50919050565b6136de826138ae565b810181811067ffffffffffffffff821117156136fd576136fc61386b565b5b80604052505050565b600061371182613657565b91507fffffffffffffffffffffffffffffffffffffffffffffffffffffffffffffffff82141561374457613743613780565b5b600182019050919050565b600061375a82613657565b915061376583613657565b925082613775576137746137af565b5b828206905092915050565b7f4e487b7100000000000000000000000000000000000000000000000000000000600052601160045260246000fd5b7f4e487b7100000000000000000000000000000000000000000000000000000000600052601260045260246000fd5b7f4e487b7100000000000000000000000000000000000000000000000000000000600052602260045260246000fd5b7f4e487b7100000000000000000000000000000000000000000000000000000000600052603160045260246000fd5b7f4e487b7100000000000000000000000000000000000000000000000000000000600052603260045260246000fd5b7f4e487b7100000000000000000000000000000000000000000000000000000000600052604160045260246000fd5b600080fd5b600080fd5b600080fd5b600080fd5b6000601f19601f8301169050919050565b7f53616c65206973206f7665722c20616c6c20636f6c6c65637461626c6573207360008201527f6f6c642e00000000000000000000000000000000000000000000000000000000602082015250565b7f455243373231456e756d657261626c653a206f776e657220696e646578206f7560008201527f74206f6620626f756e6473000000000000000000000000000000000000000000602082015250565b7f4552433732313a207472616e7366657220746f206e6f6e20455243373231526560008201527f63656976657220696d706c656d656e7465720000000000000000000000000000602082015250565b7f4f776e61626c653a206e6577206f776e657220697320746865207a65726f206160008201527f6464726573730000000000000000000000000000000000000000000000000000602082015250565b7f4552433732313a20746f6b656e20616c7265616479206d696e74656400000000600082015250565b7f4552433732313a207472616e7366657220746f20746865207a65726f2061646460008201527f7265737300000000000000000000000000000000000000000000000000000000602082015250565b7f4552433732313a20617070726f766520746f2063616c6c657200000000000000600082015250565b7f53616c65206973206e6f206c6f6e676572206163746976650000000000000000600082015250565b7f4552433732313a206f70657261746f7220717565727920666f72206e6f6e657860008201527f697374656e7420746f6b656e0000000000000000000000000000000000000000602082015250565b7f4552433732313a20617070726f76652063616c6c6572206973206e6f74206f7760008201527f6e6572206e6f7220617070726f76656420666f7220616c6c0000000000000000602082015250565b7f4552433732313a2062616c616e636520717565727920666f7220746865207a6560008201527f726f206164647265737300000000000000000000000000000000000000000000602082015250565b7f4552433732313a206f776e657220717565727920666f72206e6f6e657869737460008201527f656e7420746f6b656e0000000000000000000000000000000000000000000000602082015250565b7f45524337323155524953746f726167653a2055524920736574206f66206e6f6e60008201527f6578697374656e7420746f6b656e000000000000000000000000000000000000602082015250565b7f4552433732313a206d696e7420746f20746865207a65726f2061646472657373600082015250565b7f45524337323155524953746f726167653a2055524920717565727920666f722060008201527f6e6f6e6578697374656e7420746f6b656e000000000000000000000000000000602082015250565b7f4552433732313a20617070726f76656420717565727920666f72206e6f6e657860008201527f697374656e7420746f6b656e0000000000000000000000000000000000000000602082015250565b7f596f752061726520747279696e6720746f2062757920746f206d616e7920636f60008201527f6c6c65637461626c65732e000000000000000000000000000000000000000000602082015250565b7f4f776e61626c653a2063616c6c6572206973206e6f7420746865206f776e6572600082015250565b7f4552433732313a207472616e73666572206f6620746f6b656e2074686174206960008201527f73206e6f74206f776e0000000000000000000000000000000000000000000000602082015250565b7f4552433732314d657461646174613a2055524920717565727920666f72206e6f60008201527f6e6578697374656e7420746f6b656e0000000000000000000000000000000000602082015250565b7f4552433732313a20617070726f76616c20746f2063757272656e74206f776e6560008201527f7200000000000000000000000000000000000000000000000000000000000000602082015250565b7f596f752063616e6e6f74206d696e74203020636f6c6c65637461626c65732e00600082015250565b7f53616c6520697320616c6d6f7374206f7665722c20776973686573206172652060008201527f72756e6e696e67206c6f772e20506c65617365207075726368617365206c657360208201527f73207769736865732e0000000000000000000000000000000000000000000000604082015250565b7f4552433732313a207472616e736665722063616c6c6572206973206e6f74206f60008201527f776e6572206e6f7220617070726f766564000000000000000000000000000000602082015250565b7f455243373231456e756d657261626c653a20676c6f62616c20696e646578206f60008201527f7574206f6620626f756e64730000000000000000000000000000000000000000602082015250565b7f596f7520617265206e6f7420617070726f766564206f7220746865206f776e6560008201527f722e000000000000000000000000000000000000000000000000000000000000602082015250565b614010816135ed565b811461401b57600080fd5b50565b614027816135ff565b811461403257600080fd5b50565b61403e8161360b565b811461404957600080fd5b50565b61405581613657565b811461406057600080fd5b5056fea26469706673582212203c7a8622f26bf5e33012bba6364da4b82301618706228ea79d7642230f76159064736f6c63430008070033",
  "immutableReferences": {},
  "source": "// SPDX-License-Identifier: MIT\npragma solidity ^0.8.0;\n\nimport \"@openzeppelin/contracts/token/ERC721/extensions/ERC721URIStorage.sol\";\nimport \"@openzeppelin/contracts/token/ERC721/extensions/ERC721Enumerable.sol\";\nimport \"@openzeppelin/contracts/token/ERC721/ERC721.sol\";\nimport \"@openzeppelin/contracts/access/Ownable.sol\";\nimport \"@openzeppelin/contracts/utils/Counters.sol\";\nimport \"@openzeppelin/contracts/utils/math/SafeMath.sol\";\nimport \"@openzeppelin/contracts/finance/PaymentSplitter.sol\";\n\n\n\n\n/*\n* If we are using a .py Script\n*/ \n\ncontract MyWish is ERC721Enumerable, ERC721URIStorage, Ownable {\n    \n    using Counters for Counters.Counter; \n    using SafeMath for uint256; \n    \n\n    Counters.Counter private _tokenId; \n\n    uint256 public constant _totalWishes = 10000; \n    bool internal saleIsActive = false; \n    uint256 public constant _maxPurchaseAllowed = 20; \n    uint256 public constant _wishPrice = 30000000000000000; //.03 ETH\n\n    mapping(address => uint256)public getTokenId;\n    mapping(address => uint256)public balances;\n\n    //Add mapping token URIs\n    //Test this need to deploy a test net\n\n\n\n    constructor() ERC721(\"MyWish\",\"WSH\") {}\n\n    function createCollectable(uint numberOfTokensMinted, uint256 seed) public onlyOwner {\n        require(saleIsActive, \"Sale is no longer active\");\n        require(totalSupply() < _totalWishes, \"Sale is over, all collectables sold.\"); //Might not need this one\n        require(numberOfTokensMinted > 0, \"You cannot mint 0 collectables.\"); \n        require(numberOfTokensMinted <= _maxPurchaseAllowed, \"You are trying to buy to many collectables.\");\n        require(SafeMath.add(totalSupply(), numberOfTokensMinted) <= _totalWishes, \"Sale is almost over, wishes are running low. Please purchase less wishes.\");\n        \n        for (uint i = 0; i < numberOfTokensMinted; i++) {\n            \n            safeMint(msg.sender, _tokenId.current(),seed);\n            _tokenId.increment();\n        }\n    }\n\n\n\n    \n\n\n    function safeMint(address to, uint256 tokenId, uint256 seed) private {\n        _safeMint(to, tokenId);\n        getTokenId[to] = tokenId;\n        balances[to] += 1;\n\n    }\n\n    function flipStateOfSale() public view onlyOwner { //not sure if I need view\n        saleIsActive != saleIsActive; \n    }\n\n    function _beforeTokenTransfer(address from, address to, uint256 tokenId) \n        internal \n        override(ERC721, ERC721Enumerable) {\n\n        super._beforeTokenTransfer(from, to, tokenId);\n    }\n\n    function supportsInterface(bytes4 interfaceId) \n        public \n        view \n        override(ERC721, ERC721Enumerable) \n        returns (bool) {\n\n        return super.supportsInterface(interfaceId);\n    }\n\n    function setTokenURI(uint256 tokenId, string memory _tokenUri) public {\n        require(\n            _isApprovedOrOwner(_msgSender(), tokenId),\n            \"You are not approved or the owner.\"\n        );\n        _setTokenURI(tokenId,_tokenUri);\n    }\n    \n    function _burn(uint256 tokenId) internal override(ERC721, ERC721URIStorage) {\n        super._burn(tokenId);\n    }\n\n    function tokenURI(uint256 tokenId)\n        public\n        view\n        override(ERC721, ERC721URIStorage)\n        returns (string memory)\n    {\n        return super.tokenURI(tokenId);\n    }\n} \n\n\n\n\n",
  "sourcePath": "/Users/zlederman/Documents/Code/js/truffle-react/contracts/Wish.sol",
  "compiler": {
    "name": "solc",
    "version": "0.8.7+commit.e28d00a7.Emscripten.clang"
  },
  "schemaVersion": "3.4.2",
  "updatedAt": "2021-08-31T22:30:06.153Z",
  "devdoc": {
    "kind": "dev",
    "methods": {
      "approve(address,uint256)": {
        "details": "See {IERC721-approve}."
      },
      "balanceOf(address)": {
        "details": "See {IERC721-balanceOf}."
      },
      "getApproved(uint256)": {
        "details": "See {IERC721-getApproved}."
      },
      "isApprovedForAll(address,address)": {
        "details": "See {IERC721-isApprovedForAll}."
      },
      "name()": {
        "details": "See {IERC721Metadata-name}."
      },
      "owner()": {
        "details": "Returns the address of the current owner."
      },
      "ownerOf(uint256)": {
        "details": "See {IERC721-ownerOf}."
      },
      "renounceOwnership()": {
        "details": "Leaves the contract without owner. It will not be possible to call `onlyOwner` functions anymore. Can only be called by the current owner. NOTE: Renouncing ownership will leave the contract without an owner, thereby removing any functionality that is only available to the owner."
      },
      "safeTransferFrom(address,address,uint256)": {
        "details": "See {IERC721-safeTransferFrom}."
      },
      "safeTransferFrom(address,address,uint256,bytes)": {
        "details": "See {IERC721-safeTransferFrom}."
      },
      "setApprovalForAll(address,bool)": {
        "details": "See {IERC721-setApprovalForAll}."
      },
      "symbol()": {
        "details": "See {IERC721Metadata-symbol}."
      },
      "tokenByIndex(uint256)": {
        "details": "See {IERC721Enumerable-tokenByIndex}."
      },
      "tokenOfOwnerByIndex(address,uint256)": {
        "details": "See {IERC721Enumerable-tokenOfOwnerByIndex}."
      },
      "totalSupply()": {
        "details": "See {IERC721Enumerable-totalSupply}."
      },
      "transferFrom(address,address,uint256)": {
        "details": "See {IERC721-transferFrom}."
      },
      "transferOwnership(address)": {
        "details": "Transfers ownership of the contract to a new account (`newOwner`). Can only be called by the current owner."
      }
    },
    "version": 1
  },
  "userdoc": {
    "kind": "user",
    "methods": {},
    "version": 1
  }
}