{
  "contractName": "MyWish",
  "abi": [
    {
      "inputs": [
        {
          "internalType": "address",
          "name": "whiteLister",
          "type": "address"
        }
      ],
      "stateMutability": "nonpayable",
      "type": "constructor"
    },
    {
      "anonymous": false,
      "inputs": [
        {
          "indexed": true,
          "internalType": "address",
          "name": "owner",
          "type": "address"
        },
        {
          "indexed": true,
          "internalType": "address",
          "name": "approved",
          "type": "address"
        },
        {
          "indexed": true,
          "internalType": "uint256",
          "name": "tokenId",
          "type": "uint256"
        }
      ],
      "name": "Approval",
      "type": "event"
    },
    {
      "anonymous": false,
      "inputs": [
        {
          "indexed": true,
          "internalType": "address",
          "name": "owner",
          "type": "address"
        },
        {
          "indexed": true,
          "internalType": "address",
          "name": "operator",
          "type": "address"
        },
        {
          "indexed": false,
          "internalType": "bool",
          "name": "approved",
          "type": "bool"
        }
      ],
      "name": "ApprovalForAll",
      "type": "event"
    },
    {
      "anonymous": false,
      "inputs": [
        {
          "indexed": false,
          "internalType": "address",
          "name": "account",
          "type": "address"
        },
        {
          "indexed": false,
          "internalType": "uint256",
          "name": "shares",
          "type": "uint256"
        }
      ],
      "name": "PayeeAdded",
      "type": "event"
    },
    {
      "anonymous": false,
      "inputs": [
        {
          "indexed": false,
          "internalType": "address",
          "name": "from",
          "type": "address"
        },
        {
          "indexed": false,
          "internalType": "uint256",
          "name": "amount",
          "type": "uint256"
        }
      ],
      "name": "PaymentReceived",
      "type": "event"
    },
    {
      "anonymous": false,
      "inputs": [
        {
          "indexed": false,
          "internalType": "address",
          "name": "to",
          "type": "address"
        },
        {
          "indexed": false,
          "internalType": "uint256",
          "name": "amount",
          "type": "uint256"
        }
      ],
      "name": "PaymentReleased",
      "type": "event"
    },
    {
      "anonymous": false,
      "inputs": [
        {
          "indexed": true,
          "internalType": "bytes32",
          "name": "role",
          "type": "bytes32"
        },
        {
          "indexed": true,
          "internalType": "bytes32",
          "name": "previousAdminRole",
          "type": "bytes32"
        },
        {
          "indexed": true,
          "internalType": "bytes32",
          "name": "newAdminRole",
          "type": "bytes32"
        }
      ],
      "name": "RoleAdminChanged",
      "type": "event"
    },
    {
      "anonymous": false,
      "inputs": [
        {
          "indexed": true,
          "internalType": "bytes32",
          "name": "role",
          "type": "bytes32"
        },
        {
          "indexed": true,
          "internalType": "address",
          "name": "account",
          "type": "address"
        },
        {
          "indexed": true,
          "internalType": "address",
          "name": "sender",
          "type": "address"
        }
      ],
      "name": "RoleGranted",
      "type": "event"
    },
    {
      "anonymous": false,
      "inputs": [
        {
          "indexed": true,
          "internalType": "bytes32",
          "name": "role",
          "type": "bytes32"
        },
        {
          "indexed": true,
          "internalType": "address",
          "name": "account",
          "type": "address"
        },
        {
          "indexed": true,
          "internalType": "address",
          "name": "sender",
          "type": "address"
        }
      ],
      "name": "RoleRevoked",
      "type": "event"
    },
    {
      "anonymous": false,
      "inputs": [
        {
          "indexed": true,
          "internalType": "address",
          "name": "from",
          "type": "address"
        },
        {
          "indexed": true,
          "internalType": "address",
          "name": "to",
          "type": "address"
        },
        {
          "indexed": true,
          "internalType": "uint256",
          "name": "tokenId",
          "type": "uint256"
        }
      ],
      "name": "Transfer",
      "type": "event"
    },
    {
      "anonymous": false,
      "inputs": [
        {
          "indexed": false,
          "internalType": "enum MyWish.ContractState",
          "name": "from",
          "type": "uint8"
        },
        {
          "indexed": false,
          "internalType": "enum MyWish.ContractState",
          "name": "to",
          "type": "uint8"
        }
      ],
      "name": "contractStateChanged",
      "type": "event"
    },
    {
      "anonymous": false,
      "inputs": [
        {
          "indexed": false,
          "internalType": "uint256",
          "name": "numTokens",
          "type": "uint256"
        },
        {
          "indexed": false,
          "internalType": "address",
          "name": "buyer",
          "type": "address"
        }
      ],
      "name": "tokensPurchased",
      "type": "event"
    },
    {
      "inputs": [],
      "name": "BASEURI_ROLE",
      "outputs": [
        {
          "internalType": "bytes32",
          "name": "",
          "type": "bytes32"
        }
      ],
      "stateMutability": "view",
      "type": "function"
    },
    {
      "inputs": [],
      "name": "DEFAULT_ADMIN_ROLE",
      "outputs": [
        {
          "internalType": "bytes32",
          "name": "",
          "type": "bytes32"
        }
      ],
      "stateMutability": "view",
      "type": "function"
    },
    {
      "inputs": [],
      "name": "STATE_MANAGER_ROLE",
      "outputs": [
        {
          "internalType": "bytes32",
          "name": "",
          "type": "bytes32"
        }
      ],
      "stateMutability": "view",
      "type": "function"
    },
    {
      "inputs": [],
      "name": "WHITELIST_ROLE",
      "outputs": [
        {
          "internalType": "bytes32",
          "name": "",
          "type": "bytes32"
        }
      ],
      "stateMutability": "view",
      "type": "function"
    },
    {
      "inputs": [
        {
          "internalType": "address",
          "name": "to",
          "type": "address"
        },
        {
          "internalType": "uint256",
          "name": "tokenId",
          "type": "uint256"
        }
      ],
      "name": "approve",
      "outputs": [],
      "stateMutability": "nonpayable",
      "type": "function"
    },
    {
      "inputs": [
        {
          "internalType": "address",
          "name": "owner",
          "type": "address"
        }
      ],
      "name": "balanceOf",
      "outputs": [
        {
          "internalType": "uint256",
          "name": "",
          "type": "uint256"
        }
      ],
      "stateMutability": "view",
      "type": "function"
    },
    {
      "inputs": [
        {
          "internalType": "address",
          "name": "",
          "type": "address"
        }
      ],
      "name": "balances",
      "outputs": [
        {
          "internalType": "uint256",
          "name": "",
          "type": "uint256"
        }
      ],
      "stateMutability": "view",
      "type": "function"
    },
    {
      "inputs": [
        {
          "internalType": "uint256",
          "name": "tokenId",
          "type": "uint256"
        }
      ],
      "name": "getApproved",
      "outputs": [
        {
          "internalType": "address",
          "name": "",
          "type": "address"
        }
      ],
      "stateMutability": "view",
      "type": "function"
    },
    {
      "inputs": [
        {
          "internalType": "bytes32",
          "name": "role",
          "type": "bytes32"
        }
      ],
      "name": "getRoleAdmin",
      "outputs": [
        {
          "internalType": "bytes32",
          "name": "",
          "type": "bytes32"
        }
      ],
      "stateMutability": "view",
      "type": "function"
    },
    {
      "inputs": [
        {
          "internalType": "bytes32",
          "name": "role",
          "type": "bytes32"
        },
        {
          "internalType": "address",
          "name": "account",
          "type": "address"
        }
      ],
      "name": "grantRole",
      "outputs": [],
      "stateMutability": "nonpayable",
      "type": "function"
    },
    {
      "inputs": [
        {
          "internalType": "bytes32",
          "name": "role",
          "type": "bytes32"
        },
        {
          "internalType": "address",
          "name": "account",
          "type": "address"
        }
      ],
      "name": "hasRole",
      "outputs": [
        {
          "internalType": "bool",
          "name": "",
          "type": "bool"
        }
      ],
      "stateMutability": "view",
      "type": "function"
    },
    {
      "inputs": [
        {
          "internalType": "address",
          "name": "owner",
          "type": "address"
        },
        {
          "internalType": "address",
          "name": "operator",
          "type": "address"
        }
      ],
      "name": "isApprovedForAll",
      "outputs": [
        {
          "internalType": "bool",
          "name": "",
          "type": "bool"
        }
      ],
      "stateMutability": "view",
      "type": "function"
    },
    {
      "inputs": [],
      "name": "maxPurchaseAllowed",
      "outputs": [
        {
          "internalType": "uint256",
          "name": "",
          "type": "uint256"
        }
      ],
      "stateMutability": "view",
      "type": "function"
    },
    {
      "inputs": [],
      "name": "maxSupply",
      "outputs": [
        {
          "internalType": "uint256",
          "name": "",
          "type": "uint256"
        }
      ],
      "stateMutability": "view",
      "type": "function"
    },
    {
      "inputs": [],
      "name": "name",
      "outputs": [
        {
          "internalType": "string",
          "name": "",
          "type": "string"
        }
      ],
      "stateMutability": "view",
      "type": "function"
    },
    {
      "inputs": [
        {
          "internalType": "uint256",
          "name": "tokenId",
          "type": "uint256"
        }
      ],
      "name": "ownerOf",
      "outputs": [
        {
          "internalType": "address",
          "name": "",
          "type": "address"
        }
      ],
      "stateMutability": "view",
      "type": "function"
    },
    {
      "inputs": [
        {
          "internalType": "uint256",
          "name": "index",
          "type": "uint256"
        }
      ],
      "name": "payee",
      "outputs": [
        {
          "internalType": "address",
          "name": "",
          "type": "address"
        }
      ],
      "stateMutability": "view",
      "type": "function"
    },
    {
      "inputs": [
        {
          "internalType": "address payable",
          "name": "account",
          "type": "address"
        }
      ],
      "name": "release",
      "outputs": [],
      "stateMutability": "nonpayable",
      "type": "function"
    },
    {
      "inputs": [
        {
          "internalType": "address",
          "name": "account",
          "type": "address"
        }
      ],
      "name": "released",
      "outputs": [
        {
          "internalType": "uint256",
          "name": "",
          "type": "uint256"
        }
      ],
      "stateMutability": "view",
      "type": "function"
    },
    {
      "inputs": [
        {
          "internalType": "bytes32",
          "name": "role",
          "type": "bytes32"
        },
        {
          "internalType": "address",
          "name": "account",
          "type": "address"
        }
      ],
      "name": "renounceRole",
      "outputs": [],
      "stateMutability": "nonpayable",
      "type": "function"
    },
    {
      "inputs": [
        {
          "internalType": "bytes32",
          "name": "role",
          "type": "bytes32"
        },
        {
          "internalType": "address",
          "name": "account",
          "type": "address"
        }
      ],
      "name": "revokeRole",
      "outputs": [],
      "stateMutability": "nonpayable",
      "type": "function"
    },
    {
      "inputs": [
        {
          "internalType": "address",
          "name": "from",
          "type": "address"
        },
        {
          "internalType": "address",
          "name": "to",
          "type": "address"
        },
        {
          "internalType": "uint256",
          "name": "tokenId",
          "type": "uint256"
        }
      ],
      "name": "safeTransferFrom",
      "outputs": [],
      "stateMutability": "nonpayable",
      "type": "function"
    },
    {
      "inputs": [
        {
          "internalType": "address",
          "name": "from",
          "type": "address"
        },
        {
          "internalType": "address",
          "name": "to",
          "type": "address"
        },
        {
          "internalType": "uint256",
          "name": "tokenId",
          "type": "uint256"
        },
        {
          "internalType": "bytes",
          "name": "_data",
          "type": "bytes"
        }
      ],
      "name": "safeTransferFrom",
      "outputs": [],
      "stateMutability": "nonpayable",
      "type": "function"
    },
    {
      "inputs": [
        {
          "internalType": "address",
          "name": "operator",
          "type": "address"
        },
        {
          "internalType": "bool",
          "name": "approved",
          "type": "bool"
        }
      ],
      "name": "setApprovalForAll",
      "outputs": [],
      "stateMutability": "nonpayable",
      "type": "function"
    },
    {
      "inputs": [
        {
          "internalType": "address",
          "name": "account",
          "type": "address"
        }
      ],
      "name": "shares",
      "outputs": [
        {
          "internalType": "uint256",
          "name": "",
          "type": "uint256"
        }
      ],
      "stateMutability": "view",
      "type": "function"
    },
    {
      "inputs": [],
      "name": "symbol",
      "outputs": [
        {
          "internalType": "string",
          "name": "",
          "type": "string"
        }
      ],
      "stateMutability": "view",
      "type": "function"
    },
    {
      "inputs": [
        {
          "internalType": "uint256",
          "name": "index",
          "type": "uint256"
        }
      ],
      "name": "tokenByIndex",
      "outputs": [
        {
          "internalType": "uint256",
          "name": "",
          "type": "uint256"
        }
      ],
      "stateMutability": "view",
      "type": "function"
    },
    {
      "inputs": [
        {
          "internalType": "address",
          "name": "owner",
          "type": "address"
        },
        {
          "internalType": "uint256",
          "name": "index",
          "type": "uint256"
        }
      ],
      "name": "tokenOfOwnerByIndex",
      "outputs": [
        {
          "internalType": "uint256",
          "name": "",
          "type": "uint256"
        }
      ],
      "stateMutability": "view",
      "type": "function"
    },
    {
      "inputs": [],
      "name": "totalReleased",
      "outputs": [
        {
          "internalType": "uint256",
          "name": "",
          "type": "uint256"
        }
      ],
      "stateMutability": "view",
      "type": "function"
    },
    {
      "inputs": [],
      "name": "totalShares",
      "outputs": [
        {
          "internalType": "uint256",
          "name": "",
          "type": "uint256"
        }
      ],
      "stateMutability": "view",
      "type": "function"
    },
    {
      "inputs": [],
      "name": "totalSupply",
      "outputs": [
        {
          "internalType": "uint256",
          "name": "",
          "type": "uint256"
        }
      ],
      "stateMutability": "view",
      "type": "function"
    },
    {
      "inputs": [
        {
          "internalType": "address",
          "name": "from",
          "type": "address"
        },
        {
          "internalType": "address",
          "name": "to",
          "type": "address"
        },
        {
          "internalType": "uint256",
          "name": "tokenId",
          "type": "uint256"
        }
      ],
      "name": "transferFrom",
      "outputs": [],
      "stateMutability": "nonpayable",
      "type": "function"
    },
    {
      "stateMutability": "payable",
      "type": "receive"
    },
    {
      "inputs": [
        {
          "internalType": "string",
          "name": "baseURI_",
          "type": "string"
        }
      ],
      "name": "setBaseURI",
      "outputs": [],
      "stateMutability": "nonpayable",
      "type": "function"
    },
    {
      "inputs": [
        {
          "internalType": "uint256",
          "name": "tokenId",
          "type": "uint256"
        }
      ],
      "name": "tokenURI",
      "outputs": [
        {
          "internalType": "string",
          "name": "",
          "type": "string"
        }
      ],
      "stateMutability": "view",
      "type": "function"
    },
    {
      "inputs": [
        {
          "internalType": "uint16",
          "name": "numTokens",
          "type": "uint16"
        },
        {
          "internalType": "bytes",
          "name": "sig",
          "type": "bytes"
        },
        {
          "internalType": "bytes32",
          "name": "data",
          "type": "bytes32"
        },
        {
          "internalType": "bytes32",
          "name": "nonce",
          "type": "bytes32"
        }
      ],
      "name": "handleMint",
      "outputs": [],
      "stateMutability": "payable",
      "type": "function"
    },
    {
      "inputs": [
        {
          "internalType": "uint256",
          "name": "numTokens",
          "type": "uint256"
        }
      ],
      "name": "createCollectable",
      "outputs": [],
      "stateMutability": "payable",
      "type": "function"
    },
    {
      "inputs": [],
      "name": "getBalanceOfContract",
      "outputs": [
        {
          "internalType": "uint256",
          "name": "",
          "type": "uint256"
        }
      ],
      "stateMutability": "view",
      "type": "function"
    },
    {
      "inputs": [
        {
          "internalType": "bytes4",
          "name": "interfaceId",
          "type": "bytes4"
        }
      ],
      "name": "supportsInterface",
      "outputs": [
        {
          "internalType": "bool",
          "name": "",
          "type": "bool"
        }
      ],
      "stateMutability": "view",
      "type": "function"
    },
    {
      "inputs": [],
      "name": "getPrice",
      "outputs": [
        {
          "internalType": "uint256",
          "name": "",
          "type": "uint256"
        }
      ],
      "stateMutability": "pure",
      "type": "function"
    },
    {
      "inputs": [
        {
          "internalType": "bytes",
          "name": "sig",
          "type": "bytes"
        },
        {
          "internalType": "bytes32",
          "name": "data",
          "type": "bytes32"
        },
        {
          "internalType": "uint256",
          "name": "numTokens",
          "type": "uint256"
        },
        {
          "internalType": "bytes32",
          "name": "nonce",
          "type": "bytes32"
        }
      ],
      "name": "whiteListMint",
      "outputs": [],
      "stateMutability": "payable",
      "type": "function"
    },
    {
      "inputs": [
        {
          "internalType": "uint256",
          "name": "state",
          "type": "uint256"
        }
      ],
      "name": "setContractState",
      "outputs": [
        {
          "internalType": "bool",
          "name": "",
          "type": "bool"
        }
      ],
      "stateMutability": "nonpayable",
      "type": "function"
    },
    {
      "inputs": [],
      "name": "getContractState",
      "outputs": [
        {
          "internalType": "uint256",
          "name": "",
          "type": "uint256"
        }
      ],
      "stateMutability": "view",
      "type": "function"
    },
    {
      "inputs": [
        {
          "internalType": "address",
          "name": "stateManager",
          "type": "address"
        }
      ],
      "name": "setStateManagerRole",
      "outputs": [],
      "stateMutability": "nonpayable",
      "type": "function"
    },
    {
      "inputs": [
        {
          "internalType": "address",
          "name": "stateManager",
          "type": "address"
        }
      ],
      "name": "setWhiteListManagerRole",
      "outputs": [],
      "stateMutability": "nonpayable",
      "type": "function"
    }
  ],
  "bytecode": "0x6101006040526000601260006101000a81548173ffffffffffffffffffffffffffffffffffffffff021916908373ffffffffffffffffffffffffffffffffffffffff160217905550600061ffff1660809061ffff16815250600261ffff1660a09061ffff16815250600161ffff1660c09061ffff16815250600361ffff1660e09061ffff168152506040518060800160405280600260ff168152602001600260ff168152602001600660ff168152602001605a60ff168152506013906004620000ca92919062000a42565b506040518060800160405280600073ffffffffffffffffffffffffffffffffffffffff1673ffffffffffffffffffffffffffffffffffffffff168152602001600073ffffffffffffffffffffffffffffffffffffffff1673ffffffffffffffffffffffffffffffffffffffff168152602001600073ffffffffffffffffffffffffffffffffffffffff1673ffffffffffffffffffffffffffffffffffffffff168152602001600073ffffffffffffffffffffffffffffffffffffffff1673ffffffffffffffffffffffffffffffffffffffff168152506014906004620001b292919062000a99565b506040518060400160405280600681526020017f4d79576973680000000000000000000000000000000000000000000000000000815250601790805190602001906200020092919062000b28565b506040518060400160405280600c81526020017f5745204e45454420495046530000000000000000000000000000000000000000815250601890805190602001906200024e92919062000b28565b503480156200025c57600080fd5b5060405162006fbb38038062006fbb833981810160405281019062000282919062000c42565b60148054806020026020016040519081016040528092919081815260200182805480156200030657602002820191906000526020600020905b8160009054906101000a900473ffffffffffffffffffffffffffffffffffffffff1673ffffffffffffffffffffffffffffffffffffffff1681526020019060010190808311620002bb575b505050505060138054806020026020016040519081016040528092919081815260200182805480156200035957602002820191906000526020600020905b81548152602001906001019080831162000344575b50505050506040518060400160405280600681526020017f4d795769736800000000000000000000000000000000000000000000000000008152506040518060400160405280600381526020017f57534800000000000000000000000000000000000000000000000000000000008152508160019080519060200190620003e292919062000b28565b508060029080519060200190620003fb92919062000b28565b505050805182511462000445576040517f08c379a00000000000000000000000000000000000000000000000000000000081526004016200043c9062000cfb565b60405180910390fd5b60008251116200048c576040517f08c379a0000000000000000000000000000000000000000000000000000000008152600401620004839062000d6d565b60405180910390fd5b60005b8251811015620004fb57620004e5838281518110620004b357620004b262000d8f565b5b6020026020010151838381518110620004d157620004d062000d8f565b5b60200260200101516200061360201b60201c565b8080620004f29062000df7565b9150506200048f565b505050601260009054906101000a900473ffffffffffffffffffffffffffffffffffffffff16601460038154811062000539576200053862000d8f565b5b9060005260206000200160006101000a81548173ffffffffffffffffffffffffffffffffffffffff021916908373ffffffffffffffffffffffffffffffffffffffff160217905550620005966000801b336200084d60201b60201c565b620005cb7f0a1704759791c789e02e7ea2b8b48d3ffe1f2ebace5515b64b3172e6580551756000801b6200086360201b60201c565b80601060006101000a81548173ffffffffffffffffffffffffffffffffffffffff021916908373ffffffffffffffffffffffffffffffffffffffff16021790555050620010f8565b600073ffffffffffffffffffffffffffffffffffffffff168273ffffffffffffffffffffffffffffffffffffffff16141562000686576040517f08c379a00000000000000000000000000000000000000000000000000000000081526004016200067d9062000ebb565b60405180910390fd5b60008111620006cc576040517f08c379a0000000000000000000000000000000000000000000000000000000008152600401620006c39062000f2d565b60405180910390fd5b6000600d60008473ffffffffffffffffffffffffffffffffffffffff1673ffffffffffffffffffffffffffffffffffffffff168152602001908152602001600020541462000751576040517f08c379a0000000000000000000000000000000000000000000000000000000008152600401620007489062000fc5565b60405180910390fd5b600f829080600181540180825580915050600190039060005260206000200160009091909190916101000a81548173ffffffffffffffffffffffffffffffffffffffff021916908373ffffffffffffffffffffffffffffffffffffffff16021790555080600d60008473ffffffffffffffffffffffffffffffffffffffff1673ffffffffffffffffffffffffffffffffffffffff1681526020019081526020016000208190555080600b5462000808919062000fe7565b600b819055507f40c340f65e17194d14ddddb073d3c9f888e3cb52b5aae0c6c7706b4fbc905fac82826040516200084192919062001066565b60405180910390a15050565b6200085f8282620008c060201b60201c565b5050565b806200087583620009b160201b60201c565b837fbd79b86ffe0ab8e8776151514217cd7cacd52c909f66475c3af44e129f0b00ff60405160405180910390a480600080848152602001908152602001600020600101819055505050565b620008d28282620009d060201b60201c565b620009ad57600160008084815260200190815260200160002060000160008373ffffffffffffffffffffffffffffffffffffffff1673ffffffffffffffffffffffffffffffffffffffff16815260200190815260200160002060006101000a81548160ff0219169083151502179055506200095262000a3a60201b60201c565b73ffffffffffffffffffffffffffffffffffffffff168173ffffffffffffffffffffffffffffffffffffffff16837f2f8788117e7eff1d82e926ec794901d17c78024a50270940304540a733656f0d60405160405180910390a45b5050565b6000806000838152602001908152602001600020600101549050919050565b600080600084815260200190815260200160002060000160008373ffffffffffffffffffffffffffffffffffffffff1673ffffffffffffffffffffffffffffffffffffffff16815260200190815260200160002060009054906101000a900460ff16905092915050565b600033905090565b82805482825590600052602060002090810192821562000a86579160200282015b8281111562000a85578251829060ff1690559160200191906001019062000a63565b5b50905062000a95919062000bb9565b5090565b82805482825590600052602060002090810192821562000b15579160200282015b8281111562000b145782518260006101000a81548173ffffffffffffffffffffffffffffffffffffffff021916908373ffffffffffffffffffffffffffffffffffffffff1602179055509160200191906001019062000aba565b5b50905062000b24919062000bb9565b5090565b82805462000b3690620010c2565b90600052602060002090601f01602090048101928262000b5a576000855562000ba6565b82601f1062000b7557805160ff191683800117855562000ba6565b8280016001018555821562000ba6579182015b8281111562000ba557825182559160200191906001019062000b88565b5b50905062000bb5919062000bb9565b5090565b5b8082111562000bd457600081600090555060010162000bba565b5090565b600080fd5b600073ffffffffffffffffffffffffffffffffffffffff82169050919050565b600062000c0a8262000bdd565b9050919050565b62000c1c8162000bfd565b811462000c2857600080fd5b50565b60008151905062000c3c8162000c11565b92915050565b60006020828403121562000c5b5762000c5a62000bd8565b5b600062000c6b8482850162000c2b565b91505092915050565b600082825260208201905092915050565b7f5061796d656e7453706c69747465723a2070617965657320616e64207368617260008201527f6573206c656e677468206d69736d617463680000000000000000000000000000602082015250565b600062000ce360328362000c74565b915062000cf08262000c85565b604082019050919050565b6000602082019050818103600083015262000d168162000cd4565b9050919050565b7f5061796d656e7453706c69747465723a206e6f20706179656573000000000000600082015250565b600062000d55601a8362000c74565b915062000d628262000d1d565b602082019050919050565b6000602082019050818103600083015262000d888162000d46565b9050919050565b7f4e487b7100000000000000000000000000000000000000000000000000000000600052603260045260246000fd5b7f4e487b7100000000000000000000000000000000000000000000000000000000600052601160045260246000fd5b6000819050919050565b600062000e048262000ded565b91507fffffffffffffffffffffffffffffffffffffffffffffffffffffffffffffffff82141562000e3a5762000e3962000dbe565b5b600182019050919050565b7f5061796d656e7453706c69747465723a206163636f756e74206973207468652060008201527f7a65726f20616464726573730000000000000000000000000000000000000000602082015250565b600062000ea3602c8362000c74565b915062000eb08262000e45565b604082019050919050565b6000602082019050818103600083015262000ed68162000e94565b9050919050565b7f5061796d656e7453706c69747465723a20736861726573206172652030000000600082015250565b600062000f15601d8362000c74565b915062000f228262000edd565b602082019050919050565b6000602082019050818103600083015262000f488162000f06565b9050919050565b7f5061796d656e7453706c69747465723a206163636f756e7420616c726561647960008201527f2068617320736861726573000000000000000000000000000000000000000000602082015250565b600062000fad602b8362000c74565b915062000fba8262000f4f565b604082019050919050565b6000602082019050818103600083015262000fe08162000f9e565b9050919050565b600062000ff48262000ded565b9150620010018362000ded565b9250827fffffffffffffffffffffffffffffffffffffffffffffffffffffffffffffffff0382111562001039576200103862000dbe565b5b828201905092915050565b6200104f8162000bfd565b82525050565b620010608162000ded565b82525050565b60006040820190506200107d600083018562001044565b6200108c602083018462001055565b9392505050565b7f4e487b7100000000000000000000000000000000000000000000000000000000600052602260045260246000fd5b60006002820490506001821680620010db57607f821691505b60208210811415620010f257620010f162001093565b5b50919050565b60805160a05160c05160e051615e956200112660003960005050600050506000505060005050615e956000f3fe60806040526004361061026b5760003560e01c80636f1dfea011610144578063a22cb465116100b6578063d547741f1161007a578063d547741f146109c2578063d5abeb01146109eb578063dc65bf2514610a16578063e33b7de314610a3f578063e985e9c514610a6a578063fb7265ff14610aa7576102b2565b8063a22cb465146108cb578063b88d4fde146108f4578063c0bf62051461091d578063c87b56dd14610948578063ce7c2ac214610985576102b2565b80638c0b4dbe116101085780638c0b4dbe146107a557806391d14854146107d057806395d89b411461080d5780639852595c1461083857806398d5fdca14610875578063a217fddf146108a0576102b2565b80636f1dfea0146106ac57806370a08231146106d55780637a997ab7146107125780637f4e48491461073d5780638b83209b14610768576102b2565b80632f2ff15d116101dd5780634f6ccce7116101a15780634f6ccce7146105a6578063558b3819146105e357806355f804b3146105ff57806357501075146106285780635dc146d4146106535780636352211e1461066f576102b2565b80632f2ff15d146104c35780632f745c59146104ec57806336568abe146105295780633a98ef391461055257806342842e0e1461057d576102b2565b8063186c507d1161022f578063186c507d146103b057806319165587146103cc57806322968885146103f557806323b872dd14610420578063248a9ca31461044957806327e235e314610486576102b2565b806301ffc9a7146102b757806306fdde03146102f4578063081812fc1461031f578063095ea7b31461035c57806318160ddd14610385576102b2565b366102b2577f6ef95f06320e7a25a04a175ca677b7052bdd97131872c2192525a629f51be770610299610ae4565b346040516102a8929190613af5565b60405180910390a1005b600080fd5b3480156102c357600080fd5b506102de60048036038101906102d99190613b8a565b610aec565b6040516102eb9190613bd2565b60405180910390f35b34801561030057600080fd5b50610309610afe565b6040516103169190613c86565b60405180910390f35b34801561032b57600080fd5b5061034660048036038101906103419190613cd4565b610b90565b6040516103539190613d01565b60405180910390f35b34801561036857600080fd5b50610383600480360381019061037e9190613d48565b610c15565b005b34801561039157600080fd5b5061039a610d2d565b6040516103a79190613d88565b60405180910390f35b6103ca60048036038101906103c59190613cd4565b610d3a565b005b3480156103d857600080fd5b506103f360048036038101906103ee9190613de1565b610f6f565b005b34801561040157600080fd5b5061040a6111d7565b6040516104179190613d88565b60405180910390f35b34801561042c57600080fd5b5061044760048036038101906104429190613e0e565b6111df565b005b34801561045557600080fd5b50610470600480360381019061046b9190613e97565b61123f565b60405161047d9190613ed3565b60405180910390f35b34801561049257600080fd5b506104ad60048036038101906104a89190613eee565b61125e565b6040516104ba9190613d88565b60405180910390f35b3480156104cf57600080fd5b506104ea60048036038101906104e59190613f1b565b611276565b005b3480156104f857600080fd5b50610513600480360381019061050e9190613d48565b61129f565b6040516105209190613d88565b60405180910390f35b34801561053557600080fd5b50610550600480360381019061054b9190613f1b565b611344565b005b34801561055e57600080fd5b506105676113c7565b6040516105749190613d88565b60405180910390f35b34801561058957600080fd5b506105a4600480360381019061059f9190613e0e565b6113d1565b005b3480156105b257600080fd5b506105cd60048036038101906105c89190613cd4565b6113f1565b6040516105da9190613d88565b60405180910390f35b6105fd60048036038101906105f891906140ca565b611462565b005b34801561060b57600080fd5b50610626600480360381019061062191906141ee565b611523565b005b34801561063457600080fd5b5061063d611553565b60405161064a9190613ed3565b60405180910390f35b61066d60048036038101906106689190614237565b611577565b005b34801561067b57600080fd5b5061069660048036038101906106919190613cd4565b61163d565b6040516106a39190613d01565b60405180910390f35b3480156106b857600080fd5b506106d360048036038101906106ce9190613eee565b6116ef565b005b3480156106e157600080fd5b506106fc60048036038101906106f79190613eee565b6117a2565b6040516107099190613d88565b60405180910390f35b34801561071e57600080fd5b5061072761185a565b6040516107349190613ed3565b60405180910390f35b34801561074957600080fd5b5061075261187e565b60405161075f9190613d88565b60405180910390f35b34801561077457600080fd5b5061078f600480360381019061078a9190613cd4565b6118a7565b60405161079c9190613d01565b60405180910390f35b3480156107b157600080fd5b506107ba6118ef565b6040516107c79190613d88565b60405180910390f35b3480156107dc57600080fd5b506107f760048036038101906107f29190613f1b565b6118f4565b6040516108049190613bd2565b60405180910390f35b34801561081957600080fd5b5061082261195e565b60405161082f9190613c86565b60405180910390f35b34801561084457600080fd5b5061085f600480360381019061085a9190613eee565b6119f0565b60405161086c9190613d88565b60405180910390f35b34801561088157600080fd5b5061088a611a39565b6040516108979190613d88565b60405180910390f35b3480156108ac57600080fd5b506108b5611a48565b6040516108c29190613ed3565b60405180910390f35b3480156108d757600080fd5b506108f260048036038101906108ed91906142e6565b611a4f565b005b34801561090057600080fd5b5061091b60048036038101906109169190614326565b611bd0565b005b34801561092957600080fd5b50610932611c32565b60405161093f9190613ed3565b60405180910390f35b34801561095457600080fd5b5061096f600480360381019061096a9190613cd4565b611c56565b60405161097c9190613c86565b60405180910390f35b34801561099157600080fd5b506109ac60048036038101906109a79190613eee565b611d2e565b6040516109b99190613d88565b60405180910390f35b3480156109ce57600080fd5b506109e960048036038101906109e49190613f1b565b611d77565b005b3480156109f757600080fd5b50610a00611da0565b604051610a0d9190613d88565b60405180910390f35b348015610a2257600080fd5b50610a3d6004803603810190610a389190613eee565b611da6565b005b348015610a4b57600080fd5b50610a54611e7b565b604051610a619190613d88565b60405180910390f35b348015610a7657600080fd5b50610a916004803603810190610a8c91906143a9565b611e85565b604051610a9e9190613bd2565b60405180910390f35b348015610ab357600080fd5b50610ace6004803603810190610ac99190613cd4565b611f19565b604051610adb9190613bd2565b60405180910390f35b600033905090565b6000610af782612088565b9050919050565b606060018054610b0d90614418565b80601f0160208091040260200160405190810160405280929190818152602001828054610b3990614418565b8015610b865780601f10610b5b57610100808354040283529160200191610b86565b820191906000526020600020905b815481529060010190602001808311610b6957829003601f168201915b5050505050905090565b6000610b9b82612102565b610bda576040517f08c379a0000000000000000000000000000000000000000000000000000000008152600401610bd1906144bc565b60405180910390fd5b6005600083815260200190815260200160002060009054906101000a900473ffffffffffffffffffffffffffffffffffffffff169050919050565b6000610c208261163d565b90508073ffffffffffffffffffffffffffffffffffffffff168373ffffffffffffffffffffffffffffffffffffffff161415610c91576040517f08c379a0000000000000000000000000000000000000000000000000000000008152600401610c889061454e565b60405180910390fd5b8073ffffffffffffffffffffffffffffffffffffffff16610cb0610ae4565b73ffffffffffffffffffffffffffffffffffffffff161480610cdf5750610cde81610cd9610ae4565b611e85565b5b610d1e576040517f08c379a0000000000000000000000000000000000000000000000000000000008152600401610d15906145e0565b60405180910390fd5b610d28838361216e565b505050565b6000600980549050905090565b60036004811115610d4e57610d4d614600565b5b601260149054906101000a900460ff166004811115610d7057610d6f614600565b5b14610db0576040517f08c379a0000000000000000000000000000000000000000000000000000000008152600401610da79061467b565b60405180910390fd5b80666a94d74f430000610dc391906146ca565b3414610e04576040517f08c379a0000000000000000000000000000000000000000000000000000000008152600401610dfb90614770565b60405180910390fd5b600581601660003373ffffffffffffffffffffffffffffffffffffffff1673ffffffffffffffffffffffffffffffffffffffff16815260200190815260200160002054610e519190614790565b10610e91576040517f08c379a0000000000000000000000000000000000000000000000000000000008152600401610e8890614832565b60405180910390fd5b610ea433610e9f6015612227565b612235565b60003373ffffffffffffffffffffffffffffffffffffffff16610ecf610eca6015612227565b61163d565b73ffffffffffffffffffffffffffffffffffffffff1614905080610f28576040517f08c379a0000000000000000000000000000000000000000000000000000000008152600401610f1f9061489e565b60405180910390fd5b610f326015612253565b7f5ef97c2d2c0e957744653203f0773b44cae117805e0264d48e4a38288ce082e88233604051610f639291906148be565b60405180910390a15050565b6000600d60008373ffffffffffffffffffffffffffffffffffffffff1673ffffffffffffffffffffffffffffffffffffffff1681526020019081526020016000205411610ff1576040517f08c379a0000000000000000000000000000000000000000000000000000000008152600401610fe890614959565b60405180910390fd5b6000600c54476110019190614790565b90506000600e60008473ffffffffffffffffffffffffffffffffffffffff1673ffffffffffffffffffffffffffffffffffffffff16815260200190815260200160002054600b54600d60008673ffffffffffffffffffffffffffffffffffffffff1673ffffffffffffffffffffffffffffffffffffffff168152602001908152602001600020548461109391906146ca565b61109d91906149a8565b6110a791906149d9565b905060008114156110ed576040517f08c379a00000000000000000000000000000000000000000000000000000000081526004016110e490614a7f565b60405180910390fd5b80600e60008573ffffffffffffffffffffffffffffffffffffffff1673ffffffffffffffffffffffffffffffffffffffff168152602001908152602001600020546111389190614790565b600e60008573ffffffffffffffffffffffffffffffffffffffff1673ffffffffffffffffffffffffffffffffffffffff1681526020019081526020016000208190555080600c546111899190614790565b600c819055506111998382612269565b7fdf20fd1e76bc69d672e4814fafb2c449bba3a5369d8359adf9e05e6fde87b05683826040516111ca929190614afe565b60405180910390a1505050565b600047905090565b6111f06111ea610ae4565b8261235d565b61122f576040517f08c379a000000000000000000000000000000000000000000000000000000000815260040161122690614b99565b60405180910390fd5b61123a83838361243b565b505050565b6000806000838152602001908152602001600020600101549050919050565b60166020528060005260406000206000915090505481565b61127f8261123f565b6112908161128b610ae4565b612697565b61129a8383612734565b505050565b60006112aa836117a2565b82106112eb576040517f08c379a00000000000000000000000000000000000000000000000000000000081526004016112e290614c2b565b60405180910390fd5b600760008473ffffffffffffffffffffffffffffffffffffffff1673ffffffffffffffffffffffffffffffffffffffff168152602001908152602001600020600083815260200190815260200160002054905092915050565b61134c610ae4565b73ffffffffffffffffffffffffffffffffffffffff168173ffffffffffffffffffffffffffffffffffffffff16146113b9576040517f08c379a00000000000000000000000000000000000000000000000000000000081526004016113b090614cbd565b60405180910390fd5b6113c38282612814565b5050565b6000600b54905090565b6113ec83838360405180602001604052806000815250611bd0565b505050565b60006113fb610d2d565b821061143c576040517f08c379a000000000000000000000000000000000000000000000000000000000815260040161143390614d4f565b60405180910390fd5b600982815481106114505761144f614d6f565b5b90600052602060002001549050919050565b61148f8284601160009054906101000a900473ffffffffffffffffffffffffffffffffffffffff166128f5565b6114ce576040517f08c379a00000000000000000000000000000000000000000000000000000000081526004016114c590614dea565b60405180910390fd5b6114de828561ffff163384612949565b61151d576040517f08c379a000000000000000000000000000000000000000000000000000000000815260040161151490614e56565b60405180910390fd5b50505050565b6000801b61153881611533610ae4565b612697565b816018908051906020019061154e9291906139f8565b505050565b7fecfee88fcfa2ef792f0f3299f6260bd7d97f69a4e460612fb6373f878eea12e881565b6115a48385601060009054906101000a900473ffffffffffffffffffffffffffffffffffffffff166128f5565b6115e3576040517f08c379a00000000000000000000000000000000000000000000000000000000081526004016115da90614ee8565b60405180910390fd5b6115ef83833384612949565b61162e576040517f08c379a000000000000000000000000000000000000000000000000000000000815260040161162590614f7a565b60405180910390fd5b61163782610d3a565b50505050565b6000806003600084815260200190815260200160002060009054906101000a900473ffffffffffffffffffffffffffffffffffffffff169050600073ffffffffffffffffffffffffffffffffffffffff168173ffffffffffffffffffffffffffffffffffffffff1614156116e6576040517f08c379a00000000000000000000000000000000000000000000000000000000081526004016116dd9061500c565b60405180910390fd5b80915050919050565b6000801b611704816116ff610ae4565b612697565b600073ffffffffffffffffffffffffffffffffffffffff168273ffffffffffffffffffffffffffffffffffffffff161415611774576040517f08c379a000000000000000000000000000000000000000000000000000000000815260040161176b90615078565b60405180910390fd5b61179e7fecfee88fcfa2ef792f0f3299f6260bd7d97f69a4e460612fb6373f878eea12e883611276565b5050565b60008073ffffffffffffffffffffffffffffffffffffffff168273ffffffffffffffffffffffffffffffffffffffff161415611813576040517f08c379a000000000000000000000000000000000000000000000000000000000815260040161180a9061510a565b60405180910390fd5b600460008373ffffffffffffffffffffffffffffffffffffffff1673ffffffffffffffffffffffffffffffffffffffff168152602001908152602001600020549050919050565b7fdc72ed553f2544c34465af23b847953efeb813428162d767f9ba5f4013be676081565b6000601260149054906101000a900460ff1660048111156118a2576118a1614600565b5b905090565b6000600f82815481106118bd576118bc614d6f565b5b9060005260206000200160009054906101000a900473ffffffffffffffffffffffffffffffffffffffff169050919050565b600581565b600080600084815260200190815260200160002060000160008373ffffffffffffffffffffffffffffffffffffffff1673ffffffffffffffffffffffffffffffffffffffff16815260200190815260200160002060009054906101000a900460ff16905092915050565b60606002805461196d90614418565b80601f016020809104026020016040519081016040528092919081815260200182805461199990614418565b80156119e65780601f106119bb576101008083540402835291602001916119e6565b820191906000526020600020905b8154815290600101906020018083116119c957829003601f168201915b5050505050905090565b6000600e60008373ffffffffffffffffffffffffffffffffffffffff1673ffffffffffffffffffffffffffffffffffffffff168152602001908152602001600020549050919050565b6000666a94d74f430000905090565b6000801b81565b611a57610ae4565b73ffffffffffffffffffffffffffffffffffffffff168273ffffffffffffffffffffffffffffffffffffffff161415611ac5576040517f08c379a0000000000000000000000000000000000000000000000000000000008152600401611abc90615176565b60405180910390fd5b8060066000611ad2610ae4565b73ffffffffffffffffffffffffffffffffffffffff1673ffffffffffffffffffffffffffffffffffffffff16815260200190815260200160002060008473ffffffffffffffffffffffffffffffffffffffff1673ffffffffffffffffffffffffffffffffffffffff16815260200190815260200160002060006101000a81548160ff0219169083151502179055508173ffffffffffffffffffffffffffffffffffffffff16611b7f610ae4565b73ffffffffffffffffffffffffffffffffffffffff167f17307eab39ab6107e8899845ad3d59bd9653f200f220920489ca2b5937696c3183604051611bc49190613bd2565b60405180910390a35050565b611be1611bdb610ae4565b8361235d565b611c20576040517f08c379a0000000000000000000000000000000000000000000000000000000008152600401611c1790614b99565b60405180910390fd5b611c2c8484848461298b565b50505050565b7f0a1704759791c789e02e7ea2b8b48d3ffe1f2ebace5515b64b3172e65805517581565b6060611c6182612102565b611ca0576040517f08c379a0000000000000000000000000000000000000000000000000000000008152600401611c9790615208565b60405180910390fd5b6000611cab836129e7565b90506000611cb7612b48565b9050600081511415611ccd578192505050611d29565b600082511115611d02578082604051602001611cea929190615264565b60405160208183030381529060405292505050611d29565b8082604051602001611d15929190615264565b604051602081830303815290604052925050505b919050565b6000600d60008373ffffffffffffffffffffffffffffffffffffffff1673ffffffffffffffffffffffffffffffffffffffff168152602001908152602001600020549050919050565b611d808261123f565b611d9181611d8c610ae4565b612697565b611d9b8383612814565b505050565b61271081565b6000801b611dbb81611db6610ae4565b612697565b600073ffffffffffffffffffffffffffffffffffffffff16601060009054906101000a900473ffffffffffffffffffffffffffffffffffffffff1673ffffffffffffffffffffffffffffffffffffffff161415611e4d576040517f08c379a0000000000000000000000000000000000000000000000000000000008152600401611e4490615078565b60405180910390fd5b611e777fdc72ed553f2544c34465af23b847953efeb813428162d767f9ba5f4013be676083611276565b5050565b6000600c54905090565b6000600660008473ffffffffffffffffffffffffffffffffffffffff1673ffffffffffffffffffffffffffffffffffffffff16815260200190815260200160002060008373ffffffffffffffffffffffffffffffffffffffff1673ffffffffffffffffffffffffffffffffffffffff16815260200190815260200160002060009054906101000a900460ff16905092915050565b60007fecfee88fcfa2ef792f0f3299f6260bd7d97f69a4e460612fb6373f878eea12e8611f4d81611f48610ae4565b612697565b60068310611f90576040517f08c379a0000000000000000000000000000000000000000000000000000000008152600401611f87906152d4565b60405180910390fd5b60008311611fd3576040517f08c379a0000000000000000000000000000000000000000000000000000000008152600401611fca906152d4565b60405180910390fd5b6001601260149054906101000a900460ff166004811115611ff757611ff6614600565b5b6120019190614790565b8314612042576040517f08c379a000000000000000000000000000000000000000000000000000000000815260040161203990615340565b60405180910390fd5b82600481111561205557612054614600565b5b601260146101000a81548160ff0219169083600481111561207957612078614600565b5b02179055506001915050919050565b60007f780e9d63000000000000000000000000000000000000000000000000000000007bffffffffffffffffffffffffffffffffffffffffffffffffffffffff1916827bffffffffffffffffffffffffffffffffffffffffffffffffffffffff191614806120fb57506120fa82612b5f565b5b9050919050565b60008073ffffffffffffffffffffffffffffffffffffffff166003600084815260200190815260200160002060009054906101000a900473ffffffffffffffffffffffffffffffffffffffff1673ffffffffffffffffffffffffffffffffffffffff1614159050919050565b816005600083815260200190815260200160002060006101000a81548173ffffffffffffffffffffffffffffffffffffffff021916908373ffffffffffffffffffffffffffffffffffffffff160217905550808273ffffffffffffffffffffffffffffffffffffffff166121e18361163d565b73ffffffffffffffffffffffffffffffffffffffff167f8c5be1e5ebec7d5bd14f71427d1e84f3dd0314c0f7b2291e5b200ac8c7c3b92560405160405180910390a45050565b600081600001549050919050565b61224f828260405180602001604052806000815250612c41565b5050565b6001816000016000828254019250508190555050565b804710156122ac576040517f08c379a00000000000000000000000000000000000000000000000000000000081526004016122a3906153ac565b60405180910390fd5b60008273ffffffffffffffffffffffffffffffffffffffff16826040516122d2906153fd565b60006040518083038185875af1925050503d806000811461230f576040519150601f19603f3d011682016040523d82523d6000602084013e612314565b606091505b5050905080612358576040517f08c379a000000000000000000000000000000000000000000000000000000000815260040161234f90615484565b60405180910390fd5b505050565b600061236882612102565b6123a7576040517f08c379a000000000000000000000000000000000000000000000000000000000815260040161239e90615516565b60405180910390fd5b60006123b28361163d565b90508073ffffffffffffffffffffffffffffffffffffffff168473ffffffffffffffffffffffffffffffffffffffff16148061242157508373ffffffffffffffffffffffffffffffffffffffff1661240984610b90565b73ffffffffffffffffffffffffffffffffffffffff16145b8061243257506124318185611e85565b5b91505092915050565b8273ffffffffffffffffffffffffffffffffffffffff1661245b8261163d565b73ffffffffffffffffffffffffffffffffffffffff16146124b1576040517f08c379a00000000000000000000000000000000000000000000000000000000081526004016124a8906155a8565b60405180910390fd5b600073ffffffffffffffffffffffffffffffffffffffff168273ffffffffffffffffffffffffffffffffffffffff161415612521576040517f08c379a00000000000000000000000000000000000000000000000000000000081526004016125189061563a565b60405180910390fd5b61252c838383612c9c565b61253760008261216e565b6001600460008573ffffffffffffffffffffffffffffffffffffffff1673ffffffffffffffffffffffffffffffffffffffff168152602001908152602001600020600082825461258791906149d9565b925050819055506001600460008473ffffffffffffffffffffffffffffffffffffffff1673ffffffffffffffffffffffffffffffffffffffff16815260200190815260200160002060008282546125de9190614790565b92505081905550816003600083815260200190815260200160002060006101000a81548173ffffffffffffffffffffffffffffffffffffffff021916908373ffffffffffffffffffffffffffffffffffffffff160217905550808273ffffffffffffffffffffffffffffffffffffffff168473ffffffffffffffffffffffffffffffffffffffff167fddf252ad1be2c89b69c2b068fc378daa952ba7f163c4a11628f55a4df523b3ef60405160405180910390a4505050565b6126a182826118f4565b612730576126c68173ffffffffffffffffffffffffffffffffffffffff166014612db0565b6126d48360001c6020612db0565b6040516020016126e59291906156f2565b6040516020818303038152906040526040517f08c379a00000000000000000000000000000000000000000000000000000000081526004016127279190613c86565b60405180910390fd5b5050565b61273e82826118f4565b61281057600160008084815260200190815260200160002060000160008373ffffffffffffffffffffffffffffffffffffffff1673ffffffffffffffffffffffffffffffffffffffff16815260200190815260200160002060006101000a81548160ff0219169083151502179055506127b5610ae4565b73ffffffffffffffffffffffffffffffffffffffff168173ffffffffffffffffffffffffffffffffffffffff16837f2f8788117e7eff1d82e926ec794901d17c78024a50270940304540a733656f0d60405160405180910390a45b5050565b61281e82826118f4565b156128f157600080600084815260200190815260200160002060000160008373ffffffffffffffffffffffffffffffffffffffff1673ffffffffffffffffffffffffffffffffffffffff16815260200190815260200160002060006101000a81548160ff021916908315150217905550612896610ae4565b73ffffffffffffffffffffffffffffffffffffffff168173ffffffffffffffffffffffffffffffffffffffff16837ff6391f5c32d9c69d2a47ea670b442974b53935d1edc7fd64eb21e047a839171b60405160405180910390a45b5050565b60008173ffffffffffffffffffffffffffffffffffffffff166129298461291b87612fec565b61301c90919063ffffffff16565b73ffffffffffffffffffffffffffffffffffffffff161490509392505050565b60008383833060405160200161296294939291906157b6565b60405160208183030381529060405280519060200120851461298357600080fd5b949350505050565b61299684848461243b565b6129a2848484846130cb565b6129e1576040517f08c379a00000000000000000000000000000000000000000000000000000000081526004016129d890615876565b60405180910390fd5b50505050565b60606000821415612a2f576040518060400160405280600181526020017f30000000000000000000000000000000000000000000000000000000000000008152509050612b43565b600082905060005b60008214612a61578080612a4a90615896565b915050600a82612a5a91906149a8565b9150612a37565b60008167ffffffffffffffff811115612a7d57612a7c613f9f565b5b6040519080825280601f01601f191660200182016040528015612aaf5781602001600182028036833780820191505090505b5090505b60008514612b3c57600182612ac891906149d9565b9150600a85612ad791906158df565b6030612ae39190614790565b60f81b818381518110612af957612af8614d6f565b5b60200101907effffffffffffffffffffffffffffffffffffffffffffffffffffffffffffff1916908160001a905350600a85612b3591906149a8565b9450612ab3565b8093505050505b919050565b606060405180602001604052806000815250905090565b60007f80ac58cd000000000000000000000000000000000000000000000000000000007bffffffffffffffffffffffffffffffffffffffffffffffffffffffff1916827bffffffffffffffffffffffffffffffffffffffffffffffffffffffff19161480612c2a57507f5b5e139f000000000000000000000000000000000000000000000000000000007bffffffffffffffffffffffffffffffffffffffffffffffffffffffff1916827bffffffffffffffffffffffffffffffffffffffffffffffffffffffff1916145b80612c3a5750612c3982613253565b5b9050919050565b612c4b83836132cd565b612c5860008484846130cb565b612c97576040517f08c379a0000000000000000000000000000000000000000000000000000000008152600401612c8e90615876565b60405180910390fd5b505050565b612ca783838361349b565b600073ffffffffffffffffffffffffffffffffffffffff168373ffffffffffffffffffffffffffffffffffffffff161415612cea57612ce5816134a0565b612d29565b8173ffffffffffffffffffffffffffffffffffffffff168373ffffffffffffffffffffffffffffffffffffffff1614612d2857612d2783826134e9565b5b5b600073ffffffffffffffffffffffffffffffffffffffff168273ffffffffffffffffffffffffffffffffffffffff161415612d6c57612d6781613656565b612dab565b8273ffffffffffffffffffffffffffffffffffffffff168273ffffffffffffffffffffffffffffffffffffffff1614612daa57612da98282613727565b5b5b505050565b606060006002836002612dc391906146ca565b612dcd9190614790565b67ffffffffffffffff811115612de657612de5613f9f565b5b6040519080825280601f01601f191660200182016040528015612e185781602001600182028036833780820191505090505b5090507f300000000000000000000000000000000000000000000000000000000000000081600081518110612e5057612e4f614d6f565b5b60200101907effffffffffffffffffffffffffffffffffffffffffffffffffffffffffffff1916908160001a9053507f780000000000000000000000000000000000000000000000000000000000000081600181518110612eb457612eb3614d6f565b5b60200101907effffffffffffffffffffffffffffffffffffffffffffffffffffffffffffff1916908160001a90535060006001846002612ef491906146ca565b612efe9190614790565b90505b6001811115612f9e577f3031323334353637383961626364656600000000000000000000000000000000600f861660108110612f4057612f3f614d6f565b5b1a60f81b828281518110612f5757612f56614d6f565b5b60200101907effffffffffffffffffffffffffffffffffffffffffffffffffffffffffffff1916908160001a905350600485901c945080612f9790615910565b9050612f01565b5060008414612fe2576040517f08c379a0000000000000000000000000000000000000000000000000000000008152600401612fd990615986565b60405180910390fd5b8091505092915050565b600081604051602001612fff91906159f2565b604051602081830303815290604052805190602001209050919050565b600060418251141561305b5760008060006020850151925060408501519150606085015160001a9050613051868285856137a6565b93505050506130c5565b60408251141561308a576000806020840151915060408401519050613081858383613931565b925050506130c5565b6040517f08c379a00000000000000000000000000000000000000000000000000000000081526004016130bc90615a64565b60405180910390fd5b92915050565b60006130ec8473ffffffffffffffffffffffffffffffffffffffff1661397b565b15613246578373ffffffffffffffffffffffffffffffffffffffff1663150b7a02613115610ae4565b8786866040518563ffffffff1660e01b81526004016131379493929190615ad9565b6020604051808303816000875af192505050801561317357506040513d601f19601f820116820180604052508101906131709190615b3a565b60015b6131f6573d80600081146131a3576040519150601f19603f3d011682016040523d82523d6000602084013e6131a8565b606091505b506000815114156131ee576040517f08c379a00000000000000000000000000000000000000000000000000000000081526004016131e590615876565b60405180910390fd5b805181602001fd5b63150b7a0260e01b7bffffffffffffffffffffffffffffffffffffffffffffffffffffffff1916817bffffffffffffffffffffffffffffffffffffffffffffffffffffffff19161491505061324b565b600190505b949350505050565b60007f7965db0b000000000000000000000000000000000000000000000000000000007bffffffffffffffffffffffffffffffffffffffffffffffffffffffff1916827bffffffffffffffffffffffffffffffffffffffffffffffffffffffff191614806132c657506132c58261398e565b5b9050919050565b600073ffffffffffffffffffffffffffffffffffffffff168273ffffffffffffffffffffffffffffffffffffffff16141561333d576040517f08c379a000000000000000000000000000000000000000000000000000000000815260040161333490615bb3565b60405180910390fd5b61334681612102565b15613386576040517f08c379a000000000000000000000000000000000000000000000000000000000815260040161337d90615c1f565b60405180910390fd5b61339260008383612c9c565b6001600460008473ffffffffffffffffffffffffffffffffffffffff1673ffffffffffffffffffffffffffffffffffffffff16815260200190815260200160002060008282546133e29190614790565b92505081905550816003600083815260200190815260200160002060006101000a81548173ffffffffffffffffffffffffffffffffffffffff021916908373ffffffffffffffffffffffffffffffffffffffff160217905550808273ffffffffffffffffffffffffffffffffffffffff16600073ffffffffffffffffffffffffffffffffffffffff167fddf252ad1be2c89b69c2b068fc378daa952ba7f163c4a11628f55a4df523b3ef60405160405180910390a45050565b505050565b600980549050600a600083815260200190815260200160002081905550600981908060018154018082558091505060019003906000526020600020016000909190919091505550565b600060016134f6846117a2565b61350091906149d9565b90506000600860008481526020019081526020016000205490508181146135e5576000600760008673ffffffffffffffffffffffffffffffffffffffff1673ffffffffffffffffffffffffffffffffffffffff168152602001908152602001600020600084815260200190815260200160002054905080600760008773ffffffffffffffffffffffffffffffffffffffff1673ffffffffffffffffffffffffffffffffffffffff168152602001908152602001600020600084815260200190815260200160002081905550816008600083815260200190815260200160002081905550505b6008600084815260200190815260200160002060009055600760008573ffffffffffffffffffffffffffffffffffffffff1673ffffffffffffffffffffffffffffffffffffffff16815260200190815260200160002060008381526020019081526020016000206000905550505050565b6000600160098054905061366a91906149d9565b90506000600a600084815260200190815260200160002054905060006009838154811061369a57613699614d6f565b5b9060005260206000200154905080600983815481106136bc576136bb614d6f565b5b906000526020600020018190555081600a600083815260200190815260200160002081905550600a600085815260200190815260200160002060009055600980548061370b5761370a615c3f565b5b6001900381819060005260206000200160009055905550505050565b6000613732836117a2565b905081600760008573ffffffffffffffffffffffffffffffffffffffff1673ffffffffffffffffffffffffffffffffffffffff168152602001908152602001600020600083815260200190815260200160002081905550806008600084815260200190815260200160002081905550505050565b60007f7fffffffffffffffffffffffffffffff5d576e7357a4501ddfe92f46681b20a08260001c111561380e576040517f08c379a000000000000000000000000000000000000000000000000000000000815260040161380590615ce0565b60405180910390fd5b601b8460ff1614806138235750601c8460ff16145b613862576040517f08c379a000000000000000000000000000000000000000000000000000000000815260040161385990615d72565b60405180910390fd5b6000600186868686604051600081526020016040526040516138879493929190615dae565b6020604051602081039080840390855afa1580156138a9573d6000803e3d6000fd5b505050602060405103519050600073ffffffffffffffffffffffffffffffffffffffff168173ffffffffffffffffffffffffffffffffffffffff161415613925576040517f08c379a000000000000000000000000000000000000000000000000000000000815260040161391c90615e3f565b60405180910390fd5b80915050949350505050565b60008060007f7fffffffffffffffffffffffffffffffffffffffffffffffffffffffffffffff84169150601b8460ff1c019050613970868287856137a6565b925050509392505050565b600080823b905060008111915050919050565b60007f01ffc9a7000000000000000000000000000000000000000000000000000000007bffffffffffffffffffffffffffffffffffffffffffffffffffffffff1916827bffffffffffffffffffffffffffffffffffffffffffffffffffffffff1916149050919050565b828054613a0490614418565b90600052602060002090601f016020900481019282613a265760008555613a6d565b82601f10613a3f57805160ff1916838001178555613a6d565b82800160010185558215613a6d579182015b82811115613a6c578251825591602001919060010190613a51565b5b509050613a7a9190613a7e565b5090565b5b80821115613a97576000816000905550600101613a7f565b5090565b600073ffffffffffffffffffffffffffffffffffffffff82169050919050565b6000613ac682613a9b565b9050919050565b613ad681613abb565b82525050565b6000819050919050565b613aef81613adc565b82525050565b6000604082019050613b0a6000830185613acd565b613b176020830184613ae6565b9392505050565b6000604051905090565b600080fd5b600080fd5b60007fffffffff0000000000000000000000000000000000000000000000000000000082169050919050565b613b6781613b32565b8114613b7257600080fd5b50565b600081359050613b8481613b5e565b92915050565b600060208284031215613ba057613b9f613b28565b5b6000613bae84828501613b75565b91505092915050565b60008115159050919050565b613bcc81613bb7565b82525050565b6000602082019050613be76000830184613bc3565b92915050565b600081519050919050565b600082825260208201905092915050565b60005b83811015613c27578082015181840152602081019050613c0c565b83811115613c36576000848401525b50505050565b6000601f19601f8301169050919050565b6000613c5882613bed565b613c628185613bf8565b9350613c72818560208601613c09565b613c7b81613c3c565b840191505092915050565b60006020820190508181036000830152613ca08184613c4d565b905092915050565b613cb181613adc565b8114613cbc57600080fd5b50565b600081359050613cce81613ca8565b92915050565b600060208284031215613cea57613ce9613b28565b5b6000613cf884828501613cbf565b91505092915050565b6000602082019050613d166000830184613acd565b92915050565b613d2581613abb565b8114613d3057600080fd5b50565b600081359050613d4281613d1c565b92915050565b60008060408385031215613d5f57613d5e613b28565b5b6000613d6d85828601613d33565b9250506020613d7e85828601613cbf565b9150509250929050565b6000602082019050613d9d6000830184613ae6565b92915050565b6000613dae82613a9b565b9050919050565b613dbe81613da3565b8114613dc957600080fd5b50565b600081359050613ddb81613db5565b92915050565b600060208284031215613df757613df6613b28565b5b6000613e0584828501613dcc565b91505092915050565b600080600060608486031215613e2757613e26613b28565b5b6000613e3586828701613d33565b9350506020613e4686828701613d33565b9250506040613e5786828701613cbf565b9150509250925092565b6000819050919050565b613e7481613e61565b8114613e7f57600080fd5b50565b600081359050613e9181613e6b565b92915050565b600060208284031215613ead57613eac613b28565b5b6000613ebb84828501613e82565b91505092915050565b613ecd81613e61565b82525050565b6000602082019050613ee86000830184613ec4565b92915050565b600060208284031215613f0457613f03613b28565b5b6000613f1284828501613d33565b91505092915050565b60008060408385031215613f3257613f31613b28565b5b6000613f4085828601613e82565b9250506020613f5185828601613d33565b9150509250929050565b600061ffff82169050919050565b613f7281613f5b565b8114613f7d57600080fd5b50565b600081359050613f8f81613f69565b92915050565b600080fd5b600080fd5b7f4e487b7100000000000000000000000000000000000000000000000000000000600052604160045260246000fd5b613fd782613c3c565b810181811067ffffffffffffffff82111715613ff657613ff5613f9f565b5b80604052505050565b6000614009613b1e565b90506140158282613fce565b919050565b600067ffffffffffffffff82111561403557614034613f9f565b5b61403e82613c3c565b9050602081019050919050565b82818337600083830152505050565b600061406d6140688461401a565b613fff565b90508281526020810184848401111561408957614088613f9a565b5b61409484828561404b565b509392505050565b600082601f8301126140b1576140b0613f95565b5b81356140c184826020860161405a565b91505092915050565b600080600080608085870312156140e4576140e3613b28565b5b60006140f287828801613f80565b945050602085013567ffffffffffffffff81111561411357614112613b2d565b5b61411f8782880161409c565b935050604061413087828801613e82565b925050606061414187828801613e82565b91505092959194509250565b600067ffffffffffffffff82111561416857614167613f9f565b5b61417182613c3c565b9050602081019050919050565b600061419161418c8461414d565b613fff565b9050828152602081018484840111156141ad576141ac613f9a565b5b6141b884828561404b565b509392505050565b600082601f8301126141d5576141d4613f95565b5b81356141e584826020860161417e565b91505092915050565b60006020828403121561420457614203613b28565b5b600082013567ffffffffffffffff81111561422257614221613b2d565b5b61422e848285016141c0565b91505092915050565b6000806000806080858703121561425157614250613b28565b5b600085013567ffffffffffffffff81111561426f5761426e613b2d565b5b61427b8782880161409c565b945050602061428c87828801613e82565b935050604061429d87828801613cbf565b92505060606142ae87828801613e82565b91505092959194509250565b6142c381613bb7565b81146142ce57600080fd5b50565b6000813590506142e0816142ba565b92915050565b600080604083850312156142fd576142fc613b28565b5b600061430b85828601613d33565b925050602061431c858286016142d1565b9150509250929050565b600080600080608085870312156143405761433f613b28565b5b600061434e87828801613d33565b945050602061435f87828801613d33565b935050604061437087828801613cbf565b925050606085013567ffffffffffffffff81111561439157614390613b2d565b5b61439d8782880161409c565b91505092959194509250565b600080604083850312156143c0576143bf613b28565b5b60006143ce85828601613d33565b92505060206143df85828601613d33565b9150509250929050565b7f4e487b7100000000000000000000000000000000000000000000000000000000600052602260045260246000fd5b6000600282049050600182168061443057607f821691505b60208210811415614444576144436143e9565b5b50919050565b7f4552433732313a20617070726f76656420717565727920666f72206e6f6e657860008201527f697374656e7420746f6b656e0000000000000000000000000000000000000000602082015250565b60006144a6602c83613bf8565b91506144b18261444a565b604082019050919050565b600060208201905081810360008301526144d581614499565b9050919050565b7f4552433732313a20617070726f76616c20746f2063757272656e74206f776e6560008201527f7200000000000000000000000000000000000000000000000000000000000000602082015250565b6000614538602183613bf8565b9150614543826144dc565b604082019050919050565b600060208201905081810360008301526145678161452b565b9050919050565b7f4552433732313a20617070726f76652063616c6c6572206973206e6f74206f7760008201527f6e6572206e6f7220617070726f76656420666f7220616c6c0000000000000000602082015250565b60006145ca603883613bf8565b91506145d58261456e565b604082019050919050565b600060208201905081810360008301526145f9816145bd565b9050919050565b7f4e487b7100000000000000000000000000000000000000000000000000000000600052602160045260246000fd5b7f436f6e7472616374204e6f74204d696e74696e67000000000000000000000000600082015250565b6000614665601483613bf8565b91506146708261462f565b602082019050919050565b6000602082019050818103600083015261469481614658565b9050919050565b7f4e487b7100000000000000000000000000000000000000000000000000000000600052601160045260246000fd5b60006146d582613adc565b91506146e083613adc565b9250817fffffffffffffffffffffffffffffffffffffffffffffffffffffffffffffffff04831182151516156147195761471861469b565b5b828202905092915050565b7f4e6f7420456e6f756768204574682053656e7400000000000000000000000000600082015250565b600061475a601383613bf8565b915061476582614724565b602082019050919050565b600060208201905081810360008301526147898161474d565b9050919050565b600061479b82613adc565b91506147a683613adc565b9250827fffffffffffffffffffffffffffffffffffffffffffffffffffffffffffffffff038211156147db576147da61469b565b5b828201905092915050565b7f746f6f206d616e7920746f6b656e7320616c7265616479206d696e7465640000600082015250565b600061481c601e83613bf8565b9150614827826147e6565b602082019050919050565b6000602082019050818103600083015261484b8161480f565b9050919050565b7f546f6b656e207075726368617365206661696c75726500000000000000000000600082015250565b6000614888601683613bf8565b915061489382614852565b602082019050919050565b600060208201905081810360008301526148b78161487b565b9050919050565b60006040820190506148d36000830185613ae6565b6148e06020830184613acd565b9392505050565b7f5061796d656e7453706c69747465723a206163636f756e7420686173206e6f2060008201527f7368617265730000000000000000000000000000000000000000000000000000602082015250565b6000614943602683613bf8565b915061494e826148e7565b604082019050919050565b6000602082019050818103600083015261497281614936565b9050919050565b7f4e487b7100000000000000000000000000000000000000000000000000000000600052601260045260246000fd5b60006149b382613adc565b91506149be83613adc565b9250826149ce576149cd614979565b5b828204905092915050565b60006149e482613adc565b91506149ef83613adc565b925082821015614a0257614a0161469b565b5b828203905092915050565b7f5061796d656e7453706c69747465723a206163636f756e74206973206e6f742060008201527f647565207061796d656e74000000000000000000000000000000000000000000602082015250565b6000614a69602b83613bf8565b9150614a7482614a0d565b604082019050919050565b60006020820190508181036000830152614a9881614a5c565b9050919050565b6000819050919050565b6000614ac4614abf614aba84613a9b565b614a9f565b613a9b565b9050919050565b6000614ad682614aa9565b9050919050565b6000614ae882614acb565b9050919050565b614af881614add565b82525050565b6000604082019050614b136000830185614aef565b614b206020830184613ae6565b9392505050565b7f4552433732313a207472616e736665722063616c6c6572206973206e6f74206f60008201527f776e6572206e6f7220617070726f766564000000000000000000000000000000602082015250565b6000614b83603183613bf8565b9150614b8e82614b27565b604082019050919050565b60006020820190508181036000830152614bb281614b76565b9050919050565b7f455243373231456e756d657261626c653a206f776e657220696e646578206f7560008201527f74206f6620626f756e6473000000000000000000000000000000000000000000602082015250565b6000614c15602b83613bf8565b9150614c2082614bb9565b604082019050919050565b60006020820190508181036000830152614c4481614c08565b9050919050565b7f416363657373436f6e74726f6c3a2063616e206f6e6c792072656e6f756e636560008201527f20726f6c657320666f722073656c660000000000000000000000000000000000602082015250565b6000614ca7602f83613bf8565b9150614cb282614c4b565b604082019050919050565b60006020820190508181036000830152614cd681614c9a565b9050919050565b7f455243373231456e756d657261626c653a20676c6f62616c20696e646578206f60008201527f7574206f6620626f756e64730000000000000000000000000000000000000000602082015250565b6000614d39602c83613bf8565b9150614d4482614cdd565b604082019050919050565b60006020820190508181036000830152614d6881614d2c565b9050919050565b7f4e487b7100000000000000000000000000000000000000000000000000000000600052603260045260246000fd5b7f44617461206e6f74207369676e6564206279206d696e744d616e616765720000600082015250565b6000614dd4601e83613bf8565b9150614ddf82614d9e565b602082019050919050565b60006020820190508181036000830152614e0381614dc7565b9050919050565b7f736967206461746120697320696e76616c696400000000000000000000000000600082015250565b6000614e40601383613bf8565b9150614e4b82614e0a565b602082019050919050565b60006020820190508181036000830152614e6f81614e33565b9050919050565b7f44617461206e6f74207369676e65642062792077686974656c6973744d616e6160008201527f6765720000000000000000000000000000000000000000000000000000000000602082015250565b6000614ed2602383613bf8565b9150614edd82614e76565b604082019050919050565b60006020820190508181036000830152614f0181614ec5565b9050919050565b7f446174612074797065206e6f742076616c696420666f722077686974656c697360008201527f7400000000000000000000000000000000000000000000000000000000000000602082015250565b6000614f64602183613bf8565b9150614f6f82614f08565b604082019050919050565b60006020820190508181036000830152614f9381614f57565b9050919050565b7f4552433732313a206f776e657220717565727920666f72206e6f6e657869737460008201527f656e7420746f6b656e0000000000000000000000000000000000000000000000602082015250565b6000614ff6602983613bf8565b915061500182614f9a565b604082019050919050565b6000602082019050818103600083015261502581614fe9565b9050919050565b7f506c6561736520456e7465722056616c69642041646472657373000000000000600082015250565b6000615062601a83613bf8565b915061506d8261502c565b602082019050919050565b6000602082019050818103600083015261509181615055565b9050919050565b7f4552433732313a2062616c616e636520717565727920666f7220746865207a6560008201527f726f206164647265737300000000000000000000000000000000000000000000602082015250565b60006150f4602a83613bf8565b91506150ff82615098565b604082019050919050565b60006020820190508181036000830152615123816150e7565b9050919050565b7f4552433732313a20617070726f766520746f2063616c6c657200000000000000600082015250565b6000615160601983613bf8565b915061516b8261512a565b602082019050919050565b6000602082019050818103600083015261518f81615153565b9050919050565b7f4552433732314d657461646174613a2055524920717565727920666f72206e6f60008201527f6e6578697374656e7420746f6b656e0000000000000000000000000000000000602082015250565b60006151f2602f83613bf8565b91506151fd82615196565b604082019050919050565b60006020820190508181036000830152615221816151e5565b9050919050565b600081905092915050565b600061523e82613bed565b6152488185615228565b9350615258818560208601613c09565b80840191505092915050565b60006152708285615233565b915061527c8284615233565b91508190509392505050565b7f4e6f7420612070726f7065722073746174650000000000000000000000000000600082015250565b60006152be601283613bf8565b91506152c982615288565b602082019050919050565b600060208201905081810360008301526152ed816152b1565b9050919050565b7f4e6f7420612070726f706572207374617465207472616e736974696f6e000000600082015250565b600061532a601d83613bf8565b9150615335826152f4565b602082019050919050565b600060208201905081810360008301526153598161531d565b9050919050565b7f416464726573733a20696e73756666696369656e742062616c616e6365000000600082015250565b6000615396601d83613bf8565b91506153a182615360565b602082019050919050565b600060208201905081810360008301526153c581615389565b9050919050565b600081905092915050565b50565b60006153e76000836153cc565b91506153f2826153d7565b600082019050919050565b6000615408826153da565b9150819050919050565b7f416464726573733a20756e61626c6520746f2073656e642076616c75652c207260008201527f6563697069656e74206d61792068617665207265766572746564000000000000602082015250565b600061546e603a83613bf8565b915061547982615412565b604082019050919050565b6000602082019050818103600083015261549d81615461565b9050919050565b7f4552433732313a206f70657261746f7220717565727920666f72206e6f6e657860008201527f697374656e7420746f6b656e0000000000000000000000000000000000000000602082015250565b6000615500602c83613bf8565b915061550b826154a4565b604082019050919050565b6000602082019050818103600083015261552f816154f3565b9050919050565b7f4552433732313a207472616e73666572206f6620746f6b656e2074686174206960008201527f73206e6f74206f776e0000000000000000000000000000000000000000000000602082015250565b6000615592602983613bf8565b915061559d82615536565b604082019050919050565b600060208201905081810360008301526155c181615585565b9050919050565b7f4552433732313a207472616e7366657220746f20746865207a65726f2061646460008201527f7265737300000000000000000000000000000000000000000000000000000000602082015250565b6000615624602483613bf8565b915061562f826155c8565b604082019050919050565b6000602082019050818103600083015261565381615617565b9050919050565b7f416363657373436f6e74726f6c3a206163636f756e7420000000000000000000600082015250565b6000615690601783615228565b915061569b8261565a565b601782019050919050565b7f206973206d697373696e6720726f6c6520000000000000000000000000000000600082015250565b60006156dc601183615228565b91506156e7826156a6565b601182019050919050565b60006156fd82615683565b91506157098285615233565b9150615714826156cf565b91506157208284615233565b91508190509392505050565b6000819050919050565b61574761574282613adc565b61572c565b82525050565b60008160601b9050919050565b60006157658261574d565b9050919050565b60006157778261575a565b9050919050565b61578f61578a82613abb565b61576c565b82525050565b6000819050919050565b6157b06157ab82613e61565b615795565b82525050565b60006157c28287615736565b6020820191506157d2828661577e565b6014820191506157e2828561579f565b6020820191506157f2828461577e565b60148201915081905095945050505050565b7f4552433732313a207472616e7366657220746f206e6f6e20455243373231526560008201527f63656976657220696d706c656d656e7465720000000000000000000000000000602082015250565b6000615860603283613bf8565b915061586b82615804565b604082019050919050565b6000602082019050818103600083015261588f81615853565b9050919050565b60006158a182613adc565b91507fffffffffffffffffffffffffffffffffffffffffffffffffffffffffffffffff8214156158d4576158d361469b565b5b600182019050919050565b60006158ea82613adc565b91506158f583613adc565b92508261590557615904614979565b5b828206905092915050565b600061591b82613adc565b9150600082141561592f5761592e61469b565b5b600182039050919050565b7f537472696e67733a20686578206c656e67746820696e73756666696369656e74600082015250565b6000615970602083613bf8565b915061597b8261593a565b602082019050919050565b6000602082019050818103600083015261599f81615963565b9050919050565b7f19457468657265756d205369676e6564204d6573736167653a0a333200000000600082015250565b60006159dc601c83615228565b91506159e7826159a6565b601c82019050919050565b60006159fd826159cf565b9150615a09828461579f565b60208201915081905092915050565b7f45434453413a20696e76616c6964207369676e6174757265206c656e67746800600082015250565b6000615a4e601f83613bf8565b9150615a5982615a18565b602082019050919050565b60006020820190508181036000830152615a7d81615a41565b9050919050565b600081519050919050565b600082825260208201905092915050565b6000615aab82615a84565b615ab58185615a8f565b9350615ac5818560208601613c09565b615ace81613c3c565b840191505092915050565b6000608082019050615aee6000830187613acd565b615afb6020830186613acd565b615b086040830185613ae6565b8181036060830152615b1a8184615aa0565b905095945050505050565b600081519050615b3481613b5e565b92915050565b600060208284031215615b5057615b4f613b28565b5b6000615b5e84828501615b25565b91505092915050565b7f4552433732313a206d696e7420746f20746865207a65726f2061646472657373600082015250565b6000615b9d602083613bf8565b9150615ba882615b67565b602082019050919050565b60006020820190508181036000830152615bcc81615b90565b9050919050565b7f4552433732313a20746f6b656e20616c7265616479206d696e74656400000000600082015250565b6000615c09601c83613bf8565b9150615c1482615bd3565b602082019050919050565b60006020820190508181036000830152615c3881615bfc565b9050919050565b7f4e487b7100000000000000000000000000000000000000000000000000000000600052603160045260246000fd5b7f45434453413a20696e76616c6964207369676e6174757265202773272076616c60008201527f7565000000000000000000000000000000000000000000000000000000000000602082015250565b6000615cca602283613bf8565b9150615cd582615c6e565b604082019050919050565b60006020820190508181036000830152615cf981615cbd565b9050919050565b7f45434453413a20696e76616c6964207369676e6174757265202776272076616c60008201527f7565000000000000000000000000000000000000000000000000000000000000602082015250565b6000615d5c602283613bf8565b9150615d6782615d00565b604082019050919050565b60006020820190508181036000830152615d8b81615d4f565b9050919050565b600060ff82169050919050565b615da881615d92565b82525050565b6000608082019050615dc36000830187613ec4565b615dd06020830186615d9f565b615ddd6040830185613ec4565b615dea6060830184613ec4565b95945050505050565b7f45434453413a20696e76616c6964207369676e61747572650000000000000000600082015250565b6000615e29601883613bf8565b9150615e3482615df3565b602082019050919050565b60006020820190508181036000830152615e5881615e1c565b905091905056fea2646970667358221220c9666965077816ab8cd042a0c1471fe93c3c63eea667854c7b3333adef49c48064736f6c634300080b0033",
  "immutableReferences": {},
  "source": "// SPDX-License-Identifier: MIT\npragma solidity ^0.8.0;\n\nimport \"@openzeppelin/contracts/token/ERC721/extensions/ERC721Enumerable.sol\";\nimport \"@openzeppelin/contracts/access/AccessControl.sol\";\nimport \"@openzeppelin/contracts/utils/Counters.sol\";\nimport \"@openzeppelin/contracts/utils/math/SafeMath.sol\";\nimport \"@openzeppelin/contracts/finance/PaymentSplitter.sol\";\nimport \"@openzeppelin/contracts/utils/cryptography/ECDSA.sol\";\n\n\ncontract MyWish is AccessControl, ERC721Enumerable, PaymentSplitter {\n    \n    //counters \n    using Counters for Counters.Counter; \n    using SafeMath for uint256; \n    using ECDSA for bytes32;\n    //signatures\n\n    address whiteListManagerAddr;\n    address mintManagerAddr;\n    address beneficiaryAddress = address(0); //temporary\n    //contract state enum\n    enum ContractState {\n        PRESALE,\n        RAFFLE,\n        PREMINT,\n        MINTING,\n        OPEN\n    }\n    ContractState contractState;\n    //paymentsplitting\n    uint16 immutable zachIndex = 0;\n    uint16 immutable evanIndex = 2;\n    uint16 immutable sebIndex = 1;\n    uint16 immutable beneficiaryIndex = 3;\n\n    uint256[] _shares = [2,2,6,90];\n    address[] _payees =  [address(0), address(0), address(0), address(0)];\n    //events\n    event contractStateChanged(ContractState from, ContractState to);\n    event tokensPurchased(uint numTokens, address buyer);\n\n    Counters.Counter private _tokenId; \n\n    //roles\n    bytes32 public constant STATE_MANAGER_ROLE = keccak256(\"STATE_MANAGER_ROLE\");\n    bytes32 public constant BASEURI_ROLE = keccak256(\"BASEURI_ROLE\");\n    bytes32 public constant WHITELIST_ROLE = keccak256(\"WHITELIST_ROLE\");\n\n    //pricing\n    uint256 constant PRICE = 0.03 ether;\n    uint256 public constant maxSupply = 10000; \n    uint256 public constant maxPurchaseAllowed = 5;\n    \n    //balances\n    mapping(address => uint256)public balances;\n\n\n    string  __name = \"MyWish\";\n    string _baseURIextended = 'WE NEED IPFS';\n    \n\n\n    constructor(address whiteLister) \n    ERC721(\"MyWish\",\"WSH\")\n    PaymentSplitter(_payees,_shares)\n    {\n        _payees[3] = beneficiaryAddress;\n        _setupRole(DEFAULT_ADMIN_ROLE,msg.sender);\n        _setRoleAdmin(BASEURI_ROLE,DEFAULT_ADMIN_ROLE);\n        whiteListManagerAddr = whiteLister;\n\n    }\n    \n    function setBaseURI(string memory baseURI_) external onlyRole(DEFAULT_ADMIN_ROLE) {\n        _baseURIextended = baseURI_;\n    }\n    \n    function tokenURI(uint256 tokenId) public view virtual override returns (string memory) {\n        require(_exists(tokenId), \"ERC721Metadata: URI query for nonexistent token\");\n\n        string memory _tokenURI = Strings.toString(tokenId);\n        string memory base = _baseURI();\n        \n        // If there is no base URI, return the token URI.\n        if (bytes(base).length == 0) {\n            return _tokenURI;\n        }\n        // If both are set, concatenate the baseURI and tokenURI (via abi.encodePacked).\n        if (bytes(_tokenURI).length > 0) {\n            return string(abi.encodePacked(base, _tokenURI));\n        }\n        // If there is a baseURI but no tokenURI, concatenate the tokenID to the baseURI.\n        return string(abi.encodePacked(base, _tokenURI));\n    }\n\n    function verifyData(bytes32 data, uint numTokens, address recipient, bytes32 nonce) private returns(bool) {\n        require(data == keccak256(\n            abi.encodePacked(\n                numTokens,\n                recipient,\n                nonce,\n                address(this)\n            )\n            )   \n        );\n    }\n    function handleMint(uint16 numTokens, bytes memory sig, bytes32 data, bytes32 nonce) public payable {\n          require(_verify(data, sig, mintManagerAddr),\"Data not signed by mintManager\");\n          require(verifyData(data, numTokens,  msg.sender, nonce),\"sig data is invalid\");\n    }\n    function createCollectable(uint numTokens ) public payable {\n        require(contractState == ContractState.MINTING, \"Contract Not Minting\");\n        require(msg.value == PRICE * numTokens,\"Not Enough Eth Sent\");\n        require(balances[msg.sender] + numTokens < maxPurchaseAllowed,\"too many tokens already minted\");\n        \n        _safeMint(msg.sender, _tokenId.current());\n        bool success = ownerOf(_tokenId.current()) == msg.sender;\n        require(success,\"Token purchase failure\");\n        _tokenId.increment();\n        emit tokensPurchased(numTokens, msg.sender);\n        \n    }\n\n\n    \n    function getBalanceOfContract()\n    external\n    view\n    returns(uint256){\n        return address(this).balance;\n    }\n\n\n    // function _beforeTokenTransfer(address from, address to, uint256 tokenId) \n    //     internal \n    //     override( ERC721Enumerable) {\n\n    //     super._beforeTokenTransfer(from, to, tokenId);\n    // }\n\n    function supportsInterface(bytes4 interfaceId) \n        public \n        view \n        override( ERC721Enumerable, AccessControl) \n        returns (bool) {\n\n        return super.supportsInterface(interfaceId);\n    }\n\n    \n    // function _burn(uint256 tokenId) internal override(ERC721) {\n    //     super._burn(tokenId);\n    // }\n\n\n    function getPrice() public pure returns(uint256){\n        return PRICE;\n    }\n    function _verify(bytes32 data, bytes memory signature, address account) internal pure returns (bool) {\n        return data\n            .toEthSignedMessageHash()\n            .recover(signature) == account;\n    }\n\n    \n    function whiteListMint(bytes memory sig, bytes32 data,uint numTokens, bytes32 nonce) public payable  {\n        require(_verify(data, sig, whiteListManagerAddr),\"Data not signed by whitelistManager\");\n        require(verifyData(data, numTokens, msg.sender, nonce), \"Data type not valid for whitelist\");\n\n        createCollectable(numTokens);\n\n    }\n\n\n    function releaseEther() internal {\n        address payable zach = payable(payee(zachIndex));\n        address payable evan = payable(payee(evanIndex));\n        address payable seb = payable(payee(sebIndex));\n        address payable wish = payable(payee(beneficiaryIndex));\n\n        require(seb !=  address(0), \"Address of Seb is not set\");\n        require(zach != address(0), \"Address of Zach is not set\");\n        require(evan != address(0), \"Address of Evan is not set\");\n        require(wish != address(0), \"Address of Beneficiary is not set\");\n        \n        release(zach);\n        release(wish); \n        release(evan); \n        release(seb);\n    }\n\n\n    function setContractState(uint state) public onlyRole(STATE_MANAGER_ROLE) returns(bool) {\n        require(state < 6,\"Not a proper state\");\n        require(state > 0, \"Not a proper state\");\n        require(state  == uint(contractState) + 1, \"Not a proper state transition\");\n        contractState = ContractState(state);\n        return true;\n\n    }\n\n    function getContractState() public view returns(uint) {\n        return uint(contractState);\n    }\n\n    function setStateManagerRole(address stateManager) public onlyRole(DEFAULT_ADMIN_ROLE) {\n        require(stateManager != address(0),\"Please Enter Valid Address\");\n        grantRole(STATE_MANAGER_ROLE,stateManager);\n       \n    }\n\n    function setWhiteListManagerRole(address stateManager) public onlyRole(DEFAULT_ADMIN_ROLE) {\n        require(whiteListManagerAddr != address(0),\"Please Enter Valid Address\");\n        grantRole(WHITELIST_ROLE,stateManager);\n       \n    }\n\n\n\n} \n\n\n\n\n",
  "sourcePath": "/Users/zlederman/Documents/Documents /Code/js/truffle-react/contracts/MyWish.sol",
  "compiler": {
    "name": "solc",
    "version": "0.8.11+commit.d7f03943.Emscripten.clang"
  },
  "schemaVersion": "3.4.2",
  "updatedAt": "2022-02-05T23:08:23.993Z",
  "devdoc": {
    "kind": "dev",
    "methods": {
      "approve(address,uint256)": {
        "details": "See {IERC721-approve}."
      },
      "balanceOf(address)": {
        "details": "See {IERC721-balanceOf}."
      },
      "getApproved(uint256)": {
        "details": "See {IERC721-getApproved}."
      },
      "getRoleAdmin(bytes32)": {
        "details": "Returns the admin role that controls `role`. See {grantRole} and {revokeRole}. To change a role's admin, use {_setRoleAdmin}."
      },
      "grantRole(bytes32,address)": {
        "details": "Grants `role` to `account`. If `account` had not been already granted `role`, emits a {RoleGranted} event. Requirements: - the caller must have ``role``'s admin role."
      },
      "hasRole(bytes32,address)": {
        "details": "Returns `true` if `account` has been granted `role`."
      },
      "isApprovedForAll(address,address)": {
        "details": "See {IERC721-isApprovedForAll}."
      },
      "name()": {
        "details": "See {IERC721Metadata-name}."
      },
      "ownerOf(uint256)": {
        "details": "See {IERC721-ownerOf}."
      },
      "payee(uint256)": {
        "details": "Getter for the address of the payee number `index`."
      },
      "release(address)": {
        "details": "Triggers a transfer to `account` of the amount of Ether they are owed, according to their percentage of the total shares and their previous withdrawals."
      },
      "released(address)": {
        "details": "Getter for the amount of Ether already released to a payee."
      },
      "renounceRole(bytes32,address)": {
        "details": "Revokes `role` from the calling account. Roles are often managed via {grantRole} and {revokeRole}: this function's purpose is to provide a mechanism for accounts to lose their privileges if they are compromised (such as when a trusted device is misplaced). If the calling account had been granted `role`, emits a {RoleRevoked} event. Requirements: - the caller must be `account`."
      },
      "revokeRole(bytes32,address)": {
        "details": "Revokes `role` from `account`. If `account` had been granted `role`, emits a {RoleRevoked} event. Requirements: - the caller must have ``role``'s admin role."
      },
      "safeTransferFrom(address,address,uint256)": {
        "details": "See {IERC721-safeTransferFrom}."
      },
      "safeTransferFrom(address,address,uint256,bytes)": {
        "details": "See {IERC721-safeTransferFrom}."
      },
      "setApprovalForAll(address,bool)": {
        "details": "See {IERC721-setApprovalForAll}."
      },
      "shares(address)": {
        "details": "Getter for the amount of shares held by an account."
      },
      "symbol()": {
        "details": "See {IERC721Metadata-symbol}."
      },
      "tokenByIndex(uint256)": {
        "details": "See {IERC721Enumerable-tokenByIndex}."
      },
      "tokenOfOwnerByIndex(address,uint256)": {
        "details": "See {IERC721Enumerable-tokenOfOwnerByIndex}."
      },
      "tokenURI(uint256)": {
        "details": "See {IERC721Metadata-tokenURI}."
      },
      "totalReleased()": {
        "details": "Getter for the total amount of Ether already released."
      },
      "totalShares()": {
        "details": "Getter for the total shares held by payees."
      },
      "totalSupply()": {
        "details": "See {IERC721Enumerable-totalSupply}."
      },
      "transferFrom(address,address,uint256)": {
        "details": "See {IERC721-transferFrom}."
      }
    },
    "version": 1
  },
  "userdoc": {
    "kind": "user",
    "methods": {},
    "version": 1
  }
}