{
  "contractName": "MyWish",
  "abi": [
    {
      "inputs": [
        {
          "internalType": "address",
          "name": "_VRFCoordinator",
          "type": "address"
        },
        {
          "internalType": "address",
          "name": "_linkToken",
          "type": "address"
        },
        {
          "internalType": "bytes32",
          "name": "_keyhash",
          "type": "bytes32"
        }
      ],
      "stateMutability": "nonpayable",
      "type": "constructor"
    },
    {
      "anonymous": false,
      "inputs": [
        {
          "indexed": true,
          "internalType": "address",
          "name": "owner",
          "type": "address"
        },
        {
          "indexed": true,
          "internalType": "address",
          "name": "approved",
          "type": "address"
        },
        {
          "indexed": true,
          "internalType": "uint256",
          "name": "tokenId",
          "type": "uint256"
        }
      ],
      "name": "Approval",
      "type": "event"
    },
    {
      "anonymous": false,
      "inputs": [
        {
          "indexed": true,
          "internalType": "address",
          "name": "owner",
          "type": "address"
        },
        {
          "indexed": true,
          "internalType": "address",
          "name": "operator",
          "type": "address"
        },
        {
          "indexed": false,
          "internalType": "bool",
          "name": "approved",
          "type": "bool"
        }
      ],
      "name": "ApprovalForAll",
      "type": "event"
    },
    {
      "anonymous": false,
      "inputs": [
        {
          "indexed": true,
          "internalType": "address",
          "name": "from",
          "type": "address"
        },
        {
          "indexed": true,
          "internalType": "address",
          "name": "to",
          "type": "address"
        },
        {
          "indexed": true,
          "internalType": "uint256",
          "name": "tokenId",
          "type": "uint256"
        }
      ],
      "name": "Transfer",
      "type": "event"
    },
    {
      "anonymous": false,
      "inputs": [
        {
          "indexed": true,
          "internalType": "bytes32",
          "name": "requestId",
          "type": "bytes32"
        }
      ],
      "name": "requestedCollectible",
      "type": "event"
    },
    {
      "inputs": [
        {
          "internalType": "address",
          "name": "to",
          "type": "address"
        },
        {
          "internalType": "uint256",
          "name": "tokenId",
          "type": "uint256"
        }
      ],
      "name": "approve",
      "outputs": [],
      "stateMutability": "nonpayable",
      "type": "function"
    },
    {
      "inputs": [
        {
          "internalType": "address",
          "name": "owner",
          "type": "address"
        }
      ],
      "name": "balanceOf",
      "outputs": [
        {
          "internalType": "uint256",
          "name": "",
          "type": "uint256"
        }
      ],
      "stateMutability": "view",
      "type": "function"
    },
    {
      "inputs": [
        {
          "internalType": "uint256",
          "name": "tokenId",
          "type": "uint256"
        }
      ],
      "name": "getApproved",
      "outputs": [
        {
          "internalType": "address",
          "name": "",
          "type": "address"
        }
      ],
      "stateMutability": "view",
      "type": "function"
    },
    {
      "inputs": [
        {
          "internalType": "address",
          "name": "owner",
          "type": "address"
        },
        {
          "internalType": "address",
          "name": "operator",
          "type": "address"
        }
      ],
      "name": "isApprovedForAll",
      "outputs": [
        {
          "internalType": "bool",
          "name": "",
          "type": "bool"
        }
      ],
      "stateMutability": "view",
      "type": "function"
    },
    {
      "inputs": [],
      "name": "name",
      "outputs": [
        {
          "internalType": "string",
          "name": "",
          "type": "string"
        }
      ],
      "stateMutability": "view",
      "type": "function"
    },
    {
      "inputs": [
        {
          "internalType": "uint256",
          "name": "tokenId",
          "type": "uint256"
        }
      ],
      "name": "ownerOf",
      "outputs": [
        {
          "internalType": "address",
          "name": "",
          "type": "address"
        }
      ],
      "stateMutability": "view",
      "type": "function"
    },
    {
      "inputs": [
        {
          "internalType": "string",
          "name": "",
          "type": "string"
        }
      ],
      "name": "rarityToDropRate",
      "outputs": [
        {
          "internalType": "int256",
          "name": "",
          "type": "int256"
        }
      ],
      "stateMutability": "view",
      "type": "function"
    },
    {
      "inputs": [
        {
          "internalType": "bytes32",
          "name": "requestId",
          "type": "bytes32"
        },
        {
          "internalType": "uint256",
          "name": "randomness",
          "type": "uint256"
        }
      ],
      "name": "rawFulfillRandomness",
      "outputs": [],
      "stateMutability": "nonpayable",
      "type": "function"
    },
    {
      "inputs": [
        {
          "internalType": "bytes32",
          "name": "",
          "type": "bytes32"
        }
      ],
      "name": "requestIdToSender",
      "outputs": [
        {
          "internalType": "address",
          "name": "",
          "type": "address"
        }
      ],
      "stateMutability": "view",
      "type": "function"
    },
    {
      "inputs": [
        {
          "internalType": "bytes32",
          "name": "",
          "type": "bytes32"
        }
      ],
      "name": "requestIdToTokenId",
      "outputs": [
        {
          "internalType": "uint256",
          "name": "",
          "type": "uint256"
        }
      ],
      "stateMutability": "view",
      "type": "function"
    },
    {
      "inputs": [
        {
          "internalType": "bytes32",
          "name": "",
          "type": "bytes32"
        }
      ],
      "name": "requestIdToTokenUri",
      "outputs": [
        {
          "internalType": "string",
          "name": "",
          "type": "string"
        }
      ],
      "stateMutability": "view",
      "type": "function"
    },
    {
      "inputs": [
        {
          "internalType": "address",
          "name": "from",
          "type": "address"
        },
        {
          "internalType": "address",
          "name": "to",
          "type": "address"
        },
        {
          "internalType": "uint256",
          "name": "tokenId",
          "type": "uint256"
        }
      ],
      "name": "safeTransferFrom",
      "outputs": [],
      "stateMutability": "nonpayable",
      "type": "function"
    },
    {
      "inputs": [
        {
          "internalType": "address",
          "name": "from",
          "type": "address"
        },
        {
          "internalType": "address",
          "name": "to",
          "type": "address"
        },
        {
          "internalType": "uint256",
          "name": "tokenId",
          "type": "uint256"
        },
        {
          "internalType": "bytes",
          "name": "_data",
          "type": "bytes"
        }
      ],
      "name": "safeTransferFrom",
      "outputs": [],
      "stateMutability": "nonpayable",
      "type": "function"
    },
    {
      "inputs": [
        {
          "internalType": "address",
          "name": "operator",
          "type": "address"
        },
        {
          "internalType": "bool",
          "name": "approved",
          "type": "bool"
        }
      ],
      "name": "setApprovalForAll",
      "outputs": [],
      "stateMutability": "nonpayable",
      "type": "function"
    },
    {
      "inputs": [
        {
          "internalType": "bytes4",
          "name": "interfaceId",
          "type": "bytes4"
        }
      ],
      "name": "supportsInterface",
      "outputs": [
        {
          "internalType": "bool",
          "name": "",
          "type": "bool"
        }
      ],
      "stateMutability": "view",
      "type": "function"
    },
    {
      "inputs": [],
      "name": "symbol",
      "outputs": [
        {
          "internalType": "string",
          "name": "",
          "type": "string"
        }
      ],
      "stateMutability": "view",
      "type": "function"
    },
    {
      "inputs": [],
      "name": "tokenCounter",
      "outputs": [
        {
          "internalType": "uint256",
          "name": "",
          "type": "uint256"
        }
      ],
      "stateMutability": "view",
      "type": "function"
    },
    {
      "inputs": [
        {
          "internalType": "uint256",
          "name": "",
          "type": "uint256"
        }
      ],
      "name": "tokenIdToRarity",
      "outputs": [
        {
          "internalType": "enum MyWish.Rarity",
          "name": "",
          "type": "uint8"
        }
      ],
      "stateMutability": "view",
      "type": "function"
    },
    {
      "inputs": [
        {
          "internalType": "address",
          "name": "from",
          "type": "address"
        },
        {
          "internalType": "address",
          "name": "to",
          "type": "address"
        },
        {
          "internalType": "uint256",
          "name": "tokenId",
          "type": "uint256"
        }
      ],
      "name": "transferFrom",
      "outputs": [],
      "stateMutability": "nonpayable",
      "type": "function"
    },
    {
      "inputs": [
        {
          "internalType": "string",
          "name": "tokenURI",
          "type": "string"
        }
      ],
      "name": "createCollectable",
      "outputs": [
        {
          "internalType": "bytes32",
          "name": "",
          "type": "bytes32"
        }
      ],
      "stateMutability": "nonpayable",
      "type": "function"
    },
    {
      "inputs": [
        {
          "internalType": "uint256",
          "name": "tokenId",
          "type": "uint256"
        },
        {
          "internalType": "string",
          "name": "_tokenUri",
          "type": "string"
        }
      ],
      "name": "setTokenURI",
      "outputs": [],
      "stateMutability": "nonpayable",
      "type": "function"
    },
    {
      "inputs": [
        {
          "internalType": "uint256",
          "name": "tokenId",
          "type": "uint256"
        }
      ],
      "name": "tokenURI",
      "outputs": [
        {
          "internalType": "string",
          "name": "",
          "type": "string"
        }
      ],
      "stateMutability": "view",
      "type": "function"
    }
  ],
  "bytecode": "0x60c06040523480156200001157600080fd5b5060405162004213380380620042138339818101604052810190620000379190620004f9565b82826040518060400160405280600681526020017f4d795769736800000000000000000000000000000000000000000000000000008152506040518060400160405280600381526020017f57534800000000000000000000000000000000000000000000000000000000008152508160009080519060200190620000bd9291906200041b565b508060019080519060200190620000d69291906200041b565b5050508173ffffffffffffffffffffffffffffffffffffffff1660a08173ffffffffffffffffffffffffffffffffffffffff1660601b815250508073ffffffffffffffffffffffffffffffffffffffff1660808173ffffffffffffffffffffffffffffffffffffffff1660601b81525050505060006008819055508060098190555067016345785d8a0000600a81905550602d600e6200017d60006200024c60201b60201c565b6040516200018c91906200058c565b9081526020016040518091039020819055506023600e620001b460016200024c60201b60201c565b604051620001c391906200058c565b908152602001604051809103902081905550600f600e620001eb60026200024c60201b60201c565b604051620001fa91906200058c565b9081526020016040518091039020819055506005600e6200022260036200024c60201b60201c565b6040516200023191906200058c565b908152602001604051809103902081905550505050620006fc565b60606000600381111562000265576200026462000665565b5b8260038111156200027b576200027a62000665565b5b1415620002c0576040518060400160405280600681526020017f436f6d6d6f6e0000000000000000000000000000000000000000000000000000815250905062000416565b60016003811115620002d757620002d662000665565b5b826003811115620002ed57620002ec62000665565b5b141562000332576040518060400160405280600881526020017f556e636f6d6d6f6e000000000000000000000000000000000000000000000000815250905062000416565b6002600381111562000349576200034862000665565b5b8260038111156200035f576200035e62000665565b5b1415620003a4576040518060400160405280600481526020017f5261726500000000000000000000000000000000000000000000000000000000815250905062000416565b600380811115620003ba57620003b962000665565b5b826003811115620003d057620003cf62000665565b5b141562000415576040518060400160405280600981526020017f5375706572526172650000000000000000000000000000000000000000000000815250905062000416565b5b919050565b82805462000429906200062f565b90600052602060002090601f0160209004810192826200044d576000855562000499565b82601f106200046857805160ff191683800117855562000499565b8280016001018555821562000499579182015b82811115620004985782518255916020019190600101906200047b565b5b509050620004a89190620004ac565b5090565b5b80821115620004c7576000816000905550600101620004ad565b5090565b600081519050620004dc81620006c8565b92915050565b600081519050620004f381620006e2565b92915050565b600080600060608486031215620005155762000514620006c3565b5b60006200052586828701620004cb565b93505060206200053886828701620004cb565b92505060406200054b86828701620004e2565b9150509250925092565b60006200056282620005a5565b6200056e8185620005b0565b935062000580818560208601620005f9565b80840191505092915050565b60006200059a828462000555565b915081905092915050565b600081519050919050565b600081905092915050565b6000620005c882620005d9565b9050919050565b6000819050919050565b600073ffffffffffffffffffffffffffffffffffffffff82169050919050565b60005b8381101562000619578082015181840152602081019050620005fc565b8381111562000629576000848401525b50505050565b600060028204905060018216806200064857607f821691505b602082108114156200065f576200065e62000694565b5b50919050565b7f4e487b7100000000000000000000000000000000000000000000000000000000600052602160045260246000fd5b7f4e487b7100000000000000000000000000000000000000000000000000000000600052602260045260246000fd5b600080fd5b620006d381620005bb565b8114620006df57600080fd5b50565b620006ed81620005cf565b8114620006f957600080fd5b50565b60805160601c60a05160601c613ae46200072f60003960008181610b3901526117af015260006117730152613ae46000f3fe608060405234801561001057600080fd5b50600436106101425760003560e01c80636352211e116100b8578063a22cb4651161007c578063a22cb465146103bf578063b88d4fde146103db578063c28b580d146103f7578063c87b56dd14610427578063d082e38114610457578063e985e9c51461047557610142565b80636352211e146102f55780636be889801461032557806370a082311461035557806394985ddd1461038557806395d89b41146103a157610142565b80631ffa21f71161010a5780631ffa21f7146101fd578063219c0eee1461022d57806322881f881461025d57806323b872dd1461028d578063393351f4146102a957806342842e0e146102d957610142565b806301ffc9a71461014757806306fdde0314610177578063081812fc14610195578063095ea7b3146101c5578063162094c4146101e1575b600080fd5b610161600480360381019061015c91906126c9565b6104a5565b60405161016e9190612ca2565b60405180910390f35b61017f610587565b60405161018c9190612d7c565b60405180910390f35b6101af60048036038101906101aa919061276c565b610619565b6040516101bc9190612bfd565b60405180910390f35b6101df60048036038101906101da91906125ef565b61069e565b005b6101fb60048036038101906101f69190612799565b6107b6565b005b6102176004803603810190610212919061265c565b610814565b6040516102249190612d7c565b60405180910390f35b6102476004803603810190610242919061265c565b6108b4565b6040516102549190612bfd565b60405180910390f35b6102776004803603810190610272919061265c565b6108e7565b6040516102849190612fde565b60405180910390f35b6102a760048036038101906102a291906124d9565b6108ff565b005b6102c360048036038101906102be9190612723565b61095f565b6040516102d09190612d61565b60405180910390f35b6102f360048036038101906102ee91906124d9565b61098d565b005b61030f600480360381019061030a919061276c565b6109ad565b60405161031c9190612bfd565b60405180910390f35b61033f600480360381019061033a919061276c565b610a5f565b60405161034c9190612d46565b60405180910390f35b61036f600480360381019061036a919061246c565b610a7f565b60405161037c9190612fde565b60405180910390f35b61039f600480360381019061039a9190612689565b610b37565b005b6103a9610bd3565b6040516103b69190612d7c565b60405180910390f35b6103d960048036038101906103d491906125af565b610c65565b005b6103f560048036038101906103f0919061252c565b610de6565b005b610411600480360381019061040c9190612723565b610e48565b60405161041e9190612cbd565b60405180910390f35b610441600480360381019061043c919061276c565b610f23565b60405161044e9190612d7c565b60405180910390f35b61045f610f35565b60405161046c9190612fde565b60405180910390f35b61048f600480360381019061048a9190612499565b610f3b565b60405161049c9190612ca2565b60405180910390f35b60007f80ac58cd000000000000000000000000000000000000000000000000000000007bffffffffffffffffffffffffffffffffffffffffffffffffffffffff1916827bffffffffffffffffffffffffffffffffffffffffffffffffffffffff1916148061057057507f5b5e139f000000000000000000000000000000000000000000000000000000007bffffffffffffffffffffffffffffffffffffffffffffffffffffffff1916827bffffffffffffffffffffffffffffffffffffffffffffffffffffffff1916145b80610580575061057f82610fcf565b5b9050919050565b60606000805461059690613301565b80601f01602080910402602001604051908101604052809291908181526020018280546105c290613301565b801561060f5780601f106105e45761010080835404028352916020019161060f565b820191906000526020600020905b8154815290600101906020018083116105f257829003601f168201915b5050505050905090565b600061062482611039565b610663576040517f08c379a000000000000000000000000000000000000000000000000000000000815260040161065a90612efe565b60405180910390fd5b6004600083815260200190815260200160002060009054906101000a900473ffffffffffffffffffffffffffffffffffffffff169050919050565b60006106a9826109ad565b90508073ffffffffffffffffffffffffffffffffffffffff168373ffffffffffffffffffffffffffffffffffffffff16141561071a576040517f08c379a000000000000000000000000000000000000000000000000000000000815260040161071190612f7e565b60405180910390fd5b8073ffffffffffffffffffffffffffffffffffffffff166107396110a5565b73ffffffffffffffffffffffffffffffffffffffff1614806107685750610767816107626110a5565b610f3b565b5b6107a7576040517f08c379a000000000000000000000000000000000000000000000000000000000815260040161079e90612e3e565b60405180910390fd5b6107b183836110ad565b505050565b6107c76107c16110a5565b83611166565b610806576040517f08c379a00000000000000000000000000000000000000000000000000000000081526004016107fd90612fbe565b60405180910390fd5b6108108282611244565b5050565b600f602052806000526040600020600091509050805461083390613301565b80601f016020809104026020016040519081016040528092919081815260200182805461085f90613301565b80156108ac5780601f10610881576101008083540402835291602001916108ac565b820191906000526020600020905b81548152906001019060200180831161088f57829003601f168201915b505050505081565b600d6020528060005260406000206000915054906101000a900473ffffffffffffffffffffffffffffffffffffffff1681565b60106020528060005260406000206000915090505481565b61091061090a6110a5565b82611166565b61094f576040517f08c379a000000000000000000000000000000000000000000000000000000000815260040161094690612f9e565b60405180910390fd5b61095a8383836112b8565b505050565b600e818051602081018201805184825260208301602085012081835280955050505050506000915090505481565b6109a883838360405180602001604052806000815250610de6565b505050565b6000806002600084815260200190815260200160002060009054906101000a900473ffffffffffffffffffffffffffffffffffffffff169050600073ffffffffffffffffffffffffffffffffffffffff168173ffffffffffffffffffffffffffffffffffffffff161415610a56576040517f08c379a0000000000000000000000000000000000000000000000000000000008152600401610a4d90612e7e565b60405180910390fd5b80915050919050565b60116020528060005260406000206000915054906101000a900460ff1681565b60008073ffffffffffffffffffffffffffffffffffffffff168273ffffffffffffffffffffffffffffffffffffffff161415610af0576040517f08c379a0000000000000000000000000000000000000000000000000000000008152600401610ae790612e5e565b60405180910390fd5b600360008373ffffffffffffffffffffffffffffffffffffffff1673ffffffffffffffffffffffffffffffffffffffff168152602001908152602001600020549050919050565b7f000000000000000000000000000000000000000000000000000000000000000073ffffffffffffffffffffffffffffffffffffffff163373ffffffffffffffffffffffffffffffffffffffff1614610bc5576040517f08c379a0000000000000000000000000000000000000000000000000000000008152600401610bbc90612f5e565b60405180910390fd5b610bcf8282611514565b5050565b606060018054610be290613301565b80601f0160208091040260200160405190810160405280929190818152602001828054610c0e90613301565b8015610c5b5780601f10610c3057610100808354040283529160200191610c5b565b820191906000526020600020905b815481529060010190602001808311610c3e57829003601f168201915b5050505050905090565b610c6d6110a5565b73ffffffffffffffffffffffffffffffffffffffff168273ffffffffffffffffffffffffffffffffffffffff161415610cdb576040517f08c379a0000000000000000000000000000000000000000000000000000000008152600401610cd290612dfe565b60405180910390fd5b8060056000610ce86110a5565b73ffffffffffffffffffffffffffffffffffffffff1673ffffffffffffffffffffffffffffffffffffffff16815260200190815260200160002060008473ffffffffffffffffffffffffffffffffffffffff1673ffffffffffffffffffffffffffffffffffffffff16815260200190815260200160002060006101000a81548160ff0219169083151502179055508173ffffffffffffffffffffffffffffffffffffffff16610d956110a5565b73ffffffffffffffffffffffffffffffffffffffff167f17307eab39ab6107e8899845ad3d59bd9653f200f220920489ca2b5937696c3183604051610dda9190612ca2565b60405180910390a35050565b610df7610df16110a5565b83611166565b610e36576040517f08c379a0000000000000000000000000000000000000000000000000000000008152600401610e2d90612f9e565b60405180910390fd5b610e4284848484611713565b50505050565b6000600160086000828254610e5d91906130c3565b925050819055506000610e74600954600a5461176f565b905033600d600083815260200190815260200160002060006101000a81548173ffffffffffffffffffffffffffffffffffffffff021916908373ffffffffffffffffffffffffffffffffffffffff16021790555082600f60008381526020019081526020016000209080519060200190610eef929190612256565b50807f1407d655ff3c024a96c54a8c62eb99076b252e94f2e0cdc30bcf86248a5f1b0360405160405180910390a250919050565b6060610f2e826118d1565b9050919050565b60085481565b6000600560008473ffffffffffffffffffffffffffffffffffffffff1673ffffffffffffffffffffffffffffffffffffffff16815260200190815260200160002060008373ffffffffffffffffffffffffffffffffffffffff1673ffffffffffffffffffffffffffffffffffffffff16815260200190815260200160002060009054906101000a900460ff16905092915050565b60007f01ffc9a7000000000000000000000000000000000000000000000000000000007bffffffffffffffffffffffffffffffffffffffffffffffffffffffff1916827bffffffffffffffffffffffffffffffffffffffffffffffffffffffff1916149050919050565b60008073ffffffffffffffffffffffffffffffffffffffff166002600084815260200190815260200160002060009054906101000a900473ffffffffffffffffffffffffffffffffffffffff1673ffffffffffffffffffffffffffffffffffffffff1614159050919050565b600033905090565b816004600083815260200190815260200160002060006101000a81548173ffffffffffffffffffffffffffffffffffffffff021916908373ffffffffffffffffffffffffffffffffffffffff160217905550808273ffffffffffffffffffffffffffffffffffffffff16611120836109ad565b73ffffffffffffffffffffffffffffffffffffffff167f8c5be1e5ebec7d5bd14f71427d1e84f3dd0314c0f7b2291e5b200ac8c7c3b92560405160405180910390a45050565b600061117182611039565b6111b0576040517f08c379a00000000000000000000000000000000000000000000000000000000081526004016111a790612e1e565b60405180910390fd5b60006111bb836109ad565b90508073ffffffffffffffffffffffffffffffffffffffff168473ffffffffffffffffffffffffffffffffffffffff16148061122a57508373ffffffffffffffffffffffffffffffffffffffff1661121284610619565b73ffffffffffffffffffffffffffffffffffffffff16145b8061123b575061123a8185610f3b565b5b91505092915050565b61124d82611039565b61128c576040517f08c379a000000000000000000000000000000000000000000000000000000000815260040161128390612e9e565b60405180910390fd5b806006600084815260200190815260200160002090805190602001906112b3929190612256565b505050565b8273ffffffffffffffffffffffffffffffffffffffff166112d8826109ad565b73ffffffffffffffffffffffffffffffffffffffff161461132e576040517f08c379a000000000000000000000000000000000000000000000000000000000815260040161132590612f1e565b60405180910390fd5b600073ffffffffffffffffffffffffffffffffffffffff168273ffffffffffffffffffffffffffffffffffffffff16141561139e576040517f08c379a000000000000000000000000000000000000000000000000000000000815260040161139590612dde565b60405180910390fd5b6113a9838383611a23565b6113b46000826110ad565b6001600360008573ffffffffffffffffffffffffffffffffffffffff1673ffffffffffffffffffffffffffffffffffffffff168152602001908152602001600020600082825461140491906131de565b925050819055506001600360008473ffffffffffffffffffffffffffffffffffffffff1673ffffffffffffffffffffffffffffffffffffffff168152602001908152602001600020600082825461145b91906130c3565b92505081905550816002600083815260200190815260200160002060006101000a81548173ffffffffffffffffffffffffffffffffffffffff021916908373ffffffffffffffffffffffffffffffffffffffff160217905550808273ffffffffffffffffffffffffffffffffffffffff168473ffffffffffffffffffffffffffffffffffffffff167fddf252ad1be2c89b69c2b068fc378daa952ba7f163c4a11628f55a4df523b3ef60405160405180910390a4505050565b600060648261152391906133c1565b90506000600d600085815260200190815260200160002060009054906101000a900473ffffffffffffffffffffffffffffffffffffffff1690506000600f6000868152602001908152602001600020805461157d90613301565b80601f01602080910402602001604051908101604052809291908181526020018280546115a990613301565b80156115f65780601f106115cb576101008083540402835291602001916115f6565b820191906000526020600020905b8154815290600101906020018083116115d957829003601f168201915b505050505090506000600854905061160e8382611a28565b61161881836107b6565b60005b600e61162682611a46565b6040516116339190612bc2565b9081526020016040518091039020548512156116b557600e61165482611a46565b6040516116619190612bc2565b9081526020016040518091039020548561167b919061314a565b9450600181600381111561169257611691613450565b5b61169c91906130c3565b60038111156116ae576116ad613450565b5b905061161b565b806011600084815260200190815260200160002060006101000a81548160ff021916908360038111156116eb576116ea613450565b5b021790555060016008600082825461170391906130c3565b9250508190555050505050505050565b61171e8484846112b8565b61172a84848484611bf5565b611769576040517f08c379a000000000000000000000000000000000000000000000000000000000815260040161176090612d9e565b60405180910390fd5b50505050565b60007f000000000000000000000000000000000000000000000000000000000000000073ffffffffffffffffffffffffffffffffffffffff16634000aea07f0000000000000000000000000000000000000000000000000000000000000000848660006040516020016117e3929190612cd8565b6040516020818303038152906040526040518463ffffffff1660e01b815260040161181093929190612c64565b602060405180830381600087803b15801561182a57600080fd5b505af115801561183e573d6000803e3d6000fd5b505050506040513d601f19601f82011682018060405250810190611862919061262f565b506000611885846000306007600089815260200190815260200160002054611d8c565b9050600160076000868152602001908152602001600020546118a791906130c3565b60076000868152602001908152602001600020819055506118c88482611dc8565b91505092915050565b60606118dc82611039565b61191b576040517f08c379a000000000000000000000000000000000000000000000000000000000815260040161191290612ede565b60405180910390fd5b600060066000848152602001908152602001600020805461193b90613301565b80601f016020809104026020016040519081016040528092919081815260200182805461196790613301565b80156119b45780601f10611989576101008083540402835291602001916119b4565b820191906000526020600020905b81548152906001019060200180831161199757829003601f168201915b5050505050905060006119c5611dfb565b90506000815114156119db578192505050611a1e565b600082511115611a105780826040516020016119f8929190612bd9565b60405160208183030381529060405292505050611a1e565b611a1984611e12565b925050505b919050565b505050565b611a42828260405180602001604052806000815250611eb9565b5050565b606060006003811115611a5c57611a5b613450565b5b826003811115611a6f57611a6e613450565b5b1415611ab2576040518060400160405280600681526020017f436f6d6d6f6e00000000000000000000000000000000000000000000000000008152509050611bf0565b60016003811115611ac657611ac5613450565b5b826003811115611ad957611ad8613450565b5b1415611b1c576040518060400160405280600881526020017f556e636f6d6d6f6e0000000000000000000000000000000000000000000000008152509050611bf0565b60026003811115611b3057611b2f613450565b5b826003811115611b4357611b42613450565b5b1415611b86576040518060400160405280600481526020017f52617265000000000000000000000000000000000000000000000000000000008152509050611bf0565b600380811115611b9957611b98613450565b5b826003811115611bac57611bab613450565b5b1415611bef576040518060400160405280600981526020017f53757065725261726500000000000000000000000000000000000000000000008152509050611bf0565b5b919050565b6000611c168473ffffffffffffffffffffffffffffffffffffffff16611f14565b15611d7f578373ffffffffffffffffffffffffffffffffffffffff1663150b7a02611c3f6110a5565b8786866040518563ffffffff1660e01b8152600401611c619493929190612c18565b602060405180830381600087803b158015611c7b57600080fd5b505af1925050508015611cac57506040513d601f19601f82011682018060405250810190611ca991906126f6565b60015b611d2f573d8060008114611cdc576040519150601f19603f3d011682016040523d82523d6000602084013e611ce1565b606091505b50600081511415611d27576040517f08c379a0000000000000000000000000000000000000000000000000000000008152600401611d1e90612d9e565b60405180910390fd5b805181602001fd5b63150b7a0260e01b7bffffffffffffffffffffffffffffffffffffffffffffffffffffffff1916817bffffffffffffffffffffffffffffffffffffffffffffffffffffffff191614915050611d84565b600190505b949350505050565b600084848484604051602001611da59493929190612d01565b6040516020818303038152906040528051906020012060001c9050949350505050565b60008282604051602001611ddd929190612b96565b60405160208183030381529060405280519060200120905092915050565b606060405180602001604052806000815250905090565b6060611e1d82611039565b611e5c576040517f08c379a0000000000000000000000000000000000000000000000000000000008152600401611e5390612f3e565b60405180910390fd5b6000611e66611dfb565b90506000815111611e865760405180602001604052806000815250611eb1565b80611e9084611f27565b604051602001611ea1929190612bd9565b6040516020818303038152906040525b915050919050565b611ec38383612088565b611ed06000848484611bf5565b611f0f576040517f08c379a0000000000000000000000000000000000000000000000000000000008152600401611f0690612d9e565b60405180910390fd5b505050565b600080823b905060008111915050919050565b60606000821415611f6f576040518060400160405280600181526020017f30000000000000000000000000000000000000000000000000000000000000008152509050612083565b600082905060005b60008214611fa1578080611f8a90613364565b915050600a82611f9a9190613119565b9150611f77565b60008167ffffffffffffffff811115611fbd57611fbc6134dd565b5b6040519080825280601f01601f191660200182016040528015611fef5781602001600182028036833780820191505090505b5090505b6000851461207c5760018261200891906131de565b9150600a8561201791906133c1565b603061202391906130c3565b60f81b818381518110612039576120386134ae565b5b60200101907effffffffffffffffffffffffffffffffffffffffffffffffffffffffffffff1916908160001a905350600a856120759190613119565b9450611ff3565b8093505050505b919050565b600073ffffffffffffffffffffffffffffffffffffffff168273ffffffffffffffffffffffffffffffffffffffff1614156120f8576040517f08c379a00000000000000000000000000000000000000000000000000000000081526004016120ef90612ebe565b60405180910390fd5b61210181611039565b15612141576040517f08c379a000000000000000000000000000000000000000000000000000000000815260040161213890612dbe565b60405180910390fd5b61214d60008383611a23565b6001600360008473ffffffffffffffffffffffffffffffffffffffff1673ffffffffffffffffffffffffffffffffffffffff168152602001908152602001600020600082825461219d91906130c3565b92505081905550816002600083815260200190815260200160002060006101000a81548173ffffffffffffffffffffffffffffffffffffffff021916908373ffffffffffffffffffffffffffffffffffffffff160217905550808273ffffffffffffffffffffffffffffffffffffffff16600073ffffffffffffffffffffffffffffffffffffffff167fddf252ad1be2c89b69c2b068fc378daa952ba7f163c4a11628f55a4df523b3ef60405160405180910390a45050565b82805461226290613301565b90600052602060002090601f01602090048101928261228457600085556122cb565b82601f1061229d57805160ff19168380011785556122cb565b828001600101855582156122cb579182015b828111156122ca5782518255916020019190600101906122af565b5b5090506122d891906122dc565b5090565b5b808211156122f55760008160009055506001016122dd565b5090565b600061230c6123078461301e565b612ff9565b90508281526020810184848401111561232857612327613511565b5b6123338482856132bf565b509392505050565b600061234e6123498461304f565b612ff9565b90508281526020810184848401111561236a57612369613511565b5b6123758482856132bf565b509392505050565b60008135905061238c81613a3b565b92915050565b6000813590506123a181613a52565b92915050565b6000815190506123b681613a52565b92915050565b6000813590506123cb81613a69565b92915050565b6000813590506123e081613a80565b92915050565b6000815190506123f581613a80565b92915050565b600082601f8301126124105761240f61350c565b5b81356124208482602086016122f9565b91505092915050565b600082601f83011261243e5761243d61350c565b5b813561244e84826020860161233b565b91505092915050565b60008135905061246681613a97565b92915050565b6000602082840312156124825761248161351b565b5b60006124908482850161237d565b91505092915050565b600080604083850312156124b0576124af61351b565b5b60006124be8582860161237d565b92505060206124cf8582860161237d565b9150509250929050565b6000806000606084860312156124f2576124f161351b565b5b60006125008682870161237d565b93505060206125118682870161237d565b925050604061252286828701612457565b9150509250925092565b600080600080608085870312156125465761254561351b565b5b60006125548782880161237d565b94505060206125658782880161237d565b935050604061257687828801612457565b925050606085013567ffffffffffffffff81111561259757612596613516565b5b6125a3878288016123fb565b91505092959194509250565b600080604083850312156125c6576125c561351b565b5b60006125d48582860161237d565b92505060206125e585828601612392565b9150509250929050565b600080604083850312156126065761260561351b565b5b60006126148582860161237d565b925050602061262585828601612457565b9150509250929050565b6000602082840312156126455761264461351b565b5b6000612653848285016123a7565b91505092915050565b6000602082840312156126725761267161351b565b5b6000612680848285016123bc565b91505092915050565b600080604083850312156126a05761269f61351b565b5b60006126ae858286016123bc565b92505060206126bf85828601612457565b9150509250929050565b6000602082840312156126df576126de61351b565b5b60006126ed848285016123d1565b91505092915050565b60006020828403121561270c5761270b61351b565b5b600061271a848285016123e6565b91505092915050565b6000602082840312156127395761273861351b565b5b600082013567ffffffffffffffff81111561275757612756613516565b5b61276384828501612429565b91505092915050565b6000602082840312156127825761278161351b565b5b600061279084828501612457565b91505092915050565b600080604083850312156127b0576127af61351b565b5b60006127be85828601612457565b925050602083013567ffffffffffffffff8111156127df576127de613516565b5b6127eb85828601612429565b9150509250929050565b6127fe81613212565b82525050565b61280d81613224565b82525050565b61281c81613230565b82525050565b61283361282e82613230565b6133ad565b82525050565b600061284482613080565b61284e8185613096565b935061285e8185602086016132ce565b61286781613520565b840191505092915050565b61287b816132ad565b82525050565b61288a81613279565b82525050565b600061289b8261308b565b6128a581856130a7565b93506128b58185602086016132ce565b6128be81613520565b840191505092915050565b60006128d48261308b565b6128de81856130b8565b93506128ee8185602086016132ce565b80840191505092915050565b60006129076032836130a7565b915061291282613531565b604082019050919050565b600061292a601c836130a7565b915061293582613580565b602082019050919050565b600061294d6024836130a7565b9150612958826135a9565b604082019050919050565b60006129706019836130a7565b915061297b826135f8565b602082019050919050565b6000612993602c836130a7565b915061299e82613621565b604082019050919050565b60006129b66038836130a7565b91506129c182613670565b604082019050919050565b60006129d9602a836130a7565b91506129e4826136bf565b604082019050919050565b60006129fc6029836130a7565b9150612a078261370e565b604082019050919050565b6000612a1f602e836130a7565b9150612a2a8261375d565b604082019050919050565b6000612a426020836130a7565b9150612a4d826137ac565b602082019050919050565b6000612a656031836130a7565b9150612a70826137d5565b604082019050919050565b6000612a88602c836130a7565b9150612a9382613824565b604082019050919050565b6000612aab6029836130a7565b9150612ab682613873565b604082019050919050565b6000612ace602f836130a7565b9150612ad9826138c2565b604082019050919050565b6000612af1601f836130a7565b9150612afc82613911565b602082019050919050565b6000612b146021836130a7565b9150612b1f8261393a565b604082019050919050565b6000612b376031836130a7565b9150612b4282613989565b604082019050919050565b6000612b5a6022836130a7565b9150612b65826139d8565b604082019050919050565b612b79816132a3565b82525050565b612b90612b8b826132a3565b6133b7565b82525050565b6000612ba28285612822565b602082019150612bb28284612b7f565b6020820191508190509392505050565b6000612bce82846128c9565b915081905092915050565b6000612be582856128c9565b9150612bf182846128c9565b91508190509392505050565b6000602082019050612c1260008301846127f5565b92915050565b6000608082019050612c2d60008301876127f5565b612c3a60208301866127f5565b612c476040830185612b70565b8181036060830152612c598184612839565b905095945050505050565b6000606082019050612c7960008301866127f5565b612c866020830185612b70565b8181036040830152612c988184612839565b9050949350505050565b6000602082019050612cb76000830184612804565b92915050565b6000602082019050612cd26000830184612813565b92915050565b6000604082019050612ced6000830185612813565b612cfa6020830184612b70565b9392505050565b6000608082019050612d166000830187612813565b612d236020830186612b70565b612d3060408301856127f5565b612d3d6060830184612b70565b95945050505050565b6000602082019050612d5b6000830184612872565b92915050565b6000602082019050612d766000830184612881565b92915050565b60006020820190508181036000830152612d968184612890565b905092915050565b60006020820190508181036000830152612db7816128fa565b9050919050565b60006020820190508181036000830152612dd78161291d565b9050919050565b60006020820190508181036000830152612df781612940565b9050919050565b60006020820190508181036000830152612e1781612963565b9050919050565b60006020820190508181036000830152612e3781612986565b9050919050565b60006020820190508181036000830152612e57816129a9565b9050919050565b60006020820190508181036000830152612e77816129cc565b9050919050565b60006020820190508181036000830152612e97816129ef565b9050919050565b60006020820190508181036000830152612eb781612a12565b9050919050565b60006020820190508181036000830152612ed781612a35565b9050919050565b60006020820190508181036000830152612ef781612a58565b9050919050565b60006020820190508181036000830152612f1781612a7b565b9050919050565b60006020820190508181036000830152612f3781612a9e565b9050919050565b60006020820190508181036000830152612f5781612ac1565b9050919050565b60006020820190508181036000830152612f7781612ae4565b9050919050565b60006020820190508181036000830152612f9781612b07565b9050919050565b60006020820190508181036000830152612fb781612b2a565b9050919050565b60006020820190508181036000830152612fd781612b4d565b9050919050565b6000602082019050612ff36000830184612b70565b92915050565b6000613003613014565b905061300f8282613333565b919050565b6000604051905090565b600067ffffffffffffffff821115613039576130386134dd565b5b61304282613520565b9050602081019050919050565b600067ffffffffffffffff82111561306a576130696134dd565b5b61307382613520565b9050602081019050919050565b600081519050919050565b600081519050919050565b600082825260208201905092915050565b600082825260208201905092915050565b600081905092915050565b60006130ce826132a3565b91506130d9836132a3565b9250827fffffffffffffffffffffffffffffffffffffffffffffffffffffffffffffffff0382111561310e5761310d6133f2565b5b828201905092915050565b6000613124826132a3565b915061312f836132a3565b92508261313f5761313e613421565b5b828204905092915050565b600061315582613279565b915061316083613279565b9250827f80000000000000000000000000000000000000000000000000000000000000000182126000841215161561319b5761319a6133f2565b5b827f7fffffffffffffffffffffffffffffffffffffffffffffffffffffffffffffff0182136000841216156131d3576131d26133f2565b5b828203905092915050565b60006131e9826132a3565b91506131f4836132a3565b925082821015613207576132066133f2565b5b828203905092915050565b600061321d82613283565b9050919050565b60008115159050919050565b6000819050919050565b60007fffffffff0000000000000000000000000000000000000000000000000000000082169050919050565b600081905061327482613a27565b919050565b6000819050919050565b600073ffffffffffffffffffffffffffffffffffffffff82169050919050565b6000819050919050565b60006132b882613266565b9050919050565b82818337600083830152505050565b60005b838110156132ec5780820151818401526020810190506132d1565b838111156132fb576000848401525b50505050565b6000600282049050600182168061331957607f821691505b6020821081141561332d5761332c61347f565b5b50919050565b61333c82613520565b810181811067ffffffffffffffff8211171561335b5761335a6134dd565b5b80604052505050565b600061336f826132a3565b91507fffffffffffffffffffffffffffffffffffffffffffffffffffffffffffffffff8214156133a2576133a16133f2565b5b600182019050919050565b6000819050919050565b6000819050919050565b60006133cc826132a3565b91506133d7836132a3565b9250826133e7576133e6613421565b5b828206905092915050565b7f4e487b7100000000000000000000000000000000000000000000000000000000600052601160045260246000fd5b7f4e487b7100000000000000000000000000000000000000000000000000000000600052601260045260246000fd5b7f4e487b7100000000000000000000000000000000000000000000000000000000600052602160045260246000fd5b7f4e487b7100000000000000000000000000000000000000000000000000000000600052602260045260246000fd5b7f4e487b7100000000000000000000000000000000000000000000000000000000600052603260045260246000fd5b7f4e487b7100000000000000000000000000000000000000000000000000000000600052604160045260246000fd5b600080fd5b600080fd5b600080fd5b600080fd5b6000601f19601f8301169050919050565b7f4552433732313a207472616e7366657220746f206e6f6e20455243373231526560008201527f63656976657220696d706c656d656e7465720000000000000000000000000000602082015250565b7f4552433732313a20746f6b656e20616c7265616479206d696e74656400000000600082015250565b7f4552433732313a207472616e7366657220746f20746865207a65726f2061646460008201527f7265737300000000000000000000000000000000000000000000000000000000602082015250565b7f4552433732313a20617070726f766520746f2063616c6c657200000000000000600082015250565b7f4552433732313a206f70657261746f7220717565727920666f72206e6f6e657860008201527f697374656e7420746f6b656e0000000000000000000000000000000000000000602082015250565b7f4552433732313a20617070726f76652063616c6c6572206973206e6f74206f7760008201527f6e6572206e6f7220617070726f76656420666f7220616c6c0000000000000000602082015250565b7f4552433732313a2062616c616e636520717565727920666f7220746865207a6560008201527f726f206164647265737300000000000000000000000000000000000000000000602082015250565b7f4552433732313a206f776e657220717565727920666f72206e6f6e657869737460008201527f656e7420746f6b656e0000000000000000000000000000000000000000000000602082015250565b7f45524337323155524953746f726167653a2055524920736574206f66206e6f6e60008201527f6578697374656e7420746f6b656e000000000000000000000000000000000000602082015250565b7f4552433732313a206d696e7420746f20746865207a65726f2061646472657373600082015250565b7f45524337323155524953746f726167653a2055524920717565727920666f722060008201527f6e6f6e6578697374656e7420746f6b656e000000000000000000000000000000602082015250565b7f4552433732313a20617070726f76656420717565727920666f72206e6f6e657860008201527f697374656e7420746f6b656e0000000000000000000000000000000000000000602082015250565b7f4552433732313a207472616e73666572206f6620746f6b656e2074686174206960008201527f73206e6f74206f776e0000000000000000000000000000000000000000000000602082015250565b7f4552433732314d657461646174613a2055524920717565727920666f72206e6f60008201527f6e6578697374656e7420746f6b656e0000000000000000000000000000000000602082015250565b7f4f6e6c7920565246436f6f7264696e61746f722063616e2066756c66696c6c00600082015250565b7f4552433732313a20617070726f76616c20746f2063757272656e74206f776e6560008201527f7200000000000000000000000000000000000000000000000000000000000000602082015250565b7f4552433732313a207472616e736665722063616c6c6572206973206e6f74206f60008201527f776e6572206e6f7220617070726f766564000000000000000000000000000000602082015250565b7f596f7520617265206e6f7420617070726f766564206f7220746865206f776e6560008201527f722e000000000000000000000000000000000000000000000000000000000000602082015250565b60048110613a3857613a37613450565b5b50565b613a4481613212565b8114613a4f57600080fd5b50565b613a5b81613224565b8114613a6657600080fd5b50565b613a7281613230565b8114613a7d57600080fd5b50565b613a898161323a565b8114613a9457600080fd5b50565b613aa0816132a3565b8114613aab57600080fd5b5056fea2646970667358221220b57381fb067c9e56a95f509c6aff1502bd8b9b83736aa230323371fee6a387db64736f6c63430008060033",
  "immutableReferences": {
    "418": [
      {
        "length": 32,
        "start": 6003
      }
    ],
    "420": [
      {
        "length": 32,
        "start": 2873
      },
      {
        "length": 32,
        "start": 6063
      }
    ]
  },
  "source": "pragma solidity ^0.8.0;\n\nimport \"@openzeppelin/contracts/token/ERC721/extensions/ERC721URIStorage.sol\";\nimport \"@chainlink/contracts/src/v0.8/dev/VRFConsumerBase.sol\";\n\ncontract MyWish is ERC721 ,ERC721URIStorage, VRFConsumerBase {\n\n    enum Rarity{\n        Common,\n        Uncommon,\n        Rare,\n        SuperRare\n    }\n    /*\n        Chainlink vars\n    */\n    uint256 public tokenCounter;\n    bytes32 internal keyhash;\n    uint256 internal fee;\n    uint256 internal randomResult;\n    /*\n        Assigning wish rarity\n    */\n    uint8 internal uncommonRarity;\n    uint8 internal commonRarity;\n    uint8 internal rareRarity;\n    uint8 internal superRareRarity;\n\n    mapping(bytes32 => address) public requestIdToSender;\n    mapping(string => int) public rarityToDropRate;\n    mapping(bytes32 => string) public requestIdToTokenUri;\n    mapping(bytes32 => uint256) public requestIdToTokenId; \n    mapping(uint256 => Rarity) public tokenIdToRarity;\n\n    event requestedCollectible(bytes32 indexed requestId);\n    \n    constructor(address _VRFCoordinator, address _linkToken, bytes32 _keyhash)\n    public\n    VRFConsumerBase(_VRFCoordinator, _linkToken)\n    ERC721(\"MyWish\",\"WSH\") {\n\n        tokenCounter = 0;\n        keyhash = _keyhash;\n        fee = 0.1 * 10 ** 18;\n\n\n        rarityToDropRate[enumToString(Rarity.Common)] = 45;\n        rarityToDropRate[enumToString(Rarity.Uncommon)] = 35;\n        rarityToDropRate[enumToString(Rarity.Rare)] = 15;\n        rarityToDropRate[enumToString(Rarity.SuperRare)] = 5;\n\n\n    }\n\n    function createCollectable(string memory tokenURI)\n    public returns (bytes32) {\n        tokenCounter += 1;\n        bytes32 requestId = requestRandomness(keyhash, fee);\n        requestIdToSender[requestId] = msg.sender;\n        requestIdToTokenUri[requestId] = tokenURI;\n        emit requestedCollectible(requestId);\n    }\n\n    function enumToString(Rarity rarity)\n    private pure returns (string memory){\n        if(rarity == Rarity.Common){\n            return \"Common\";\n        }\n        if(rarity == Rarity.Uncommon){\n            return \"Uncommon\";\n        }\n        if(rarity == Rarity.Rare){\n            return \"Rare\";\n        }\n        if(rarity == Rarity.SuperRare){\n            return \"SuperRare\";\n        }\n    }\n\n    \n\n    function fulfillRandomness(bytes32 requestId, uint256 randomResult)\n    internal override {\n        int randomVal = int(randomResult % 100);\n        address wishOwner = requestIdToSender[requestId];\n        string memory tokenUri = requestIdToTokenUri[requestId];\n        uint256 newWishId = tokenCounter;\n        _safeMint(wishOwner, newWishId);\n        setTokenURI(newWishId,tokenUri);\n        Rarity rarity = Rarity.Common;\n\n        while(randomVal < rarityToDropRate[enumToString(rarity)]) {\n            randomVal -= rarityToDropRate[enumToString(rarity)];\n            rarity = Rarity(uint(rarity) + 1);\n        }\n        tokenIdToRarity[newWishId] = rarity;\n        tokenCounter += 1;\n    }\n\n    function setTokenURI(uint256 tokenId, string memory _tokenUri) public {\n        require(\n            _isApprovedOrOwner(_msgSender(), tokenId),\n            \"You are not approved or the owner.\"\n        );\n        _setTokenURI(tokenId,_tokenUri);\n    }\n    \n    function _burn(uint256 tokenId) internal override(ERC721, ERC721URIStorage) {\n        super._burn(tokenId);\n    }\n\n    function tokenURI(uint256 tokenId)\n        public\n        view\n        override(ERC721, ERC721URIStorage)\n        returns (string memory)\n    {\n        return super.tokenURI(tokenId);\n    }\n\n\n\n\n}\n\n\n",
  "sourcePath": "/Users/zlederman/Documents/MyCryptoWish/contracts/Wish.sol",
  "compiler": {
    "name": "solc",
    "version": "0.8.6+commit.11564f7e.Emscripten.clang"
  },
  "schemaVersion": "3.4.1",
  "updatedAt": "2021-08-06T22:31:44.630Z",
  "devdoc": {
    "kind": "dev",
    "methods": {
      "approve(address,uint256)": {
        "details": "See {IERC721-approve}."
      },
      "balanceOf(address)": {
        "details": "See {IERC721-balanceOf}."
      },
      "getApproved(uint256)": {
        "details": "See {IERC721-getApproved}."
      },
      "isApprovedForAll(address,address)": {
        "details": "See {IERC721-isApprovedForAll}."
      },
      "name()": {
        "details": "See {IERC721Metadata-name}."
      },
      "ownerOf(uint256)": {
        "details": "See {IERC721-ownerOf}."
      },
      "safeTransferFrom(address,address,uint256)": {
        "details": "See {IERC721-safeTransferFrom}."
      },
      "safeTransferFrom(address,address,uint256,bytes)": {
        "details": "See {IERC721-safeTransferFrom}."
      },
      "setApprovalForAll(address,bool)": {
        "details": "See {IERC721-setApprovalForAll}."
      },
      "supportsInterface(bytes4)": {
        "details": "See {IERC165-supportsInterface}."
      },
      "symbol()": {
        "details": "See {IERC721Metadata-symbol}."
      },
      "transferFrom(address,address,uint256)": {
        "details": "See {IERC721-transferFrom}."
      }
    },
    "version": 1
  },
  "userdoc": {
    "kind": "user",
    "methods": {},
    "version": 1
  }
}