{
  "contractName": "PaymentHandler",
  "abi": [
    {
      "anonymous": false,
      "inputs": [
        {
          "indexed": false,
          "internalType": "address",
          "name": "from",
          "type": "address"
        }
      ],
      "name": "fundsAccepted",
      "type": "event"
    },
    {
      "inputs": [],
      "name": "sendEther",
      "outputs": [],
      "stateMutability": "payable",
      "type": "function",
      "payable": true
    },
    {
      "inputs": [],
      "name": "getBalanceOfPaymentHandler",
      "outputs": [
        {
          "internalType": "uint256",
          "name": "",
          "type": "uint256"
        }
      ],
      "stateMutability": "view",
      "type": "function",
      "constant": true
    },
    {
      "inputs": [],
      "name": "getPrice",
      "outputs": [
        {
          "internalType": "uint256",
          "name": "",
          "type": "uint256"
        }
      ],
      "stateMutability": "pure",
      "type": "function",
      "constant": true
    }
  ],
  "bytecode": "0x608060405234801561001057600080fd5b5061035f806100206000396000f3fe6080604052600436106100345760003560e01c80630e29df221461003957806398d5fdca14610043578063a33209991461006e575b600080fd5b610041610099565b005b34801561004f57600080fd5b5061005861017f565b6040516100659190610213565b60405180910390f35b34801561007a57600080fd5b5061008361018f565b6040516100909190610213565b60405180910390f35b600034116100dc576040517f08c379a00000000000000000000000000000000000000000000000000000000081526004016100d3906101f3565b60405180910390fd5b6729a2241af62c00003410156100f157600080fd5b346000803373ffffffffffffffffffffffffffffffffffffffff1673ffffffffffffffffffffffffffffffffffffffff168152602001908152602001600020600082825461013f919061023f565b925050819055507fa6b0203fa3a8d452c08da2a0668fac3ea878106f96be6e48e9832798b6bcf8eb3360405161017591906101d8565b60405180910390a1565b60006729a2241af62c0000905090565b600047905090565b6101a081610295565b82525050565b60006101b360158361022e565b91506101be82610300565b602082019050919050565b6101d2816102c7565b82525050565b60006020820190506101ed6000830184610197565b92915050565b6000602082019050818103600083015261020c816101a6565b9050919050565b600060208201905061022860008301846101c9565b92915050565b600082825260208201905092915050565b600061024a826102c7565b9150610255836102c7565b9250827fffffffffffffffffffffffffffffffffffffffffffffffffffffffffffffffff0382111561028a576102896102d1565b5b828201905092915050565b60006102a0826102a7565b9050919050565b600073ffffffffffffffffffffffffffffffffffffffff82169050919050565b6000819050919050565b7f4e487b7100000000000000000000000000000000000000000000000000000000600052601160045260246000fd5b7f5a65726f2046756e64732053656e74204572726f72000000000000000000000060008201525056fea26469706673582212201967ba288e364dd1b8826d5e4de3030b3e2d028a0f83c487662b40a52e8525e164736f6c63430008060033",
  "immutableReferences": {},
  "source": "//SPDX-License-Identifier: UNLICENSED\npragma solidity ^0.8.0;\n\nimport \"@openzeppelin/contracts/finance/PaymentSplitter.sol\";\nimport \"@openzeppelin/contracts/utils/escrow/ConditionalEscrow.sol\";\ncontract PaymentHandler{\n\n    mapping(address => uint256) balances;\n    uint256 constant PRICE = 3 ether;\n    event fundsAccepted(address from);\n\n    function sendEther() public payable{\n        require(msg.value > 0 , \"Zero Funds Sent Error\");\n        if(msg.value < PRICE){\n            revert();\n        }\n        balances[msg.sender] += msg.value;\n        emit fundsAccepted(msg.sender);\n    }\n\n    function getBalanceOfPaymentHandler()\n    external\n    view\n    returns(uint256){\n        return address(this).balance;\n    }\n\n    function getPrice() \n    external pure\n    returns (uint256){\n        return PRICE;\n    }\n}",
  "sourcePath": "/Users/zlederman/Documents/Code/js/truffle-react/contracts/PaymentHandler.sol",
  "compiler": {
    "name": "solc",
    "version": "0.8.6+commit.11564f7e.Emscripten.clang"
  },
  "schemaVersion": "3.4.2",
  "updatedAt": "2021-08-08T01:19:55.826Z",
  "networkType": "ethereum",
  "devdoc": {
    "kind": "dev",
    "methods": {},
    "version": 1
  },
  "userdoc": {
    "kind": "user",
    "methods": {},
    "version": 1
  }
}