{
  "contractName": "PaymentHandler",
  "abi": [
    {
      "inputs": [],
      "stateMutability": "nonpayable",
      "type": "constructor"
    },
    {
      "anonymous": false,
      "inputs": [
        {
          "indexed": true,
          "internalType": "address",
          "name": "previousOwner",
          "type": "address"
        },
        {
          "indexed": true,
          "internalType": "address",
          "name": "newOwner",
          "type": "address"
        }
      ],
      "name": "OwnershipTransferred",
      "type": "event"
    },
    {
      "anonymous": false,
      "inputs": [
        {
          "indexed": false,
          "internalType": "address",
          "name": "account",
          "type": "address"
        },
        {
          "indexed": false,
          "internalType": "uint256",
          "name": "shares",
          "type": "uint256"
        }
      ],
      "name": "PayeeAdded",
      "type": "event"
    },
    {
      "anonymous": false,
      "inputs": [
        {
          "indexed": false,
          "internalType": "address",
          "name": "from",
          "type": "address"
        },
        {
          "indexed": false,
          "internalType": "uint256",
          "name": "amount",
          "type": "uint256"
        }
      ],
      "name": "PaymentReceived",
      "type": "event"
    },
    {
      "anonymous": false,
      "inputs": [
        {
          "indexed": false,
          "internalType": "address",
          "name": "to",
          "type": "address"
        },
        {
          "indexed": false,
          "internalType": "uint256",
          "name": "amount",
          "type": "uint256"
        }
      ],
      "name": "PaymentReleased",
      "type": "event"
    },
    {
      "anonymous": false,
      "inputs": [
        {
          "indexed": false,
          "internalType": "address",
          "name": "from",
          "type": "address"
        }
      ],
      "name": "fundsAccepted",
      "type": "event"
    },
    {
      "inputs": [],
      "name": "owner",
      "outputs": [
        {
          "internalType": "address",
          "name": "",
          "type": "address"
        }
      ],
      "stateMutability": "view",
      "type": "function"
    },
    {
      "inputs": [
        {
          "internalType": "uint256",
          "name": "index",
          "type": "uint256"
        }
      ],
      "name": "payee",
      "outputs": [
        {
          "internalType": "address",
          "name": "",
          "type": "address"
        }
      ],
      "stateMutability": "view",
      "type": "function"
    },
    {
      "inputs": [
        {
          "internalType": "address payable",
          "name": "account",
          "type": "address"
        }
      ],
      "name": "release",
      "outputs": [],
      "stateMutability": "nonpayable",
      "type": "function"
    },
    {
      "inputs": [
        {
          "internalType": "address",
          "name": "account",
          "type": "address"
        }
      ],
      "name": "released",
      "outputs": [
        {
          "internalType": "uint256",
          "name": "",
          "type": "uint256"
        }
      ],
      "stateMutability": "view",
      "type": "function"
    },
    {
      "inputs": [],
      "name": "renounceOwnership",
      "outputs": [],
      "stateMutability": "nonpayable",
      "type": "function"
    },
    {
      "inputs": [
        {
          "internalType": "address",
          "name": "account",
          "type": "address"
        }
      ],
      "name": "shares",
      "outputs": [
        {
          "internalType": "uint256",
          "name": "",
          "type": "uint256"
        }
      ],
      "stateMutability": "view",
      "type": "function"
    },
    {
      "inputs": [],
      "name": "totalReleased",
      "outputs": [
        {
          "internalType": "uint256",
          "name": "",
          "type": "uint256"
        }
      ],
      "stateMutability": "view",
      "type": "function"
    },
    {
      "inputs": [],
      "name": "totalShares",
      "outputs": [
        {
          "internalType": "uint256",
          "name": "",
          "type": "uint256"
        }
      ],
      "stateMutability": "view",
      "type": "function"
    },
    {
      "inputs": [
        {
          "internalType": "address",
          "name": "newOwner",
          "type": "address"
        }
      ],
      "name": "transferOwnership",
      "outputs": [],
      "stateMutability": "nonpayable",
      "type": "function"
    },
    {
      "stateMutability": "payable",
      "type": "receive"
    },
    {
      "inputs": [],
      "name": "sendEther",
      "outputs": [],
      "stateMutability": "payable",
      "type": "function"
    },
    {
      "inputs": [],
      "name": "getBalanceOfPaymentHandler",
      "outputs": [
        {
          "internalType": "uint256",
          "name": "",
          "type": "uint256"
        }
      ],
      "stateMutability": "view",
      "type": "function"
    },
    {
      "inputs": [],
      "name": "getPrice",
      "outputs": [
        {
          "internalType": "uint256",
          "name": "",
          "type": "uint256"
        }
      ],
      "stateMutability": "pure",
      "type": "function"
    },
    {
      "inputs": [
        {
          "internalType": "uint256",
          "name": "name",
          "type": "uint256"
        },
        {
          "internalType": "address payable",
          "name": "_address",
          "type": "address"
        }
      ],
      "name": "setAddresses",
      "outputs": [],
      "stateMutability": "nonpayable",
      "type": "function"
    }
  ],
  "bytecode": "0x60806040526002600b556002600c556006600d55605a600e556040518060800160405280600760009054906101000a900473ffffffffffffffffffffffffffffffffffffffff1673ffffffffffffffffffffffffffffffffffffffff1673ffffffffffffffffffffffffffffffffffffffff168152602001600860009054906101000a900473ffffffffffffffffffffffffffffffffffffffff1673ffffffffffffffffffffffffffffffffffffffff1673ffffffffffffffffffffffffffffffffffffffff168152602001600960009054906101000a900473ffffffffffffffffffffffffffffffffffffffff1673ffffffffffffffffffffffffffffffffffffffff1673ffffffffffffffffffffffffffffffffffffffff168152602001600a60009054906101000a900473ffffffffffffffffffffffffffffffffffffffff1673ffffffffffffffffffffffffffffffffffffffff1673ffffffffffffffffffffffffffffffffffffffff16815250600f90600462000183929190620006d8565b506040518060800160405280600b548152602001600c548152602001600d548152602001600e548152506010906004620001bf92919062000767565b50348015620001cd57600080fd5b50600f8054806020026020016040519081016040528092919081815260200182805480156200025257602002820191906000526020600020905b8160009054906101000a900473ffffffffffffffffffffffffffffffffffffffff1673ffffffffffffffffffffffffffffffffffffffff168152602001906001019080831162000207575b50505050506010805480602002602001604051908101604052809291908181526020018280548015620002a557602002820191906000526020600020905b81548152602001906001019080831162000290575b50505050508051825114620002f1576040517f08c379a0000000000000000000000000000000000000000000000000000000008152600401620002e8906200090c565b60405180910390fd5b600082511162000338576040517f08c379a00000000000000000000000000000000000000000000000000000000081526004016200032f9062000950565b60405180910390fd5b60005b8251811015620003a757620003918382815181106200035f576200035e62000abd565b5b60200260200101518383815181106200037d576200037c62000abd565b5b6020026020010151620003d060201b60201c565b80806200039e9062000a40565b9150506200033b565b505050620003ca620003be6200060a60201b60201c565b6200061260201b60201c565b62000c2b565b600073ffffffffffffffffffffffffffffffffffffffff168273ffffffffffffffffffffffffffffffffffffffff16141562000443576040517f08c379a00000000000000000000000000000000000000000000000000000000081526004016200043a90620008ea565b60405180910390fd5b6000811162000489576040517f08c379a0000000000000000000000000000000000000000000000000000000008152600401620004809062000972565b60405180910390fd5b6000600260008473ffffffffffffffffffffffffffffffffffffffff1673ffffffffffffffffffffffffffffffffffffffff16815260200190815260200160002054146200050e576040517f08c379a000000000000000000000000000000000000000000000000000000000815260040162000505906200092e565b60405180910390fd5b6004829080600181540180825580915050600190039060005260206000200160009091909190916101000a81548173ffffffffffffffffffffffffffffffffffffffff021916908373ffffffffffffffffffffffffffffffffffffffff16021790555080600260008473ffffffffffffffffffffffffffffffffffffffff1673ffffffffffffffffffffffffffffffffffffffff1681526020019081526020016000208190555080600054620005c59190620009a5565b6000819055507f40c340f65e17194d14ddddb073d3c9f888e3cb52b5aae0c6c7706b4fbc905fac8282604051620005fe929190620008bd565b60405180910390a15050565b600033905090565b6000600560009054906101000a900473ffffffffffffffffffffffffffffffffffffffff16905081600560006101000a81548173ffffffffffffffffffffffffffffffffffffffff021916908373ffffffffffffffffffffffffffffffffffffffff1602179055508173ffffffffffffffffffffffffffffffffffffffff168173ffffffffffffffffffffffffffffffffffffffff167f8be0079c531659141344cd1fd0a4f28419497f9722a3daafe3b4186f6b6457e060405160405180910390a35050565b82805482825590600052602060002090810192821562000754579160200282015b82811115620007535782518260006101000a81548173ffffffffffffffffffffffffffffffffffffffff021916908373ffffffffffffffffffffffffffffffffffffffff16021790555091602001919060010190620006f9565b5b509050620007639190620007b9565b5090565b828054828255906000526020600020908101928215620007a6579160200282015b82811115620007a557825182559160200191906001019062000788565b5b509050620007b59190620007b9565b5090565b5b80821115620007d4576000816000905550600101620007ba565b5090565b620007e38162000a02565b82525050565b6000620007f8602c8362000994565b9150620008058262000aec565b604082019050919050565b60006200081f60328362000994565b91506200082c8262000b3b565b604082019050919050565b600062000846602b8362000994565b9150620008538262000b8a565b604082019050919050565b60006200086d601a8362000994565b91506200087a8262000bd9565b602082019050919050565b600062000894601d8362000994565b9150620008a18262000c02565b602082019050919050565b620008b78162000a36565b82525050565b6000604082019050620008d46000830185620007d8565b620008e36020830184620008ac565b9392505050565b600060208201905081810360008301526200090581620007e9565b9050919050565b60006020820190508181036000830152620009278162000810565b9050919050565b60006020820190508181036000830152620009498162000837565b9050919050565b600060208201905081810360008301526200096b816200085e565b9050919050565b600060208201905081810360008301526200098d8162000885565b9050919050565b600082825260208201905092915050565b6000620009b28262000a36565b9150620009bf8362000a36565b9250827fffffffffffffffffffffffffffffffffffffffffffffffffffffffffffffffff03821115620009f757620009f662000a8e565b5b828201905092915050565b600062000a0f8262000a16565b9050919050565b600073ffffffffffffffffffffffffffffffffffffffff82169050919050565b6000819050919050565b600062000a4d8262000a36565b91507fffffffffffffffffffffffffffffffffffffffffffffffffffffffffffffffff82141562000a835762000a8262000a8e565b5b600182019050919050565b7f4e487b7100000000000000000000000000000000000000000000000000000000600052601160045260246000fd5b7f4e487b7100000000000000000000000000000000000000000000000000000000600052603260045260246000fd5b7f5061796d656e7453706c69747465723a206163636f756e74206973207468652060008201527f7a65726f20616464726573730000000000000000000000000000000000000000602082015250565b7f5061796d656e7453706c69747465723a2070617965657320616e64207368617260008201527f6573206c656e677468206d69736d617463680000000000000000000000000000602082015250565b7f5061796d656e7453706c69747465723a206163636f756e7420616c726561647960008201527f2068617320736861726573000000000000000000000000000000000000000000602082015250565b7f5061796d656e7453706c69747465723a206e6f20706179656573000000000000600082015250565b7f5061796d656e7453706c69747465723a20736861726573206172652030000000600082015250565b6114928062000c3b6000396000f3fe6080604052600436106100c65760003560e01c80638da5cb5b1161007f578063a332099911610059578063a332099914610280578063ce7c2ac2146102ab578063e33b7de3146102e8578063f2fde38b146103135761010d565b80638da5cb5b146101ed5780639852595c1461021857806398d5fdca146102555761010d565b80630e29df2214610112578063191655871461011c5780633a98ef3914610145578063715018a6146101705780638b83209b146101875780638bc4c430146101c45761010d565b3661010d577f6ef95f06320e7a25a04a175ca677b7052bdd97131872c2192525a629f51be7706100f461033c565b34604051610103929190610ef2565b60405180910390a1005b600080fd5b61011a610344565b005b34801561012857600080fd5b50610143600480360381019061013e9190610cba565b61042b565b005b34801561015157600080fd5b5061015a610693565b6040516101679190610ffb565b60405180910390f35b34801561017c57600080fd5b5061018561069c565b005b34801561019357600080fd5b506101ae60048036038101906101a99190610ce7565b610724565b6040516101bb9190610eae565b60405180910390f35b3480156101d057600080fd5b506101eb60048036038101906101e69190610d14565b61076c565b005b3480156101f957600080fd5b506102026108be565b60405161020f9190610eae565b60405180910390f35b34801561022457600080fd5b5061023f600480360381019061023a9190610c8d565b6108e8565b60405161024c9190610ffb565b60405180910390f35b34801561026157600080fd5b5061026a610931565b6040516102779190610ffb565b60405180910390f35b34801561028c57600080fd5b50610295610941565b6040516102a29190610ffb565b60405180910390f35b3480156102b757600080fd5b506102d260048036038101906102cd9190610c8d565b610949565b6040516102df9190610ffb565b60405180910390f35b3480156102f457600080fd5b506102fd610992565b60405161030a9190610ffb565b60405180910390f35b34801561031f57600080fd5b5061033a60048036038101906103359190610c8d565b61099c565b005b600033905090565b60003411610387576040517f08c379a000000000000000000000000000000000000000000000000000000000815260040161037e90610fbb565b60405180910390fd5b6729a2241af62c000034101561039c57600080fd5b34600660003373ffffffffffffffffffffffffffffffffffffffff1673ffffffffffffffffffffffffffffffffffffffff16815260200190815260200160002060008282546103eb9190611032565b925050819055507fa6b0203fa3a8d452c08da2a0668fac3ea878106f96be6e48e9832798b6bcf8eb336040516104219190610eae565b60405180910390a1565b6000600260008373ffffffffffffffffffffffffffffffffffffffff1673ffffffffffffffffffffffffffffffffffffffff16815260200190815260200160002054116104ad576040517f08c379a00000000000000000000000000000000000000000000000000000000081526004016104a490610f3b565b60405180910390fd5b6000600154476104bd9190611032565b90506000600360008473ffffffffffffffffffffffffffffffffffffffff1673ffffffffffffffffffffffffffffffffffffffff16815260200190815260200160002054600054600260008673ffffffffffffffffffffffffffffffffffffffff1673ffffffffffffffffffffffffffffffffffffffff168152602001908152602001600020548461054f91906110b9565b6105599190611088565b6105639190611113565b905060008114156105a9576040517f08c379a00000000000000000000000000000000000000000000000000000000081526004016105a090610f9b565b60405180910390fd5b80600360008573ffffffffffffffffffffffffffffffffffffffff1673ffffffffffffffffffffffffffffffffffffffff168152602001908152602001600020546105f49190611032565b600360008573ffffffffffffffffffffffffffffffffffffffff1673ffffffffffffffffffffffffffffffffffffffff16815260200190815260200160002081905550806001546106459190611032565b6001819055506106558382610a94565b7fdf20fd1e76bc69d672e4814fafb2c449bba3a5369d8359adf9e05e6fde87b0568382604051610686929190610ec9565b60405180910390a1505050565b60008054905090565b6106a461033c565b73ffffffffffffffffffffffffffffffffffffffff166106c26108be565b73ffffffffffffffffffffffffffffffffffffffff1614610718576040517f08c379a000000000000000000000000000000000000000000000000000000000815260040161070f90610fdb565b60405180910390fd5b6107226000610b88565b565b60006004828154811061073a57610739611229565b5b9060005260206000200160009054906101000a900473ffffffffffffffffffffffffffffffffffffffff169050919050565b60008060019050600060029050600060039050858414156107cd5784600760006101000a81548173ffffffffffffffffffffffffffffffffffffffff021916908373ffffffffffffffffffffffffffffffffffffffff1602179055506108b6565b8583141561081b5784600860006101000a81548173ffffffffffffffffffffffffffffffffffffffff021916908373ffffffffffffffffffffffffffffffffffffffff1602179055506108b5565b858214156108695784600960006101000a81548173ffffffffffffffffffffffffffffffffffffffff021916908373ffffffffffffffffffffffffffffffffffffffff1602179055506108b4565b858114156108b35784600a60006101000a81548173ffffffffffffffffffffffffffffffffffffffff021916908373ffffffffffffffffffffffffffffffffffffffff1602179055505b5b5b5b505050505050565b6000600560009054906101000a900473ffffffffffffffffffffffffffffffffffffffff16905090565b6000600360008373ffffffffffffffffffffffffffffffffffffffff1673ffffffffffffffffffffffffffffffffffffffff168152602001908152602001600020549050919050565b60006729a2241af62c0000905090565b600047905090565b6000600260008373ffffffffffffffffffffffffffffffffffffffff1673ffffffffffffffffffffffffffffffffffffffff168152602001908152602001600020549050919050565b6000600154905090565b6109a461033c565b73ffffffffffffffffffffffffffffffffffffffff166109c26108be565b73ffffffffffffffffffffffffffffffffffffffff1614610a18576040517f08c379a0000000000000000000000000000000000000000000000000000000008152600401610a0f90610fdb565b60405180910390fd5b600073ffffffffffffffffffffffffffffffffffffffff168173ffffffffffffffffffffffffffffffffffffffff161415610a88576040517f08c379a0000000000000000000000000000000000000000000000000000000008152600401610a7f90610f1b565b60405180910390fd5b610a9181610b88565b50565b80471015610ad7576040517f08c379a0000000000000000000000000000000000000000000000000000000008152600401610ace90610f7b565b60405180910390fd5b60008273ffffffffffffffffffffffffffffffffffffffff1682604051610afd90610e99565b60006040518083038185875af1925050503d8060008114610b3a576040519150601f19603f3d011682016040523d82523d6000602084013e610b3f565b606091505b5050905080610b83576040517f08c379a0000000000000000000000000000000000000000000000000000000008152600401610b7a90610f5b565b60405180910390fd5b505050565b6000600560009054906101000a900473ffffffffffffffffffffffffffffffffffffffff16905081600560006101000a81548173ffffffffffffffffffffffffffffffffffffffff021916908373ffffffffffffffffffffffffffffffffffffffff1602179055508173ffffffffffffffffffffffffffffffffffffffff168173ffffffffffffffffffffffffffffffffffffffff167f8be0079c531659141344cd1fd0a4f28419497f9722a3daafe3b4186f6b6457e060405160405180910390a35050565b600081359050610c5d81611417565b92915050565b600081359050610c728161142e565b92915050565b600081359050610c8781611445565b92915050565b600060208284031215610ca357610ca2611258565b5b6000610cb184828501610c4e565b91505092915050565b600060208284031215610cd057610ccf611258565b5b6000610cde84828501610c63565b91505092915050565b600060208284031215610cfd57610cfc611258565b5b6000610d0b84828501610c78565b91505092915050565b60008060408385031215610d2b57610d2a611258565b5b6000610d3985828601610c78565b9250506020610d4a85828601610c63565b9150509250929050565b610d5d81611195565b82525050565b610d6c81611147565b82525050565b6000610d7f602683611021565b9150610d8a8261125d565b604082019050919050565b6000610da2602683611021565b9150610dad826112ac565b604082019050919050565b6000610dc5603a83611021565b9150610dd0826112fb565b604082019050919050565b6000610de8601d83611021565b9150610df38261134a565b602082019050919050565b6000610e0b602b83611021565b9150610e1682611373565b604082019050919050565b6000610e2e601583611021565b9150610e39826113c2565b602082019050919050565b6000610e51602083611021565b9150610e5c826113eb565b602082019050919050565b6000610e74600083611016565b9150610e7f82611414565b600082019050919050565b610e938161118b565b82525050565b6000610ea482610e67565b9150819050919050565b6000602082019050610ec36000830184610d63565b92915050565b6000604082019050610ede6000830185610d54565b610eeb6020830184610e8a565b9392505050565b6000604082019050610f076000830185610d63565b610f146020830184610e8a565b9392505050565b60006020820190508181036000830152610f3481610d72565b9050919050565b60006020820190508181036000830152610f5481610d95565b9050919050565b60006020820190508181036000830152610f7481610db8565b9050919050565b60006020820190508181036000830152610f9481610ddb565b9050919050565b60006020820190508181036000830152610fb481610dfe565b9050919050565b60006020820190508181036000830152610fd481610e21565b9050919050565b60006020820190508181036000830152610ff481610e44565b9050919050565b60006020820190506110106000830184610e8a565b92915050565b600081905092915050565b600082825260208201905092915050565b600061103d8261118b565b91506110488361118b565b9250827fffffffffffffffffffffffffffffffffffffffffffffffffffffffffffffffff0382111561107d5761107c6111cb565b5b828201905092915050565b60006110938261118b565b915061109e8361118b565b9250826110ae576110ad6111fa565b5b828204905092915050565b60006110c48261118b565b91506110cf8361118b565b9250817fffffffffffffffffffffffffffffffffffffffffffffffffffffffffffffffff0483118215151615611108576111076111cb565b5b828202905092915050565b600061111e8261118b565b91506111298361118b565b92508282101561113c5761113b6111cb565b5b828203905092915050565b60006111528261116b565b9050919050565b60006111648261116b565b9050919050565b600073ffffffffffffffffffffffffffffffffffffffff82169050919050565b6000819050919050565b60006111a0826111a7565b9050919050565b60006111b2826111b9565b9050919050565b60006111c48261116b565b9050919050565b7f4e487b7100000000000000000000000000000000000000000000000000000000600052601160045260246000fd5b7f4e487b7100000000000000000000000000000000000000000000000000000000600052601260045260246000fd5b7f4e487b7100000000000000000000000000000000000000000000000000000000600052603260045260246000fd5b600080fd5b7f4f776e61626c653a206e6577206f776e657220697320746865207a65726f206160008201527f6464726573730000000000000000000000000000000000000000000000000000602082015250565b7f5061796d656e7453706c69747465723a206163636f756e7420686173206e6f2060008201527f7368617265730000000000000000000000000000000000000000000000000000602082015250565b7f416464726573733a20756e61626c6520746f2073656e642076616c75652c207260008201527f6563697069656e74206d61792068617665207265766572746564000000000000602082015250565b7f416464726573733a20696e73756666696369656e742062616c616e6365000000600082015250565b7f5061796d656e7453706c69747465723a206163636f756e74206973206e6f742060008201527f647565207061796d656e74000000000000000000000000000000000000000000602082015250565b7f5a65726f2046756e64732053656e74204572726f720000000000000000000000600082015250565b7f4f776e61626c653a2063616c6c6572206973206e6f7420746865206f776e6572600082015250565b50565b61142081611147565b811461142b57600080fd5b50565b61143781611159565b811461144257600080fd5b50565b61144e8161118b565b811461145957600080fd5b5056fea26469706673582212206b772b2cf06d6546a271f80ad39a318a837a1f3d9a0fd8aa2ea5915b2469b81964736f6c63430008070033",
  "immutableReferences": {},
  "source": "//SPDX-License-Identifier: UNLICENSED\npragma solidity ^0.8.0;\n\nimport \"@openzeppelin/contracts/finance/PaymentSplitter.sol\";\nimport \"@openzeppelin/contracts/utils/escrow/ConditionalEscrow.sol\";\nimport \"@openzeppelin/contracts/access/Ownable.sol\";\n\n\n//Need to set up ownable for contract\n//Need to create reserve function\n\ncontract PaymentHandler is PaymentSplitter, Ownable{\n\n    mapping(address => uint256) balances;\n    uint256 constant PRICE = 3 ether;\n    event fundsAccepted(address from);\n     \n    \n    /*\n        Need to add values to the following variables\n    */\n\n    address payable _Seb;\n    address payable _Zach;\n    address payable _Evan;\n    address payable _MakeAWish;\n\n    //Make Shares out of 100\n    uint256 _SebShares = 2;\n    uint256 _ZachShares = 2;\n    uint256 _EvanShares = 6;\n    uint256 _MakeAWishShares = 90;\n\n    address [] payees = [_Seb, _Zach, _Evan, _MakeAWish];\n    uint256[] shares_ = [_SebShares, _ZachShares, _EvanShares, _MakeAWishShares];\n\n    constructor() PaymentSplitter(payees, shares_) {}\n\n\n    //does this put the money into the constract? \n    function sendEther() public payable{\n        require(msg.value > 0 , \"Zero Funds Sent Error\");\n        if(msg.value < PRICE){ //cant we just require this\n            revert();\n        }\n        balances[msg.sender] += msg.value;\n        emit fundsAccepted(msg.sender);\n    }\n\n    //does this return the total balance in the contract? \n    function getBalanceOfPaymentHandler()\n    external\n    view\n    returns(uint256){\n        return address(this).balance;\n    }\n\n    //function \n    //pass in address of our wallets and MWF's wallet \n    //sends ether to those addresses\n    //emits an event saying \"PAID\" or something\n\n    function getPrice() \n    external pure\n    returns (uint256){\n        return PRICE;\n    }\n  \n    function releaseEther() internal {\n        require(_Seb !=  address(0), \"Address of Seb is not set\");\n        require(_Zach != address(0), \"Address of Zach is not set\");\n        require(_Evan != address(0), \"Address of Evan is not set\");\n        require(_MakeAWish != address(0), \"Address of Make A Wish is not set\");\n        \n        release(_Seb);\n        release(_Zach); \n        release(_Evan); \n        release(_MakeAWish);\n    }\n\n    function setAddresses(uint name, address payable _address) public {\n        uint Seb = 0; \n        uint Zach = 1; \n        uint Evan = 2; \n        uint MakeAWish = 3; \n        //keccak256(bytes(a)) == keccak256(bytes(b));\n\n        if (Seb == name) \n            _Seb = _address; \n        else if (Zach == name)\n            _Zach = _address; \n        else if (Evan == name)\n            _Evan = _address; \n        else if (MakeAWish == name)\n            _MakeAWish = _address; \n\n    }\n}\n",
  "sourcePath": "/Users/zlederman/Documents/Code/js/truffle-react/contracts/PaymentHandler.sol",
  "compiler": {
    "name": "solc",
    "version": "0.8.7+commit.e28d00a7.Emscripten.clang"
  },
  "schemaVersion": "3.4.2",
  "updatedAt": "2021-08-31T22:30:06.121Z",
  "devdoc": {
    "kind": "dev",
    "methods": {
      "owner()": {
        "details": "Returns the address of the current owner."
      },
      "payee(uint256)": {
        "details": "Getter for the address of the payee number `index`."
      },
      "release(address)": {
        "details": "Triggers a transfer to `account` of the amount of Ether they are owed, according to their percentage of the total shares and their previous withdrawals."
      },
      "released(address)": {
        "details": "Getter for the amount of Ether already released to a payee."
      },
      "renounceOwnership()": {
        "details": "Leaves the contract without owner. It will not be possible to call `onlyOwner` functions anymore. Can only be called by the current owner. NOTE: Renouncing ownership will leave the contract without an owner, thereby removing any functionality that is only available to the owner."
      },
      "shares(address)": {
        "details": "Getter for the amount of shares held by an account."
      },
      "totalReleased()": {
        "details": "Getter for the total amount of Ether already released."
      },
      "totalShares()": {
        "details": "Getter for the total shares held by payees."
      },
      "transferOwnership(address)": {
        "details": "Transfers ownership of the contract to a new account (`newOwner`). Can only be called by the current owner."
      }
    },
    "version": 1
  },
  "userdoc": {
    "kind": "user",
    "methods": {},
    "version": 1
  }
}