{
  "contractName": "PaymentHandler",
  "abi": [
    {
      "inputs": [
        {
          "internalType": "address",
          "name": "tokenAddress",
          "type": "address"
        },
        {
          "internalType": "address[]",
          "name": "payees",
          "type": "address[]"
        },
        {
          "internalType": "bytes32",
          "name": "_LINK_KEY_HASH",
          "type": "bytes32"
        },
        {
          "internalType": "address",
          "name": "_LINK_ADDRESS",
          "type": "address"
        },
        {
          "internalType": "address",
          "name": "_LINK_VRF_COORDINATOR_ADDRESS",
          "type": "address"
        }
      ],
      "stateMutability": "nonpayable",
      "type": "constructor"
    },
    {
      "anonymous": false,
      "inputs": [
        {
          "indexed": false,
          "internalType": "address",
          "name": "account",
          "type": "address"
        },
        {
          "indexed": false,
          "internalType": "uint256",
          "name": "shares",
          "type": "uint256"
        }
      ],
      "name": "PayeeAdded",
      "type": "event"
    },
    {
      "anonymous": false,
      "inputs": [
        {
          "indexed": false,
          "internalType": "address",
          "name": "from",
          "type": "address"
        },
        {
          "indexed": false,
          "internalType": "uint256",
          "name": "amount",
          "type": "uint256"
        }
      ],
      "name": "PaymentReceived",
      "type": "event"
    },
    {
      "anonymous": false,
      "inputs": [
        {
          "indexed": false,
          "internalType": "address",
          "name": "to",
          "type": "address"
        },
        {
          "indexed": false,
          "internalType": "uint256",
          "name": "amount",
          "type": "uint256"
        }
      ],
      "name": "PaymentReleased",
      "type": "event"
    },
    {
      "anonymous": false,
      "inputs": [
        {
          "indexed": false,
          "internalType": "address",
          "name": "from",
          "type": "address"
        },
        {
          "indexed": false,
          "internalType": "uint16",
          "name": "numTokens",
          "type": "uint16"
        },
        {
          "indexed": false,
          "internalType": "uint256",
          "name": "lastIndex",
          "type": "uint256"
        }
      ],
      "name": "enteredRaffle",
      "type": "event"
    },
    {
      "anonymous": false,
      "inputs": [
        {
          "indexed": false,
          "internalType": "address",
          "name": "from",
          "type": "address"
        }
      ],
      "name": "fundsAccepted",
      "type": "event"
    },
    {
      "anonymous": false,
      "inputs": [
        {
          "indexed": false,
          "internalType": "uint256",
          "name": "totalEntries",
          "type": "uint256"
        }
      ],
      "name": "raffleShuffled",
      "type": "event"
    },
    {
      "anonymous": false,
      "inputs": [
        {
          "indexed": false,
          "internalType": "address",
          "name": "user",
          "type": "address"
        },
        {
          "indexed": false,
          "internalType": "uint16",
          "name": "winningTicketCount",
          "type": "uint16"
        }
      ],
      "name": "ticketsRedeemed",
      "type": "event"
    },
    {
      "inputs": [],
      "name": "LINK_TOKEN",
      "outputs": [
        {
          "internalType": "contract IERC20",
          "name": "",
          "type": "address"
        }
      ],
      "stateMutability": "view",
      "type": "function",
      "constant": true
    },
    {
      "inputs": [
        {
          "internalType": "uint256",
          "name": "index",
          "type": "uint256"
        }
      ],
      "name": "payee",
      "outputs": [
        {
          "internalType": "address",
          "name": "",
          "type": "address"
        }
      ],
      "stateMutability": "view",
      "type": "function",
      "constant": true
    },
    {
      "inputs": [],
      "name": "randomnessOutput",
      "outputs": [
        {
          "internalType": "uint256",
          "name": "",
          "type": "uint256"
        }
      ],
      "stateMutability": "view",
      "type": "function",
      "constant": true
    },
    {
      "inputs": [
        {
          "internalType": "bytes32",
          "name": "requestId",
          "type": "bytes32"
        },
        {
          "internalType": "uint256",
          "name": "randomness",
          "type": "uint256"
        }
      ],
      "name": "rawFulfillRandomness",
      "outputs": [],
      "stateMutability": "nonpayable",
      "type": "function"
    },
    {
      "inputs": [
        {
          "internalType": "address payable",
          "name": "account",
          "type": "address"
        }
      ],
      "name": "release",
      "outputs": [],
      "stateMutability": "nonpayable",
      "type": "function"
    },
    {
      "inputs": [
        {
          "internalType": "address",
          "name": "account",
          "type": "address"
        }
      ],
      "name": "released",
      "outputs": [
        {
          "internalType": "uint256",
          "name": "",
          "type": "uint256"
        }
      ],
      "stateMutability": "view",
      "type": "function",
      "constant": true
    },
    {
      "inputs": [],
      "name": "requestId",
      "outputs": [
        {
          "internalType": "bytes32",
          "name": "",
          "type": "bytes32"
        }
      ],
      "stateMutability": "view",
      "type": "function",
      "constant": true
    },
    {
      "inputs": [
        {
          "internalType": "address",
          "name": "account",
          "type": "address"
        }
      ],
      "name": "shares",
      "outputs": [
        {
          "internalType": "uint256",
          "name": "",
          "type": "uint256"
        }
      ],
      "stateMutability": "view",
      "type": "function",
      "constant": true
    },
    {
      "inputs": [],
      "name": "totalReleased",
      "outputs": [
        {
          "internalType": "uint256",
          "name": "",
          "type": "uint256"
        }
      ],
      "stateMutability": "view",
      "type": "function",
      "constant": true
    },
    {
      "inputs": [],
      "name": "totalShares",
      "outputs": [
        {
          "internalType": "uint256",
          "name": "",
          "type": "uint256"
        }
      ],
      "stateMutability": "view",
      "type": "function",
      "constant": true
    },
    {
      "stateMutability": "payable",
      "type": "receive",
      "payable": true
    },
    {
      "inputs": [
        {
          "internalType": "uint16",
          "name": "numTokens",
          "type": "uint16"
        }
      ],
      "name": "enterRaffle",
      "outputs": [],
      "stateMutability": "nonpayable",
      "type": "function"
    },
    {
      "inputs": [],
      "name": "shuffleEntries",
      "outputs": [],
      "stateMutability": "nonpayable",
      "type": "function"
    },
    {
      "inputs": [],
      "name": "setEntropy",
      "outputs": [],
      "stateMutability": "nonpayable",
      "type": "function"
    },
    {
      "inputs": [],
      "name": "recieveTokens",
      "outputs": [],
      "stateMutability": "nonpayable",
      "type": "function"
    },
    {
      "inputs": [
        {
          "internalType": "uint16[]",
          "name": "tickets",
          "type": "uint16[]"
        }
      ],
      "name": "isWinner",
      "outputs": [],
      "stateMutability": "nonpayable",
      "type": "function"
    },
    {
      "inputs": [],
      "name": "getTokenAddress",
      "outputs": [
        {
          "internalType": "address",
          "name": "",
          "type": "address"
        }
      ],
      "stateMutability": "view",
      "type": "function",
      "constant": true
    },
    {
      "inputs": [],
      "name": "getBalanceOfPaymentHandler",
      "outputs": [
        {
          "internalType": "uint256",
          "name": "",
          "type": "uint256"
        }
      ],
      "stateMutability": "view",
      "type": "function",
      "constant": true
    },
    {
      "inputs": [
        {
          "internalType": "address",
          "name": "user",
          "type": "address"
        }
      ],
      "name": "getTokensRequested",
      "outputs": [
        {
          "internalType": "uint16",
          "name": "",
          "type": "uint16"
        }
      ],
      "stateMutability": "view",
      "type": "function",
      "constant": true
    },
    {
      "inputs": [],
      "name": "getPrice",
      "outputs": [
        {
          "internalType": "uint256",
          "name": "",
          "type": "uint256"
        }
      ],
      "stateMutability": "pure",
      "type": "function",
      "constant": true
    },
    {
      "inputs": [],
      "name": "getContractState",
      "outputs": [
        {
          "internalType": "enum PaymentHandler.ContractState",
          "name": "",
          "type": "uint8"
        }
      ],
      "stateMutability": "view",
      "type": "function",
      "constant": true
    },
    {
      "inputs": [
        {
          "internalType": "uint256",
          "name": "state",
          "type": "uint256"
        }
      ],
      "name": "setContractState",
      "outputs": [
        {
          "internalType": "bool",
          "name": "",
          "type": "bool"
        }
      ],
      "stateMutability": "nonpayable",
      "type": "function"
    }
  ],
  "bytecode": "0x6101e0604052600061ffff166101009061ffff16815250600261ffff166101209061ffff16815250600161ffff166101409061ffff16815250600361ffff166101609061ffff16815250666a94d74f4300006101809081525061271067ffffffffffffffff166101a09067ffffffffffffffff16815250605a61ffff166101c09061ffff168152506000600960006101000a81548160ff0219169083151502179055506000600960016101000a81548160ff0219169083151502179055506002600b60146101000a81548161ffff021916908361ffff1602179055506002600b60166101000a81548161ffff021916908361ffff1602179055506006600b60186101000a81548161ffff021916908361ffff160217905550605a600b601a6101000a81548161ffff021916908361ffff1602179055506000600d60006101000a81548173ffffffffffffffffffffffffffffffffffffffff021916908373ffffffffffffffffffffffffffffffffffffffff1602179055506040518060800160405280600b60149054906101000a900461ffff1661ffff1661ffff168152602001600b60169054906101000a900461ffff1661ffff1661ffff168152602001600b60189054906101000a900461ffff1661ffff1661ffff168152602001600b601a9054906101000a900461ffff1661ffff1661ffff16815250600e9060046200020a9291906200074d565b503480156200021857600080fd5b50604051620043063803806200430683398181016040528101906200023e9190620009ed565b808285600e8054806020026020016040519081016040528092919081815260200182805480156200028f57602002820191906000526020600020905b8154815260200190600101908083116200027a575b50505050508051825114620002db576040517f08c379a0000000000000000000000000000000000000000000000000000000008152600401620002d29062000b1b565b60405180910390fd5b600082511162000322576040517f08c379a0000000000000000000000000000000000000000000000000000000008152600401620003199062000b8d565b60405180910390fd5b60005b825181101562000391576200037b83828151811062000349576200034862000baf565b5b602002602001015183838151811062000367576200036662000baf565b5b60200260200101516200051360201b60201c565b8080620003889062000c17565b91505062000325565b5050508173ffffffffffffffffffffffffffffffffffffffff1660a08173ffffffffffffffffffffffffffffffffffffffff16815250508073ffffffffffffffffffffffffffffffffffffffff1660808173ffffffffffffffffffffffffffffffffffffffff168152505050508173ffffffffffffffffffffffffffffffffffffffff1660c08173ffffffffffffffffffffffffffffffffffffffff16815250508260e0818152505084600b60006101000a81548173ffffffffffffffffffffffffffffffffffffffff021916908373ffffffffffffffffffffffffffffffffffffffff1602179055508360038151811062000492576200049162000baf565b5b6020026020010151600d60006101000a81548173ffffffffffffffffffffffffffffffffffffffff021916908373ffffffffffffffffffffffffffffffffffffffff1602179055506001600660006101000a81548160ff0219169083600481111562000503576200050262000c65565b5b0217905550505050505062000ee2565b600073ffffffffffffffffffffffffffffffffffffffff168273ffffffffffffffffffffffffffffffffffffffff16141562000586576040517f08c379a00000000000000000000000000000000000000000000000000000000081526004016200057d9062000d0a565b60405180910390fd5b60008111620005cc576040517f08c379a0000000000000000000000000000000000000000000000000000000008152600401620005c39062000d7c565b60405180910390fd5b6000600260008473ffffffffffffffffffffffffffffffffffffffff1673ffffffffffffffffffffffffffffffffffffffff168152602001908152602001600020541462000651576040517f08c379a0000000000000000000000000000000000000000000000000000000008152600401620006489062000e14565b60405180910390fd5b6004829080600181540180825580915050600190039060005260206000200160009091909190916101000a81548173ffffffffffffffffffffffffffffffffffffffff021916908373ffffffffffffffffffffffffffffffffffffffff16021790555080600260008473ffffffffffffffffffffffffffffffffffffffff1673ffffffffffffffffffffffffffffffffffffffff168152602001908152602001600020819055508060005462000708919062000e36565b6000819055507f40c340f65e17194d14ddddb073d3c9f888e3cb52b5aae0c6c7706b4fbc905fac82826040516200074192919062000eb5565b60405180910390a15050565b82805482825590600052602060002090810192821562000792579160200282015b8281111562000791578251829061ffff169055916020019190600101906200076e565b5b509050620007a19190620007a5565b5090565b5b80821115620007c0576000816000905550600101620007a6565b5090565b6000604051905090565b600080fd5b600080fd5b600073ffffffffffffffffffffffffffffffffffffffff82169050919050565b60006200080582620007d8565b9050919050565b6200081781620007f8565b81146200082357600080fd5b50565b60008151905062000837816200080c565b92915050565b600080fd5b6000601f19601f8301169050919050565b7f4e487b7100000000000000000000000000000000000000000000000000000000600052604160045260246000fd5b6200088d8262000842565b810181811067ffffffffffffffff82111715620008af57620008ae62000853565b5b80604052505050565b6000620008c4620007c4565b9050620008d2828262000882565b919050565b600067ffffffffffffffff821115620008f557620008f462000853565b5b602082029050602081019050919050565b600080fd5b6000620009226200091c84620008d7565b620008b8565b9050808382526020820190506020840283018581111562000948576200094762000906565b5b835b8181101562000975578062000960888262000826565b8452602084019350506020810190506200094a565b5050509392505050565b600082601f8301126200099757620009966200083d565b5b8151620009a98482602086016200090b565b91505092915050565b6000819050919050565b620009c781620009b2565b8114620009d357600080fd5b50565b600081519050620009e781620009bc565b92915050565b600080600080600060a0868803121562000a0c5762000a0b620007ce565b5b600062000a1c8882890162000826565b955050602086015167ffffffffffffffff81111562000a405762000a3f620007d3565b5b62000a4e888289016200097f565b945050604062000a6188828901620009d6565b935050606062000a748882890162000826565b925050608062000a878882890162000826565b9150509295509295909350565b600082825260208201905092915050565b7f5061796d656e7453706c69747465723a2070617965657320616e64207368617260008201527f6573206c656e677468206d69736d617463680000000000000000000000000000602082015250565b600062000b0360328362000a94565b915062000b108262000aa5565b604082019050919050565b6000602082019050818103600083015262000b368162000af4565b9050919050565b7f5061796d656e7453706c69747465723a206e6f20706179656573000000000000600082015250565b600062000b75601a8362000a94565b915062000b828262000b3d565b602082019050919050565b6000602082019050818103600083015262000ba88162000b66565b9050919050565b7f4e487b7100000000000000000000000000000000000000000000000000000000600052603260045260246000fd5b7f4e487b7100000000000000000000000000000000000000000000000000000000600052601160045260246000fd5b6000819050919050565b600062000c248262000c0d565b91507fffffffffffffffffffffffffffffffffffffffffffffffffffffffffffffffff82141562000c5a5762000c5962000bde565b5b600182019050919050565b7f4e487b7100000000000000000000000000000000000000000000000000000000600052602160045260246000fd5b7f5061796d656e7453706c69747465723a206163636f756e74206973207468652060008201527f7a65726f20616464726573730000000000000000000000000000000000000000602082015250565b600062000cf2602c8362000a94565b915062000cff8262000c94565b604082019050919050565b6000602082019050818103600083015262000d258162000ce3565b9050919050565b7f5061796d656e7453706c69747465723a20736861726573206172652030000000600082015250565b600062000d64601d8362000a94565b915062000d718262000d2c565b602082019050919050565b6000602082019050818103600083015262000d978162000d55565b9050919050565b7f5061796d656e7453706c69747465723a206163636f756e7420616c726561647960008201527f2068617320736861726573000000000000000000000000000000000000000000602082015250565b600062000dfc602b8362000a94565b915062000e098262000d9e565b604082019050919050565b6000602082019050818103600083015262000e2f8162000ded565b9050919050565b600062000e438262000c0d565b915062000e508362000c0d565b9250827fffffffffffffffffffffffffffffffffffffffffffffffffffffffffffffffff0382111562000e885762000e8762000bde565b5b828201905092915050565b62000e9e81620007f8565b82525050565b62000eaf8162000c0d565b82525050565b600060408201905062000ecc600083018562000e93565b62000edb602083018462000ea4565b9392505050565b60805160a05160c05160e05161010051610120516101405161016051610180516101a0516101c05161337862000f8e6000396000610e58015260008181610a9401528181610dd40152818161126b015281816112dc015281816115a60152611c3e0152600081816111c7015261174101526000505060005050600050506000505060006109db015260006118640152600081816110e00152611af601526000611aba01526133786000f3fe60806040526004361061012d5760003560e01c806386c5c977116100ab578063a33209991161006f578063a3320999146103f2578063b78e691e1461041d578063ce7c2ac214610446578063e33b7de314610483578063eedac3a6146104ae578063fb7265ff146104d957610174565b806386c5c977146102fb5780638b83209b1461032457806394985ddd146103615780639852595c1461038a57806398d5fdca146103c757610174565b806329dfaf0d116100f257806329dfaf0d1461024c5780632f47fd86146102635780633a98ef391461028e5780635fd2ede5146102b95780637f4e4849146102d057610174565b80626d6cae1461017957806310fe9ae8146101a45780631696f941146101cf578063191655871461020c57806323ba07b61461023557610174565b36610174577f6ef95f06320e7a25a04a175ca677b7052bdd97131872c2192525a629f51be77061015b610516565b3460405161016a929190611dec565b60405180910390a1005b600080fd5b34801561018557600080fd5b5061018e61051e565b60405161019b9190611e2e565b60405180910390f35b3480156101b057600080fd5b506101b9610524565b6040516101c69190611e49565b60405180910390f35b3480156101db57600080fd5b506101f660048036038101906101f19190611e9a565b61054e565b6040516102039190611ee4565b60405180910390f35b34801561021857600080fd5b50610233600480360381019061022e9190611f3d565b6106a8565b005b34801561024157600080fd5b5061024a610910565b005b34801561025857600080fd5b50610261610a0b565b005b34801561026f57600080fd5b50610278610a0d565b6040516102859190611f6a565b60405180910390f35b34801561029a57600080fd5b506102a3610a13565b6040516102b09190611f6a565b60405180910390f35b3480156102c557600080fd5b506102ce610a1c565b005b3480156102dc57600080fd5b506102e5610d45565b6040516102f29190611ffc565b60405180910390f35b34801561030757600080fd5b50610322600480360381019061031d9190612043565b610d5c565b005b34801561033057600080fd5b5061034b6004803603810190610346919061209c565b611096565b6040516103589190611e49565b60405180910390f35b34801561036d57600080fd5b50610388600480360381019061038391906120f5565b6110de565b005b34801561039657600080fd5b506103b160048036038101906103ac9190611e9a565b61117a565b6040516103be9190611f6a565b60405180910390f35b3480156103d357600080fd5b506103dc6111c3565b6040516103e99190611f6a565b60405180910390f35b3480156103fe57600080fd5b506104076111eb565b6040516104149190611f6a565b60405180910390f35b34801561042957600080fd5b50610444600480360381019061043f919061219a565b6111f3565b005b34801561045257600080fd5b5061046d60048036038101906104689190611e9a565b61180f565b60405161047a9190611f6a565b60405180910390f35b34801561048f57600080fd5b50610498611858565b6040516104a59190611f6a565b60405180910390f35b3480156104ba57600080fd5b506104c3611862565b6040516104d09190612246565b60405180910390f35b3480156104e557600080fd5b5061050060048036038101906104fb919061209c565b611886565b60405161050d919061227c565b60405180910390f35b600033905090565b60085481565b6000600b60009054906101000a900473ffffffffffffffffffffffffffffffffffffffff16905090565b60008073ffffffffffffffffffffffffffffffffffffffff168273ffffffffffffffffffffffffffffffffffffffff1614156105bf576040517f08c379a00000000000000000000000000000000000000000000000000000000081526004016105b6906122f4565b60405180910390fd5b6000600f60008473ffffffffffffffffffffffffffffffffffffffff1673ffffffffffffffffffffffffffffffffffffffff16815260200190815260200160002060009054906101000a900461ffff1661ffff1611610653576040517f08c379a000000000000000000000000000000000000000000000000000000000815260040161064a90612360565b60405180910390fd5b600f60008373ffffffffffffffffffffffffffffffffffffffff1673ffffffffffffffffffffffffffffffffffffffff16815260200190815260200160002060009054906101000a900461ffff169050919050565b6000600260008373ffffffffffffffffffffffffffffffffffffffff1673ffffffffffffffffffffffffffffffffffffffff168152602001908152602001600020541161072a576040517f08c379a0000000000000000000000000000000000000000000000000000000008152600401610721906123f2565b60405180910390fd5b60006001544761073a9190612441565b90506000600360008473ffffffffffffffffffffffffffffffffffffffff1673ffffffffffffffffffffffffffffffffffffffff16815260200190815260200160002054600054600260008673ffffffffffffffffffffffffffffffffffffffff1673ffffffffffffffffffffffffffffffffffffffff16815260200190815260200160002054846107cc9190612497565b6107d69190612520565b6107e09190612551565b90506000811415610826576040517f08c379a000000000000000000000000000000000000000000000000000000000815260040161081d906125f7565b60405180910390fd5b80600360008573ffffffffffffffffffffffffffffffffffffffff1673ffffffffffffffffffffffffffffffffffffffff168152602001908152602001600020546108719190612441565b600360008573ffffffffffffffffffffffffffffffffffffffff1673ffffffffffffffffffffffffffffffffffffffff16815260200190815260200160002081905550806001546108c29190612441565b6001819055506108d283826119c2565b7fdf20fd1e76bc69d672e4814fafb2c449bba3a5369d8359adf9e05e6fde87b0568382604051610903929190612638565b60405180910390a1505050565b6002600481111561092457610923611f85565b5b600660009054906101000a900460ff16600481111561094657610945611f85565b5b14610986576040517f08c379a000000000000000000000000000000000000000000000000000000000815260040161097d906126ad565b60405180910390fd5b600960019054906101000a900460ff16156109d6576040517f08c379a00000000000000000000000000000000000000000000000000000000081526004016109cd90612719565b60405180910390fd5b610a087f0000000000000000000000000000000000000000000000000000000000000000671bc16d674ec80000611ab6565b50565b565b60075481565b60008054905090565b60026004811115610a3057610a2f611f85565b5b600660009054906101000a900460ff166004811115610a5257610a51611f85565b5b14610a92576040517f08c379a0000000000000000000000000000000000000000000000000000000008152600401610a8990612785565b60405180910390fd5b7f000000000000000000000000000000000000000000000000000000000000000067ffffffffffffffff16610ac7600a611c18565b11610b07576040517f08c379a0000000000000000000000000000000000000000000000000000000008152600401610afe906127f1565b60405180910390fd5b600960019054906101000a900460ff16610b56576040517f08c379a0000000000000000000000000000000000000000000000000000000008152600401610b4d9061285d565b60405180910390fd5b60005b610b63600a611c18565b811015610ceb57600081610b77600a611c18565b610b819190612551565b600c54610b8e919061287d565b82610b999190612441565b9050600060118281548110610bb157610bb06128ae565b5b9060005260206000200160009054906101000a900473ffffffffffffffffffffffffffffffffffffffff16905060118381548110610bf257610bf16128ae565b5b9060005260206000200160009054906101000a900473ffffffffffffffffffffffffffffffffffffffff1660118381548110610c3157610c306128ae565b5b9060005260206000200160006101000a81548173ffffffffffffffffffffffffffffffffffffffff021916908373ffffffffffffffffffffffffffffffffffffffff1602179055508060118481548110610c8e57610c8d6128ae565b5b9060005260206000200160006101000a81548173ffffffffffffffffffffffffffffffffffffffff021916908373ffffffffffffffffffffffffffffffffffffffff16021790555050508080610ce3906128dd565b915050610b59565b506001600960006101000a81548160ff0219169083151502179055507f97e4e5f083f1b7f83da9a614c9b2c912c45bb2959d0c901dcb0e27a6ee09c5d4601180549050604051610d3b9190611f6a565b60405180910390a1565b6000600660009054906101000a900460ff16905090565b60016004811115610d7057610d6f611f85565b5b600660009054906101000a900460ff166004811115610d9257610d91611f85565b5b14610dd2576040517f08c379a0000000000000000000000000000000000000000000000000000000008152600401610dc990612972565b60405180910390fd5b7f000000000000000000000000000000000000000000000000000000000000000067ffffffffffffffff16610e07600a611c18565b8261ffff16610e169190612441565b10610e56576040517f08c379a0000000000000000000000000000000000000000000000000000000008152600401610e4d906129de565b60405180910390fd5b7f000000000000000000000000000000000000000000000000000000000000000061ffff1681600f60003373ffffffffffffffffffffffffffffffffffffffff1673ffffffffffffffffffffffffffffffffffffffff16815260200190815260200160002060009054906101000a900461ffff16610ed491906129fe565b61ffff1610610f18576040517f08c379a0000000000000000000000000000000000000000000000000000000008152600401610f0f906129de565b60405180910390fd5b80600f60003373ffffffffffffffffffffffffffffffffffffffff1673ffffffffffffffffffffffffffffffffffffffff16815260200190815260200160002060006101000a81548161ffff021916908361ffff16021790555060005b8161ffff16811015611001576011339080600181540180825580915050600190039060005260206000200160009091909190916101000a81548173ffffffffffffffffffffffffffffffffffffffff021916908373ffffffffffffffffffffffffffffffffffffffff160217905550610fee600a611c26565b8080610ff9906128dd565b915050610f75565b507f0caab1a325caae32148db4a8c14466a83a84b5e074b83e4dced52ea46c6b003f33600f60003373ffffffffffffffffffffffffffffffffffffffff1673ffffffffffffffffffffffffffffffffffffffff16815260200190815260200160002060009054906101000a900461ffff1661107c600a611c18565b60405161108b93929190612a36565b60405180910390a150565b6000600482815481106110ac576110ab6128ae565b5b9060005260206000200160009054906101000a900473ffffffffffffffffffffffffffffffffffffffff169050919050565b7f000000000000000000000000000000000000000000000000000000000000000073ffffffffffffffffffffffffffffffffffffffff163373ffffffffffffffffffffffffffffffffffffffff161461116c576040517f08c379a000000000000000000000000000000000000000000000000000000000815260040161116390612ab9565b60405180910390fd5b6111768282611c3c565b5050565b6000600360008373ffffffffffffffffffffffffffffffffffffffff1673ffffffffffffffffffffffffffffffffffffffff168152602001908152602001600020549050919050565b60007f0000000000000000000000000000000000000000000000000000000000000000905090565b600047905090565b6003600481111561120757611206611f85565b5b600660009054906101000a900460ff16600481111561122957611228611f85565b5b14611269576040517f08c379a000000000000000000000000000000000000000000000000000000000815260040161126090612b25565b60405180910390fd5b7f000000000000000000000000000000000000000000000000000000000000000067ffffffffffffffff16601180549050116112da576040517f08c379a00000000000000000000000000000000000000000000000000000000081526004016112d190612b91565b60405180910390fd5b7f000000000000000000000000000000000000000000000000000000000000000067ffffffffffffffff16601180549050111561136157600960009054906101000a900460ff16611360576040517f08c379a000000000000000000000000000000000000000000000000000000000815260040161135790612c23565b60405180910390fd5b5b6000805b8383905081101561171657601180549050848483818110611389576113886128ae565b5b905060200201602081019061139e9190612043565b61ffff16106113e2576040517f08c379a00000000000000000000000000000000000000000000000000000000081526004016113d990612c8f565b60405180910390fd5b601060008585848181106113f9576113f86128ae565b5b905060200201602081019061140e9190612043565b61ffff1661ffff16815260200190815260200160002060009054906101000a900460ff1615611472576040517f08c379a000000000000000000000000000000000000000000000000000000000815260040161146990612d21565b60405180910390fd5b3373ffffffffffffffffffffffffffffffffffffffff16601185858481811061149e5761149d6128ae565b5b90506020020160208101906114b39190612043565b61ffff16815481106114c8576114c76128ae565b5b9060005260206000200160009054906101000a900473ffffffffffffffffffffffffffffffffffffffff1673ffffffffffffffffffffffffffffffffffffffff1614611549576040517f08c379a000000000000000000000000000000000000000000000000000000000815260040161154090612d8d565b60405180910390fd5b600160106000868685818110611562576115616128ae565b5b90506020020160208101906115779190612043565b61ffff1661ffff16815260200190815260200160002060006101000a81548160ff0219169083151502179055507f000000000000000000000000000000000000000000000000000000000000000067ffffffffffffffff168484838181106115e2576115e16128ae565b5b90506020020160208101906115f79190612043565b61ffff161015611703576000600b60009054906101000a900473ffffffffffffffffffffffffffffffffffffffff1673ffffffffffffffffffffffffffffffffffffffff16638d69f541336040518263ffffffff1660e01b815260040161165e9190611e49565b602060405180830381600087803b15801561167857600080fd5b505af115801561168c573d6000803e3d6000fd5b505050506040513d601f19601f820116820180604052508101906116b09190612dd9565b9050806116f2576040517f08c379a00000000000000000000000000000000000000000000000000000000081526004016116e990612e52565b60405180910390fd5b6001836116ff91906129fe565b9250505b808061170e906128dd565b915050611365565b50828290508161ffff1610156117d15760003373ffffffffffffffffffffffffffffffffffffffff167f00000000000000000000000000000000000000000000000000000000000000008361ffff16868690506117739190612551565b61177d9190612497565b60405161178990612ea3565b60006040518083038185875af1925050503d80600081146117c6576040519150601f19603f3d011682016040523d82523d6000602084013e6117cb565b606091505b50509050505b7fbc3d344f5bd6ab932d64c6cb48435488a62f7fc8655b16b3d6d9aedf6d54fffa3382604051611802929190612eb8565b60405180910390a1505050565b6000600260008373ffffffffffffffffffffffffffffffffffffffff1673ffffffffffffffffffffffffffffffffffffffff168152602001908152602001600020549050919050565b6000600154905090565b7f000000000000000000000000000000000000000000000000000000000000000081565b6000600682106118cb576040517f08c379a00000000000000000000000000000000000000000000000000000000081526004016118c290612f2d565b60405180910390fd5b6000821161190e576040517f08c379a000000000000000000000000000000000000000000000000000000000815260040161190590612f2d565b60405180910390fd5b6001600660009054906101000a900460ff16600481111561193257611931611f85565b5b61193c9190612441565b821461197d576040517f08c379a000000000000000000000000000000000000000000000000000000000815260040161197490612f99565b60405180910390fd5b8160048111156119905761198f611f85565b5b600660006101000a81548160ff021916908360048111156119b4576119b3611f85565b5b021790555060019050919050565b80471015611a05576040517f08c379a00000000000000000000000000000000000000000000000000000000081526004016119fc90613005565b60405180910390fd5b60008273ffffffffffffffffffffffffffffffffffffffff1682604051611a2b90612ea3565b60006040518083038185875af1925050503d8060008114611a68576040519150601f19603f3d011682016040523d82523d6000602084013e611a6d565b606091505b5050905080611ab1576040517f08c379a0000000000000000000000000000000000000000000000000000000008152600401611aa890613097565b60405180910390fd5b505050565b60007f000000000000000000000000000000000000000000000000000000000000000073ffffffffffffffffffffffffffffffffffffffff16634000aea07f000000000000000000000000000000000000000000000000000000000000000084866000604051602001611b2a9291906130b7565b6040516020818303038152906040526040518463ffffffff1660e01b8152600401611b5793929190613179565b602060405180830381600087803b158015611b7157600080fd5b505af1158015611b85573d6000803e3d6000fd5b505050506040513d601f19601f82011682018060405250810190611ba99190612dd9565b506000611bcc846000306005600089815260200190815260200160002054611d23565b905060016005600086815260200190815260200160002054611bee9190612441565b6005600086815260200190815260200160002081905550611c0f8482611d5f565b91505092915050565b600081600001549050919050565b6001816000016000828254019250508190555050565b7f000000000000000000000000000000000000000000000000000000000000000067ffffffffffffffff1660118054905011611cad576040517f08c379a0000000000000000000000000000000000000000000000000000000008152600401611ca490613203565b60405180910390fd5b600960019054906101000a900460ff1615611cfd576040517f08c379a0000000000000000000000000000000000000000000000000000000008152600401611cf49061326f565b60405180910390fd5b80600c819055506001600960016101000a81548160ff0219169083151502179055505050565b600084848484604051602001611d3c949392919061328f565b6040516020818303038152906040528051906020012060001c9050949350505050565b60008282604051602001611d74929190613316565b60405160208183030381529060405280519060200120905092915050565b600073ffffffffffffffffffffffffffffffffffffffff82169050919050565b6000611dbd82611d92565b9050919050565b611dcd81611db2565b82525050565b6000819050919050565b611de681611dd3565b82525050565b6000604082019050611e016000830185611dc4565b611e0e6020830184611ddd565b9392505050565b6000819050919050565b611e2881611e15565b82525050565b6000602082019050611e436000830184611e1f565b92915050565b6000602082019050611e5e6000830184611dc4565b92915050565b600080fd5b600080fd5b611e7781611db2565b8114611e8257600080fd5b50565b600081359050611e9481611e6e565b92915050565b600060208284031215611eb057611eaf611e64565b5b6000611ebe84828501611e85565b91505092915050565b600061ffff82169050919050565b611ede81611ec7565b82525050565b6000602082019050611ef96000830184611ed5565b92915050565b6000611f0a82611d92565b9050919050565b611f1a81611eff565b8114611f2557600080fd5b50565b600081359050611f3781611f11565b92915050565b600060208284031215611f5357611f52611e64565b5b6000611f6184828501611f28565b91505092915050565b6000602082019050611f7f6000830184611ddd565b92915050565b7f4e487b7100000000000000000000000000000000000000000000000000000000600052602160045260246000fd5b60058110611fc557611fc4611f85565b5b50565b6000819050611fd682611fb4565b919050565b6000611fe682611fc8565b9050919050565b611ff681611fdb565b82525050565b60006020820190506120116000830184611fed565b92915050565b61202081611ec7565b811461202b57600080fd5b50565b60008135905061203d81612017565b92915050565b60006020828403121561205957612058611e64565b5b60006120678482850161202e565b91505092915050565b61207981611dd3565b811461208457600080fd5b50565b60008135905061209681612070565b92915050565b6000602082840312156120b2576120b1611e64565b5b60006120c084828501612087565b91505092915050565b6120d281611e15565b81146120dd57600080fd5b50565b6000813590506120ef816120c9565b92915050565b6000806040838503121561210c5761210b611e64565b5b600061211a858286016120e0565b925050602061212b85828601612087565b9150509250929050565b600080fd5b600080fd5b600080fd5b60008083601f84011261215a57612159612135565b5b8235905067ffffffffffffffff8111156121775761217661213a565b5b6020830191508360208202830111156121935761219261213f565b5b9250929050565b600080602083850312156121b1576121b0611e64565b5b600083013567ffffffffffffffff8111156121cf576121ce611e69565b5b6121db85828601612144565b92509250509250929050565b6000819050919050565b600061220c61220761220284611d92565b6121e7565b611d92565b9050919050565b600061221e826121f1565b9050919050565b600061223082612213565b9050919050565b61224081612225565b82525050565b600060208201905061225b6000830184612237565b92915050565b60008115159050919050565b61227681612261565b82525050565b6000602082019050612291600083018461226d565b92915050565b600082825260208201905092915050565b7f696e76616c696420616464726573730000000000000000000000000000000000600082015250565b60006122de600f83612297565b91506122e9826122a8565b602082019050919050565b6000602082019050818103600083015261230d816122d1565b9050919050565b7f4e6f20546f6b656e732052657175657374656400000000000000000000000000600082015250565b600061234a601383612297565b915061235582612314565b602082019050919050565b600060208201905081810360008301526123798161233d565b9050919050565b7f5061796d656e7453706c69747465723a206163636f756e7420686173206e6f2060008201527f7368617265730000000000000000000000000000000000000000000000000000602082015250565b60006123dc602683612297565b91506123e782612380565b604082019050919050565b6000602082019050818103600083015261240b816123cf565b9050919050565b7f4e487b7100000000000000000000000000000000000000000000000000000000600052601160045260246000fd5b600061244c82611dd3565b915061245783611dd3565b9250827fffffffffffffffffffffffffffffffffffffffffffffffffffffffffffffffff0382111561248c5761248b612412565b5b828201905092915050565b60006124a282611dd3565b91506124ad83611dd3565b9250817fffffffffffffffffffffffffffffffffffffffffffffffffffffffffffffffff04831182151516156124e6576124e5612412565b5b828202905092915050565b7f4e487b7100000000000000000000000000000000000000000000000000000000600052601260045260246000fd5b600061252b82611dd3565b915061253683611dd3565b925082612546576125456124f1565b5b828204905092915050565b600061255c82611dd3565b915061256783611dd3565b92508282101561257a57612579612412565b5b828203905092915050565b7f5061796d656e7453706c69747465723a206163636f756e74206973206e6f742060008201527f647565207061796d656e74000000000000000000000000000000000000000000602082015250565b60006125e1602b83612297565b91506125ec82612585565b604082019050919050565b60006020820190508181036000830152612610816125d4565b9050919050565b600061262282612213565b9050919050565b61263281612617565b82525050565b600060408201905061264d6000830185612629565b61265a6020830184611ddd565b9392505050565b7f726166666c65206973207374696c6c2061637469766500000000000000000000600082015250565b6000612697601683612297565b91506126a282612661565b602082019050919050565b600060208201905081810360008301526126c68161268a565b9050919050565b7f456e74726f707920697320616c7265616479207365742c206e6f206e65656400600082015250565b6000612703601f83612297565b915061270e826126cd565b602082019050919050565b60006020820190508181036000830152612732816126f6565b9050919050565b7f526166666c65204973205374696c6c2041637469766500000000000000000000600082015250565b600061276f601683612297565b915061277a82612739565b602082019050919050565b6000602082019050818103600083015261279e81612762565b9050919050565b7f4e6f206e65656420746f2073687566666c650000000000000000000000000000600082015250565b60006127db601283612297565b91506127e6826127a5565b602082019050919050565b6000602082019050818103600083015261280a816127ce565b9050919050565b7f4e6f2072616e646f6d6e65737320746f2073687566666c652077697468000000600082015250565b6000612847601d83612297565b915061285282612811565b602082019050919050565b600060208201905081810360008301526128768161283a565b9050919050565b600061288882611dd3565b915061289383611dd3565b9250826128a3576128a26124f1565b5b828206905092915050565b7f4e487b7100000000000000000000000000000000000000000000000000000000600052603260045260246000fd5b60006128e882611dd3565b91507fffffffffffffffffffffffffffffffffffffffffffffffffffffffffffffffff82141561291b5761291a612412565b5b600182019050919050565b7f526166666c65206973206e6f7420616374697665000000000000000000000000600082015250565b600061295c601483612297565b915061296782612926565b602082019050919050565b6000602082019050818103600083015261298b8161294f565b9050919050565b7f506c65617365207265717565737420666577657220746f6b656e730000000000600082015250565b60006129c8601b83612297565b91506129d382612992565b602082019050919050565b600060208201905081810360008301526129f7816129bb565b9050919050565b6000612a0982611ec7565b9150612a1483611ec7565b92508261ffff03821115612a2b57612a2a612412565b5b828201905092915050565b6000606082019050612a4b6000830186611dc4565b612a586020830185611ed5565b612a656040830184611ddd565b949350505050565b7f4f6e6c7920565246436f6f7264696e61746f722063616e2066756c66696c6c00600082015250565b6000612aa3601f83612297565b9150612aae82612a6d565b602082019050919050565b60006020820190508181036000830152612ad281612a96565b9050919050565b7f4d696e74696e67207374617465206e6565647320746f20626520616374697665600082015250565b6000612b0f602083612297565b9150612b1a82612ad9565b602082019050919050565b60006020820190508181036000830152612b3e81612b02565b9050919050565b7f4576657279626f647920697320612077696e6e65720000000000000000000000600082015250565b6000612b7b601583612297565b9150612b8682612b45565b602082019050919050565b60006020820190508181036000830152612baa81612b6e565b9050919050565b7f706c656173652073687566666c652077696e6e657273206265666f7265206d6960008201527f6e74696e67000000000000000000000000000000000000000000000000000000602082015250565b6000612c0d602583612297565b9150612c1882612bb1565b604082019050919050565b60006020820190508181036000830152612c3c81612c00565b9050919050565b7f4e6f7420612076616c6964207469636b65740000000000000000000000000000600082015250565b6000612c79601283612297565b9150612c8482612c43565b602082019050919050565b60006020820190508181036000830152612ca881612c6c565b9050919050565b7f5469636b657473206861766520616c7265616479206265656e20636c61696d6560008201527f6400000000000000000000000000000000000000000000000000000000000000602082015250565b6000612d0b602183612297565b9150612d1682612caf565b604082019050919050565b60006020820190508181036000830152612d3a81612cfe565b9050919050565b7f4e6f7420746865206f776e6572206f66207468657365207469636b6574730000600082015250565b6000612d77601e83612297565b9150612d8282612d41565b602082019050919050565b60006020820190508181036000830152612da681612d6a565b9050919050565b612db681612261565b8114612dc157600080fd5b50565b600081519050612dd381612dad565b92915050565b600060208284031215612def57612dee611e64565b5b6000612dfd84828501612dc4565b91505092915050565b7f536f6d657468696e672068617070656e64656400000000000000000000000000600082015250565b6000612e3c601383612297565b9150612e4782612e06565b602082019050919050565b60006020820190508181036000830152612e6b81612e2f565b9050919050565b600081905092915050565b50565b6000612e8d600083612e72565b9150612e9882612e7d565b600082019050919050565b6000612eae82612e80565b9150819050919050565b6000604082019050612ecd6000830185611dc4565b612eda6020830184611ed5565b9392505050565b7f4e6f7420612070726f7065722073746174650000000000000000000000000000600082015250565b6000612f17601283612297565b9150612f2282612ee1565b602082019050919050565b60006020820190508181036000830152612f4681612f0a565b9050919050565b7f4e6f7420612070726f706572207374617465207472616e736974696f6e000000600082015250565b6000612f83601d83612297565b9150612f8e82612f4d565b602082019050919050565b60006020820190508181036000830152612fb281612f76565b9050919050565b7f416464726573733a20696e73756666696369656e742062616c616e6365000000600082015250565b6000612fef601d83612297565b9150612ffa82612fb9565b602082019050919050565b6000602082019050818103600083015261301e81612fe2565b9050919050565b7f416464726573733a20756e61626c6520746f2073656e642076616c75652c207260008201527f6563697069656e74206d61792068617665207265766572746564000000000000602082015250565b6000613081603a83612297565b915061308c82613025565b604082019050919050565b600060208201905081810360008301526130b081613074565b9050919050565b60006040820190506130cc6000830185611e1f565b6130d96020830184611ddd565b9392505050565b600081519050919050565b600082825260208201905092915050565b60005b8381101561311a5780820151818401526020810190506130ff565b83811115613129576000848401525b50505050565b6000601f19601f8301169050919050565b600061314b826130e0565b61315581856130eb565b93506131658185602086016130fc565b61316e8161312f565b840191505092915050565b600060608201905061318e6000830186611dc4565b61319b6020830185611ddd565b81810360408301526131ad8184613140565b9050949350505050565b7f4e6f206e65656420746f2073687566666c652061646472657373657300000000600082015250565b60006131ed601c83612297565b91506131f8826131b7565b602082019050919050565b6000602082019050818103600083015261321c816131e0565b9050919050565b7f656e74726f707920616c72656164792073657400000000000000000000000000600082015250565b6000613259601383612297565b915061326482613223565b602082019050919050565b600060208201905081810360008301526132888161324c565b9050919050565b60006080820190506132a46000830187611e1f565b6132b16020830186611ddd565b6132be6040830185611dc4565b6132cb6060830184611ddd565b95945050505050565b6000819050919050565b6132ef6132ea82611e15565b6132d4565b82525050565b6000819050919050565b61331061330b82611dd3565b6132f5565b82525050565b600061332282856132de565b60208201915061333282846132ff565b602082019150819050939250505056fea2646970667358221220a1209412765f6a8c7d00c2c2c35404100c7c2912a99d5cc96704d8179f458e8264736f6c63430008090033",
  "immutableReferences": {
    "73": [
      {
        "length": 32,
        "start": 6842
      }
    ],
    "75": [
      {
        "length": 32,
        "start": 4320
      },
      {
        "length": 32,
        "start": 6902
      }
    ],
    "3654": [
      {
        "length": 32,
        "start": 6244
      }
    ],
    "3656": [
      {
        "length": 32,
        "start": 2523
      }
    ],
    "3671": [
      {
        "length": 32,
        "start": 4551
      },
      {
        "length": 32,
        "start": 5953
      }
    ],
    "3674": [
      {
        "length": 32,
        "start": 2708
      },
      {
        "length": 32,
        "start": 3540
      },
      {
        "length": 32,
        "start": 4715
      },
      {
        "length": 32,
        "start": 4828
      },
      {
        "length": 32,
        "start": 5542
      },
      {
        "length": 32,
        "start": 7230
      }
    ],
    "3677": [
      {
        "length": 32,
        "start": 3672
      }
    ]
  },
  "source": "//SPDX-License-Identifier: UNLICENSED\npragma solidity ^0.8.0;\n\nimport \"@openzeppelin/contracts/finance/PaymentSplitter.sol\";\nimport \"@chainlink/contracts/src/v0.8/VRFConsumerBase.sol\";\nimport \"@openzeppelin/contracts/token/ERC20/IERC20.sol\";\n\nimport \"./MyWish.sol\";\n\n//Need to set up ownable for contract\n//Need to create reserve function\n\ncontract PaymentHandler is PaymentSplitter, VRFConsumerBase {\n\n    using Counters for Counters.Counter; \n\n    enum ContractState{PRESALE,RAFFLE,PREMINT,MINTING,OPEN}\n    ContractState contractState;\n\n    uint256 public randomnessOutput;\n    bytes32 public requestId;\n\n    IERC20 public immutable LINK_TOKEN;\n    bytes32 internal immutable KEY_HASH;\n    \n\n    uint16 immutable zachIndex = 0;\n    uint16 immutable evanIndex = 2;\n    uint16 immutable sebIndex = 1;\n    uint16 immutable wishIndex = 3;\n\n    uint256 immutable PRICE = 30000000000000000 wei;\n    uint64 immutable TOKEN_CAP = 10000;\n    uint16 immutable USER_TOKEN_CAP = 90;\n\n    bool raffleIsShuffled = false;\n    bool entropySet = false;\n\n    Counters.Counter private raffleCount;       \n\n    MyWish _myWishContract;\n\n    \n    uint16 sebShares = 2;\n    uint16 zachShares = 2;\n    uint16 evanShares = 6;\n    uint16 makeAWishShares = 90;\n    uint256 entropy;\n\n    address makeAWish = address(0);\n    uint256[] shares_ = [sebShares, zachShares, evanShares, makeAWishShares];\n\n    mapping(address => uint16) tokensPerUser;\n    mapping(uint16 => bool) ticketsClaimed;\n    address[] raffleEntries;\n    \n    event fundsAccepted(address from);\n    event enteredRaffle(address from ,uint16 numTokens,uint256 lastIndex);\n    event raffleShuffled(uint256 totalEntries);\n    event ticketsRedeemed(address user, uint16 winningTicketCount);\n\n    constructor(\n        address tokenAddress,\n        address[] memory payees,\n        bytes32 _LINK_KEY_HASH,\n        address _LINK_ADDRESS,\n        address _LINK_VRF_COORDINATOR_ADDRESS\n       ) \n       PaymentSplitter(payees, shares_)\n       VRFConsumerBase(_LINK_VRF_COORDINATOR_ADDRESS, _LINK_ADDRESS)\n    {\n        LINK_TOKEN = IERC20(_LINK_ADDRESS);\n        KEY_HASH = _LINK_KEY_HASH;\n        _myWishContract = MyWish(tokenAddress);\n        makeAWish = payees[3];\n        contractState = ContractState.RAFFLE;\n    }\n\n    function enterRaffle(uint16 numTokens)\n    public\n    {\n        require(contractState == ContractState.RAFFLE, \"Raffle is not active\");\n        require(numTokens + raffleCount.current() < TOKEN_CAP,\"Please request fewer tokens\");\n        require(tokensPerUser[msg.sender] + numTokens < USER_TOKEN_CAP,\"Please request fewer tokens\");\n      \n        tokensPerUser[msg.sender] = numTokens;\n        for(uint i = 0; i < numTokens; i++){\n            raffleEntries.push(msg.sender);\n            raffleCount.increment();\n           \n        }\n        \n        emit enteredRaffle(msg.sender, tokensPerUser[msg.sender],raffleCount.current());\n\n    }\n    \n    function shuffleEntries() public {\n        require(contractState == ContractState.PREMINT,\"Raffle Is Still Active\");\n        require(raffleCount.current() > TOKEN_CAP,\"No need to shuffle\");\n        require(entropySet, \"No randomness to shuffle with\");\n\n        for (uint256 i = 0; i < raffleCount.current(); i++) {\n            // Generate a random index to select from\n            uint256 randomIndex = i + entropy % (raffleCount.current() - i);\n            // Collect the value at that random index\n            address randomTmp = raffleEntries[randomIndex];\n            // Update the value at the random index to the current value\n            raffleEntries[randomIndex] = raffleEntries[i];\n            // Update the current value to the value at the random index\n            raffleEntries[i] = randomTmp;\n        }\n\n        raffleIsShuffled = true;\n        emit raffleShuffled(raffleEntries.length);\n\n    }\n\n    function setEntropy() public {\n\n        require(contractState == ContractState.PREMINT,'raffle is still active');\n        require(!entropySet,'Entropy is already set, no need');\n        \n        requestRandomness(KEY_HASH, 2e18);\n\n    }\n\n    function recieveTokens() public {\n\n    }\n\n\n    function isWinner(uint16[] calldata tickets) public { \n        require(contractState == ContractState.MINTING ,\"Minting state needs to be active\");\n        require(raffleEntries.length > TOKEN_CAP, \"Everybody is a winner\");\n        if(raffleEntries.length > TOKEN_CAP) {\n            require(raffleIsShuffled,\"please shuffle winners before minting\");\n        }\n\n        uint16 winningTicketCount = 0;\n        for(uint i = 0; i < tickets.length; i++){\n            require(tickets[i] < raffleEntries.length,\"Not a valid ticket\");\n            require(!ticketsClaimed[tickets[i]],\"Tickets have already been claimed\");\n            require(raffleEntries[tickets[i]] == msg.sender, \"Not the owner of these tickets\");\n\n            ticketsClaimed[tickets[i]] = true;\n\n            if(tickets[i] < TOKEN_CAP){\n                bool success = _myWishContract.createCollectable(msg.sender);\n                require(success,\"Something happended\");\n                winningTicketCount += 1;\n            }\n     \n        }\n        if(winningTicketCount < tickets.length){\n            (bool sent, ) = payable(msg.sender).call{\n                value: (tickets.length - winningTicketCount) * PRICE\n            }(\"\");\n        }\n\n        emit ticketsRedeemed(msg.sender, winningTicketCount);\n\n\n    }\n\n    function fulfillRandomness(bytes32 requestId, uint256 randomness) internal override {\n        require(raffleEntries.length > TOKEN_CAP, \"No need to shuffle addresses\");\n        require(!entropySet,\"entropy already set\");\n        entropy = randomness;\n        entropySet = true;\n    }\n\n\n\n\n    function getTokenAddress() external view returns(address) {\n        return address(_myWishContract);\n    }\n\n    //does this return the total balance in the contract? \n    function getBalanceOfPaymentHandler()\n    external\n    view\n    returns(uint256){\n        return address(this).balance;\n    }\n\n  \n    function releaseEther() internal {\n        address payable zach = payable(payee(zachIndex));\n        address payable evan = payable(payee(evanIndex));\n        address payable seb = payable(payee(sebIndex));\n        address payable wish = payable(payee(wishIndex));\n\n        require(seb !=  address(0), \"Address of Seb is not set\");\n        require(zach != address(0), \"Address of Zach is not set\");\n        require(evan != address(0), \"Address of Evan is not set\");\n        require(wish != address(0), \"Address of Make A Wish is not set\");\n        \n        release(zach);\n        release(wish); \n        release(evan); \n        release(seb);\n    }\n\n\n    function getTokensRequested(address user) public view returns(uint16) {\n        require(user != address(0),\"invalid address\");\n        require(tokensPerUser[user] > 0, \"No Tokens Requested\");\n        \n        return tokensPerUser[user];\n    }\n\n    function getPrice() public pure returns(uint256){\n        return PRICE;\n    }\n\n\n    function getContractState() public view returns(ContractState) {\n        return contractState;\n    }\n\n    function setContractState(uint state) public returns(bool) {\n        require(state < 6,\"Not a proper state\");\n        require(state > 0, \"Not a proper state\");\n        require(state  == uint(contractState) + 1, \"Not a proper state transition\");\n\n        contractState = ContractState(state);\n        return true;\n\n    }\n\n\n\n\n\n\n\n\n}\n",
  "sourcePath": "/Users/zlederman/Documents/Code/js/truffle-react/contracts/PaymentHandler.sol",
  "compiler": {
    "name": "solc",
    "version": "0.8.9+commit.e5eed63a.Emscripten.clang"
  },
  "schemaVersion": "3.4.2",
  "updatedAt": "2021-11-07T03:01:32.583Z",
  "networkType": "ethereum",
  "devdoc": {
    "kind": "dev",
    "methods": {
      "payee(uint256)": {
        "details": "Getter for the address of the payee number `index`."
      },
      "release(address)": {
        "details": "Triggers a transfer to `account` of the amount of Ether they are owed, according to their percentage of the total shares and their previous withdrawals."
      },
      "released(address)": {
        "details": "Getter for the amount of Ether already released to a payee."
      },
      "shares(address)": {
        "details": "Getter for the amount of shares held by an account."
      },
      "totalReleased()": {
        "details": "Getter for the total amount of Ether already released."
      },
      "totalShares()": {
        "details": "Getter for the total shares held by payees."
      }
    },
    "version": 1
  },
  "userdoc": {
    "kind": "user",
    "methods": {},
    "version": 1
  }
}