{
  "contractName": "PaymentHandler",
  "abi": [
    {
      "inputs": [
        {
          "internalType": "address",
          "name": "tokenAddress",
          "type": "address"
        },
        {
          "internalType": "address[]",
          "name": "payees",
          "type": "address[]"
        }
      ],
      "stateMutability": "nonpayable",
      "type": "constructor"
    },
    {
      "anonymous": false,
      "inputs": [
        {
          "indexed": false,
          "internalType": "address",
          "name": "account",
          "type": "address"
        },
        {
          "indexed": false,
          "internalType": "uint256",
          "name": "shares",
          "type": "uint256"
        }
      ],
      "name": "PayeeAdded",
      "type": "event"
    },
    {
      "anonymous": false,
      "inputs": [
        {
          "indexed": false,
          "internalType": "address",
          "name": "from",
          "type": "address"
        },
        {
          "indexed": false,
          "internalType": "uint256",
          "name": "amount",
          "type": "uint256"
        }
      ],
      "name": "PaymentReceived",
      "type": "event"
    },
    {
      "anonymous": false,
      "inputs": [
        {
          "indexed": false,
          "internalType": "address",
          "name": "to",
          "type": "address"
        },
        {
          "indexed": false,
          "internalType": "uint256",
          "name": "amount",
          "type": "uint256"
        }
      ],
      "name": "PaymentReleased",
      "type": "event"
    },
    {
      "anonymous": false,
      "inputs": [
        {
          "indexed": false,
          "internalType": "address",
          "name": "from",
          "type": "address"
        }
      ],
      "name": "fundsAccepted",
      "type": "event"
    },
    {
      "anonymous": false,
      "inputs": [
        {
          "indexed": false,
          "internalType": "address",
          "name": "beneficiary",
          "type": "address"
        },
        {
          "indexed": false,
          "internalType": "string",
          "name": "tokenParams",
          "type": "string"
        }
      ],
      "name": "tokenMintedEvent",
      "type": "event"
    },
    {
      "inputs": [
        {
          "internalType": "uint256",
          "name": "index",
          "type": "uint256"
        }
      ],
      "name": "payee",
      "outputs": [
        {
          "internalType": "address",
          "name": "",
          "type": "address"
        }
      ],
      "stateMutability": "view",
      "type": "function",
      "constant": true
    },
    {
      "inputs": [
        {
          "internalType": "address payable",
          "name": "account",
          "type": "address"
        }
      ],
      "name": "release",
      "outputs": [],
      "stateMutability": "nonpayable",
      "type": "function"
    },
    {
      "inputs": [
        {
          "internalType": "address",
          "name": "account",
          "type": "address"
        }
      ],
      "name": "released",
      "outputs": [
        {
          "internalType": "uint256",
          "name": "",
          "type": "uint256"
        }
      ],
      "stateMutability": "view",
      "type": "function",
      "constant": true
    },
    {
      "inputs": [
        {
          "internalType": "address",
          "name": "account",
          "type": "address"
        }
      ],
      "name": "shares",
      "outputs": [
        {
          "internalType": "uint256",
          "name": "",
          "type": "uint256"
        }
      ],
      "stateMutability": "view",
      "type": "function",
      "constant": true
    },
    {
      "inputs": [],
      "name": "totalReleased",
      "outputs": [
        {
          "internalType": "uint256",
          "name": "",
          "type": "uint256"
        }
      ],
      "stateMutability": "view",
      "type": "function",
      "constant": true
    },
    {
      "inputs": [],
      "name": "totalShares",
      "outputs": [
        {
          "internalType": "uint256",
          "name": "",
          "type": "uint256"
        }
      ],
      "stateMutability": "view",
      "type": "function",
      "constant": true
    },
    {
      "stateMutability": "payable",
      "type": "receive",
      "payable": true
    },
    {
      "inputs": [],
      "name": "buyToken",
      "outputs": [],
      "stateMutability": "payable",
      "type": "function",
      "payable": true
    },
    {
      "inputs": [],
      "name": "getTokenAddress",
      "outputs": [
        {
          "internalType": "address",
          "name": "",
          "type": "address"
        }
      ],
      "stateMutability": "view",
      "type": "function",
      "constant": true
    },
    {
      "inputs": [],
      "name": "getBalanceOfPaymentHandler",
      "outputs": [
        {
          "internalType": "uint256",
          "name": "",
          "type": "uint256"
        }
      ],
      "stateMutability": "view",
      "type": "function",
      "constant": true
    },
    {
      "inputs": [],
      "name": "getPrice",
      "outputs": [
        {
          "internalType": "uint256",
          "name": "",
          "type": "uint256"
        }
      ],
      "stateMutability": "pure",
      "type": "function",
      "constant": true
    },
    {
      "inputs": [],
      "name": "getTotalSales",
      "outputs": [
        {
          "internalType": "uint256",
          "name": "",
          "type": "uint256"
        }
      ],
      "stateMutability": "view",
      "type": "function",
      "constant": true
    }
  ],
  "bytecode": "0x6080604052601e600860006101000a81548173ffffffffffffffffffffffffffffffffffffffff021916908373ffffffffffffffffffffffffffffffffffffffff160217905550600a600960006101000a81548173ffffffffffffffffffffffffffffffffffffffff021916908373ffffffffffffffffffffffffffffffffffffffff1602179055506010600a60006101000a81548173ffffffffffffffffffffffffffffffffffffffff021916908373ffffffffffffffffffffffffffffffffffffffff1602179055506014600b60006101000a81548173ffffffffffffffffffffffffffffffffffffffff021916908373ffffffffffffffffffffffffffffffffffffffff1602179055506002600c556002600d556006600e55605a600f556040518060800160405280600c548152602001600d548152602001600e548152602001600f5481525060109060046200015b9291906200056e565b503480156200016957600080fd5b5060405162001f9b38038062001f9b83398181016040528101906200018f9190620007cd565b806010805480602002602001604051908101604052809291908181526020018280548015620001de57602002820191906000526020600020905b815481526020019060010190808311620001c9575b505050505080518251146200022a576040517f08c379a00000000000000000000000000000000000000000000000000000000081526004016200022190620008ba565b60405180910390fd5b600082511162000271576040517f08c379a000000000000000000000000000000000000000000000000000000000815260040162000268906200092c565b60405180910390fd5b60005b8251811015620002e057620002ca8382815181106200029857620002976200094e565b5b6020026020010151838381518110620002b657620002b56200094e565b5b60200260200101516200033460201b60201c565b8080620002d790620009b6565b91505062000274565b50505081600760006101000a81548173ffffffffffffffffffffffffffffffffffffffff021916908373ffffffffffffffffffffffffffffffffffffffff1602179055506000600681905550505062000c52565b600073ffffffffffffffffffffffffffffffffffffffff168273ffffffffffffffffffffffffffffffffffffffff161415620003a7576040517f08c379a00000000000000000000000000000000000000000000000000000000081526004016200039e9062000a7a565b60405180910390fd5b60008111620003ed576040517f08c379a0000000000000000000000000000000000000000000000000000000008152600401620003e49062000aec565b60405180910390fd5b6000600260008473ffffffffffffffffffffffffffffffffffffffff1673ffffffffffffffffffffffffffffffffffffffff168152602001908152602001600020541462000472576040517f08c379a0000000000000000000000000000000000000000000000000000000008152600401620004699062000b84565b60405180910390fd5b6004829080600181540180825580915050600190039060005260206000200160009091909190916101000a81548173ffffffffffffffffffffffffffffffffffffffff021916908373ffffffffffffffffffffffffffffffffffffffff16021790555080600260008473ffffffffffffffffffffffffffffffffffffffff1673ffffffffffffffffffffffffffffffffffffffff168152602001908152602001600020819055508060005462000529919062000ba6565b6000819055507f40c340f65e17194d14ddddb073d3c9f888e3cb52b5aae0c6c7706b4fbc905fac82826040516200056292919062000c25565b60405180910390a15050565b828054828255906000526020600020908101928215620005ad579160200282015b82811115620005ac5782518255916020019190600101906200058f565b5b509050620005bc9190620005c0565b5090565b5b80821115620005db576000816000905550600101620005c1565b5090565b6000604051905090565b600080fd5b600080fd5b600073ffffffffffffffffffffffffffffffffffffffff82169050919050565b60006200062082620005f3565b9050919050565b620006328162000613565b81146200063e57600080fd5b50565b600081519050620006528162000627565b92915050565b600080fd5b6000601f19601f8301169050919050565b7f4e487b7100000000000000000000000000000000000000000000000000000000600052604160045260246000fd5b620006a8826200065d565b810181811067ffffffffffffffff82111715620006ca57620006c96200066e565b5b80604052505050565b6000620006df620005df565b9050620006ed82826200069d565b919050565b600067ffffffffffffffff82111562000710576200070f6200066e565b5b602082029050602081019050919050565b600080fd5b60006200073d6200073784620006f2565b620006d3565b9050808382526020820190506020840283018581111562000763576200076262000721565b5b835b818110156200079057806200077b888262000641565b84526020840193505060208101905062000765565b5050509392505050565b600082601f830112620007b257620007b162000658565b5b8151620007c484826020860162000726565b91505092915050565b60008060408385031215620007e757620007e6620005e9565b5b6000620007f78582860162000641565b925050602083015167ffffffffffffffff8111156200081b576200081a620005ee565b5b62000829858286016200079a565b9150509250929050565b600082825260208201905092915050565b7f5061796d656e7453706c69747465723a2070617965657320616e64207368617260008201527f6573206c656e677468206d69736d617463680000000000000000000000000000602082015250565b6000620008a260328362000833565b9150620008af8262000844565b604082019050919050565b60006020820190508181036000830152620008d58162000893565b9050919050565b7f5061796d656e7453706c69747465723a206e6f20706179656573000000000000600082015250565b600062000914601a8362000833565b91506200092182620008dc565b602082019050919050565b60006020820190508181036000830152620009478162000905565b9050919050565b7f4e487b7100000000000000000000000000000000000000000000000000000000600052603260045260246000fd5b7f4e487b7100000000000000000000000000000000000000000000000000000000600052601160045260246000fd5b6000819050919050565b6000620009c382620009ac565b91507fffffffffffffffffffffffffffffffffffffffffffffffffffffffffffffffff821415620009f957620009f86200097d565b5b600182019050919050565b7f5061796d656e7453706c69747465723a206163636f756e74206973207468652060008201527f7a65726f20616464726573730000000000000000000000000000000000000000602082015250565b600062000a62602c8362000833565b915062000a6f8262000a04565b604082019050919050565b6000602082019050818103600083015262000a958162000a53565b9050919050565b7f5061796d656e7453706c69747465723a20736861726573206172652030000000600082015250565b600062000ad4601d8362000833565b915062000ae18262000a9c565b602082019050919050565b6000602082019050818103600083015262000b078162000ac5565b9050919050565b7f5061796d656e7453706c69747465723a206163636f756e7420616c726561647960008201527f2068617320736861726573000000000000000000000000000000000000000000602082015250565b600062000b6c602b8362000833565b915062000b798262000b0e565b604082019050919050565b6000602082019050818103600083015262000b9f8162000b5d565b9050919050565b600062000bb382620009ac565b915062000bc083620009ac565b9250827fffffffffffffffffffffffffffffffffffffffffffffffffffffffffffffffff0382111562000bf85762000bf76200097d565b5b828201905092915050565b62000c0e8162000613565b82525050565b62000c1f81620009ac565b82525050565b600060408201905062000c3c600083018562000c03565b62000c4b602083018462000c14565b9392505050565b6113398062000c626000396000f3fe6080604052600436106100a05760003560e01c80639852595c116100645780639852595c146101d357806398d5fdca14610210578063a33209991461023b578063a482171914610266578063ce7c2ac214610270578063e33b7de3146102ad576100e7565b806310fe9ae8146100ec57806319165587146101175780632156a96c146101405780633a98ef391461016b5780638b83209b14610196576100e7565b366100e7577f6ef95f06320e7a25a04a175ca677b7052bdd97131872c2192525a629f51be7706100ce6102d8565b346040516100dd929190610a38565b60405180910390a1005b600080fd5b3480156100f857600080fd5b506101016102e0565b60405161010e9190610a61565b60405180910390f35b34801561012357600080fd5b5061013e60048036038101906101399190610abf565b61030a565b005b34801561014c57600080fd5b50610155610572565b6040516101629190610aec565b60405180910390f35b34801561017757600080fd5b5061018061057c565b60405161018d9190610aec565b60405180910390f35b3480156101a257600080fd5b506101bd60048036038101906101b89190610b33565b610585565b6040516101ca9190610a61565b60405180910390f35b3480156101df57600080fd5b506101fa60048036038101906101f59190610b8c565b6105cd565b6040516102079190610aec565b60405180910390f35b34801561021c57600080fd5b50610225610616565b6040516102329190610aec565b60405180910390f35b34801561024757600080fd5b50610250610626565b60405161025d9190610aec565b60405180910390f35b61026e61062e565b005b34801561027c57600080fd5b5061029760048036038101906102929190610b8c565b610795565b6040516102a49190610aec565b60405180910390f35b3480156102b957600080fd5b506102c26107de565b6040516102cf9190610aec565b60405180910390f35b600033905090565b6000600760009054906101000a900473ffffffffffffffffffffffffffffffffffffffff16905090565b6000600260008373ffffffffffffffffffffffffffffffffffffffff1673ffffffffffffffffffffffffffffffffffffffff168152602001908152602001600020541161038c576040517f08c379a000000000000000000000000000000000000000000000000000000000815260040161038390610c3c565b60405180910390fd5b60006001544761039c9190610c8b565b90506000600360008473ffffffffffffffffffffffffffffffffffffffff1673ffffffffffffffffffffffffffffffffffffffff16815260200190815260200160002054600054600260008673ffffffffffffffffffffffffffffffffffffffff1673ffffffffffffffffffffffffffffffffffffffff168152602001908152602001600020548461042e9190610ce1565b6104389190610d6a565b6104429190610d9b565b90506000811415610488576040517f08c379a000000000000000000000000000000000000000000000000000000000815260040161047f90610e41565b60405180910390fd5b80600360008573ffffffffffffffffffffffffffffffffffffffff1673ffffffffffffffffffffffffffffffffffffffff168152602001908152602001600020546104d39190610c8b565b600360008573ffffffffffffffffffffffffffffffffffffffff1673ffffffffffffffffffffffffffffffffffffffff16815260200190815260200160002081905550806001546105249190610c8b565b60018190555061053483826107e8565b7fdf20fd1e76bc69d672e4814fafb2c449bba3a5369d8359adf9e05e6fde87b0568382604051610565929190610ec0565b60405180910390a1505050565b6000600654905090565b60008054905090565b60006004828154811061059b5761059a610ee9565b5b9060005260206000200160009054906101000a900473ffffffffffffffffffffffffffffffffffffffff169050919050565b6000600360008373ffffffffffffffffffffffffffffffffffffffff1673ffffffffffffffffffffffffffffffffffffffff168152602001908152602001600020549050919050565b60006729a2241af62c0000905090565b600047905090565b60003411610671576040517f08c379a000000000000000000000000000000000000000000000000000000000815260040161066890610f64565b60405180910390fd5b6729a2241af62c000034146106bb576040517f08c379a00000000000000000000000000000000000000000000000000000000081526004016106b290610fd0565b60405180910390fd5b600073ffffffffffffffffffffffffffffffffffffffff163373ffffffffffffffffffffffffffffffffffffffff16141561072b576040517f08c379a00000000000000000000000000000000000000000000000000000000081526004016107229061103c565b60405180910390fd5b6000610736336108dc565b905080610778576040517f08c379a000000000000000000000000000000000000000000000000000000000815260040161076f906110a8565b60405180910390fd5b60016006600082825461078b9190610c8b565b9250508190555050565b6000600260008373ffffffffffffffffffffffffffffffffffffffff1673ffffffffffffffffffffffffffffffffffffffff168152602001908152602001600020549050919050565b6000600154905090565b8047101561082b576040517f08c379a000000000000000000000000000000000000000000000000000000000815260040161082290611114565b60405180910390fd5b60008273ffffffffffffffffffffffffffffffffffffffff168260405161085190611165565b60006040518083038185875af1925050503d806000811461088e576040519150601f19603f3d011682016040523d82523d6000602084013e610893565b606091505b50509050806108d7576040517f08c379a00000000000000000000000000000000000000000000000000000000081526004016108ce906111ec565b60405180910390fd5b505050565b600080600760009054906101000a900473ffffffffffffffffffffffffffffffffffffffff1673ffffffffffffffffffffffffffffffffffffffff16638d69f541846040518263ffffffff1660e01b815260040161093a9190610a61565b602060405180830381600087803b15801561095457600080fd5b505af1158015610968573d6000803e3d6000fd5b505050506040513d601f19601f8201168201806040525081019061098c9190611244565b9050806109ce576040517f08c379a00000000000000000000000000000000000000000000000000000000081526004016109c5906112e3565b60405180910390fd5b6001151581151514915050919050565b600073ffffffffffffffffffffffffffffffffffffffff82169050919050565b6000610a09826109de565b9050919050565b610a19816109fe565b82525050565b6000819050919050565b610a3281610a1f565b82525050565b6000604082019050610a4d6000830185610a10565b610a5a6020830184610a29565b9392505050565b6000602082019050610a766000830184610a10565b92915050565b600080fd5b6000610a8c826109de565b9050919050565b610a9c81610a81565b8114610aa757600080fd5b50565b600081359050610ab981610a93565b92915050565b600060208284031215610ad557610ad4610a7c565b5b6000610ae384828501610aaa565b91505092915050565b6000602082019050610b016000830184610a29565b92915050565b610b1081610a1f565b8114610b1b57600080fd5b50565b600081359050610b2d81610b07565b92915050565b600060208284031215610b4957610b48610a7c565b5b6000610b5784828501610b1e565b91505092915050565b610b69816109fe565b8114610b7457600080fd5b50565b600081359050610b8681610b60565b92915050565b600060208284031215610ba257610ba1610a7c565b5b6000610bb084828501610b77565b91505092915050565b600082825260208201905092915050565b7f5061796d656e7453706c69747465723a206163636f756e7420686173206e6f2060008201527f7368617265730000000000000000000000000000000000000000000000000000602082015250565b6000610c26602683610bb9565b9150610c3182610bca565b604082019050919050565b60006020820190508181036000830152610c5581610c19565b9050919050565b7f4e487b7100000000000000000000000000000000000000000000000000000000600052601160045260246000fd5b6000610c9682610a1f565b9150610ca183610a1f565b9250827fffffffffffffffffffffffffffffffffffffffffffffffffffffffffffffffff03821115610cd657610cd5610c5c565b5b828201905092915050565b6000610cec82610a1f565b9150610cf783610a1f565b9250817fffffffffffffffffffffffffffffffffffffffffffffffffffffffffffffffff0483118215151615610d3057610d2f610c5c565b5b828202905092915050565b7f4e487b7100000000000000000000000000000000000000000000000000000000600052601260045260246000fd5b6000610d7582610a1f565b9150610d8083610a1f565b925082610d9057610d8f610d3b565b5b828204905092915050565b6000610da682610a1f565b9150610db183610a1f565b925082821015610dc457610dc3610c5c565b5b828203905092915050565b7f5061796d656e7453706c69747465723a206163636f756e74206973206e6f742060008201527f647565207061796d656e74000000000000000000000000000000000000000000602082015250565b6000610e2b602b83610bb9565b9150610e3682610dcf565b604082019050919050565b60006020820190508181036000830152610e5a81610e1e565b9050919050565b6000819050919050565b6000610e86610e81610e7c846109de565b610e61565b6109de565b9050919050565b6000610e9882610e6b565b9050919050565b6000610eaa82610e8d565b9050919050565b610eba81610e9f565b82525050565b6000604082019050610ed56000830185610eb1565b610ee26020830184610a29565b9392505050565b7f4e487b7100000000000000000000000000000000000000000000000000000000600052603260045260246000fd5b7f5a65726f2046756e64732053656e74204572726f720000000000000000000000600082015250565b6000610f4e601583610bb9565b9150610f5982610f18565b602082019050919050565b60006020820190508181036000830152610f7d81610f41565b9050919050565b7f56616c75652053656e74204572726f7200000000000000000000000000000000600082015250565b6000610fba601083610bb9565b9150610fc582610f84565b602082019050919050565b60006020820190508181036000830152610fe981610fad565b9050919050565b7f496e76616c696420416464726573730000000000000000000000000000000000600082015250565b6000611026600f83610bb9565b915061103182610ff0565b602082019050919050565b6000602082019050818103600083015261105581611019565b9050919050565b7f546f6b656e204e6f74204d696e746564204572726f7200000000000000000000600082015250565b6000611092601683610bb9565b915061109d8261105c565b602082019050919050565b600060208201905081810360008301526110c181611085565b9050919050565b7f416464726573733a20696e73756666696369656e742062616c616e6365000000600082015250565b60006110fe601d83610bb9565b9150611109826110c8565b602082019050919050565b6000602082019050818103600083015261112d816110f1565b9050919050565b600081905092915050565b50565b600061114f600083611134565b915061115a8261113f565b600082019050919050565b600061117082611142565b9150819050919050565b7f416464726573733a20756e61626c6520746f2073656e642076616c75652c207260008201527f6563697069656e74206d61792068617665207265766572746564000000000000602082015250565b60006111d6603a83610bb9565b91506111e18261117a565b604082019050919050565b60006020820190508181036000830152611205816111c9565b9050919050565b60008115159050919050565b6112218161120c565b811461122c57600080fd5b50565b60008151905061123e81611218565b92915050565b60006020828403121561125a57611259610a7c565b5b60006112688482850161122f565b91505092915050565b7f546f6b656e20436f6e747261637420446964204e6f74204d696e7420546f6b6560008201527f6e00000000000000000000000000000000000000000000000000000000000000602082015250565b60006112cd602183610bb9565b91506112d882611271565b604082019050919050565b600060208201905081810360008301526112fc816112c0565b905091905056fea2646970667358221220472bca0494e5893d8f1facd2b98de5d541f8e4e448def72f0d0f196710d3356964736f6c63430008090033",
  "immutableReferences": {},
  "source": "//SPDX-License-Identifier: UNLICENSED\npragma solidity ^0.8.0;\n\nimport \"@openzeppelin/contracts/finance/PaymentSplitter.sol\";\nimport \"@openzeppelin/contracts/access/Ownable.sol\";\nimport \"./MyWish.sol\";\n\n//Need to set up ownable for contract\n//Need to create reserve function\n\ncontract PaymentHandler is PaymentSplitter {\n\n    mapping(address => uint256) balances;\n    uint256 constant PRICE = 3000000000000000000 wei;\n    event fundsAccepted(address from);\n    uint256 totalSales;\n    \n    /*\n        Need to add values to the following variables\n    */\n    MyWish _myWishContract; \n    address payable _Seb = payable(address(30));\n    address payable _Zach = payable(address(10));\n    address payable _Evan = payable(address(16)); \n    address payable _MakeAWish = payable(address(20));  \n\n    //Make Shares out of 100\n    uint256 _SebShares = 2;\n    uint256 _ZachShares = 2;\n    uint256 _EvanShares = 6;\n    uint256 _MakeAWishShares = 90;\n\n    // address[] payees = [_Seb, _Zach, _Evan, _MakeAWish];\n    uint256[] shares_ = [_SebShares, _ZachShares, _EvanShares, _MakeAWishShares];\n\n    event tokenMintedEvent(address beneficiary,string tokenParams);\n\n    constructor(address tokenAddress,address[] memory payees) PaymentSplitter(payees, shares_) {\n        _myWishContract = MyWish(tokenAddress);\n        totalSales = 0;\n    }\n\n\n    function buyToken()\n    public\n    payable\n    {\n        require(msg.value > 0 , \"Zero Funds Sent Error\");\n        require(msg.value == PRICE,\"Value Sent Error\");\n        require(msg.sender != address(0),\"Invalid Address\");\n\n        bool success = processPurchase(msg.sender);\n        require(success,\"Token Not Minted Error\");\n        // releaseEther();\n        totalSales +=1;\n\n\n    }\n\n    function getTokenAddress() external view returns(address) {\n        return address(_myWishContract);\n    }\n\n    //does this return the total balance in the contract? \n    function getBalanceOfPaymentHandler()\n   \n    external\n    view\n    returns(uint256){\n        return address(this).balance;\n    }\n\n\n    function getPrice() \n    external pure\n    returns (uint256){\n        return PRICE;\n    }\n  \n    function releaseEther() internal {\n        require(_Seb !=  address(0), \"Address of Seb is not set\");\n        require(_Zach != address(0), \"Address of Zach is not set\");\n        require(_Evan != address(0), \"Address of Evan is not set\");\n        require(_MakeAWish != address(0), \"Address of Make A Wish is not set\");\n        \n        release(_Seb);\n        release(_Zach); \n        release(_Evan); \n        release(_MakeAWish);\n    }\n\n\n    function processPurchase(address beneficiary) internal returns(bool) {\n\n        bool success = _myWishContract.createCollectable(beneficiary);\n        require(success,\"Token Contract Did Not Mint Token\");\n\n        return success == true;\n    }\n\n    function getTotalSales() public view returns (uint256) {\n            return totalSales;\n    }\n\n\n\n\n\n}\n",
  "sourcePath": "/Users/zlederman/Documents/Code/js/truffle-react/contracts/PaymentHandler.sol",
  "compiler": {
    "name": "solc",
    "version": "0.8.9+commit.e5eed63a.Emscripten.clang"
  },
  "schemaVersion": "3.4.2",
  "updatedAt": "2021-10-13T19:55:22.395Z",
  "networkType": "ethereum",
  "devdoc": {
    "kind": "dev",
    "methods": {
      "payee(uint256)": {
        "details": "Getter for the address of the payee number `index`."
      },
      "release(address)": {
        "details": "Triggers a transfer to `account` of the amount of Ether they are owed, according to their percentage of the total shares and their previous withdrawals."
      },
      "released(address)": {
        "details": "Getter for the amount of Ether already released to a payee."
      },
      "shares(address)": {
        "details": "Getter for the amount of shares held by an account."
      },
      "totalReleased()": {
        "details": "Getter for the total amount of Ether already released."
      },
      "totalShares()": {
        "details": "Getter for the total shares held by payees."
      }
    },
    "version": 1
  },
  "userdoc": {
    "kind": "user",
    "methods": {},
    "version": 1
  }
}