{
  "contractName": "PaymentHandler",
  "abi": [
    {
      "inputs": [
        {
          "internalType": "address",
          "name": "tokenAddress",
          "type": "address"
        },
        {
          "internalType": "address[]",
          "name": "payees",
          "type": "address[]"
        },
        {
          "internalType": "bytes32",
          "name": "_LINK_KEY_HASH",
          "type": "bytes32"
        },
        {
          "internalType": "address",
          "name": "_LINK_ADDRESS",
          "type": "address"
        },
        {
          "internalType": "address",
          "name": "_LINK_VRF_COORDINATOR_ADDRESS",
          "type": "address"
        }
      ],
      "stateMutability": "nonpayable",
      "type": "constructor"
    },
    {
      "anonymous": false,
      "inputs": [
        {
          "indexed": false,
          "internalType": "address",
          "name": "account",
          "type": "address"
        },
        {
          "indexed": false,
          "internalType": "uint256",
          "name": "shares",
          "type": "uint256"
        }
      ],
      "name": "PayeeAdded",
      "type": "event"
    },
    {
      "anonymous": false,
      "inputs": [
        {
          "indexed": false,
          "internalType": "address",
          "name": "from",
          "type": "address"
        },
        {
          "indexed": false,
          "internalType": "uint256",
          "name": "amount",
          "type": "uint256"
        }
      ],
      "name": "PaymentReceived",
      "type": "event"
    },
    {
      "anonymous": false,
      "inputs": [
        {
          "indexed": false,
          "internalType": "address",
          "name": "to",
          "type": "address"
        },
        {
          "indexed": false,
          "internalType": "uint256",
          "name": "amount",
          "type": "uint256"
        }
      ],
      "name": "PaymentReleased",
      "type": "event"
    },
    {
      "anonymous": false,
      "inputs": [
        {
          "indexed": true,
          "internalType": "bytes32",
          "name": "role",
          "type": "bytes32"
        },
        {
          "indexed": true,
          "internalType": "bytes32",
          "name": "previousAdminRole",
          "type": "bytes32"
        },
        {
          "indexed": true,
          "internalType": "bytes32",
          "name": "newAdminRole",
          "type": "bytes32"
        }
      ],
      "name": "RoleAdminChanged",
      "type": "event"
    },
    {
      "anonymous": false,
      "inputs": [
        {
          "indexed": true,
          "internalType": "bytes32",
          "name": "role",
          "type": "bytes32"
        },
        {
          "indexed": true,
          "internalType": "address",
          "name": "account",
          "type": "address"
        },
        {
          "indexed": true,
          "internalType": "address",
          "name": "sender",
          "type": "address"
        }
      ],
      "name": "RoleGranted",
      "type": "event"
    },
    {
      "anonymous": false,
      "inputs": [
        {
          "indexed": true,
          "internalType": "bytes32",
          "name": "role",
          "type": "bytes32"
        },
        {
          "indexed": true,
          "internalType": "address",
          "name": "account",
          "type": "address"
        },
        {
          "indexed": true,
          "internalType": "address",
          "name": "sender",
          "type": "address"
        }
      ],
      "name": "RoleRevoked",
      "type": "event"
    },
    {
      "anonymous": false,
      "inputs": [
        {
          "indexed": false,
          "internalType": "address",
          "name": "from",
          "type": "address"
        },
        {
          "indexed": false,
          "internalType": "uint16",
          "name": "numTokens",
          "type": "uint16"
        },
        {
          "indexed": false,
          "internalType": "uint256",
          "name": "lastIndex",
          "type": "uint256"
        }
      ],
      "name": "enteredRaffle",
      "type": "event"
    },
    {
      "anonymous": false,
      "inputs": [
        {
          "indexed": false,
          "internalType": "address",
          "name": "from",
          "type": "address"
        }
      ],
      "name": "fundsAccepted",
      "type": "event"
    },
    {
      "anonymous": false,
      "inputs": [
        {
          "indexed": false,
          "internalType": "uint256",
          "name": "totalEntries",
          "type": "uint256"
        }
      ],
      "name": "raffleShuffled",
      "type": "event"
    },
    {
      "anonymous": false,
      "inputs": [
        {
          "indexed": false,
          "internalType": "address",
          "name": "user",
          "type": "address"
        },
        {
          "indexed": false,
          "internalType": "uint16",
          "name": "winningTicketCount",
          "type": "uint16"
        }
      ],
      "name": "ticketsRedeemed",
      "type": "event"
    },
    {
      "anonymous": false,
      "inputs": [
        {
          "indexed": false,
          "internalType": "address",
          "name": "user",
          "type": "address"
        },
        {
          "indexed": false,
          "internalType": "uint16",
          "name": "tokensPurchased",
          "type": "uint16"
        }
      ],
      "name": "tokensPurchased",
      "type": "event"
    },
    {
      "inputs": [],
      "name": "DEFAULT_ADMIN_ROLE",
      "outputs": [
        {
          "internalType": "bytes32",
          "name": "",
          "type": "bytes32"
        }
      ],
      "stateMutability": "view",
      "type": "function",
      "constant": true
    },
    {
      "inputs": [],
      "name": "LINK_TOKEN",
      "outputs": [
        {
          "internalType": "contract IERC20",
          "name": "",
          "type": "address"
        }
      ],
      "stateMutability": "view",
      "type": "function",
      "constant": true
    },
    {
      "inputs": [],
      "name": "STATE_MANAGER_ROLE",
      "outputs": [
        {
          "internalType": "bytes32",
          "name": "",
          "type": "bytes32"
        }
      ],
      "stateMutability": "view",
      "type": "function",
      "constant": true
    },
    {
      "inputs": [
        {
          "internalType": "bytes32",
          "name": "role",
          "type": "bytes32"
        }
      ],
      "name": "getRoleAdmin",
      "outputs": [
        {
          "internalType": "bytes32",
          "name": "",
          "type": "bytes32"
        }
      ],
      "stateMutability": "view",
      "type": "function",
      "constant": true
    },
    {
      "inputs": [
        {
          "internalType": "bytes32",
          "name": "role",
          "type": "bytes32"
        },
        {
          "internalType": "address",
          "name": "account",
          "type": "address"
        }
      ],
      "name": "grantRole",
      "outputs": [],
      "stateMutability": "nonpayable",
      "type": "function"
    },
    {
      "inputs": [
        {
          "internalType": "bytes32",
          "name": "role",
          "type": "bytes32"
        },
        {
          "internalType": "address",
          "name": "account",
          "type": "address"
        }
      ],
      "name": "hasRole",
      "outputs": [
        {
          "internalType": "bool",
          "name": "",
          "type": "bool"
        }
      ],
      "stateMutability": "view",
      "type": "function",
      "constant": true
    },
    {
      "inputs": [
        {
          "internalType": "uint256",
          "name": "index",
          "type": "uint256"
        }
      ],
      "name": "payee",
      "outputs": [
        {
          "internalType": "address",
          "name": "",
          "type": "address"
        }
      ],
      "stateMutability": "view",
      "type": "function",
      "constant": true
    },
    {
      "inputs": [],
      "name": "randomnessOutput",
      "outputs": [
        {
          "internalType": "uint256",
          "name": "",
          "type": "uint256"
        }
      ],
      "stateMutability": "view",
      "type": "function",
      "constant": true
    },
    {
      "inputs": [
        {
          "internalType": "bytes32",
          "name": "requestId",
          "type": "bytes32"
        },
        {
          "internalType": "uint256",
          "name": "randomness",
          "type": "uint256"
        }
      ],
      "name": "rawFulfillRandomness",
      "outputs": [],
      "stateMutability": "nonpayable",
      "type": "function"
    },
    {
      "inputs": [
        {
          "internalType": "address payable",
          "name": "account",
          "type": "address"
        }
      ],
      "name": "release",
      "outputs": [],
      "stateMutability": "nonpayable",
      "type": "function"
    },
    {
      "inputs": [
        {
          "internalType": "address",
          "name": "account",
          "type": "address"
        }
      ],
      "name": "released",
      "outputs": [
        {
          "internalType": "uint256",
          "name": "",
          "type": "uint256"
        }
      ],
      "stateMutability": "view",
      "type": "function",
      "constant": true
    },
    {
      "inputs": [
        {
          "internalType": "bytes32",
          "name": "role",
          "type": "bytes32"
        },
        {
          "internalType": "address",
          "name": "account",
          "type": "address"
        }
      ],
      "name": "renounceRole",
      "outputs": [],
      "stateMutability": "nonpayable",
      "type": "function"
    },
    {
      "inputs": [],
      "name": "requestId",
      "outputs": [
        {
          "internalType": "bytes32",
          "name": "",
          "type": "bytes32"
        }
      ],
      "stateMutability": "view",
      "type": "function",
      "constant": true
    },
    {
      "inputs": [
        {
          "internalType": "bytes32",
          "name": "role",
          "type": "bytes32"
        },
        {
          "internalType": "address",
          "name": "account",
          "type": "address"
        }
      ],
      "name": "revokeRole",
      "outputs": [],
      "stateMutability": "nonpayable",
      "type": "function"
    },
    {
      "inputs": [
        {
          "internalType": "address",
          "name": "account",
          "type": "address"
        }
      ],
      "name": "shares",
      "outputs": [
        {
          "internalType": "uint256",
          "name": "",
          "type": "uint256"
        }
      ],
      "stateMutability": "view",
      "type": "function",
      "constant": true
    },
    {
      "inputs": [
        {
          "internalType": "bytes4",
          "name": "interfaceId",
          "type": "bytes4"
        }
      ],
      "name": "supportsInterface",
      "outputs": [
        {
          "internalType": "bool",
          "name": "",
          "type": "bool"
        }
      ],
      "stateMutability": "view",
      "type": "function",
      "constant": true
    },
    {
      "inputs": [],
      "name": "totalReleased",
      "outputs": [
        {
          "internalType": "uint256",
          "name": "",
          "type": "uint256"
        }
      ],
      "stateMutability": "view",
      "type": "function",
      "constant": true
    },
    {
      "inputs": [],
      "name": "totalShares",
      "outputs": [
        {
          "internalType": "uint256",
          "name": "",
          "type": "uint256"
        }
      ],
      "stateMutability": "view",
      "type": "function",
      "constant": true
    },
    {
      "stateMutability": "payable",
      "type": "receive",
      "payable": true
    },
    {
      "inputs": [
        {
          "internalType": "uint16",
          "name": "numTokens",
          "type": "uint16"
        }
      ],
      "name": "enterRaffle",
      "outputs": [],
      "stateMutability": "nonpayable",
      "type": "function"
    },
    {
      "inputs": [],
      "name": "shuffleEntries",
      "outputs": [],
      "stateMutability": "nonpayable",
      "type": "function"
    },
    {
      "inputs": [],
      "name": "setEntropy",
      "outputs": [],
      "stateMutability": "nonpayable",
      "type": "function"
    },
    {
      "inputs": [
        {
          "internalType": "uint16",
          "name": "numTokens",
          "type": "uint16"
        }
      ],
      "name": "buyTokens",
      "outputs": [],
      "stateMutability": "payable",
      "type": "function",
      "payable": true
    },
    {
      "inputs": [
        {
          "internalType": "uint16[]",
          "name": "tickets",
          "type": "uint16[]"
        }
      ],
      "name": "isWinner",
      "outputs": [],
      "stateMutability": "nonpayable",
      "type": "function"
    },
    {
      "inputs": [],
      "name": "getTokenAddress",
      "outputs": [
        {
          "internalType": "address",
          "name": "",
          "type": "address"
        }
      ],
      "stateMutability": "view",
      "type": "function",
      "constant": true
    },
    {
      "inputs": [],
      "name": "getBalanceOfPaymentHandler",
      "outputs": [
        {
          "internalType": "uint256",
          "name": "",
          "type": "uint256"
        }
      ],
      "stateMutability": "view",
      "type": "function",
      "constant": true
    },
    {
      "inputs": [
        {
          "internalType": "address",
          "name": "user",
          "type": "address"
        }
      ],
      "name": "getTokensRequested",
      "outputs": [
        {
          "internalType": "uint16",
          "name": "",
          "type": "uint16"
        }
      ],
      "stateMutability": "view",
      "type": "function",
      "constant": true
    },
    {
      "inputs": [],
      "name": "getPrice",
      "outputs": [
        {
          "internalType": "uint256",
          "name": "",
          "type": "uint256"
        }
      ],
      "stateMutability": "pure",
      "type": "function",
      "constant": true
    },
    {
      "inputs": [],
      "name": "getContractState",
      "outputs": [
        {
          "internalType": "uint256",
          "name": "",
          "type": "uint256"
        }
      ],
      "stateMutability": "view",
      "type": "function",
      "constant": true
    },
    {
      "inputs": [
        {
          "internalType": "uint256",
          "name": "state",
          "type": "uint256"
        }
      ],
      "name": "setContractState",
      "outputs": [
        {
          "internalType": "bool",
          "name": "",
          "type": "bool"
        }
      ],
      "stateMutability": "nonpayable",
      "type": "function"
    },
    {
      "inputs": [
        {
          "internalType": "address",
          "name": "stateManager",
          "type": "address"
        }
      ],
      "name": "setStateManagerRole",
      "outputs": [],
      "stateMutability": "nonpayable",
      "type": "function"
    }
  ],
  "bytecode": "0x6101e0604052600061ffff166101009061ffff16815250600261ffff166101209061ffff16815250600161ffff166101409061ffff16815250600361ffff166101609061ffff16815250666a94d74f4300006101809081525061271067ffffffffffffffff166101a09067ffffffffffffffff16815250600461ffff166101c09061ffff168152506000600a60006101000a81548160ff0219169083151502179055506000600a60016101000a81548160ff0219169083151502179055506002600c60146101000a81548161ffff021916908361ffff1602179055506002600c60166101000a81548161ffff021916908361ffff1602179055506006600c60186101000a81548161ffff021916908361ffff160217905550605a600c601a6101000a81548161ffff021916908361ffff1602179055506000600e60006101000a81548173ffffffffffffffffffffffffffffffffffffffff021916908373ffffffffffffffffffffffffffffffffffffffff1602179055506040518060800160405280600c60149054906101000a900461ffff1661ffff1661ffff168152602001600c60169054906101000a900461ffff1661ffff1661ffff168152602001600c60189054906101000a900461ffff1661ffff1661ffff168152602001600c601a9054906101000a900461ffff1661ffff1661ffff16815250600f9060046200020a9291906200098c565b503480156200021857600080fd5b50604051620052b7380380620052b783398181016040528101906200023e919062000c2c565b808285600f8054806020026020016040519081016040528092919081815260200182805480156200028f57602002820191906000526020600020905b8154815260200190600101908083116200027a575b50505050508051825114620002db576040517f08c379a0000000000000000000000000000000000000000000000000000000008152600401620002d29062000d5a565b60405180910390fd5b600082511162000322576040517f08c379a0000000000000000000000000000000000000000000000000000000008152600401620003199062000dcc565b60405180910390fd5b60005b825181101562000391576200037b83828151811062000349576200034862000dee565b5b602002602001015183838151811062000367576200036662000dee565b5b60200260200101516200055d60201b60201c565b8080620003889062000e56565b91505062000325565b5050508173ffffffffffffffffffffffffffffffffffffffff1660a08173ffffffffffffffffffffffffffffffffffffffff16815250508073ffffffffffffffffffffffffffffffffffffffff1660808173ffffffffffffffffffffffffffffffffffffffff168152505050508173ffffffffffffffffffffffffffffffffffffffff1660c08173ffffffffffffffffffffffffffffffffffffffff16815250508260e0818152505084600c60006101000a81548173ffffffffffffffffffffffffffffffffffffffff021916908373ffffffffffffffffffffffffffffffffffffffff1602179055508360038151811062000492576200049162000dee565b5b6020026020010151600e60006101000a81548173ffffffffffffffffffffffffffffffffffffffff021916908373ffffffffffffffffffffffffffffffffffffffff1602179055506000600760006101000a81548160ff0219169083600481111562000503576200050262000ea4565b5b02179055506200051d6000801b336200079760201b60201c565b620005527fecfee88fcfa2ef792f0f3299f6260bd7d97f69a4e460612fb6373f878eea12e86000801b620007ad60201b60201c565b505050505062001121565b600073ffffffffffffffffffffffffffffffffffffffff168273ffffffffffffffffffffffffffffffffffffffff161415620005d0576040517f08c379a0000000000000000000000000000000000000000000000000000000008152600401620005c79062000f49565b60405180910390fd5b6000811162000616576040517f08c379a00000000000000000000000000000000000000000000000000000000081526004016200060d9062000fbb565b60405180910390fd5b6000600360008473ffffffffffffffffffffffffffffffffffffffff1673ffffffffffffffffffffffffffffffffffffffff16815260200190815260200160002054146200069b576040517f08c379a0000000000000000000000000000000000000000000000000000000008152600401620006929062001053565b60405180910390fd5b6005829080600181540180825580915050600190039060005260206000200160009091909190916101000a81548173ffffffffffffffffffffffffffffffffffffffff021916908373ffffffffffffffffffffffffffffffffffffffff16021790555080600360008473ffffffffffffffffffffffffffffffffffffffff1673ffffffffffffffffffffffffffffffffffffffff168152602001908152602001600020819055508060015462000752919062001075565b6001819055507f40c340f65e17194d14ddddb073d3c9f888e3cb52b5aae0c6c7706b4fbc905fac82826040516200078b929190620010f4565b60405180910390a15050565b620007a982826200080a60201b60201c565b5050565b80620007bf83620008fb60201b60201c565b837fbd79b86ffe0ab8e8776151514217cd7cacd52c909f66475c3af44e129f0b00ff60405160405180910390a480600080848152602001908152602001600020600101819055505050565b6200081c82826200091a60201b60201c565b620008f757600160008084815260200190815260200160002060000160008373ffffffffffffffffffffffffffffffffffffffff1673ffffffffffffffffffffffffffffffffffffffff16815260200190815260200160002060006101000a81548160ff0219169083151502179055506200089c6200098460201b60201c565b73ffffffffffffffffffffffffffffffffffffffff168173ffffffffffffffffffffffffffffffffffffffff16837f2f8788117e7eff1d82e926ec794901d17c78024a50270940304540a733656f0d60405160405180910390a45b5050565b6000806000838152602001908152602001600020600101549050919050565b600080600084815260200190815260200160002060000160008373ffffffffffffffffffffffffffffffffffffffff1673ffffffffffffffffffffffffffffffffffffffff16815260200190815260200160002060009054906101000a900460ff16905092915050565b600033905090565b828054828255906000526020600020908101928215620009d1579160200282015b82811115620009d0578251829061ffff16905591602001919060010190620009ad565b5b509050620009e09190620009e4565b5090565b5b80821115620009ff576000816000905550600101620009e5565b5090565b6000604051905090565b600080fd5b600080fd5b600073ffffffffffffffffffffffffffffffffffffffff82169050919050565b600062000a448262000a17565b9050919050565b62000a568162000a37565b811462000a6257600080fd5b50565b60008151905062000a768162000a4b565b92915050565b600080fd5b6000601f19601f8301169050919050565b7f4e487b7100000000000000000000000000000000000000000000000000000000600052604160045260246000fd5b62000acc8262000a81565b810181811067ffffffffffffffff8211171562000aee5762000aed62000a92565b5b80604052505050565b600062000b0362000a03565b905062000b11828262000ac1565b919050565b600067ffffffffffffffff82111562000b345762000b3362000a92565b5b602082029050602081019050919050565b600080fd5b600062000b6162000b5b8462000b16565b62000af7565b9050808382526020820190506020840283018581111562000b875762000b8662000b45565b5b835b8181101562000bb4578062000b9f888262000a65565b84526020840193505060208101905062000b89565b5050509392505050565b600082601f83011262000bd65762000bd562000a7c565b5b815162000be884826020860162000b4a565b91505092915050565b6000819050919050565b62000c068162000bf1565b811462000c1257600080fd5b50565b60008151905062000c268162000bfb565b92915050565b600080600080600060a0868803121562000c4b5762000c4a62000a0d565b5b600062000c5b8882890162000a65565b955050602086015167ffffffffffffffff81111562000c7f5762000c7e62000a12565b5b62000c8d8882890162000bbe565b945050604062000ca08882890162000c15565b935050606062000cb38882890162000a65565b925050608062000cc68882890162000a65565b9150509295509295909350565b600082825260208201905092915050565b7f5061796d656e7453706c69747465723a2070617965657320616e64207368617260008201527f6573206c656e677468206d69736d617463680000000000000000000000000000602082015250565b600062000d4260328362000cd3565b915062000d4f8262000ce4565b604082019050919050565b6000602082019050818103600083015262000d758162000d33565b9050919050565b7f5061796d656e7453706c69747465723a206e6f20706179656573000000000000600082015250565b600062000db4601a8362000cd3565b915062000dc18262000d7c565b602082019050919050565b6000602082019050818103600083015262000de78162000da5565b9050919050565b7f4e487b7100000000000000000000000000000000000000000000000000000000600052603260045260246000fd5b7f4e487b7100000000000000000000000000000000000000000000000000000000600052601160045260246000fd5b6000819050919050565b600062000e638262000e4c565b91507fffffffffffffffffffffffffffffffffffffffffffffffffffffffffffffffff82141562000e995762000e9862000e1d565b5b600182019050919050565b7f4e487b7100000000000000000000000000000000000000000000000000000000600052602160045260246000fd5b7f5061796d656e7453706c69747465723a206163636f756e74206973207468652060008201527f7a65726f20616464726573730000000000000000000000000000000000000000602082015250565b600062000f31602c8362000cd3565b915062000f3e8262000ed3565b604082019050919050565b6000602082019050818103600083015262000f648162000f22565b9050919050565b7f5061796d656e7453706c69747465723a20736861726573206172652030000000600082015250565b600062000fa3601d8362000cd3565b915062000fb08262000f6b565b602082019050919050565b6000602082019050818103600083015262000fd68162000f94565b9050919050565b7f5061796d656e7453706c69747465723a206163636f756e7420616c726561647960008201527f2068617320736861726573000000000000000000000000000000000000000000602082015250565b60006200103b602b8362000cd3565b9150620010488262000fdd565b604082019050919050565b600060208201905081810360008301526200106e816200102c565b9050919050565b6000620010828262000e4c565b91506200108f8362000e4c565b9250827fffffffffffffffffffffffffffffffffffffffffffffffffffffffffffffffff03821115620010c757620010c662000e1d565b5b828201905092915050565b620010dd8162000a37565b82525050565b620010ee8162000e4c565b82525050565b60006040820190506200110b6000830185620010d2565b6200111a6020830184620010e3565b9392505050565b60805160a05160c05160e05161010051610120516101405161016051610180516101a0516101c0516140f1620011c660003960006113aa015260008181610fa5015281816117fd0152818161186e01528181611b3801526123b50152600081816107fa01526117520152600050506000505060005050600050506000610dfe01526000611cdd01526000818161166b015261201e01526000611fe201526140f16000f3fe6080604052600436106101d05760003560e01c80637f4e4849116100f7578063a217fddf11610095578063d547741f11610064578063d547741f146106b3578063e33b7de3146106dc578063eedac3a614610707578063fb7265ff1461073257610217565b8063a217fddf146105f7578063a332099914610622578063b78e691e1461064d578063ce7c2ac21461067657610217565b806391d14854116100d157806391d148541461052957806394985ddd146105665780639852595c1461058f57806398d5fdca146105cc57610217565b80637f4e48491461049857806386c5c977146104c35780638b83209b146104ec57610217565b8063248a9ca31161016f5780633a98ef391161013e5780633a98ef3914610402578063575010751461042d5780635fd2ede5146104585780636f1dfea01461046f57610217565b8063248a9ca3146103485780632f2ff15d146103855780632f47fd86146103ae57806336568abe146103d957610217565b806310fe9ae8116101ab57806310fe9ae8146102a05780631696f941146102cb578063191655871461030857806323ba07b61461033157610217565b80626d6cae1461021c57806301ffc9a7146102475780630e662cf01461028457610217565b36610217577f6ef95f06320e7a25a04a175ca677b7052bdd97131872c2192525a629f51be7706101fe61076f565b3460405161020d92919061279f565b60405180910390a1005b600080fd5b34801561022857600080fd5b50610231610777565b60405161023e91906127e1565b60405180910390f35b34801561025357600080fd5b5061026e6004803603810190610269919061285e565b61077d565b60405161027b91906128a6565b60405180910390f35b61029e600480360381019061029991906128fb565b6107f7565b005b3480156102ac57600080fd5b506102b5610947565b6040516102c29190612928565b60405180910390f35b3480156102d757600080fd5b506102f260048036038101906102ed919061296f565b610971565b6040516102ff91906129ab565b60405180910390f35b34801561031457600080fd5b5061032f600480360381019061032a9190612a04565b610acb565b005b34801561033d57600080fd5b50610346610d33565b005b34801561035457600080fd5b5061036f600480360381019061036a9190612a5d565b610e2e565b60405161037c91906127e1565b60405180910390f35b34801561039157600080fd5b506103ac60048036038101906103a79190612a8a565b610e4d565b005b3480156103ba57600080fd5b506103c3610e76565b6040516103d09190612aca565b60405180910390f35b3480156103e557600080fd5b5061040060048036038101906103fb9190612a8a565b610e7c565b005b34801561040e57600080fd5b50610417610eff565b6040516104249190612aca565b60405180910390f35b34801561043957600080fd5b50610442610f09565b60405161044f91906127e1565b60405180910390f35b34801561046457600080fd5b5061046d610f2d565b005b34801561047b57600080fd5b506104966004803603810190610491919061296f565b611256565b005b3480156104a457600080fd5b506104ad611309565b6040516104ba9190612aca565b60405180910390f35b3480156104cf57600080fd5b506104ea60048036038101906104e591906128fb565b611332565b005b3480156104f857600080fd5b50610513600480360381019061050e9190612b11565b6115b7565b6040516105209190612928565b60405180910390f35b34801561053557600080fd5b50610550600480360381019061054b9190612a8a565b6115ff565b60405161055d91906128a6565b60405180910390f35b34801561057257600080fd5b5061058d60048036038101906105889190612b3e565b611669565b005b34801561059b57600080fd5b506105b660048036038101906105b1919061296f565b611705565b6040516105c39190612aca565b60405180910390f35b3480156105d857600080fd5b506105e161174e565b6040516105ee9190612aca565b60405180910390f35b34801561060357600080fd5b5061060c611776565b60405161061991906127e1565b60405180910390f35b34801561062e57600080fd5b5061063761177d565b6040516106449190612aca565b60405180910390f35b34801561065957600080fd5b50610674600480360381019061066f9190612be3565b611785565b005b34801561068257600080fd5b5061069d6004803603810190610698919061296f565b611c5f565b6040516106aa9190612aca565b60405180910390f35b3480156106bf57600080fd5b506106da60048036038101906106d59190612a8a565b611ca8565b005b3480156106e857600080fd5b506106f1611cd1565b6040516106fe9190612aca565b60405180910390f35b34801561071357600080fd5b5061071c611cdb565b6040516107299190612c8f565b60405180910390f35b34801561073e57600080fd5b5061075960048036038101906107549190612b11565b611cff565b60405161076691906128a6565b60405180910390f35b600033905090565b60095481565b60007f7965db0b000000000000000000000000000000000000000000000000000000007bffffffffffffffffffffffffffffffffffffffffffffffffffffffff1916827bffffffffffffffffffffffffffffffffffffffffffffffffffffffff191614806107f057506107ef82611e80565b5b9050919050565b347f00000000000000000000000000000000000000000000000000000000000000008261ffff166108289190612cd9565b14610868576040517f08c379a000000000000000000000000000000000000000000000000000000000815260040161085f90612d90565b60405180910390fd5b6000600c60009054906101000a900473ffffffffffffffffffffffffffffffffffffffff1673ffffffffffffffffffffffffffffffffffffffff16638d69f541336040518263ffffffff1660e01b81526004016108c59190612928565b6020604051808303816000875af11580156108e4573d6000803e3d6000fd5b505050506040513d601f19601f820116820180604052508101906109089190612ddc565b90507f31a9e4232909bf1f0f1a26d923b1a2eaf57dcb56272c9d7fe3d3d1b54631e730338360405161093b929190612e09565b60405180910390a15050565b6000600c60009054906101000a900473ffffffffffffffffffffffffffffffffffffffff16905090565b60008073ffffffffffffffffffffffffffffffffffffffff168273ffffffffffffffffffffffffffffffffffffffff1614156109e2576040517f08c379a00000000000000000000000000000000000000000000000000000000081526004016109d990612e7e565b60405180910390fd5b6000601060008473ffffffffffffffffffffffffffffffffffffffff1673ffffffffffffffffffffffffffffffffffffffff16815260200190815260200160002060009054906101000a900461ffff1661ffff1611610a76576040517f08c379a0000000000000000000000000000000000000000000000000000000008152600401610a6d90612eea565b60405180910390fd5b601060008373ffffffffffffffffffffffffffffffffffffffff1673ffffffffffffffffffffffffffffffffffffffff16815260200190815260200160002060009054906101000a900461ffff169050919050565b6000600360008373ffffffffffffffffffffffffffffffffffffffff1673ffffffffffffffffffffffffffffffffffffffff1681526020019081526020016000205411610b4d576040517f08c379a0000000000000000000000000000000000000000000000000000000008152600401610b4490612f7c565b60405180910390fd5b600060025447610b5d9190612f9c565b90506000600460008473ffffffffffffffffffffffffffffffffffffffff1673ffffffffffffffffffffffffffffffffffffffff16815260200190815260200160002054600154600360008673ffffffffffffffffffffffffffffffffffffffff1673ffffffffffffffffffffffffffffffffffffffff1681526020019081526020016000205484610bef9190612cd9565b610bf99190613021565b610c039190613052565b90506000811415610c49576040517f08c379a0000000000000000000000000000000000000000000000000000000008152600401610c40906130f8565b60405180910390fd5b80600460008573ffffffffffffffffffffffffffffffffffffffff1673ffffffffffffffffffffffffffffffffffffffff16815260200190815260200160002054610c949190612f9c565b600460008573ffffffffffffffffffffffffffffffffffffffff1673ffffffffffffffffffffffffffffffffffffffff1681526020019081526020016000208190555080600254610ce59190612f9c565b600281905550610cf58382611eea565b7fdf20fd1e76bc69d672e4814fafb2c449bba3a5369d8359adf9e05e6fde87b0568382604051610d26929190613139565b60405180910390a1505050565b60026004811115610d4757610d46613162565b5b600760009054906101000a900460ff166004811115610d6957610d68613162565b5b14610da9576040517f08c379a0000000000000000000000000000000000000000000000000000000008152600401610da0906131dd565b60405180910390fd5b600a60019054906101000a900460ff1615610df9576040517f08c379a0000000000000000000000000000000000000000000000000000000008152600401610df090613249565b60405180910390fd5b610e2b7f0000000000000000000000000000000000000000000000000000000000000000671bc16d674ec80000611fde565b50565b6000806000838152602001908152602001600020600101549050919050565b610e5682610e2e565b610e6781610e6261076f565b612131565b610e7183836121ce565b505050565b60085481565b610e8461076f565b73ffffffffffffffffffffffffffffffffffffffff168173ffffffffffffffffffffffffffffffffffffffff1614610ef1576040517f08c379a0000000000000000000000000000000000000000000000000000000008152600401610ee8906132db565b60405180910390fd5b610efb82826122ae565b5050565b6000600154905090565b7fecfee88fcfa2ef792f0f3299f6260bd7d97f69a4e460612fb6373f878eea12e881565b60026004811115610f4157610f40613162565b5b600760009054906101000a900460ff166004811115610f6357610f62613162565b5b14610fa3576040517f08c379a0000000000000000000000000000000000000000000000000000000008152600401610f9a90613347565b60405180910390fd5b7f000000000000000000000000000000000000000000000000000000000000000067ffffffffffffffff16610fd8600b61238f565b11611018576040517f08c379a000000000000000000000000000000000000000000000000000000000815260040161100f906133b3565b60405180910390fd5b600a60019054906101000a900460ff16611067576040517f08c379a000000000000000000000000000000000000000000000000000000000815260040161105e9061341f565b60405180910390fd5b60005b611074600b61238f565b8110156111fc57600081611088600b61238f565b6110929190613052565b600d5461109f919061343f565b826110aa9190612f9c565b90506000601282815481106110c2576110c1613470565b5b9060005260206000200160009054906101000a900473ffffffffffffffffffffffffffffffffffffffff1690506012838154811061110357611102613470565b5b9060005260206000200160009054906101000a900473ffffffffffffffffffffffffffffffffffffffff166012838154811061114257611141613470565b5b9060005260206000200160006101000a81548173ffffffffffffffffffffffffffffffffffffffff021916908373ffffffffffffffffffffffffffffffffffffffff160217905550806012848154811061119f5761119e613470565b5b9060005260206000200160006101000a81548173ffffffffffffffffffffffffffffffffffffffff021916908373ffffffffffffffffffffffffffffffffffffffff160217905550505080806111f49061349f565b91505061106a565b506001600a60006101000a81548160ff0219169083151502179055507f97e4e5f083f1b7f83da9a614c9b2c912c45bb2959d0c901dcb0e27a6ee09c5d460128054905060405161124c9190612aca565b60405180910390a1565b6000801b61126b8161126661076f565b612131565b600073ffffffffffffffffffffffffffffffffffffffff168273ffffffffffffffffffffffffffffffffffffffff1614156112db576040517f08c379a00000000000000000000000000000000000000000000000000000000081526004016112d290613534565b60405180910390fd5b6113057fecfee88fcfa2ef792f0f3299f6260bd7d97f69a4e460612fb6373f878eea12e883610e4d565b5050565b6000600760009054906101000a900460ff16600481111561132d5761132c613162565b5b905090565b6001600481111561134657611345613162565b5b600760009054906101000a900460ff16600481111561136857611367613162565b5b146113a8576040517f08c379a000000000000000000000000000000000000000000000000000000000815260040161139f906135a0565b60405180910390fd5b7f000000000000000000000000000000000000000000000000000000000000000061ffff1681601060003373ffffffffffffffffffffffffffffffffffffffff1673ffffffffffffffffffffffffffffffffffffffff16815260200190815260200160002060009054906101000a900461ffff1661142691906135c0565b61ffff161061146a576040517f08c379a000000000000000000000000000000000000000000000000000000000815260040161146190613644565b60405180910390fd5b80601060003373ffffffffffffffffffffffffffffffffffffffff1673ffffffffffffffffffffffffffffffffffffffff16815260200190815260200160002060008282829054906101000a900461ffff166114c691906135c0565b92506101000a81548161ffff021916908361ffff16021790555060005b8161ffff1681101561156f576012339080600181540180825580915050600190039060005260206000200160009091909190916101000a81548173ffffffffffffffffffffffffffffffffffffffff021916908373ffffffffffffffffffffffffffffffffffffffff16021790555061155c600b61239d565b80806115679061349f565b9150506114e3565b507f0caab1a325caae32148db4a8c14466a83a84b5e074b83e4dced52ea46c6b003f338261159d600b61238f565b6040516115ac93929190613664565b60405180910390a150565b6000600582815481106115cd576115cc613470565b5b9060005260206000200160009054906101000a900473ffffffffffffffffffffffffffffffffffffffff169050919050565b600080600084815260200190815260200160002060000160008373ffffffffffffffffffffffffffffffffffffffff1673ffffffffffffffffffffffffffffffffffffffff16815260200190815260200160002060009054906101000a900460ff16905092915050565b7f000000000000000000000000000000000000000000000000000000000000000073ffffffffffffffffffffffffffffffffffffffff163373ffffffffffffffffffffffffffffffffffffffff16146116f7576040517f08c379a00000000000000000000000000000000000000000000000000000000081526004016116ee906136e7565b60405180910390fd5b61170182826123b3565b5050565b6000600460008373ffffffffffffffffffffffffffffffffffffffff1673ffffffffffffffffffffffffffffffffffffffff168152602001908152602001600020549050919050565b60007f0000000000000000000000000000000000000000000000000000000000000000905090565b6000801b81565b600047905090565b6003600481111561179957611798613162565b5b600760009054906101000a900460ff1660048111156117bb576117ba613162565b5b146117fb576040517f08c379a00000000000000000000000000000000000000000000000000000000081526004016117f290613753565b60405180910390fd5b7f000000000000000000000000000000000000000000000000000000000000000067ffffffffffffffff166012805490501161186c576040517f08c379a0000000000000000000000000000000000000000000000000000000008152600401611863906137bf565b60405180910390fd5b7f000000000000000000000000000000000000000000000000000000000000000067ffffffffffffffff1660128054905011156118f357600a60009054906101000a900460ff166118f2576040517f08c379a00000000000000000000000000000000000000000000000000000000081526004016118e990613851565b60405180910390fd5b5b6000805b83839050811015611bb65760128054905084848381811061191b5761191a613470565b5b905060200201602081019061193091906128fb565b61ffff1610611974576040517f08c379a000000000000000000000000000000000000000000000000000000000815260040161196b906138bd565b60405180910390fd5b6011600085858481811061198b5761198a613470565b5b90506020020160208101906119a091906128fb565b61ffff1661ffff16815260200190815260200160002060009054906101000a900460ff1615611a04576040517f08c379a00000000000000000000000000000000000000000000000000000000081526004016119fb9061394f565b60405180910390fd5b3373ffffffffffffffffffffffffffffffffffffffff166012858584818110611a3057611a2f613470565b5b9050602002016020810190611a4591906128fb565b61ffff1681548110611a5a57611a59613470565b5b9060005260206000200160009054906101000a900473ffffffffffffffffffffffffffffffffffffffff1673ffffffffffffffffffffffffffffffffffffffff1614611adb576040517f08c379a0000000000000000000000000000000000000000000000000000000008152600401611ad2906139bb565b60405180910390fd5b600160116000868685818110611af457611af3613470565b5b9050602002016020810190611b0991906128fb565b61ffff1661ffff16815260200190815260200160002060006101000a81548160ff0219169083151502179055507f000000000000000000000000000000000000000000000000000000000000000067ffffffffffffffff16848483818110611b7457611b73613470565b5b9050602002016020810190611b8991906128fb565b61ffff161015611ba357600182611ba091906135c0565b91505b8080611bae9061349f565b9150506118f7565b50828290508161ffff161015611c215780601060003373ffffffffffffffffffffffffffffffffffffffff1673ffffffffffffffffffffffffffffffffffffffff16815260200190815260200160002060006101000a81548161ffff021916908361ffff1602179055505b7fbc3d344f5bd6ab932d64c6cb48435488a62f7fc8655b16b3d6d9aedf6d54fffa3382604051611c52929190612e09565b60405180910390a1505050565b6000600360008373ffffffffffffffffffffffffffffffffffffffff1673ffffffffffffffffffffffffffffffffffffffff168152602001908152602001600020549050919050565b611cb182610e2e565b611cc281611cbd61076f565b612131565b611ccc83836122ae565b505050565b6000600254905090565b7f000000000000000000000000000000000000000000000000000000000000000081565b60007fecfee88fcfa2ef792f0f3299f6260bd7d97f69a4e460612fb6373f878eea12e8611d3381611d2e61076f565b612131565b60068310611d76576040517f08c379a0000000000000000000000000000000000000000000000000000000008152600401611d6d90613a27565b60405180910390fd5b60008311611db9576040517f08c379a0000000000000000000000000000000000000000000000000000000008152600401611db090613a27565b60405180910390fd5b6001600760009054906101000a900460ff166004811115611ddd57611ddc613162565b5b611de79190612f9c565b8314611e28576040517f08c379a0000000000000000000000000000000000000000000000000000000008152600401611e1f90613a93565b60405180910390fd5b6003831415611e3a57611e39610d33565b5b826004811115611e4d57611e4c613162565b5b600760006101000a81548160ff02191690836004811115611e7157611e70613162565b5b02179055506001915050919050565b60007f01ffc9a7000000000000000000000000000000000000000000000000000000007bffffffffffffffffffffffffffffffffffffffffffffffffffffffff1916827bffffffffffffffffffffffffffffffffffffffffffffffffffffffff1916149050919050565b80471015611f2d576040517f08c379a0000000000000000000000000000000000000000000000000000000008152600401611f2490613aff565b60405180910390fd5b60008273ffffffffffffffffffffffffffffffffffffffff1682604051611f5390613b50565b60006040518083038185875af1925050503d8060008114611f90576040519150601f19603f3d011682016040523d82523d6000602084013e611f95565b606091505b5050905080611fd9576040517f08c379a0000000000000000000000000000000000000000000000000000000008152600401611fd090613bd7565b60405180910390fd5b505050565b60007f000000000000000000000000000000000000000000000000000000000000000073ffffffffffffffffffffffffffffffffffffffff16634000aea07f000000000000000000000000000000000000000000000000000000000000000084866000604051602001612052929190613bf7565b6040516020818303038152906040526040518463ffffffff1660e01b815260040161207f93929190613cb9565b6020604051808303816000875af115801561209e573d6000803e3d6000fd5b505050506040513d601f19601f820116820180604052508101906120c29190612ddc565b5060006120e584600030600660008981526020019081526020016000205461249a565b9050600160066000868152602001908152602001600020546121079190612f9c565b600660008681526020019081526020016000208190555061212884826124d6565b91505092915050565b61213b82826115ff565b6121ca576121608173ffffffffffffffffffffffffffffffffffffffff166014612509565b61216e8360001c6020612509565b60405160200161217f929190613dd6565b6040516020818303038152906040526040517f08c379a00000000000000000000000000000000000000000000000000000000081526004016121c19190613e49565b60405180910390fd5b5050565b6121d882826115ff565b6122aa57600160008084815260200190815260200160002060000160008373ffffffffffffffffffffffffffffffffffffffff1673ffffffffffffffffffffffffffffffffffffffff16815260200190815260200160002060006101000a81548160ff02191690831515021790555061224f61076f565b73ffffffffffffffffffffffffffffffffffffffff168173ffffffffffffffffffffffffffffffffffffffff16837f2f8788117e7eff1d82e926ec794901d17c78024a50270940304540a733656f0d60405160405180910390a45b5050565b6122b882826115ff565b1561238b57600080600084815260200190815260200160002060000160008373ffffffffffffffffffffffffffffffffffffffff1673ffffffffffffffffffffffffffffffffffffffff16815260200190815260200160002060006101000a81548160ff02191690831515021790555061233061076f565b73ffffffffffffffffffffffffffffffffffffffff168173ffffffffffffffffffffffffffffffffffffffff16837ff6391f5c32d9c69d2a47ea670b442974b53935d1edc7fd64eb21e047a839171b60405160405180910390a45b5050565b600081600001549050919050565b6001816000016000828254019250508190555050565b7f000000000000000000000000000000000000000000000000000000000000000067ffffffffffffffff1660128054905011612424576040517f08c379a000000000000000000000000000000000000000000000000000000000815260040161241b90613eb7565b60405180910390fd5b600a60019054906101000a900460ff1615612474576040517f08c379a000000000000000000000000000000000000000000000000000000000815260040161246b90613f23565b60405180910390fd5b80600d819055506001600a60016101000a81548160ff0219169083151502179055505050565b6000848484846040516020016124b39493929190613f43565b6040516020818303038152906040528051906020012060001c9050949350505050565b600082826040516020016124eb929190613fca565b60405160208183030381529060405280519060200120905092915050565b60606000600283600261251c9190612cd9565b6125269190612f9c565b67ffffffffffffffff81111561253f5761253e613ff6565b5b6040519080825280601f01601f1916602001820160405280156125715781602001600182028036833780820191505090505b5090507f3000000000000000000000000000000000000000000000000000000000000000816000815181106125a9576125a8613470565b5b60200101907effffffffffffffffffffffffffffffffffffffffffffffffffffffffffffff1916908160001a9053507f78000000000000000000000000000000000000000000000000000000000000008160018151811061260d5761260c613470565b5b60200101907effffffffffffffffffffffffffffffffffffffffffffffffffffffffffffff1916908160001a9053506000600184600261264d9190612cd9565b6126579190612f9c565b90505b60018111156126f7577f3031323334353637383961626364656600000000000000000000000000000000600f86166010811061269957612698613470565b5b1a60f81b8282815181106126b0576126af613470565b5b60200101907effffffffffffffffffffffffffffffffffffffffffffffffffffffffffffff1916908160001a905350600485901c9450806126f090614025565b905061265a565b506000841461273b576040517f08c379a00000000000000000000000000000000000000000000000000000000081526004016127329061409b565b60405180910390fd5b8091505092915050565b600073ffffffffffffffffffffffffffffffffffffffff82169050919050565b600061277082612745565b9050919050565b61278081612765565b82525050565b6000819050919050565b61279981612786565b82525050565b60006040820190506127b46000830185612777565b6127c16020830184612790565b9392505050565b6000819050919050565b6127db816127c8565b82525050565b60006020820190506127f660008301846127d2565b92915050565b600080fd5b600080fd5b60007fffffffff0000000000000000000000000000000000000000000000000000000082169050919050565b61283b81612806565b811461284657600080fd5b50565b60008135905061285881612832565b92915050565b600060208284031215612874576128736127fc565b5b600061288284828501612849565b91505092915050565b60008115159050919050565b6128a08161288b565b82525050565b60006020820190506128bb6000830184612897565b92915050565b600061ffff82169050919050565b6128d8816128c1565b81146128e357600080fd5b50565b6000813590506128f5816128cf565b92915050565b600060208284031215612911576129106127fc565b5b600061291f848285016128e6565b91505092915050565b600060208201905061293d6000830184612777565b92915050565b61294c81612765565b811461295757600080fd5b50565b60008135905061296981612943565b92915050565b600060208284031215612985576129846127fc565b5b60006129938482850161295a565b91505092915050565b6129a5816128c1565b82525050565b60006020820190506129c0600083018461299c565b92915050565b60006129d182612745565b9050919050565b6129e1816129c6565b81146129ec57600080fd5b50565b6000813590506129fe816129d8565b92915050565b600060208284031215612a1a57612a196127fc565b5b6000612a28848285016129ef565b91505092915050565b612a3a816127c8565b8114612a4557600080fd5b50565b600081359050612a5781612a31565b92915050565b600060208284031215612a7357612a726127fc565b5b6000612a8184828501612a48565b91505092915050565b60008060408385031215612aa157612aa06127fc565b5b6000612aaf85828601612a48565b9250506020612ac08582860161295a565b9150509250929050565b6000602082019050612adf6000830184612790565b92915050565b612aee81612786565b8114612af957600080fd5b50565b600081359050612b0b81612ae5565b92915050565b600060208284031215612b2757612b266127fc565b5b6000612b3584828501612afc565b91505092915050565b60008060408385031215612b5557612b546127fc565b5b6000612b6385828601612a48565b9250506020612b7485828601612afc565b9150509250929050565b600080fd5b600080fd5b600080fd5b60008083601f840112612ba357612ba2612b7e565b5b8235905067ffffffffffffffff811115612bc057612bbf612b83565b5b602083019150836020820283011115612bdc57612bdb612b88565b5b9250929050565b60008060208385031215612bfa57612bf96127fc565b5b600083013567ffffffffffffffff811115612c1857612c17612801565b5b612c2485828601612b8d565b92509250509250929050565b6000819050919050565b6000612c55612c50612c4b84612745565b612c30565b612745565b9050919050565b6000612c6782612c3a565b9050919050565b6000612c7982612c5c565b9050919050565b612c8981612c6e565b82525050565b6000602082019050612ca46000830184612c80565b92915050565b7f4e487b7100000000000000000000000000000000000000000000000000000000600052601160045260246000fd5b6000612ce482612786565b9150612cef83612786565b9250817fffffffffffffffffffffffffffffffffffffffffffffffffffffffffffffffff0483118215151615612d2857612d27612caa565b5b828202905092915050565b600082825260208201905092915050565b7f496e636f727265637420416d6f756e74205375626d6974746564000000000000600082015250565b6000612d7a601a83612d33565b9150612d8582612d44565b602082019050919050565b60006020820190508181036000830152612da981612d6d565b9050919050565b612db98161288b565b8114612dc457600080fd5b50565b600081519050612dd681612db0565b92915050565b600060208284031215612df257612df16127fc565b5b6000612e0084828501612dc7565b91505092915050565b6000604082019050612e1e6000830185612777565b612e2b602083018461299c565b9392505050565b7f696e76616c696420616464726573730000000000000000000000000000000000600082015250565b6000612e68600f83612d33565b9150612e7382612e32565b602082019050919050565b60006020820190508181036000830152612e9781612e5b565b9050919050565b7f4e6f20546f6b656e732052657175657374656400000000000000000000000000600082015250565b6000612ed4601383612d33565b9150612edf82612e9e565b602082019050919050565b60006020820190508181036000830152612f0381612ec7565b9050919050565b7f5061796d656e7453706c69747465723a206163636f756e7420686173206e6f2060008201527f7368617265730000000000000000000000000000000000000000000000000000602082015250565b6000612f66602683612d33565b9150612f7182612f0a565b604082019050919050565b60006020820190508181036000830152612f9581612f59565b9050919050565b6000612fa782612786565b9150612fb283612786565b9250827fffffffffffffffffffffffffffffffffffffffffffffffffffffffffffffffff03821115612fe757612fe6612caa565b5b828201905092915050565b7f4e487b7100000000000000000000000000000000000000000000000000000000600052601260045260246000fd5b600061302c82612786565b915061303783612786565b92508261304757613046612ff2565b5b828204905092915050565b600061305d82612786565b915061306883612786565b92508282101561307b5761307a612caa565b5b828203905092915050565b7f5061796d656e7453706c69747465723a206163636f756e74206973206e6f742060008201527f647565207061796d656e74000000000000000000000000000000000000000000602082015250565b60006130e2602b83612d33565b91506130ed82613086565b604082019050919050565b60006020820190508181036000830152613111816130d5565b9050919050565b600061312382612c5c565b9050919050565b61313381613118565b82525050565b600060408201905061314e600083018561312a565b61315b6020830184612790565b9392505050565b7f4e487b7100000000000000000000000000000000000000000000000000000000600052602160045260246000fd5b7f726166666c65206973207374696c6c2061637469766500000000000000000000600082015250565b60006131c7601683612d33565b91506131d282613191565b602082019050919050565b600060208201905081810360008301526131f6816131ba565b9050919050565b7f456e74726f707920697320616c7265616479207365742c206e6f206e65656400600082015250565b6000613233601f83612d33565b915061323e826131fd565b602082019050919050565b6000602082019050818103600083015261326281613226565b9050919050565b7f416363657373436f6e74726f6c3a2063616e206f6e6c792072656e6f756e636560008201527f20726f6c657320666f722073656c660000000000000000000000000000000000602082015250565b60006132c5602f83612d33565b91506132d082613269565b604082019050919050565b600060208201905081810360008301526132f4816132b8565b9050919050565b7f526166666c65204973205374696c6c2041637469766500000000000000000000600082015250565b6000613331601683612d33565b915061333c826132fb565b602082019050919050565b6000602082019050818103600083015261336081613324565b9050919050565b7f4e6f206e65656420746f2073687566666c650000000000000000000000000000600082015250565b600061339d601283612d33565b91506133a882613367565b602082019050919050565b600060208201905081810360008301526133cc81613390565b9050919050565b7f4e6f2072616e646f6d6e65737320746f2073687566666c652077697468000000600082015250565b6000613409601d83612d33565b9150613414826133d3565b602082019050919050565b60006020820190508181036000830152613438816133fc565b9050919050565b600061344a82612786565b915061345583612786565b92508261346557613464612ff2565b5b828206905092915050565b7f4e487b7100000000000000000000000000000000000000000000000000000000600052603260045260246000fd5b60006134aa82612786565b91507fffffffffffffffffffffffffffffffffffffffffffffffffffffffffffffffff8214156134dd576134dc612caa565b5b600182019050919050565b7f506c6561736520456e7465722056616c69642041646472657373000000000000600082015250565b600061351e601a83612d33565b9150613529826134e8565b602082019050919050565b6000602082019050818103600083015261354d81613511565b9050919050565b7f526166666c65206973206e6f7420616374697665000000000000000000000000600082015250565b600061358a601483612d33565b915061359582613554565b602082019050919050565b600060208201905081810360008301526135b98161357d565b9050919050565b60006135cb826128c1565b91506135d6836128c1565b92508261ffff038211156135ed576135ec612caa565b5b828201905092915050565b7f506c65617365207265717565737420666577657220746f6b656e730000000000600082015250565b600061362e601b83612d33565b9150613639826135f8565b602082019050919050565b6000602082019050818103600083015261365d81613621565b9050919050565b60006060820190506136796000830186612777565b613686602083018561299c565b6136936040830184612790565b949350505050565b7f4f6e6c7920565246436f6f7264696e61746f722063616e2066756c66696c6c00600082015250565b60006136d1601f83612d33565b91506136dc8261369b565b602082019050919050565b60006020820190508181036000830152613700816136c4565b9050919050565b7f4d696e74696e67207374617465206e6565647320746f20626520616374697665600082015250565b600061373d602083612d33565b915061374882613707565b602082019050919050565b6000602082019050818103600083015261376c81613730565b9050919050565b7f4576657279626f647920697320612077696e6e65720000000000000000000000600082015250565b60006137a9601583612d33565b91506137b482613773565b602082019050919050565b600060208201905081810360008301526137d88161379c565b9050919050565b7f706c656173652073687566666c652077696e6e657273206265666f7265206d6960008201527f6e74696e67000000000000000000000000000000000000000000000000000000602082015250565b600061383b602583612d33565b9150613846826137df565b604082019050919050565b6000602082019050818103600083015261386a8161382e565b9050919050565b7f4e6f7420612076616c6964207469636b65740000000000000000000000000000600082015250565b60006138a7601283612d33565b91506138b282613871565b602082019050919050565b600060208201905081810360008301526138d68161389a565b9050919050565b7f5469636b657473206861766520616c7265616479206265656e20636c61696d6560008201527f6400000000000000000000000000000000000000000000000000000000000000602082015250565b6000613939602183612d33565b9150613944826138dd565b604082019050919050565b600060208201905081810360008301526139688161392c565b9050919050565b7f4e6f7420746865206f776e6572206f66207468657365207469636b6574730000600082015250565b60006139a5601e83612d33565b91506139b08261396f565b602082019050919050565b600060208201905081810360008301526139d481613998565b9050919050565b7f4e6f7420612070726f7065722073746174650000000000000000000000000000600082015250565b6000613a11601283612d33565b9150613a1c826139db565b602082019050919050565b60006020820190508181036000830152613a4081613a04565b9050919050565b7f4e6f7420612070726f706572207374617465207472616e736974696f6e000000600082015250565b6000613a7d601d83612d33565b9150613a8882613a47565b602082019050919050565b60006020820190508181036000830152613aac81613a70565b9050919050565b7f416464726573733a20696e73756666696369656e742062616c616e6365000000600082015250565b6000613ae9601d83612d33565b9150613af482613ab3565b602082019050919050565b60006020820190508181036000830152613b1881613adc565b9050919050565b600081905092915050565b50565b6000613b3a600083613b1f565b9150613b4582613b2a565b600082019050919050565b6000613b5b82613b2d565b9150819050919050565b7f416464726573733a20756e61626c6520746f2073656e642076616c75652c207260008201527f6563697069656e74206d61792068617665207265766572746564000000000000602082015250565b6000613bc1603a83612d33565b9150613bcc82613b65565b604082019050919050565b60006020820190508181036000830152613bf081613bb4565b9050919050565b6000604082019050613c0c60008301856127d2565b613c196020830184612790565b9392505050565b600081519050919050565b600082825260208201905092915050565b60005b83811015613c5a578082015181840152602081019050613c3f565b83811115613c69576000848401525b50505050565b6000601f19601f8301169050919050565b6000613c8b82613c20565b613c958185613c2b565b9350613ca5818560208601613c3c565b613cae81613c6f565b840191505092915050565b6000606082019050613cce6000830186612777565b613cdb6020830185612790565b8181036040830152613ced8184613c80565b9050949350505050565b600081905092915050565b7f416363657373436f6e74726f6c3a206163636f756e7420000000000000000000600082015250565b6000613d38601783613cf7565b9150613d4382613d02565b601782019050919050565b600081519050919050565b6000613d6482613d4e565b613d6e8185613cf7565b9350613d7e818560208601613c3c565b80840191505092915050565b7f206973206d697373696e6720726f6c6520000000000000000000000000000000600082015250565b6000613dc0601183613cf7565b9150613dcb82613d8a565b601182019050919050565b6000613de182613d2b565b9150613ded8285613d59565b9150613df882613db3565b9150613e048284613d59565b91508190509392505050565b6000613e1b82613d4e565b613e258185612d33565b9350613e35818560208601613c3c565b613e3e81613c6f565b840191505092915050565b60006020820190508181036000830152613e638184613e10565b905092915050565b7f4e6f206e65656420746f2073687566666c652061646472657373657300000000600082015250565b6000613ea1601c83612d33565b9150613eac82613e6b565b602082019050919050565b60006020820190508181036000830152613ed081613e94565b9050919050565b7f656e74726f707920616c72656164792073657400000000000000000000000000600082015250565b6000613f0d601383612d33565b9150613f1882613ed7565b602082019050919050565b60006020820190508181036000830152613f3c81613f00565b9050919050565b6000608082019050613f5860008301876127d2565b613f656020830186612790565b613f726040830185612777565b613f7f6060830184612790565b95945050505050565b6000819050919050565b613fa3613f9e826127c8565b613f88565b82525050565b6000819050919050565b613fc4613fbf82612786565b613fa9565b82525050565b6000613fd68285613f92565b602082019150613fe68284613fb3565b6020820191508190509392505050565b7f4e487b7100000000000000000000000000000000000000000000000000000000600052604160045260246000fd5b600061403082612786565b9150600082141561404457614043612caa565b5b600182039050919050565b7f537472696e67733a20686578206c656e67746820696e73756666696369656e74600082015250565b6000614085602083612d33565b91506140908261404f565b602082019050919050565b600060208201905081810360008301526140b481614078565b905091905056fea2646970667358221220fa70b48e15248953a73c87f29e8a1d8efd09f4be5ac258d24388e6103b6220cb64736f6c634300080a0033",
  "immutableReferences": {
    "73": [
      {
        "length": 32,
        "start": 8162
      }
    ],
    "75": [
      {
        "length": 32,
        "start": 5739
      },
      {
        "length": 32,
        "start": 8222
      }
    ],
    "3625": [
      {
        "length": 32,
        "start": 7389
      }
    ],
    "3627": [
      {
        "length": 32,
        "start": 3582
      }
    ],
    "3642": [
      {
        "length": 32,
        "start": 2042
      },
      {
        "length": 32,
        "start": 5970
      }
    ],
    "3645": [
      {
        "length": 32,
        "start": 4005
      },
      {
        "length": 32,
        "start": 6141
      },
      {
        "length": 32,
        "start": 6254
      },
      {
        "length": 32,
        "start": 6968
      },
      {
        "length": 32,
        "start": 9141
      }
    ],
    "3648": [
      {
        "length": 32,
        "start": 5034
      }
    ]
  },
  "source": "//SPDX-License-Identifier: UNLICENSED\npragma solidity ^0.8.0;\n\nimport \"@openzeppelin/contracts/finance/PaymentSplitter.sol\";\nimport \"@chainlink/contracts/src/v0.8/VRFConsumerBase.sol\";\nimport \"@openzeppelin/contracts/token/ERC20/IERC20.sol\";\nimport \"@openzeppelin/contracts/access/AccessControl.sol\";\nimport \"./MyWish.sol\";\n\n\ncontract PaymentHandler is AccessControl, PaymentSplitter, VRFConsumerBase {\n\n    using Counters for Counters.Counter; \n    enum ContractState {\n        PRESALE,\n        RAFFLE,\n        PREMINT,\n        MINTING,\n        OPEN\n    }\n\n    ContractState contractState;\n    bytes32 public constant STATE_MANAGER_ROLE = keccak256(\"STATE_MANAGER_ROLE\");\n    uint256 public randomnessOutput;\n    bytes32 public requestId;\n\n    IERC20 public immutable LINK_TOKEN;\n    bytes32 internal immutable KEY_HASH;\n    \n\n    uint16 immutable zachIndex = 0;\n    uint16 immutable evanIndex = 2;\n    uint16 immutable sebIndex = 1;\n    uint16 immutable wishIndex = 3;\n    uint256 immutable PRICE = 30000000000000000 wei;\n    uint64 immutable TOKEN_CAP = 10000;\n    uint16 immutable USER_TOKEN_CAP = 4;\n\n    bool raffleIsShuffled = false;\n    bool entropySet = false;\n\n    Counters.Counter private raffleCount;       \n\n    MyWish _myWishContract;\n\n    uint16 sebShares = 2;\n    uint16 zachShares = 2;\n    uint16 evanShares = 6;\n    uint16 makeAWishShares = 90;\n    uint256 entropy;\n\n    address makeAWish = address(0);\n    uint256[] shares_ = [sebShares, zachShares, evanShares, makeAWishShares];\n\n    mapping(address => uint16) tokensPerUser;\n    mapping(uint16 => bool) ticketsClaimed;\n    address[] raffleEntries;\n    \n    event fundsAccepted(address from);\n    event enteredRaffle(address from ,uint16 numTokens,uint256 lastIndex);\n    event raffleShuffled(uint256 totalEntries);\n    event ticketsRedeemed(address user, uint16 winningTicketCount);\n    event tokensPurchased(address user, uint16 tokensPurchased);\n\n    constructor(\n        address tokenAddress,\n        address[] memory payees,\n        bytes32 _LINK_KEY_HASH,\n        address _LINK_ADDRESS,\n        address _LINK_VRF_COORDINATOR_ADDRESS\n       ) \n       PaymentSplitter(payees, shares_)\n       VRFConsumerBase(_LINK_VRF_COORDINATOR_ADDRESS, _LINK_ADDRESS)\n    {\n        LINK_TOKEN = IERC20(_LINK_ADDRESS);\n        KEY_HASH = _LINK_KEY_HASH;\n        _myWishContract = MyWish(tokenAddress);\n        makeAWish = payees[3];\n        contractState = ContractState.PRESALE;\n        _setupRole(DEFAULT_ADMIN_ROLE,msg.sender);\n        _setRoleAdmin(STATE_MANAGER_ROLE, DEFAULT_ADMIN_ROLE);\n\n    }\n\n    function enterRaffle(uint16 numTokens)\n    public\n    {\n        require(contractState == ContractState.RAFFLE, \"Raffle is not active\");\n        require(tokensPerUser[msg.sender] + numTokens < USER_TOKEN_CAP,\"Please request fewer tokens\");\n      \n        tokensPerUser[msg.sender] += numTokens;\n        for(uint i = 0; i < numTokens; i++){\n            raffleEntries.push(msg.sender);\n            raffleCount.increment();\n           \n        }\n        \n        emit enteredRaffle(msg.sender, numTokens, raffleCount.current());\n\n    }\n    \n    function shuffleEntries() public {\n        require(contractState == ContractState.PREMINT,\"Raffle Is Still Active\");\n        require(raffleCount.current() > TOKEN_CAP,\"No need to shuffle\");\n        require(entropySet, \"No randomness to shuffle with\");\n\n        for (uint256 i = 0; i < raffleCount.current(); i++) {\n            // Generate a random index to select from\n            uint256 randomIndex = i + entropy % (raffleCount.current() - i);\n            // Collect the value at that random index\n            address randomTmp = raffleEntries[randomIndex];\n            // Update the value at the random index to the current value\n            raffleEntries[randomIndex] = raffleEntries[i];\n            // Update the current value to the value at the random index\n            raffleEntries[i] = randomTmp;\n        }\n\n        raffleIsShuffled = true;\n        emit raffleShuffled(raffleEntries.length);\n\n    }\n\n    function setEntropy() public {\n        \n        require(contractState == ContractState.PREMINT,'raffle is still active');\n        require(!entropySet,'Entropy is already set, no need');\n        \n        requestRandomness(KEY_HASH, 2e18);\n\n    }\n\n    function buyTokens(uint16 numTokens) payable public {\n        require(numTokens * PRICE == msg.value,\"Incorrect Amount Submitted\");\n\n        bool success = _myWishContract.createCollectable(msg.sender);\n        emit tokensPurchased(msg.sender, numTokens);\n    }\n\n\n    function isWinner(uint16[] calldata tickets) public { \n        require(contractState == ContractState.MINTING ,\"Minting state needs to be active\");\n        require(raffleEntries.length > TOKEN_CAP, \"Everybody is a winner\");\n        if(raffleEntries.length > TOKEN_CAP) {\n            require(raffleIsShuffled,\"please shuffle winners before minting\");\n        }\n\n        uint16 winningTicketCount = 0;\n        for(uint i = 0; i < tickets.length; i++){\n            require(tickets[i] < raffleEntries.length,\"Not a valid ticket\");\n            require(!ticketsClaimed[tickets[i]],\"Tickets have already been claimed\");\n            require(raffleEntries[tickets[i]] == msg.sender, \"Not the owner of these tickets\");\n            ticketsClaimed[tickets[i]] = true;\n            if(tickets[i] < TOKEN_CAP){\n                winningTicketCount += 1;\n            }\n     \n        }\n        if(winningTicketCount < tickets.length){\n            tokensPerUser[msg.sender] = winningTicketCount;\n        }\n        emit ticketsRedeemed(msg.sender, winningTicketCount);\n\n    }\n    \n\n    function fulfillRandomness(bytes32 requestId, uint256 randomness) internal override {\n        require(raffleEntries.length > TOKEN_CAP, \"No need to shuffle addresses\");\n        require(!entropySet,\"entropy already set\");\n        entropy = randomness;\n        entropySet = true;\n    }\n\n\n\n\n    function getTokenAddress() external view returns(address) {\n        return address(_myWishContract);\n    }\n\n    //does this return the total balance in the contract? \n    function getBalanceOfPaymentHandler()\n    external\n    view\n    returns(uint256){\n        return address(this).balance;\n    }\n\n  \n    function releaseEther() internal {\n        address payable zach = payable(payee(zachIndex));\n        address payable evan = payable(payee(evanIndex));\n        address payable seb = payable(payee(sebIndex));\n        address payable wish = payable(payee(wishIndex));\n\n        require(seb !=  address(0), \"Address of Seb is not set\");\n        require(zach != address(0), \"Address of Zach is not set\");\n        require(evan != address(0), \"Address of Evan is not set\");\n        require(wish != address(0), \"Address of Make A Wish is not set\");\n        \n        release(zach);\n        release(wish); \n        release(evan); \n        release(seb);\n    }\n\n\n    function getTokensRequested(address user) public view returns(uint16) {\n        require(user != address(0),\"invalid address\");\n        require(tokensPerUser[user] > 0, \"No Tokens Requested\");\n        \n        return tokensPerUser[user];\n    }\n\n    function getPrice() public pure returns(uint256){\n        return PRICE;\n    }\n\n\n    function getContractState() public view returns(uint) {\n        return uint(contractState);\n    }\n\n    function setContractState(uint state) public onlyRole(STATE_MANAGER_ROLE) returns(bool) {\n        require(state < 6,\"Not a proper state\");\n        require(state > 0, \"Not a proper state\");\n        require(state  == uint(contractState) + 1, \"Not a proper state transition\");\n        if(state == 3){\n            //premint stage needs to be shuffled\n            setEntropy();\n\n        }\n        contractState = ContractState(state);\n        return true;\n\n    }\n\n        function setStateManagerRole(address stateManager) public onlyRole(DEFAULT_ADMIN_ROLE) {\n        require(stateManager != address(0),\"Please Enter Valid Address\");\n        grantRole(STATE_MANAGER_ROLE,stateManager);\n       \n    }\n\n\n\n\n\n\n\n\n}\n",
  "sourcePath": "/Users/zlederman/Documents/Code/js/truffle-react/contracts/PaymentHandler.sol",
  "compiler": {
    "name": "solc",
    "version": "0.8.10+commit.fc410830.Emscripten.clang"
  },
  "schemaVersion": "3.4.2",
  "updatedAt": "2021-11-12T02:38:05.072Z",
  "networkType": "ethereum",
  "devdoc": {
    "kind": "dev",
    "methods": {
      "getRoleAdmin(bytes32)": {
        "details": "Returns the admin role that controls `role`. See {grantRole} and {revokeRole}. To change a role's admin, use {_setRoleAdmin}."
      },
      "grantRole(bytes32,address)": {
        "details": "Grants `role` to `account`. If `account` had not been already granted `role`, emits a {RoleGranted} event. Requirements: - the caller must have ``role``'s admin role."
      },
      "hasRole(bytes32,address)": {
        "details": "Returns `true` if `account` has been granted `role`."
      },
      "payee(uint256)": {
        "details": "Getter for the address of the payee number `index`."
      },
      "release(address)": {
        "details": "Triggers a transfer to `account` of the amount of Ether they are owed, according to their percentage of the total shares and their previous withdrawals."
      },
      "released(address)": {
        "details": "Getter for the amount of Ether already released to a payee."
      },
      "renounceRole(bytes32,address)": {
        "details": "Revokes `role` from the calling account. Roles are often managed via {grantRole} and {revokeRole}: this function's purpose is to provide a mechanism for accounts to lose their privileges if they are compromised (such as when a trusted device is misplaced). If the calling account had been granted `role`, emits a {RoleRevoked} event. Requirements: - the caller must be `account`."
      },
      "revokeRole(bytes32,address)": {
        "details": "Revokes `role` from `account`. If `account` had been granted `role`, emits a {RoleRevoked} event. Requirements: - the caller must have ``role``'s admin role."
      },
      "shares(address)": {
        "details": "Getter for the amount of shares held by an account."
      },
      "supportsInterface(bytes4)": {
        "details": "See {IERC165-supportsInterface}."
      },
      "totalReleased()": {
        "details": "Getter for the total amount of Ether already released."
      },
      "totalShares()": {
        "details": "Getter for the total shares held by payees."
      }
    },
    "version": 1
  },
  "userdoc": {
    "kind": "user",
    "methods": {},
    "version": 1
  }
}