{
  "contractName": "PaymentHandler",
  "abi": [
    {
      "inputs": [
        {
          "internalType": "address",
          "name": "tokenAddress",
          "type": "address"
        },
        {
          "internalType": "address[]",
          "name": "payees",
          "type": "address[]"
        },
        {
          "internalType": "bytes32",
          "name": "_LINK_KEY_HASH",
          "type": "bytes32"
        },
        {
          "internalType": "address",
          "name": "_LINK_ADDRESS",
          "type": "address"
        },
        {
          "internalType": "address",
          "name": "_LINK_VRF_COORDINATOR_ADDRESS",
          "type": "address"
        }
      ],
      "stateMutability": "nonpayable",
      "type": "constructor"
    },
    {
      "anonymous": false,
      "inputs": [
        {
          "indexed": false,
          "internalType": "address",
          "name": "account",
          "type": "address"
        },
        {
          "indexed": false,
          "internalType": "uint256",
          "name": "shares",
          "type": "uint256"
        }
      ],
      "name": "PayeeAdded",
      "type": "event"
    },
    {
      "anonymous": false,
      "inputs": [
        {
          "indexed": false,
          "internalType": "address",
          "name": "from",
          "type": "address"
        },
        {
          "indexed": false,
          "internalType": "uint256",
          "name": "amount",
          "type": "uint256"
        }
      ],
      "name": "PaymentReceived",
      "type": "event"
    },
    {
      "anonymous": false,
      "inputs": [
        {
          "indexed": false,
          "internalType": "address",
          "name": "to",
          "type": "address"
        },
        {
          "indexed": false,
          "internalType": "uint256",
          "name": "amount",
          "type": "uint256"
        }
      ],
      "name": "PaymentReleased",
      "type": "event"
    },
    {
      "anonymous": false,
      "inputs": [
        {
          "indexed": true,
          "internalType": "bytes32",
          "name": "role",
          "type": "bytes32"
        },
        {
          "indexed": true,
          "internalType": "bytes32",
          "name": "previousAdminRole",
          "type": "bytes32"
        },
        {
          "indexed": true,
          "internalType": "bytes32",
          "name": "newAdminRole",
          "type": "bytes32"
        }
      ],
      "name": "RoleAdminChanged",
      "type": "event"
    },
    {
      "anonymous": false,
      "inputs": [
        {
          "indexed": true,
          "internalType": "bytes32",
          "name": "role",
          "type": "bytes32"
        },
        {
          "indexed": true,
          "internalType": "address",
          "name": "account",
          "type": "address"
        },
        {
          "indexed": true,
          "internalType": "address",
          "name": "sender",
          "type": "address"
        }
      ],
      "name": "RoleGranted",
      "type": "event"
    },
    {
      "anonymous": false,
      "inputs": [
        {
          "indexed": true,
          "internalType": "bytes32",
          "name": "role",
          "type": "bytes32"
        },
        {
          "indexed": true,
          "internalType": "address",
          "name": "account",
          "type": "address"
        },
        {
          "indexed": true,
          "internalType": "address",
          "name": "sender",
          "type": "address"
        }
      ],
      "name": "RoleRevoked",
      "type": "event"
    },
    {
      "anonymous": false,
      "inputs": [
        {
          "indexed": false,
          "internalType": "address",
          "name": "from",
          "type": "address"
        },
        {
          "indexed": false,
          "internalType": "uint16",
          "name": "numTokens",
          "type": "uint16"
        },
        {
          "indexed": false,
          "internalType": "uint256",
          "name": "lastIndex",
          "type": "uint256"
        }
      ],
      "name": "enteredRaffle",
      "type": "event"
    },
    {
      "anonymous": false,
      "inputs": [
        {
          "indexed": false,
          "internalType": "address",
          "name": "from",
          "type": "address"
        }
      ],
      "name": "fundsAccepted",
      "type": "event"
    },
    {
      "anonymous": false,
      "inputs": [
        {
          "indexed": false,
          "internalType": "uint256",
          "name": "totalEntries",
          "type": "uint256"
        }
      ],
      "name": "raffleShuffled",
      "type": "event"
    },
    {
      "anonymous": false,
      "inputs": [
        {
          "indexed": false,
          "internalType": "address",
          "name": "user",
          "type": "address"
        },
        {
          "indexed": false,
          "internalType": "uint16",
          "name": "winningTicketCount",
          "type": "uint16"
        }
      ],
      "name": "ticketsRedeemed",
      "type": "event"
    },
    {
      "anonymous": false,
      "inputs": [
        {
          "indexed": false,
          "internalType": "address",
          "name": "user",
          "type": "address"
        },
        {
          "indexed": false,
          "internalType": "uint16",
          "name": "tokensPurchased",
          "type": "uint16"
        }
      ],
      "name": "tokensPurchased",
      "type": "event"
    },
    {
      "inputs": [],
      "name": "DEFAULT_ADMIN_ROLE",
      "outputs": [
        {
          "internalType": "bytes32",
          "name": "",
          "type": "bytes32"
        }
      ],
      "stateMutability": "view",
      "type": "function",
      "constant": true
    },
    {
      "inputs": [],
      "name": "LINK_TOKEN",
      "outputs": [
        {
          "internalType": "contract IERC20",
          "name": "",
          "type": "address"
        }
      ],
      "stateMutability": "view",
      "type": "function",
      "constant": true
    },
    {
      "inputs": [],
      "name": "STATE_MANAGER_ROLE",
      "outputs": [
        {
          "internalType": "bytes32",
          "name": "",
          "type": "bytes32"
        }
      ],
      "stateMutability": "view",
      "type": "function",
      "constant": true
    },
    {
      "inputs": [
        {
          "internalType": "bytes32",
          "name": "role",
          "type": "bytes32"
        }
      ],
      "name": "getRoleAdmin",
      "outputs": [
        {
          "internalType": "bytes32",
          "name": "",
          "type": "bytes32"
        }
      ],
      "stateMutability": "view",
      "type": "function",
      "constant": true
    },
    {
      "inputs": [
        {
          "internalType": "bytes32",
          "name": "role",
          "type": "bytes32"
        },
        {
          "internalType": "address",
          "name": "account",
          "type": "address"
        }
      ],
      "name": "grantRole",
      "outputs": [],
      "stateMutability": "nonpayable",
      "type": "function"
    },
    {
      "inputs": [
        {
          "internalType": "bytes32",
          "name": "role",
          "type": "bytes32"
        },
        {
          "internalType": "address",
          "name": "account",
          "type": "address"
        }
      ],
      "name": "hasRole",
      "outputs": [
        {
          "internalType": "bool",
          "name": "",
          "type": "bool"
        }
      ],
      "stateMutability": "view",
      "type": "function",
      "constant": true
    },
    {
      "inputs": [
        {
          "internalType": "uint256",
          "name": "index",
          "type": "uint256"
        }
      ],
      "name": "payee",
      "outputs": [
        {
          "internalType": "address",
          "name": "",
          "type": "address"
        }
      ],
      "stateMutability": "view",
      "type": "function",
      "constant": true
    },
    {
      "inputs": [],
      "name": "randomnessOutput",
      "outputs": [
        {
          "internalType": "uint256",
          "name": "",
          "type": "uint256"
        }
      ],
      "stateMutability": "view",
      "type": "function",
      "constant": true
    },
    {
      "inputs": [
        {
          "internalType": "bytes32",
          "name": "requestId",
          "type": "bytes32"
        },
        {
          "internalType": "uint256",
          "name": "randomness",
          "type": "uint256"
        }
      ],
      "name": "rawFulfillRandomness",
      "outputs": [],
      "stateMutability": "nonpayable",
      "type": "function"
    },
    {
      "inputs": [
        {
          "internalType": "address payable",
          "name": "account",
          "type": "address"
        }
      ],
      "name": "release",
      "outputs": [],
      "stateMutability": "nonpayable",
      "type": "function"
    },
    {
      "inputs": [
        {
          "internalType": "address",
          "name": "account",
          "type": "address"
        }
      ],
      "name": "released",
      "outputs": [
        {
          "internalType": "uint256",
          "name": "",
          "type": "uint256"
        }
      ],
      "stateMutability": "view",
      "type": "function",
      "constant": true
    },
    {
      "inputs": [
        {
          "internalType": "bytes32",
          "name": "role",
          "type": "bytes32"
        },
        {
          "internalType": "address",
          "name": "account",
          "type": "address"
        }
      ],
      "name": "renounceRole",
      "outputs": [],
      "stateMutability": "nonpayable",
      "type": "function"
    },
    {
      "inputs": [],
      "name": "requestId",
      "outputs": [
        {
          "internalType": "bytes32",
          "name": "",
          "type": "bytes32"
        }
      ],
      "stateMutability": "view",
      "type": "function",
      "constant": true
    },
    {
      "inputs": [
        {
          "internalType": "bytes32",
          "name": "role",
          "type": "bytes32"
        },
        {
          "internalType": "address",
          "name": "account",
          "type": "address"
        }
      ],
      "name": "revokeRole",
      "outputs": [],
      "stateMutability": "nonpayable",
      "type": "function"
    },
    {
      "inputs": [
        {
          "internalType": "address",
          "name": "account",
          "type": "address"
        }
      ],
      "name": "shares",
      "outputs": [
        {
          "internalType": "uint256",
          "name": "",
          "type": "uint256"
        }
      ],
      "stateMutability": "view",
      "type": "function",
      "constant": true
    },
    {
      "inputs": [
        {
          "internalType": "bytes4",
          "name": "interfaceId",
          "type": "bytes4"
        }
      ],
      "name": "supportsInterface",
      "outputs": [
        {
          "internalType": "bool",
          "name": "",
          "type": "bool"
        }
      ],
      "stateMutability": "view",
      "type": "function",
      "constant": true
    },
    {
      "inputs": [],
      "name": "totalReleased",
      "outputs": [
        {
          "internalType": "uint256",
          "name": "",
          "type": "uint256"
        }
      ],
      "stateMutability": "view",
      "type": "function",
      "constant": true
    },
    {
      "inputs": [],
      "name": "totalShares",
      "outputs": [
        {
          "internalType": "uint256",
          "name": "",
          "type": "uint256"
        }
      ],
      "stateMutability": "view",
      "type": "function",
      "constant": true
    },
    {
      "stateMutability": "payable",
      "type": "receive",
      "payable": true
    },
    {
      "inputs": [
        {
          "internalType": "uint16",
          "name": "numTokens",
          "type": "uint16"
        }
      ],
      "name": "enterRaffle",
      "outputs": [],
      "stateMutability": "nonpayable",
      "type": "function"
    },
    {
      "inputs": [],
      "name": "shuffleEntries",
      "outputs": [],
      "stateMutability": "nonpayable",
      "type": "function"
    },
    {
      "inputs": [],
      "name": "setEntropy",
      "outputs": [],
      "stateMutability": "nonpayable",
      "type": "function"
    },
    {
      "inputs": [
        {
          "internalType": "uint16",
          "name": "numTokens",
          "type": "uint16"
        }
      ],
      "name": "buyTokens",
      "outputs": [],
      "stateMutability": "payable",
      "type": "function",
      "payable": true
    },
    {
      "inputs": [
        {
          "internalType": "uint16[]",
          "name": "tickets",
          "type": "uint16[]"
        }
      ],
      "name": "isWinner",
      "outputs": [],
      "stateMutability": "nonpayable",
      "type": "function"
    },
    {
      "inputs": [],
      "name": "getTokenAddress",
      "outputs": [
        {
          "internalType": "address",
          "name": "",
          "type": "address"
        }
      ],
      "stateMutability": "view",
      "type": "function",
      "constant": true
    },
    {
      "inputs": [],
      "name": "getBalanceOfPaymentHandler",
      "outputs": [
        {
          "internalType": "uint256",
          "name": "",
          "type": "uint256"
        }
      ],
      "stateMutability": "view",
      "type": "function",
      "constant": true
    },
    {
      "inputs": [
        {
          "internalType": "address",
          "name": "user",
          "type": "address"
        }
      ],
      "name": "getTokensRequested",
      "outputs": [
        {
          "internalType": "uint16",
          "name": "",
          "type": "uint16"
        }
      ],
      "stateMutability": "view",
      "type": "function",
      "constant": true
    },
    {
      "inputs": [],
      "name": "getPrice",
      "outputs": [
        {
          "internalType": "uint256",
          "name": "",
          "type": "uint256"
        }
      ],
      "stateMutability": "pure",
      "type": "function",
      "constant": true
    },
    {
      "inputs": [],
      "name": "getContractState",
      "outputs": [
        {
          "internalType": "enum PaymentHandler.ContractState",
          "name": "",
          "type": "uint8"
        }
      ],
      "stateMutability": "view",
      "type": "function",
      "constant": true
    },
    {
      "inputs": [
        {
          "internalType": "uint256",
          "name": "state",
          "type": "uint256"
        }
      ],
      "name": "setContractState",
      "outputs": [
        {
          "internalType": "bool",
          "name": "",
          "type": "bool"
        }
      ],
      "stateMutability": "nonpayable",
      "type": "function"
    },
    {
      "inputs": [
        {
          "internalType": "address",
          "name": "stateManager",
          "type": "address"
        }
      ],
      "name": "setStateManagerRole",
      "outputs": [],
      "stateMutability": "nonpayable",
      "type": "function"
    }
  ],
  "bytecode": "0x6101e0604052600061ffff166101009061ffff16815250600261ffff166101209061ffff16815250600161ffff166101409061ffff16815250600361ffff166101609061ffff16815250666a94d74f4300006101809081525061271067ffffffffffffffff166101a09067ffffffffffffffff16815250605a61ffff166101c09061ffff168152506000600a60006101000a81548160ff0219169083151502179055506000600a60016101000a81548160ff0219169083151502179055506002600c60146101000a81548161ffff021916908361ffff1602179055506002600c60166101000a81548161ffff021916908361ffff1602179055506006600c60186101000a81548161ffff021916908361ffff160217905550605a600c601a6101000a81548161ffff021916908361ffff1602179055506000600e60006101000a81548173ffffffffffffffffffffffffffffffffffffffff021916908373ffffffffffffffffffffffffffffffffffffffff1602179055506040518060800160405280600c60149054906101000a900461ffff1661ffff1661ffff168152602001600c60169054906101000a900461ffff1661ffff1661ffff168152602001600c60189054906101000a900461ffff1661ffff1661ffff168152602001600c601a9054906101000a900461ffff1661ffff1661ffff16815250600f9060046200020a9291906200098c565b503480156200021857600080fd5b50604051620053e2380380620053e283398181016040528101906200023e919062000c2c565b808285600f8054806020026020016040519081016040528092919081815260200182805480156200028f57602002820191906000526020600020905b8154815260200190600101908083116200027a575b50505050508051825114620002db576040517f08c379a0000000000000000000000000000000000000000000000000000000008152600401620002d29062000d5a565b60405180910390fd5b600082511162000322576040517f08c379a0000000000000000000000000000000000000000000000000000000008152600401620003199062000dcc565b60405180910390fd5b60005b825181101562000391576200037b83828151811062000349576200034862000dee565b5b602002602001015183838151811062000367576200036662000dee565b5b60200260200101516200055d60201b60201c565b8080620003889062000e56565b91505062000325565b5050508173ffffffffffffffffffffffffffffffffffffffff1660a08173ffffffffffffffffffffffffffffffffffffffff16815250508073ffffffffffffffffffffffffffffffffffffffff1660808173ffffffffffffffffffffffffffffffffffffffff168152505050508173ffffffffffffffffffffffffffffffffffffffff1660c08173ffffffffffffffffffffffffffffffffffffffff16815250508260e0818152505084600c60006101000a81548173ffffffffffffffffffffffffffffffffffffffff021916908373ffffffffffffffffffffffffffffffffffffffff1602179055508360038151811062000492576200049162000dee565b5b6020026020010151600e60006101000a81548173ffffffffffffffffffffffffffffffffffffffff021916908373ffffffffffffffffffffffffffffffffffffffff1602179055506001600760006101000a81548160ff0219169083600481111562000503576200050262000ea4565b5b02179055506200051d6000801b336200079760201b60201c565b620005527fecfee88fcfa2ef792f0f3299f6260bd7d97f69a4e460612fb6373f878eea12e86000801b620007ad60201b60201c565b505050505062001121565b600073ffffffffffffffffffffffffffffffffffffffff168273ffffffffffffffffffffffffffffffffffffffff161415620005d0576040517f08c379a0000000000000000000000000000000000000000000000000000000008152600401620005c79062000f49565b60405180910390fd5b6000811162000616576040517f08c379a00000000000000000000000000000000000000000000000000000000081526004016200060d9062000fbb565b60405180910390fd5b6000600360008473ffffffffffffffffffffffffffffffffffffffff1673ffffffffffffffffffffffffffffffffffffffff16815260200190815260200160002054146200069b576040517f08c379a0000000000000000000000000000000000000000000000000000000008152600401620006929062001053565b60405180910390fd5b6005829080600181540180825580915050600190039060005260206000200160009091909190916101000a81548173ffffffffffffffffffffffffffffffffffffffff021916908373ffffffffffffffffffffffffffffffffffffffff16021790555080600360008473ffffffffffffffffffffffffffffffffffffffff1673ffffffffffffffffffffffffffffffffffffffff168152602001908152602001600020819055508060015462000752919062001075565b6001819055507f40c340f65e17194d14ddddb073d3c9f888e3cb52b5aae0c6c7706b4fbc905fac82826040516200078b929190620010f4565b60405180910390a15050565b620007a982826200080a60201b60201c565b5050565b80620007bf83620008fb60201b60201c565b837fbd79b86ffe0ab8e8776151514217cd7cacd52c909f66475c3af44e129f0b00ff60405160405180910390a480600080848152602001908152602001600020600101819055505050565b6200081c82826200091a60201b60201c565b620008f757600160008084815260200190815260200160002060000160008373ffffffffffffffffffffffffffffffffffffffff1673ffffffffffffffffffffffffffffffffffffffff16815260200190815260200160002060006101000a81548160ff0219169083151502179055506200089c6200098460201b60201c565b73ffffffffffffffffffffffffffffffffffffffff168173ffffffffffffffffffffffffffffffffffffffff16837f2f8788117e7eff1d82e926ec794901d17c78024a50270940304540a733656f0d60405160405180910390a45b5050565b6000806000838152602001908152602001600020600101549050919050565b600080600084815260200190815260200160002060000160008373ffffffffffffffffffffffffffffffffffffffff1673ffffffffffffffffffffffffffffffffffffffff16815260200190815260200160002060009054906101000a900460ff16905092915050565b600033905090565b828054828255906000526020600020908101928215620009d1579160200282015b82811115620009d0578251829061ffff16905591602001919060010190620009ad565b5b509050620009e09190620009e4565b5090565b5b80821115620009ff576000816000905550600101620009e5565b5090565b6000604051905090565b600080fd5b600080fd5b600073ffffffffffffffffffffffffffffffffffffffff82169050919050565b600062000a448262000a17565b9050919050565b62000a568162000a37565b811462000a6257600080fd5b50565b60008151905062000a768162000a4b565b92915050565b600080fd5b6000601f19601f8301169050919050565b7f4e487b7100000000000000000000000000000000000000000000000000000000600052604160045260246000fd5b62000acc8262000a81565b810181811067ffffffffffffffff8211171562000aee5762000aed62000a92565b5b80604052505050565b600062000b0362000a03565b905062000b11828262000ac1565b919050565b600067ffffffffffffffff82111562000b345762000b3362000a92565b5b602082029050602081019050919050565b600080fd5b600062000b6162000b5b8462000b16565b62000af7565b9050808382526020820190506020840283018581111562000b875762000b8662000b45565b5b835b8181101562000bb4578062000b9f888262000a65565b84526020840193505060208101905062000b89565b5050509392505050565b600082601f83011262000bd65762000bd562000a7c565b5b815162000be884826020860162000b4a565b91505092915050565b6000819050919050565b62000c068162000bf1565b811462000c1257600080fd5b50565b60008151905062000c268162000bfb565b92915050565b600080600080600060a0868803121562000c4b5762000c4a62000a0d565b5b600062000c5b8882890162000a65565b955050602086015167ffffffffffffffff81111562000c7f5762000c7e62000a12565b5b62000c8d8882890162000bbe565b945050604062000ca08882890162000c15565b935050606062000cb38882890162000a65565b925050608062000cc68882890162000a65565b9150509295509295909350565b600082825260208201905092915050565b7f5061796d656e7453706c69747465723a2070617965657320616e64207368617260008201527f6573206c656e677468206d69736d617463680000000000000000000000000000602082015250565b600062000d4260328362000cd3565b915062000d4f8262000ce4565b604082019050919050565b6000602082019050818103600083015262000d758162000d33565b9050919050565b7f5061796d656e7453706c69747465723a206e6f20706179656573000000000000600082015250565b600062000db4601a8362000cd3565b915062000dc18262000d7c565b602082019050919050565b6000602082019050818103600083015262000de78162000da5565b9050919050565b7f4e487b7100000000000000000000000000000000000000000000000000000000600052603260045260246000fd5b7f4e487b7100000000000000000000000000000000000000000000000000000000600052601160045260246000fd5b6000819050919050565b600062000e638262000e4c565b91507fffffffffffffffffffffffffffffffffffffffffffffffffffffffffffffffff82141562000e995762000e9862000e1d565b5b600182019050919050565b7f4e487b7100000000000000000000000000000000000000000000000000000000600052602160045260246000fd5b7f5061796d656e7453706c69747465723a206163636f756e74206973207468652060008201527f7a65726f20616464726573730000000000000000000000000000000000000000602082015250565b600062000f31602c8362000cd3565b915062000f3e8262000ed3565b604082019050919050565b6000602082019050818103600083015262000f648162000f22565b9050919050565b7f5061796d656e7453706c69747465723a20736861726573206172652030000000600082015250565b600062000fa3601d8362000cd3565b915062000fb08262000f6b565b602082019050919050565b6000602082019050818103600083015262000fd68162000f94565b9050919050565b7f5061796d656e7453706c69747465723a206163636f756e7420616c726561647960008201527f2068617320736861726573000000000000000000000000000000000000000000602082015250565b60006200103b602b8362000cd3565b9150620010488262000fdd565b604082019050919050565b600060208201905081810360008301526200106e816200102c565b9050919050565b6000620010828262000e4c565b91506200108f8362000e4c565b9250827fffffffffffffffffffffffffffffffffffffffffffffffffffffffffffffffff03821115620010c757620010c662000e1d565b5b828201905092915050565b620010dd8162000a37565b82525050565b620010ee8162000e4c565b82525050565b60006040820190506200110b6000830185620010d2565b6200111a6020830184620010e3565b9392505050565b60805160a05160c05160e05161010051610120516101405161016051610180516101a0516101c051614215620011cd600039600061142b015260008181610fb4015281816113a7015281816118af0152818161192001528181611bea01526124760152600081816107fa01526118040152600050506000505060005050600050506000610e0d01526000611d8f01526000818161171d01526120d00152600061209401526142156000f3fe6080604052600436106101d05760003560e01c80637f4e4849116100f7578063a217fddf11610095578063d547741f11610064578063d547741f146106b3578063e33b7de3146106dc578063eedac3a614610707578063fb7265ff1461073257610217565b8063a217fddf146105f7578063a332099914610622578063b78e691e1461064d578063ce7c2ac21461067657610217565b806391d14854116100d157806391d148541461052957806394985ddd146105665780639852595c1461058f57806398d5fdca146105cc57610217565b80637f4e48491461049857806386c5c977146104c35780638b83209b146104ec57610217565b8063248a9ca31161016f5780633a98ef391161013e5780633a98ef3914610402578063575010751461042d5780635fd2ede5146104585780636f1dfea01461046f57610217565b8063248a9ca3146103485780632f2ff15d146103855780632f47fd86146103ae57806336568abe146103d957610217565b806310fe9ae8116101ab57806310fe9ae8146102a05780631696f941146102cb578063191655871461030857806323ba07b61461033157610217565b80626d6cae1461021c57806301ffc9a7146102475780630e662cf01461028457610217565b36610217577f6ef95f06320e7a25a04a175ca677b7052bdd97131872c2192525a629f51be7706101fe61076f565b3460405161020d929190612860565b60405180910390a1005b600080fd5b34801561022857600080fd5b50610231610777565b60405161023e91906128a2565b60405180910390f35b34801561025357600080fd5b5061026e6004803603810190610269919061291f565b61077d565b60405161027b9190612967565b60405180910390f35b61029e600480360381019061029991906129bc565b6107f7565b005b3480156102ac57600080fd5b506102b5610956565b6040516102c291906129e9565b60405180910390f35b3480156102d757600080fd5b506102f260048036038101906102ed9190612a30565b610980565b6040516102ff9190612a6c565b60405180910390f35b34801561031457600080fd5b5061032f600480360381019061032a9190612ac5565b610ada565b005b34801561033d57600080fd5b50610346610d42565b005b34801561035457600080fd5b5061036f600480360381019061036a9190612b1e565b610e3d565b60405161037c91906128a2565b60405180910390f35b34801561039157600080fd5b506103ac60048036038101906103a79190612b4b565b610e5c565b005b3480156103ba57600080fd5b506103c3610e85565b6040516103d09190612b8b565b60405180910390f35b3480156103e557600080fd5b5061040060048036038101906103fb9190612b4b565b610e8b565b005b34801561040e57600080fd5b50610417610f0e565b6040516104249190612b8b565b60405180910390f35b34801561043957600080fd5b50610442610f18565b60405161044f91906128a2565b60405180910390f35b34801561046457600080fd5b5061046d610f3c565b005b34801561047b57600080fd5b5061049660048036038101906104919190612a30565b611265565b005b3480156104a457600080fd5b506104ad611318565b6040516104ba9190612c1d565b60405180910390f35b3480156104cf57600080fd5b506104ea60048036038101906104e591906129bc565b61132f565b005b3480156104f857600080fd5b50610513600480360381019061050e9190612c64565b611669565b60405161052091906129e9565b60405180910390f35b34801561053557600080fd5b50610550600480360381019061054b9190612b4b565b6116b1565b60405161055d9190612967565b60405180910390f35b34801561057257600080fd5b5061058d60048036038101906105889190612c91565b61171b565b005b34801561059b57600080fd5b506105b660048036038101906105b19190612a30565b6117b7565b6040516105c39190612b8b565b60405180910390f35b3480156105d857600080fd5b506105e1611800565b6040516105ee9190612b8b565b60405180910390f35b34801561060357600080fd5b5061060c611828565b60405161061991906128a2565b60405180910390f35b34801561062e57600080fd5b5061063761182f565b6040516106449190612b8b565b60405180910390f35b34801561065957600080fd5b50610674600480360381019061066f9190612d36565b611837565b005b34801561068257600080fd5b5061069d60048036038101906106989190612a30565b611d11565b6040516106aa9190612b8b565b60405180910390f35b3480156106bf57600080fd5b506106da60048036038101906106d59190612b4b565b611d5a565b005b3480156106e857600080fd5b506106f1611d83565b6040516106fe9190612b8b565b60405180910390f35b34801561071357600080fd5b5061071c611d8d565b6040516107299190612de2565b60405180910390f35b34801561073e57600080fd5b5061075960048036038101906107549190612c64565b611db1565b6040516107669190612967565b60405180910390f35b600033905090565b60095481565b60007f7965db0b000000000000000000000000000000000000000000000000000000007bffffffffffffffffffffffffffffffffffffffffffffffffffffffff1916827bffffffffffffffffffffffffffffffffffffffffffffffffffffffff191614806107f057506107ef82611f32565b5b9050919050565b347f00000000000000000000000000000000000000000000000000000000000000008261ffff166108289190612e2c565b14610868576040517f08c379a000000000000000000000000000000000000000000000000000000000815260040161085f90612ee3565b60405180910390fd5b6000600c60009054906101000a900473ffffffffffffffffffffffffffffffffffffffff1673ffffffffffffffffffffffffffffffffffffffff16638d69f541336040518263ffffffff1660e01b81526004016108c591906129e9565b602060405180830381600087803b1580156108df57600080fd5b505af11580156108f3573d6000803e3d6000fd5b505050506040513d601f19601f820116820180604052508101906109179190612f2f565b90507f31a9e4232909bf1f0f1a26d923b1a2eaf57dcb56272c9d7fe3d3d1b54631e730338360405161094a929190612f5c565b60405180910390a15050565b6000600c60009054906101000a900473ffffffffffffffffffffffffffffffffffffffff16905090565b60008073ffffffffffffffffffffffffffffffffffffffff168273ffffffffffffffffffffffffffffffffffffffff1614156109f1576040517f08c379a00000000000000000000000000000000000000000000000000000000081526004016109e890612fd1565b60405180910390fd5b6000601060008473ffffffffffffffffffffffffffffffffffffffff1673ffffffffffffffffffffffffffffffffffffffff16815260200190815260200160002060009054906101000a900461ffff1661ffff1611610a85576040517f08c379a0000000000000000000000000000000000000000000000000000000008152600401610a7c9061303d565b60405180910390fd5b601060008373ffffffffffffffffffffffffffffffffffffffff1673ffffffffffffffffffffffffffffffffffffffff16815260200190815260200160002060009054906101000a900461ffff169050919050565b6000600360008373ffffffffffffffffffffffffffffffffffffffff1673ffffffffffffffffffffffffffffffffffffffff1681526020019081526020016000205411610b5c576040517f08c379a0000000000000000000000000000000000000000000000000000000008152600401610b53906130cf565b60405180910390fd5b600060025447610b6c91906130ef565b90506000600460008473ffffffffffffffffffffffffffffffffffffffff1673ffffffffffffffffffffffffffffffffffffffff16815260200190815260200160002054600154600360008673ffffffffffffffffffffffffffffffffffffffff1673ffffffffffffffffffffffffffffffffffffffff1681526020019081526020016000205484610bfe9190612e2c565b610c089190613174565b610c1291906131a5565b90506000811415610c58576040517f08c379a0000000000000000000000000000000000000000000000000000000008152600401610c4f9061324b565b60405180910390fd5b80600460008573ffffffffffffffffffffffffffffffffffffffff1673ffffffffffffffffffffffffffffffffffffffff16815260200190815260200160002054610ca391906130ef565b600460008573ffffffffffffffffffffffffffffffffffffffff1673ffffffffffffffffffffffffffffffffffffffff1681526020019081526020016000208190555080600254610cf491906130ef565b600281905550610d048382611f9c565b7fdf20fd1e76bc69d672e4814fafb2c449bba3a5369d8359adf9e05e6fde87b0568382604051610d3592919061328c565b60405180910390a1505050565b60026004811115610d5657610d55612ba6565b5b600760009054906101000a900460ff166004811115610d7857610d77612ba6565b5b14610db8576040517f08c379a0000000000000000000000000000000000000000000000000000000008152600401610daf90613301565b60405180910390fd5b600a60019054906101000a900460ff1615610e08576040517f08c379a0000000000000000000000000000000000000000000000000000000008152600401610dff9061336d565b60405180910390fd5b610e3a7f0000000000000000000000000000000000000000000000000000000000000000671bc16d674ec80000612090565b50565b6000806000838152602001908152602001600020600101549050919050565b610e6582610e3d565b610e7681610e7161076f565b6121f2565b610e80838361228f565b505050565b60085481565b610e9361076f565b73ffffffffffffffffffffffffffffffffffffffff168173ffffffffffffffffffffffffffffffffffffffff1614610f00576040517f08c379a0000000000000000000000000000000000000000000000000000000008152600401610ef7906133ff565b60405180910390fd5b610f0a828261236f565b5050565b6000600154905090565b7fecfee88fcfa2ef792f0f3299f6260bd7d97f69a4e460612fb6373f878eea12e881565b60026004811115610f5057610f4f612ba6565b5b600760009054906101000a900460ff166004811115610f7257610f71612ba6565b5b14610fb2576040517f08c379a0000000000000000000000000000000000000000000000000000000008152600401610fa99061346b565b60405180910390fd5b7f000000000000000000000000000000000000000000000000000000000000000067ffffffffffffffff16610fe7600b612450565b11611027576040517f08c379a000000000000000000000000000000000000000000000000000000000815260040161101e906134d7565b60405180910390fd5b600a60019054906101000a900460ff16611076576040517f08c379a000000000000000000000000000000000000000000000000000000000815260040161106d90613543565b60405180910390fd5b60005b611083600b612450565b81101561120b57600081611097600b612450565b6110a191906131a5565b600d546110ae9190613563565b826110b991906130ef565b90506000601282815481106110d1576110d0613594565b5b9060005260206000200160009054906101000a900473ffffffffffffffffffffffffffffffffffffffff1690506012838154811061111257611111613594565b5b9060005260206000200160009054906101000a900473ffffffffffffffffffffffffffffffffffffffff166012838154811061115157611150613594565b5b9060005260206000200160006101000a81548173ffffffffffffffffffffffffffffffffffffffff021916908373ffffffffffffffffffffffffffffffffffffffff16021790555080601284815481106111ae576111ad613594565b5b9060005260206000200160006101000a81548173ffffffffffffffffffffffffffffffffffffffff021916908373ffffffffffffffffffffffffffffffffffffffff16021790555050508080611203906135c3565b915050611079565b506001600a60006101000a81548160ff0219169083151502179055507f97e4e5f083f1b7f83da9a614c9b2c912c45bb2959d0c901dcb0e27a6ee09c5d460128054905060405161125b9190612b8b565b60405180910390a1565b6000801b61127a8161127561076f565b6121f2565b600073ffffffffffffffffffffffffffffffffffffffff168273ffffffffffffffffffffffffffffffffffffffff1614156112ea576040517f08c379a00000000000000000000000000000000000000000000000000000000081526004016112e190613658565b60405180910390fd5b6113147fecfee88fcfa2ef792f0f3299f6260bd7d97f69a4e460612fb6373f878eea12e883610e5c565b5050565b6000600760009054906101000a900460ff16905090565b6001600481111561134357611342612ba6565b5b600760009054906101000a900460ff16600481111561136557611364612ba6565b5b146113a5576040517f08c379a000000000000000000000000000000000000000000000000000000000815260040161139c906136c4565b60405180910390fd5b7f000000000000000000000000000000000000000000000000000000000000000067ffffffffffffffff166113da600b612450565b8261ffff166113e991906130ef565b10611429576040517f08c379a000000000000000000000000000000000000000000000000000000000815260040161142090613730565b60405180910390fd5b7f000000000000000000000000000000000000000000000000000000000000000061ffff1681601060003373ffffffffffffffffffffffffffffffffffffffff1673ffffffffffffffffffffffffffffffffffffffff16815260200190815260200160002060009054906101000a900461ffff166114a79190613750565b61ffff16106114eb576040517f08c379a00000000000000000000000000000000000000000000000000000000081526004016114e290613730565b60405180910390fd5b80601060003373ffffffffffffffffffffffffffffffffffffffff1673ffffffffffffffffffffffffffffffffffffffff16815260200190815260200160002060006101000a81548161ffff021916908361ffff16021790555060005b8161ffff168110156115d4576012339080600181540180825580915050600190039060005260206000200160009091909190916101000a81548173ffffffffffffffffffffffffffffffffffffffff021916908373ffffffffffffffffffffffffffffffffffffffff1602179055506115c1600b61245e565b80806115cc906135c3565b915050611548565b507f0caab1a325caae32148db4a8c14466a83a84b5e074b83e4dced52ea46c6b003f33601060003373ffffffffffffffffffffffffffffffffffffffff1673ffffffffffffffffffffffffffffffffffffffff16815260200190815260200160002060009054906101000a900461ffff1661164f600b612450565b60405161165e93929190613788565b60405180910390a150565b60006005828154811061167f5761167e613594565b5b9060005260206000200160009054906101000a900473ffffffffffffffffffffffffffffffffffffffff169050919050565b600080600084815260200190815260200160002060000160008373ffffffffffffffffffffffffffffffffffffffff1673ffffffffffffffffffffffffffffffffffffffff16815260200190815260200160002060009054906101000a900460ff16905092915050565b7f000000000000000000000000000000000000000000000000000000000000000073ffffffffffffffffffffffffffffffffffffffff163373ffffffffffffffffffffffffffffffffffffffff16146117a9576040517f08c379a00000000000000000000000000000000000000000000000000000000081526004016117a09061380b565b60405180910390fd5b6117b38282612474565b5050565b6000600460008373ffffffffffffffffffffffffffffffffffffffff1673ffffffffffffffffffffffffffffffffffffffff168152602001908152602001600020549050919050565b60007f0000000000000000000000000000000000000000000000000000000000000000905090565b6000801b81565b600047905090565b6003600481111561184b5761184a612ba6565b5b600760009054906101000a900460ff16600481111561186d5761186c612ba6565b5b146118ad576040517f08c379a00000000000000000000000000000000000000000000000000000000081526004016118a490613877565b60405180910390fd5b7f000000000000000000000000000000000000000000000000000000000000000067ffffffffffffffff166012805490501161191e576040517f08c379a0000000000000000000000000000000000000000000000000000000008152600401611915906138e3565b60405180910390fd5b7f000000000000000000000000000000000000000000000000000000000000000067ffffffffffffffff1660128054905011156119a557600a60009054906101000a900460ff166119a4576040517f08c379a000000000000000000000000000000000000000000000000000000000815260040161199b90613975565b60405180910390fd5b5b6000805b83839050811015611c68576012805490508484838181106119cd576119cc613594565b5b90506020020160208101906119e291906129bc565b61ffff1610611a26576040517f08c379a0000000000000000000000000000000000000000000000000000000008152600401611a1d906139e1565b60405180910390fd5b60116000858584818110611a3d57611a3c613594565b5b9050602002016020810190611a5291906129bc565b61ffff1661ffff16815260200190815260200160002060009054906101000a900460ff1615611ab6576040517f08c379a0000000000000000000000000000000000000000000000000000000008152600401611aad90613a73565b60405180910390fd5b3373ffffffffffffffffffffffffffffffffffffffff166012858584818110611ae257611ae1613594565b5b9050602002016020810190611af791906129bc565b61ffff1681548110611b0c57611b0b613594565b5b9060005260206000200160009054906101000a900473ffffffffffffffffffffffffffffffffffffffff1673ffffffffffffffffffffffffffffffffffffffff1614611b8d576040517f08c379a0000000000000000000000000000000000000000000000000000000008152600401611b8490613adf565b60405180910390fd5b600160116000868685818110611ba657611ba5613594565b5b9050602002016020810190611bbb91906129bc565b61ffff1661ffff16815260200190815260200160002060006101000a81548160ff0219169083151502179055507f000000000000000000000000000000000000000000000000000000000000000067ffffffffffffffff16848483818110611c2657611c25613594565b5b9050602002016020810190611c3b91906129bc565b61ffff161015611c5557600182611c529190613750565b91505b8080611c60906135c3565b9150506119a9565b50828290508161ffff161015611cd35780601060003373ffffffffffffffffffffffffffffffffffffffff1673ffffffffffffffffffffffffffffffffffffffff16815260200190815260200160002060006101000a81548161ffff021916908361ffff1602179055505b7fbc3d344f5bd6ab932d64c6cb48435488a62f7fc8655b16b3d6d9aedf6d54fffa3382604051611d04929190612f5c565b60405180910390a1505050565b6000600360008373ffffffffffffffffffffffffffffffffffffffff1673ffffffffffffffffffffffffffffffffffffffff168152602001908152602001600020549050919050565b611d6382610e3d565b611d7481611d6f61076f565b6121f2565b611d7e838361236f565b505050565b6000600254905090565b7f000000000000000000000000000000000000000000000000000000000000000081565b60007fecfee88fcfa2ef792f0f3299f6260bd7d97f69a4e460612fb6373f878eea12e8611de581611de061076f565b6121f2565b60068310611e28576040517f08c379a0000000000000000000000000000000000000000000000000000000008152600401611e1f90613b4b565b60405180910390fd5b60008311611e6b576040517f08c379a0000000000000000000000000000000000000000000000000000000008152600401611e6290613b4b565b60405180910390fd5b6001600760009054906101000a900460ff166004811115611e8f57611e8e612ba6565b5b611e9991906130ef565b8314611eda576040517f08c379a0000000000000000000000000000000000000000000000000000000008152600401611ed190613bb7565b60405180910390fd5b6003831415611eec57611eeb610d42565b5b826004811115611eff57611efe612ba6565b5b600760006101000a81548160ff02191690836004811115611f2357611f22612ba6565b5b02179055506001915050919050565b60007f01ffc9a7000000000000000000000000000000000000000000000000000000007bffffffffffffffffffffffffffffffffffffffffffffffffffffffff1916827bffffffffffffffffffffffffffffffffffffffffffffffffffffffff1916149050919050565b80471015611fdf576040517f08c379a0000000000000000000000000000000000000000000000000000000008152600401611fd690613c23565b60405180910390fd5b60008273ffffffffffffffffffffffffffffffffffffffff168260405161200590613c74565b60006040518083038185875af1925050503d8060008114612042576040519150601f19603f3d011682016040523d82523d6000602084013e612047565b606091505b505090508061208b576040517f08c379a000000000000000000000000000000000000000000000000000000000815260040161208290613cfb565b60405180910390fd5b505050565b60007f000000000000000000000000000000000000000000000000000000000000000073ffffffffffffffffffffffffffffffffffffffff16634000aea07f000000000000000000000000000000000000000000000000000000000000000084866000604051602001612104929190613d1b565b6040516020818303038152906040526040518463ffffffff1660e01b815260040161213193929190613ddd565b602060405180830381600087803b15801561214b57600080fd5b505af115801561215f573d6000803e3d6000fd5b505050506040513d601f19601f820116820180604052508101906121839190612f2f565b5060006121a684600030600660008981526020019081526020016000205461255b565b9050600160066000868152602001908152602001600020546121c891906130ef565b60066000868152602001908152602001600020819055506121e98482612597565b91505092915050565b6121fc82826116b1565b61228b576122218173ffffffffffffffffffffffffffffffffffffffff1660146125ca565b61222f8360001c60206125ca565b604051602001612240929190613efa565b6040516020818303038152906040526040517f08c379a00000000000000000000000000000000000000000000000000000000081526004016122829190613f6d565b60405180910390fd5b5050565b61229982826116b1565b61236b57600160008084815260200190815260200160002060000160008373ffffffffffffffffffffffffffffffffffffffff1673ffffffffffffffffffffffffffffffffffffffff16815260200190815260200160002060006101000a81548160ff02191690831515021790555061231061076f565b73ffffffffffffffffffffffffffffffffffffffff168173ffffffffffffffffffffffffffffffffffffffff16837f2f8788117e7eff1d82e926ec794901d17c78024a50270940304540a733656f0d60405160405180910390a45b5050565b61237982826116b1565b1561244c57600080600084815260200190815260200160002060000160008373ffffffffffffffffffffffffffffffffffffffff1673ffffffffffffffffffffffffffffffffffffffff16815260200190815260200160002060006101000a81548160ff0219169083151502179055506123f161076f565b73ffffffffffffffffffffffffffffffffffffffff168173ffffffffffffffffffffffffffffffffffffffff16837ff6391f5c32d9c69d2a47ea670b442974b53935d1edc7fd64eb21e047a839171b60405160405180910390a45b5050565b600081600001549050919050565b6001816000016000828254019250508190555050565b7f000000000000000000000000000000000000000000000000000000000000000067ffffffffffffffff16601280549050116124e5576040517f08c379a00000000000000000000000000000000000000000000000000000000081526004016124dc90613fdb565b60405180910390fd5b600a60019054906101000a900460ff1615612535576040517f08c379a000000000000000000000000000000000000000000000000000000000815260040161252c90614047565b60405180910390fd5b80600d819055506001600a60016101000a81548160ff0219169083151502179055505050565b6000848484846040516020016125749493929190614067565b6040516020818303038152906040528051906020012060001c9050949350505050565b600082826040516020016125ac9291906140ee565b60405160208183030381529060405280519060200120905092915050565b6060600060028360026125dd9190612e2c565b6125e791906130ef565b67ffffffffffffffff811115612600576125ff61411a565b5b6040519080825280601f01601f1916602001820160405280156126325781602001600182028036833780820191505090505b5090507f30000000000000000000000000000000000000000000000000000000000000008160008151811061266a57612669613594565b5b60200101907effffffffffffffffffffffffffffffffffffffffffffffffffffffffffffff1916908160001a9053507f7800000000000000000000000000000000000000000000000000000000000000816001815181106126ce576126cd613594565b5b60200101907effffffffffffffffffffffffffffffffffffffffffffffffffffffffffffff1916908160001a9053506000600184600261270e9190612e2c565b61271891906130ef565b90505b60018111156127b8577f3031323334353637383961626364656600000000000000000000000000000000600f86166010811061275a57612759613594565b5b1a60f81b82828151811061277157612770613594565b5b60200101907effffffffffffffffffffffffffffffffffffffffffffffffffffffffffffff1916908160001a905350600485901c9450806127b190614149565b905061271b565b50600084146127fc576040517f08c379a00000000000000000000000000000000000000000000000000000000081526004016127f3906141bf565b60405180910390fd5b8091505092915050565b600073ffffffffffffffffffffffffffffffffffffffff82169050919050565b600061283182612806565b9050919050565b61284181612826565b82525050565b6000819050919050565b61285a81612847565b82525050565b60006040820190506128756000830185612838565b6128826020830184612851565b9392505050565b6000819050919050565b61289c81612889565b82525050565b60006020820190506128b76000830184612893565b92915050565b600080fd5b600080fd5b60007fffffffff0000000000000000000000000000000000000000000000000000000082169050919050565b6128fc816128c7565b811461290757600080fd5b50565b600081359050612919816128f3565b92915050565b600060208284031215612935576129346128bd565b5b60006129438482850161290a565b91505092915050565b60008115159050919050565b6129618161294c565b82525050565b600060208201905061297c6000830184612958565b92915050565b600061ffff82169050919050565b61299981612982565b81146129a457600080fd5b50565b6000813590506129b681612990565b92915050565b6000602082840312156129d2576129d16128bd565b5b60006129e0848285016129a7565b91505092915050565b60006020820190506129fe6000830184612838565b92915050565b612a0d81612826565b8114612a1857600080fd5b50565b600081359050612a2a81612a04565b92915050565b600060208284031215612a4657612a456128bd565b5b6000612a5484828501612a1b565b91505092915050565b612a6681612982565b82525050565b6000602082019050612a816000830184612a5d565b92915050565b6000612a9282612806565b9050919050565b612aa281612a87565b8114612aad57600080fd5b50565b600081359050612abf81612a99565b92915050565b600060208284031215612adb57612ada6128bd565b5b6000612ae984828501612ab0565b91505092915050565b612afb81612889565b8114612b0657600080fd5b50565b600081359050612b1881612af2565b92915050565b600060208284031215612b3457612b336128bd565b5b6000612b4284828501612b09565b91505092915050565b60008060408385031215612b6257612b616128bd565b5b6000612b7085828601612b09565b9250506020612b8185828601612a1b565b9150509250929050565b6000602082019050612ba06000830184612851565b92915050565b7f4e487b7100000000000000000000000000000000000000000000000000000000600052602160045260246000fd5b60058110612be657612be5612ba6565b5b50565b6000819050612bf782612bd5565b919050565b6000612c0782612be9565b9050919050565b612c1781612bfc565b82525050565b6000602082019050612c326000830184612c0e565b92915050565b612c4181612847565b8114612c4c57600080fd5b50565b600081359050612c5e81612c38565b92915050565b600060208284031215612c7a57612c796128bd565b5b6000612c8884828501612c4f565b91505092915050565b60008060408385031215612ca857612ca76128bd565b5b6000612cb685828601612b09565b9250506020612cc785828601612c4f565b9150509250929050565b600080fd5b600080fd5b600080fd5b60008083601f840112612cf657612cf5612cd1565b5b8235905067ffffffffffffffff811115612d1357612d12612cd6565b5b602083019150836020820283011115612d2f57612d2e612cdb565b5b9250929050565b60008060208385031215612d4d57612d4c6128bd565b5b600083013567ffffffffffffffff811115612d6b57612d6a6128c2565b5b612d7785828601612ce0565b92509250509250929050565b6000819050919050565b6000612da8612da3612d9e84612806565b612d83565b612806565b9050919050565b6000612dba82612d8d565b9050919050565b6000612dcc82612daf565b9050919050565b612ddc81612dc1565b82525050565b6000602082019050612df76000830184612dd3565b92915050565b7f4e487b7100000000000000000000000000000000000000000000000000000000600052601160045260246000fd5b6000612e3782612847565b9150612e4283612847565b9250817fffffffffffffffffffffffffffffffffffffffffffffffffffffffffffffffff0483118215151615612e7b57612e7a612dfd565b5b828202905092915050565b600082825260208201905092915050565b7f496e636f727265637420416d6f756e74205375626d6974746564000000000000600082015250565b6000612ecd601a83612e86565b9150612ed882612e97565b602082019050919050565b60006020820190508181036000830152612efc81612ec0565b9050919050565b612f0c8161294c565b8114612f1757600080fd5b50565b600081519050612f2981612f03565b92915050565b600060208284031215612f4557612f446128bd565b5b6000612f5384828501612f1a565b91505092915050565b6000604082019050612f716000830185612838565b612f7e6020830184612a5d565b9392505050565b7f696e76616c696420616464726573730000000000000000000000000000000000600082015250565b6000612fbb600f83612e86565b9150612fc682612f85565b602082019050919050565b60006020820190508181036000830152612fea81612fae565b9050919050565b7f4e6f20546f6b656e732052657175657374656400000000000000000000000000600082015250565b6000613027601383612e86565b915061303282612ff1565b602082019050919050565b600060208201905081810360008301526130568161301a565b9050919050565b7f5061796d656e7453706c69747465723a206163636f756e7420686173206e6f2060008201527f7368617265730000000000000000000000000000000000000000000000000000602082015250565b60006130b9602683612e86565b91506130c48261305d565b604082019050919050565b600060208201905081810360008301526130e8816130ac565b9050919050565b60006130fa82612847565b915061310583612847565b9250827fffffffffffffffffffffffffffffffffffffffffffffffffffffffffffffffff0382111561313a57613139612dfd565b5b828201905092915050565b7f4e487b7100000000000000000000000000000000000000000000000000000000600052601260045260246000fd5b600061317f82612847565b915061318a83612847565b92508261319a57613199613145565b5b828204905092915050565b60006131b082612847565b91506131bb83612847565b9250828210156131ce576131cd612dfd565b5b828203905092915050565b7f5061796d656e7453706c69747465723a206163636f756e74206973206e6f742060008201527f647565207061796d656e74000000000000000000000000000000000000000000602082015250565b6000613235602b83612e86565b9150613240826131d9565b604082019050919050565b6000602082019050818103600083015261326481613228565b9050919050565b600061327682612daf565b9050919050565b6132868161326b565b82525050565b60006040820190506132a1600083018561327d565b6132ae6020830184612851565b9392505050565b7f726166666c65206973207374696c6c2061637469766500000000000000000000600082015250565b60006132eb601683612e86565b91506132f6826132b5565b602082019050919050565b6000602082019050818103600083015261331a816132de565b9050919050565b7f456e74726f707920697320616c7265616479207365742c206e6f206e65656400600082015250565b6000613357601f83612e86565b915061336282613321565b602082019050919050565b600060208201905081810360008301526133868161334a565b9050919050565b7f416363657373436f6e74726f6c3a2063616e206f6e6c792072656e6f756e636560008201527f20726f6c657320666f722073656c660000000000000000000000000000000000602082015250565b60006133e9602f83612e86565b91506133f48261338d565b604082019050919050565b60006020820190508181036000830152613418816133dc565b9050919050565b7f526166666c65204973205374696c6c2041637469766500000000000000000000600082015250565b6000613455601683612e86565b91506134608261341f565b602082019050919050565b6000602082019050818103600083015261348481613448565b9050919050565b7f4e6f206e65656420746f2073687566666c650000000000000000000000000000600082015250565b60006134c1601283612e86565b91506134cc8261348b565b602082019050919050565b600060208201905081810360008301526134f0816134b4565b9050919050565b7f4e6f2072616e646f6d6e65737320746f2073687566666c652077697468000000600082015250565b600061352d601d83612e86565b9150613538826134f7565b602082019050919050565b6000602082019050818103600083015261355c81613520565b9050919050565b600061356e82612847565b915061357983612847565b92508261358957613588613145565b5b828206905092915050565b7f4e487b7100000000000000000000000000000000000000000000000000000000600052603260045260246000fd5b60006135ce82612847565b91507fffffffffffffffffffffffffffffffffffffffffffffffffffffffffffffffff82141561360157613600612dfd565b5b600182019050919050565b7f506c6561736520456e7465722056616c69642041646472657373000000000000600082015250565b6000613642601a83612e86565b915061364d8261360c565b602082019050919050565b6000602082019050818103600083015261367181613635565b9050919050565b7f526166666c65206973206e6f7420616374697665000000000000000000000000600082015250565b60006136ae601483612e86565b91506136b982613678565b602082019050919050565b600060208201905081810360008301526136dd816136a1565b9050919050565b7f506c65617365207265717565737420666577657220746f6b656e730000000000600082015250565b600061371a601b83612e86565b9150613725826136e4565b602082019050919050565b600060208201905081810360008301526137498161370d565b9050919050565b600061375b82612982565b915061376683612982565b92508261ffff0382111561377d5761377c612dfd565b5b828201905092915050565b600060608201905061379d6000830186612838565b6137aa6020830185612a5d565b6137b76040830184612851565b949350505050565b7f4f6e6c7920565246436f6f7264696e61746f722063616e2066756c66696c6c00600082015250565b60006137f5601f83612e86565b9150613800826137bf565b602082019050919050565b60006020820190508181036000830152613824816137e8565b9050919050565b7f4d696e74696e67207374617465206e6565647320746f20626520616374697665600082015250565b6000613861602083612e86565b915061386c8261382b565b602082019050919050565b6000602082019050818103600083015261389081613854565b9050919050565b7f4576657279626f647920697320612077696e6e65720000000000000000000000600082015250565b60006138cd601583612e86565b91506138d882613897565b602082019050919050565b600060208201905081810360008301526138fc816138c0565b9050919050565b7f706c656173652073687566666c652077696e6e657273206265666f7265206d6960008201527f6e74696e67000000000000000000000000000000000000000000000000000000602082015250565b600061395f602583612e86565b915061396a82613903565b604082019050919050565b6000602082019050818103600083015261398e81613952565b9050919050565b7f4e6f7420612076616c6964207469636b65740000000000000000000000000000600082015250565b60006139cb601283612e86565b91506139d682613995565b602082019050919050565b600060208201905081810360008301526139fa816139be565b9050919050565b7f5469636b657473206861766520616c7265616479206265656e20636c61696d6560008201527f6400000000000000000000000000000000000000000000000000000000000000602082015250565b6000613a5d602183612e86565b9150613a6882613a01565b604082019050919050565b60006020820190508181036000830152613a8c81613a50565b9050919050565b7f4e6f7420746865206f776e6572206f66207468657365207469636b6574730000600082015250565b6000613ac9601e83612e86565b9150613ad482613a93565b602082019050919050565b60006020820190508181036000830152613af881613abc565b9050919050565b7f4e6f7420612070726f7065722073746174650000000000000000000000000000600082015250565b6000613b35601283612e86565b9150613b4082613aff565b602082019050919050565b60006020820190508181036000830152613b6481613b28565b9050919050565b7f4e6f7420612070726f706572207374617465207472616e736974696f6e000000600082015250565b6000613ba1601d83612e86565b9150613bac82613b6b565b602082019050919050565b60006020820190508181036000830152613bd081613b94565b9050919050565b7f416464726573733a20696e73756666696369656e742062616c616e6365000000600082015250565b6000613c0d601d83612e86565b9150613c1882613bd7565b602082019050919050565b60006020820190508181036000830152613c3c81613c00565b9050919050565b600081905092915050565b50565b6000613c5e600083613c43565b9150613c6982613c4e565b600082019050919050565b6000613c7f82613c51565b9150819050919050565b7f416464726573733a20756e61626c6520746f2073656e642076616c75652c207260008201527f6563697069656e74206d61792068617665207265766572746564000000000000602082015250565b6000613ce5603a83612e86565b9150613cf082613c89565b604082019050919050565b60006020820190508181036000830152613d1481613cd8565b9050919050565b6000604082019050613d306000830185612893565b613d3d6020830184612851565b9392505050565b600081519050919050565b600082825260208201905092915050565b60005b83811015613d7e578082015181840152602081019050613d63565b83811115613d8d576000848401525b50505050565b6000601f19601f8301169050919050565b6000613daf82613d44565b613db98185613d4f565b9350613dc9818560208601613d60565b613dd281613d93565b840191505092915050565b6000606082019050613df26000830186612838565b613dff6020830185612851565b8181036040830152613e118184613da4565b9050949350505050565b600081905092915050565b7f416363657373436f6e74726f6c3a206163636f756e7420000000000000000000600082015250565b6000613e5c601783613e1b565b9150613e6782613e26565b601782019050919050565b600081519050919050565b6000613e8882613e72565b613e928185613e1b565b9350613ea2818560208601613d60565b80840191505092915050565b7f206973206d697373696e6720726f6c6520000000000000000000000000000000600082015250565b6000613ee4601183613e1b565b9150613eef82613eae565b601182019050919050565b6000613f0582613e4f565b9150613f118285613e7d565b9150613f1c82613ed7565b9150613f288284613e7d565b91508190509392505050565b6000613f3f82613e72565b613f498185612e86565b9350613f59818560208601613d60565b613f6281613d93565b840191505092915050565b60006020820190508181036000830152613f878184613f34565b905092915050565b7f4e6f206e65656420746f2073687566666c652061646472657373657300000000600082015250565b6000613fc5601c83612e86565b9150613fd082613f8f565b602082019050919050565b60006020820190508181036000830152613ff481613fb8565b9050919050565b7f656e74726f707920616c72656164792073657400000000000000000000000000600082015250565b6000614031601383612e86565b915061403c82613ffb565b602082019050919050565b6000602082019050818103600083015261406081614024565b9050919050565b600060808201905061407c6000830187612893565b6140896020830186612851565b6140966040830185612838565b6140a36060830184612851565b95945050505050565b6000819050919050565b6140c76140c282612889565b6140ac565b82525050565b6000819050919050565b6140e86140e382612847565b6140cd565b82525050565b60006140fa82856140b6565b60208201915061410a82846140d7565b6020820191508190509392505050565b7f4e487b7100000000000000000000000000000000000000000000000000000000600052604160045260246000fd5b600061415482612847565b9150600082141561416857614167612dfd565b5b600182039050919050565b7f537472696e67733a20686578206c656e67746820696e73756666696369656e74600082015250565b60006141a9602083612e86565b91506141b482614173565b602082019050919050565b600060208201905081810360008301526141d88161419c565b905091905056fea264697066735822122040a02b1fe1255df25b9bf7db40b50a413fb3815493ed220d7502f615173e116164736f6c63430008090033",
  "immutableReferences": {
    "73": [
      {
        "length": 32,
        "start": 8340
      }
    ],
    "75": [
      {
        "length": 32,
        "start": 5917
      },
      {
        "length": 32,
        "start": 8400
      }
    ],
    "3662": [
      {
        "length": 32,
        "start": 7567
      }
    ],
    "3664": [
      {
        "length": 32,
        "start": 3597
      }
    ],
    "3679": [
      {
        "length": 32,
        "start": 2042
      },
      {
        "length": 32,
        "start": 6148
      }
    ],
    "3682": [
      {
        "length": 32,
        "start": 4020
      },
      {
        "length": 32,
        "start": 5031
      },
      {
        "length": 32,
        "start": 6319
      },
      {
        "length": 32,
        "start": 6432
      },
      {
        "length": 32,
        "start": 7146
      },
      {
        "length": 32,
        "start": 9334
      }
    ],
    "3685": [
      {
        "length": 32,
        "start": 5163
      }
    ]
  },
  "source": "//SPDX-License-Identifier: UNLICENSED\npragma solidity ^0.8.0;\n\nimport \"@openzeppelin/contracts/finance/PaymentSplitter.sol\";\nimport \"@chainlink/contracts/src/v0.8/VRFConsumerBase.sol\";\nimport \"@openzeppelin/contracts/token/ERC20/IERC20.sol\";\nimport \"@openzeppelin/contracts/access/AccessControl.sol\";\nimport \"./MyWish.sol\";\n\n\ncontract PaymentHandler is AccessControl, PaymentSplitter, VRFConsumerBase {\n\n    using Counters for Counters.Counter; \n    enum ContractState {\n        PRESALE,\n        RAFFLE,\n        PREMINT,\n        MINTING,\n        OPEN\n    }\n\n    ContractState contractState;\n    bytes32 public constant STATE_MANAGER_ROLE = keccak256(\"STATE_MANAGER_ROLE\");\n    uint256 public randomnessOutput;\n    bytes32 public requestId;\n\n    IERC20 public immutable LINK_TOKEN;\n    bytes32 internal immutable KEY_HASH;\n    \n\n    uint16 immutable zachIndex = 0;\n    uint16 immutable evanIndex = 2;\n    uint16 immutable sebIndex = 1;\n    uint16 immutable wishIndex = 3;\n    uint256 immutable PRICE = 30000000000000000 wei;\n    uint64 immutable TOKEN_CAP = 10000;\n    uint16 immutable USER_TOKEN_CAP = 90;\n\n    bool raffleIsShuffled = false;\n    bool entropySet = false;\n\n    Counters.Counter private raffleCount;       \n\n    MyWish _myWishContract;\n\n    uint16 sebShares = 2;\n    uint16 zachShares = 2;\n    uint16 evanShares = 6;\n    uint16 makeAWishShares = 90;\n    uint256 entropy;\n\n    address makeAWish = address(0);\n    uint256[] shares_ = [sebShares, zachShares, evanShares, makeAWishShares];\n\n    mapping(address => uint16) tokensPerUser;\n    mapping(uint16 => bool) ticketsClaimed;\n    address[] raffleEntries;\n    \n    event fundsAccepted(address from);\n    event enteredRaffle(address from ,uint16 numTokens,uint256 lastIndex);\n    event raffleShuffled(uint256 totalEntries);\n    event ticketsRedeemed(address user, uint16 winningTicketCount);\n    event tokensPurchased(address user, uint16 tokensPurchased);\n\n    constructor(\n        address tokenAddress,\n        address[] memory payees,\n        bytes32 _LINK_KEY_HASH,\n        address _LINK_ADDRESS,\n        address _LINK_VRF_COORDINATOR_ADDRESS\n       ) \n       PaymentSplitter(payees, shares_)\n       VRFConsumerBase(_LINK_VRF_COORDINATOR_ADDRESS, _LINK_ADDRESS)\n    {\n        LINK_TOKEN = IERC20(_LINK_ADDRESS);\n        KEY_HASH = _LINK_KEY_HASH;\n        _myWishContract = MyWish(tokenAddress);\n        makeAWish = payees[3];\n        contractState = ContractState.RAFFLE;\n        _setupRole(DEFAULT_ADMIN_ROLE,msg.sender);\n        _setRoleAdmin(STATE_MANAGER_ROLE, DEFAULT_ADMIN_ROLE);\n\n    }\n\n    function enterRaffle(uint16 numTokens)\n    public\n    {\n        require(contractState == ContractState.RAFFLE, \"Raffle is not active\");\n        require(numTokens + raffleCount.current() < TOKEN_CAP,\"Please request fewer tokens\");\n        require(tokensPerUser[msg.sender] + numTokens < USER_TOKEN_CAP,\"Please request fewer tokens\");\n      \n        tokensPerUser[msg.sender] = numTokens;\n        for(uint i = 0; i < numTokens; i++){\n            raffleEntries.push(msg.sender);\n            raffleCount.increment();\n           \n        }\n        \n        emit enteredRaffle(msg.sender, tokensPerUser[msg.sender],raffleCount.current());\n\n    }\n    \n    function shuffleEntries() public {\n        require(contractState == ContractState.PREMINT,\"Raffle Is Still Active\");\n        require(raffleCount.current() > TOKEN_CAP,\"No need to shuffle\");\n        require(entropySet, \"No randomness to shuffle with\");\n\n        for (uint256 i = 0; i < raffleCount.current(); i++) {\n            // Generate a random index to select from\n            uint256 randomIndex = i + entropy % (raffleCount.current() - i);\n            // Collect the value at that random index\n            address randomTmp = raffleEntries[randomIndex];\n            // Update the value at the random index to the current value\n            raffleEntries[randomIndex] = raffleEntries[i];\n            // Update the current value to the value at the random index\n            raffleEntries[i] = randomTmp;\n        }\n\n        raffleIsShuffled = true;\n        emit raffleShuffled(raffleEntries.length);\n\n    }\n\n    function setEntropy() public {\n        \n        require(contractState == ContractState.PREMINT,'raffle is still active');\n        require(!entropySet,'Entropy is already set, no need');\n        \n        requestRandomness(KEY_HASH, 2e18);\n\n    }\n\n    function buyTokens(uint16 numTokens) payable public {\n        require(numTokens * PRICE == msg.value,\"Incorrect Amount Submitted\");\n\n        bool success = _myWishContract.createCollectable(msg.sender);\n        emit tokensPurchased(msg.sender, numTokens);\n    }\n\n\n    function isWinner(uint16[] calldata tickets) public { \n        require(contractState == ContractState.MINTING ,\"Minting state needs to be active\");\n        require(raffleEntries.length > TOKEN_CAP, \"Everybody is a winner\");\n        if(raffleEntries.length > TOKEN_CAP) {\n            require(raffleIsShuffled,\"please shuffle winners before minting\");\n        }\n\n        uint16 winningTicketCount = 0;\n        for(uint i = 0; i < tickets.length; i++){\n            require(tickets[i] < raffleEntries.length,\"Not a valid ticket\");\n            require(!ticketsClaimed[tickets[i]],\"Tickets have already been claimed\");\n            require(raffleEntries[tickets[i]] == msg.sender, \"Not the owner of these tickets\");\n            ticketsClaimed[tickets[i]] = true;\n            if(tickets[i] < TOKEN_CAP){\n                winningTicketCount += 1;\n            }\n     \n        }\n        if(winningTicketCount < tickets.length){\n            tokensPerUser[msg.sender] = winningTicketCount;\n        }\n        emit ticketsRedeemed(msg.sender, winningTicketCount);\n\n    }\n    \n\n    function fulfillRandomness(bytes32 requestId, uint256 randomness) internal override {\n        require(raffleEntries.length > TOKEN_CAP, \"No need to shuffle addresses\");\n        require(!entropySet,\"entropy already set\");\n        entropy = randomness;\n        entropySet = true;\n    }\n\n\n\n\n    function getTokenAddress() external view returns(address) {\n        return address(_myWishContract);\n    }\n\n    //does this return the total balance in the contract? \n    function getBalanceOfPaymentHandler()\n    external\n    view\n    returns(uint256){\n        return address(this).balance;\n    }\n\n  \n    function releaseEther() internal {\n        address payable zach = payable(payee(zachIndex));\n        address payable evan = payable(payee(evanIndex));\n        address payable seb = payable(payee(sebIndex));\n        address payable wish = payable(payee(wishIndex));\n\n        require(seb !=  address(0), \"Address of Seb is not set\");\n        require(zach != address(0), \"Address of Zach is not set\");\n        require(evan != address(0), \"Address of Evan is not set\");\n        require(wish != address(0), \"Address of Make A Wish is not set\");\n        \n        release(zach);\n        release(wish); \n        release(evan); \n        release(seb);\n    }\n\n\n    function getTokensRequested(address user) public view returns(uint16) {\n        require(user != address(0),\"invalid address\");\n        require(tokensPerUser[user] > 0, \"No Tokens Requested\");\n        \n        return tokensPerUser[user];\n    }\n\n    function getPrice() public pure returns(uint256){\n        return PRICE;\n    }\n\n\n    function getContractState() public view returns(ContractState) {\n        return contractState;\n    }\n\n    function setContractState(uint state) public onlyRole(STATE_MANAGER_ROLE) returns(bool) {\n        require(state < 6,\"Not a proper state\");\n        require(state > 0, \"Not a proper state\");\n        require(state  == uint(contractState) + 1, \"Not a proper state transition\");\n        if(state == 3){\n            //premint stage needs to be shuffled\n            setEntropy();\n\n        }\n        contractState = ContractState(state);\n        return true;\n\n    }\n\n        function setStateManagerRole(address stateManager) public onlyRole(DEFAULT_ADMIN_ROLE) {\n        require(stateManager != address(0),\"Please Enter Valid Address\");\n        grantRole(STATE_MANAGER_ROLE,stateManager);\n       \n    }\n\n\n\n\n\n\n\n\n}\n",
  "sourcePath": "/Users/zlederman/Documents/Code/js/truffle-react/contracts/PaymentHandler.sol",
  "compiler": {
    "name": "solc",
    "version": "0.8.9+commit.e5eed63a.Emscripten.clang"
  },
  "schemaVersion": "3.4.2",
  "updatedAt": "2021-11-08T17:27:49.212Z",
  "networkType": "ethereum",
  "devdoc": {
    "kind": "dev",
    "methods": {
      "getRoleAdmin(bytes32)": {
        "details": "Returns the admin role that controls `role`. See {grantRole} and {revokeRole}. To change a role's admin, use {_setRoleAdmin}."
      },
      "grantRole(bytes32,address)": {
        "details": "Grants `role` to `account`. If `account` had not been already granted `role`, emits a {RoleGranted} event. Requirements: - the caller must have ``role``'s admin role."
      },
      "hasRole(bytes32,address)": {
        "details": "Returns `true` if `account` has been granted `role`."
      },
      "payee(uint256)": {
        "details": "Getter for the address of the payee number `index`."
      },
      "release(address)": {
        "details": "Triggers a transfer to `account` of the amount of Ether they are owed, according to their percentage of the total shares and their previous withdrawals."
      },
      "released(address)": {
        "details": "Getter for the amount of Ether already released to a payee."
      },
      "renounceRole(bytes32,address)": {
        "details": "Revokes `role` from the calling account. Roles are often managed via {grantRole} and {revokeRole}: this function's purpose is to provide a mechanism for accounts to lose their privileges if they are compromised (such as when a trusted device is misplaced). If the calling account had been granted `role`, emits a {RoleRevoked} event. Requirements: - the caller must be `account`."
      },
      "revokeRole(bytes32,address)": {
        "details": "Revokes `role` from `account`. If `account` had been granted `role`, emits a {RoleRevoked} event. Requirements: - the caller must have ``role``'s admin role."
      },
      "shares(address)": {
        "details": "Getter for the amount of shares held by an account."
      },
      "supportsInterface(bytes4)": {
        "details": "See {IERC165-supportsInterface}."
      },
      "totalReleased()": {
        "details": "Getter for the total amount of Ether already released."
      },
      "totalShares()": {
        "details": "Getter for the total shares held by payees."
      }
    },
    "version": 1
  },
  "userdoc": {
    "kind": "user",
    "methods": {},
    "version": 1
  }
}