{
  "contractName": "PaymentHandler",
  "abi": [
    {
      "inputs": [
        {
          "internalType": "address",
          "name": "tokenAddress",
          "type": "address"
        },
        {
          "internalType": "address[]",
          "name": "payees",
          "type": "address[]"
        },
        {
          "internalType": "bytes32",
          "name": "_LINK_KEY_HASH",
          "type": "bytes32"
        },
        {
          "internalType": "address",
          "name": "_LINK_ADDRESS",
          "type": "address"
        },
        {
          "internalType": "address",
          "name": "_LINK_VRF_COORDINATOR_ADDRESS",
          "type": "address"
        }
      ],
      "stateMutability": "nonpayable",
      "type": "constructor"
    },
    {
      "anonymous": false,
      "inputs": [
        {
          "indexed": false,
          "internalType": "address",
          "name": "account",
          "type": "address"
        },
        {
          "indexed": false,
          "internalType": "uint256",
          "name": "shares",
          "type": "uint256"
        }
      ],
      "name": "PayeeAdded",
      "type": "event"
    },
    {
      "anonymous": false,
      "inputs": [
        {
          "indexed": false,
          "internalType": "address",
          "name": "from",
          "type": "address"
        },
        {
          "indexed": false,
          "internalType": "uint256",
          "name": "amount",
          "type": "uint256"
        }
      ],
      "name": "PaymentReceived",
      "type": "event"
    },
    {
      "anonymous": false,
      "inputs": [
        {
          "indexed": false,
          "internalType": "address",
          "name": "to",
          "type": "address"
        },
        {
          "indexed": false,
          "internalType": "uint256",
          "name": "amount",
          "type": "uint256"
        }
      ],
      "name": "PaymentReleased",
      "type": "event"
    },
    {
      "anonymous": false,
      "inputs": [
        {
          "indexed": false,
          "internalType": "address",
          "name": "from",
          "type": "address"
        },
        {
          "indexed": false,
          "internalType": "uint16",
          "name": "numTokens",
          "type": "uint16"
        }
      ],
      "name": "enteredRaffle",
      "type": "event"
    },
    {
      "anonymous": false,
      "inputs": [
        {
          "indexed": false,
          "internalType": "address",
          "name": "from",
          "type": "address"
        }
      ],
      "name": "fundsAccepted",
      "type": "event"
    },
    {
      "anonymous": false,
      "inputs": [
        {
          "indexed": false,
          "internalType": "uint256",
          "name": "totalEntries",
          "type": "uint256"
        }
      ],
      "name": "raffleShuffled",
      "type": "event"
    },
    {
      "anonymous": false,
      "inputs": [
        {
          "indexed": false,
          "internalType": "address",
          "name": "user",
          "type": "address"
        },
        {
          "indexed": false,
          "internalType": "uint16",
          "name": "winningTicketCount",
          "type": "uint16"
        }
      ],
      "name": "ticketsRedeemed",
      "type": "event"
    },
    {
      "inputs": [],
      "name": "LINK_TOKEN",
      "outputs": [
        {
          "internalType": "contract IERC20",
          "name": "",
          "type": "address"
        }
      ],
      "stateMutability": "view",
      "type": "function",
      "constant": true
    },
    {
      "inputs": [
        {
          "internalType": "uint256",
          "name": "index",
          "type": "uint256"
        }
      ],
      "name": "payee",
      "outputs": [
        {
          "internalType": "address",
          "name": "",
          "type": "address"
        }
      ],
      "stateMutability": "view",
      "type": "function",
      "constant": true
    },
    {
      "inputs": [],
      "name": "randomnessOutput",
      "outputs": [
        {
          "internalType": "uint256",
          "name": "",
          "type": "uint256"
        }
      ],
      "stateMutability": "view",
      "type": "function",
      "constant": true
    },
    {
      "inputs": [
        {
          "internalType": "bytes32",
          "name": "requestId",
          "type": "bytes32"
        },
        {
          "internalType": "uint256",
          "name": "randomness",
          "type": "uint256"
        }
      ],
      "name": "rawFulfillRandomness",
      "outputs": [],
      "stateMutability": "nonpayable",
      "type": "function"
    },
    {
      "inputs": [
        {
          "internalType": "address payable",
          "name": "account",
          "type": "address"
        }
      ],
      "name": "release",
      "outputs": [],
      "stateMutability": "nonpayable",
      "type": "function"
    },
    {
      "inputs": [
        {
          "internalType": "address",
          "name": "account",
          "type": "address"
        }
      ],
      "name": "released",
      "outputs": [
        {
          "internalType": "uint256",
          "name": "",
          "type": "uint256"
        }
      ],
      "stateMutability": "view",
      "type": "function",
      "constant": true
    },
    {
      "inputs": [],
      "name": "requestId",
      "outputs": [
        {
          "internalType": "bytes32",
          "name": "",
          "type": "bytes32"
        }
      ],
      "stateMutability": "view",
      "type": "function",
      "constant": true
    },
    {
      "inputs": [
        {
          "internalType": "address",
          "name": "account",
          "type": "address"
        }
      ],
      "name": "shares",
      "outputs": [
        {
          "internalType": "uint256",
          "name": "",
          "type": "uint256"
        }
      ],
      "stateMutability": "view",
      "type": "function",
      "constant": true
    },
    {
      "inputs": [],
      "name": "totalReleased",
      "outputs": [
        {
          "internalType": "uint256",
          "name": "",
          "type": "uint256"
        }
      ],
      "stateMutability": "view",
      "type": "function",
      "constant": true
    },
    {
      "inputs": [],
      "name": "totalShares",
      "outputs": [
        {
          "internalType": "uint256",
          "name": "",
          "type": "uint256"
        }
      ],
      "stateMutability": "view",
      "type": "function",
      "constant": true
    },
    {
      "stateMutability": "payable",
      "type": "receive",
      "payable": true
    },
    {
      "inputs": [
        {
          "internalType": "uint16",
          "name": "numTokens",
          "type": "uint16"
        }
      ],
      "name": "enterRaffle",
      "outputs": [],
      "stateMutability": "payable",
      "type": "function",
      "payable": true
    },
    {
      "inputs": [],
      "name": "shuffleEntries",
      "outputs": [],
      "stateMutability": "nonpayable",
      "type": "function"
    },
    {
      "inputs": [],
      "name": "setEntropy",
      "outputs": [],
      "stateMutability": "nonpayable",
      "type": "function"
    },
    {
      "inputs": [
        {
          "internalType": "uint16[]",
          "name": "tickets",
          "type": "uint16[]"
        }
      ],
      "name": "isWinner",
      "outputs": [],
      "stateMutability": "nonpayable",
      "type": "function"
    },
    {
      "inputs": [],
      "name": "getTokenAddress",
      "outputs": [
        {
          "internalType": "address",
          "name": "",
          "type": "address"
        }
      ],
      "stateMutability": "view",
      "type": "function",
      "constant": true
    },
    {
      "inputs": [],
      "name": "getBalanceOfPaymentHandler",
      "outputs": [
        {
          "internalType": "uint256",
          "name": "",
          "type": "uint256"
        }
      ],
      "stateMutability": "view",
      "type": "function",
      "constant": true
    },
    {
      "inputs": [
        {
          "internalType": "address",
          "name": "user",
          "type": "address"
        }
      ],
      "name": "getTokensRequested",
      "outputs": [
        {
          "internalType": "uint16",
          "name": "",
          "type": "uint16"
        }
      ],
      "stateMutability": "view",
      "type": "function",
      "constant": true
    },
    {
      "inputs": [],
      "name": "getPrice",
      "outputs": [
        {
          "internalType": "uint256",
          "name": "",
          "type": "uint256"
        }
      ],
      "stateMutability": "pure",
      "type": "function",
      "constant": true
    }
  ],
  "bytecode": "0x6101e0604052600061ffff166101009061ffff16815250600261ffff166101209061ffff16815250600161ffff166101409061ffff16815250600361ffff166101609061ffff168152506729a2241af62c00006101809081525061271067ffffffffffffffff166101a09067ffffffffffffffff16815250600561ffff166101c09061ffff168152506001600860006101000a81548160ff0219169083151502179055506000600860016101000a81548160ff0219169083151502179055506000600860026101000a81548160ff0219169083151502179055506000600860036101000a81548160ff0219169083151502179055506002600a60146101000a81548161ffff021916908361ffff1602179055506002600a60166101000a81548161ffff021916908361ffff1602179055506006600a60186101000a81548161ffff021916908361ffff160217905550605a600a601a6101000a81548161ffff021916908361ffff1602179055506000600c60006101000a81548173ffffffffffffffffffffffffffffffffffffffff021916908373ffffffffffffffffffffffffffffffffffffffff1602179055506040518060800160405280600a60149054906101000a900461ffff1661ffff1661ffff168152602001600a60169054906101000a900461ffff1661ffff1661ffff168152602001600a60189054906101000a900461ffff1661ffff1661ffff168152602001600a601a9054906101000a900461ffff1661ffff1661ffff16815250600d9060046200024192919062000756565b503480156200024f57600080fd5b5060405162003ff638038062003ff68339818101604052810190620002759190620009f6565b808285600d805480602002602001604051908101604052809291908181526020018280548015620002c657602002820191906000526020600020905b815481526020019060010190808311620002b1575b5050505050805182511462000312576040517f08c379a0000000000000000000000000000000000000000000000000000000008152600401620003099062000b24565b60405180910390fd5b600082511162000359576040517f08c379a0000000000000000000000000000000000000000000000000000000008152600401620003509062000b96565b60405180910390fd5b60005b8251811015620003c857620003b283828151811062000380576200037f62000bb8565b5b60200260200101518383815181106200039e576200039d62000bb8565b5b60200260200101516200051c60201b60201c565b8080620003bf9062000c20565b9150506200035c565b5050508173ffffffffffffffffffffffffffffffffffffffff1660a08173ffffffffffffffffffffffffffffffffffffffff16815250508073ffffffffffffffffffffffffffffffffffffffff1660808173ffffffffffffffffffffffffffffffffffffffff168152505050508173ffffffffffffffffffffffffffffffffffffffff1660c08173ffffffffffffffffffffffffffffffffffffffff16815250508260e0818152505084600a60006101000a81548173ffffffffffffffffffffffffffffffffffffffff021916908373ffffffffffffffffffffffffffffffffffffffff16021790555083600381518110620004c957620004c862000bb8565b5b6020026020010151600c60006101000a81548173ffffffffffffffffffffffffffffffffffffffff021916908373ffffffffffffffffffffffffffffffffffffffff160217905550505050505062000ebc565b600073ffffffffffffffffffffffffffffffffffffffff168273ffffffffffffffffffffffffffffffffffffffff1614156200058f576040517f08c379a0000000000000000000000000000000000000000000000000000000008152600401620005869062000ce4565b60405180910390fd5b60008111620005d5576040517f08c379a0000000000000000000000000000000000000000000000000000000008152600401620005cc9062000d56565b60405180910390fd5b6000600260008473ffffffffffffffffffffffffffffffffffffffff1673ffffffffffffffffffffffffffffffffffffffff16815260200190815260200160002054146200065a576040517f08c379a0000000000000000000000000000000000000000000000000000000008152600401620006519062000dee565b60405180910390fd5b6004829080600181540180825580915050600190039060005260206000200160009091909190916101000a81548173ffffffffffffffffffffffffffffffffffffffff021916908373ffffffffffffffffffffffffffffffffffffffff16021790555080600260008473ffffffffffffffffffffffffffffffffffffffff1673ffffffffffffffffffffffffffffffffffffffff168152602001908152602001600020819055508060005462000711919062000e10565b6000819055507f40c340f65e17194d14ddddb073d3c9f888e3cb52b5aae0c6c7706b4fbc905fac82826040516200074a92919062000e8f565b60405180910390a15050565b8280548282559060005260206000209081019282156200079b579160200282015b828111156200079a578251829061ffff1690559160200191906001019062000777565b5b509050620007aa9190620007ae565b5090565b5b80821115620007c9576000816000905550600101620007af565b5090565b6000604051905090565b600080fd5b600080fd5b600073ffffffffffffffffffffffffffffffffffffffff82169050919050565b60006200080e82620007e1565b9050919050565b620008208162000801565b81146200082c57600080fd5b50565b600081519050620008408162000815565b92915050565b600080fd5b6000601f19601f8301169050919050565b7f4e487b7100000000000000000000000000000000000000000000000000000000600052604160045260246000fd5b62000896826200084b565b810181811067ffffffffffffffff82111715620008b857620008b76200085c565b5b80604052505050565b6000620008cd620007cd565b9050620008db82826200088b565b919050565b600067ffffffffffffffff821115620008fe57620008fd6200085c565b5b602082029050602081019050919050565b600080fd5b60006200092b6200092584620008e0565b620008c1565b905080838252602082019050602084028301858111156200095157620009506200090f565b5b835b818110156200097e57806200096988826200082f565b84526020840193505060208101905062000953565b5050509392505050565b600082601f830112620009a0576200099f62000846565b5b8151620009b284826020860162000914565b91505092915050565b6000819050919050565b620009d081620009bb565b8114620009dc57600080fd5b50565b600081519050620009f081620009c5565b92915050565b600080600080600060a0868803121562000a155762000a14620007d7565b5b600062000a25888289016200082f565b955050602086015167ffffffffffffffff81111562000a495762000a48620007dc565b5b62000a578882890162000988565b945050604062000a6a88828901620009df565b935050606062000a7d888289016200082f565b925050608062000a90888289016200082f565b9150509295509295909350565b600082825260208201905092915050565b7f5061796d656e7453706c69747465723a2070617965657320616e64207368617260008201527f6573206c656e677468206d69736d617463680000000000000000000000000000602082015250565b600062000b0c60328362000a9d565b915062000b198262000aae565b604082019050919050565b6000602082019050818103600083015262000b3f8162000afd565b9050919050565b7f5061796d656e7453706c69747465723a206e6f20706179656573000000000000600082015250565b600062000b7e601a8362000a9d565b915062000b8b8262000b46565b602082019050919050565b6000602082019050818103600083015262000bb18162000b6f565b9050919050565b7f4e487b7100000000000000000000000000000000000000000000000000000000600052603260045260246000fd5b7f4e487b7100000000000000000000000000000000000000000000000000000000600052601160045260246000fd5b6000819050919050565b600062000c2d8262000c16565b91507fffffffffffffffffffffffffffffffffffffffffffffffffffffffffffffffff82141562000c635762000c6262000be7565b5b600182019050919050565b7f5061796d656e7453706c69747465723a206163636f756e74206973207468652060008201527f7a65726f20616464726573730000000000000000000000000000000000000000602082015250565b600062000ccc602c8362000a9d565b915062000cd98262000c6e565b604082019050919050565b6000602082019050818103600083015262000cff8162000cbd565b9050919050565b7f5061796d656e7453706c69747465723a20736861726573206172652030000000600082015250565b600062000d3e601d8362000a9d565b915062000d4b8262000d06565b602082019050919050565b6000602082019050818103600083015262000d718162000d2f565b9050919050565b7f5061796d656e7453706c69747465723a206163636f756e7420616c726561647960008201527f2068617320736861726573000000000000000000000000000000000000000000602082015250565b600062000dd6602b8362000a9d565b915062000de38262000d78565b604082019050919050565b6000602082019050818103600083015262000e098162000dc7565b9050919050565b600062000e1d8262000c16565b915062000e2a8362000c16565b9250827fffffffffffffffffffffffffffffffffffffffffffffffffffffffffffffffff0382111562000e625762000e6162000be7565b5b828201905092915050565b62000e788162000801565b82525050565b62000e898162000c16565b82525050565b600060408201905062000ea6600083018562000e6d565b62000eb5602083018462000e7e565b9392505050565b60805160a05160c05160e05161010051610120516101405161016051610180516101a0516101c05161308762000f6f6000396000610d8401526000818161099901528181610d0001528181611183015281816111f4015281816114be0152611a1a015260008181610c8f015281816110b6015261165901526000505060005050600050506000505060006109080152600061177c015260008181610fcf01526118d20152600061189601526130876000f3fe60806040526004361061010c5760003560e01c80638b83209b11610095578063a332099911610064578063a332099914610382578063b78e691e146103ad578063ce7c2ac2146103d6578063e33b7de314610413578063eedac3a61461043e57610153565b80638b83209b146102b457806394985ddd146102f15780639852595c1461031a57806398d5fdca1461035757610153565b806323ba07b6116100dc57806323ba07b6146102145780632f47fd861461022b5780633a98ef39146102565780635fd2ede51461028157806386c5c9771461029857610153565b80626d6cae1461015857806310fe9ae8146101835780631696f941146101ae57806319165587146101eb57610153565b36610153577f6ef95f06320e7a25a04a175ca677b7052bdd97131872c2192525a629f51be77061013a610469565b34604051610149929190611bc8565b60405180910390a1005b600080fd5b34801561016457600080fd5b5061016d610471565b60405161017a9190611c0a565b60405180910390f35b34801561018f57600080fd5b50610198610477565b6040516101a59190611c25565b60405180910390f35b3480156101ba57600080fd5b506101d560048036038101906101d09190611c76565b6104a1565b6040516101e29190611cc0565b60405180910390f35b3480156101f757600080fd5b50610212600480360381019061020d9190611d19565b6105fb565b005b34801561022057600080fd5b50610229610863565b005b34801561023757600080fd5b50610240610938565b60405161024d9190611d46565b60405180910390f35b34801561026257600080fd5b5061026b61093e565b6040516102789190611d46565b60405180910390f35b34801561028d57600080fd5b50610296610947565b005b6102b260048036038101906102ad9190611d8d565b610c3e565b005b3480156102c057600080fd5b506102db60048036038101906102d69190611de6565b610f85565b6040516102e89190611c25565b60405180910390f35b3480156102fd57600080fd5b5061031860048036038101906103139190611e3f565b610fcd565b005b34801561032657600080fd5b50610341600480360381019061033c9190611c76565b611069565b60405161034e9190611d46565b60405180910390f35b34801561036357600080fd5b5061036c6110b2565b6040516103799190611d46565b60405180910390f35b34801561038e57600080fd5b506103976110da565b6040516103a49190611d46565b60405180910390f35b3480156103b957600080fd5b506103d460048036038101906103cf9190611ee4565b6110e2565b005b3480156103e257600080fd5b506103fd60048036038101906103f89190611c76565b611727565b60405161040a9190611d46565b60405180910390f35b34801561041f57600080fd5b50610428611770565b6040516104359190611d46565b60405180910390f35b34801561044a57600080fd5b5061045361177a565b6040516104609190611f90565b60405180910390f35b600033905090565b60075481565b6000600a60009054906101000a900473ffffffffffffffffffffffffffffffffffffffff16905090565b60008073ffffffffffffffffffffffffffffffffffffffff168273ffffffffffffffffffffffffffffffffffffffff161415610512576040517f08c379a000000000000000000000000000000000000000000000000000000000815260040161050990612008565b60405180910390fd5b6000600e60008473ffffffffffffffffffffffffffffffffffffffff1673ffffffffffffffffffffffffffffffffffffffff16815260200190815260200160002060009054906101000a900461ffff1661ffff16116105a6576040517f08c379a000000000000000000000000000000000000000000000000000000000815260040161059d90612074565b60405180910390fd5b600e60008373ffffffffffffffffffffffffffffffffffffffff1673ffffffffffffffffffffffffffffffffffffffff16815260200190815260200160002060009054906101000a900461ffff169050919050565b6000600260008373ffffffffffffffffffffffffffffffffffffffff1673ffffffffffffffffffffffffffffffffffffffff168152602001908152602001600020541161067d576040517f08c379a000000000000000000000000000000000000000000000000000000000815260040161067490612106565b60405180910390fd5b60006001544761068d9190612155565b90506000600360008473ffffffffffffffffffffffffffffffffffffffff1673ffffffffffffffffffffffffffffffffffffffff16815260200190815260200160002054600054600260008673ffffffffffffffffffffffffffffffffffffffff1673ffffffffffffffffffffffffffffffffffffffff168152602001908152602001600020548461071f91906121ab565b6107299190612234565b6107339190612265565b90506000811415610779576040517f08c379a00000000000000000000000000000000000000000000000000000000081526004016107709061230b565b60405180910390fd5b80600360008573ffffffffffffffffffffffffffffffffffffffff1673ffffffffffffffffffffffffffffffffffffffff168152602001908152602001600020546107c49190612155565b600360008573ffffffffffffffffffffffffffffffffffffffff1673ffffffffffffffffffffffffffffffffffffffff16815260200190815260200160002081905550806001546108159190612155565b600181905550610825838261179e565b7fdf20fd1e76bc69d672e4814fafb2c449bba3a5369d8359adf9e05e6fde87b056838260405161085692919061234c565b60405180910390a1505050565b600860009054906101000a900460ff16156108b3576040517f08c379a00000000000000000000000000000000000000000000000000000000081526004016108aa906123c1565b60405180910390fd5b600860039054906101000a900460ff1615610903576040517f08c379a00000000000000000000000000000000000000000000000000000000081526004016108fa9061242d565b60405180910390fd5b6109357f0000000000000000000000000000000000000000000000000000000000000000671bc16d674ec80000611892565b50565b60065481565b60008054905090565b600860009054906101000a900460ff1615610997576040517f08c379a000000000000000000000000000000000000000000000000000000000815260040161098e90612499565b60405180910390fd5b7f000000000000000000000000000000000000000000000000000000000000000067ffffffffffffffff1660108054905011610a08576040517f08c379a00000000000000000000000000000000000000000000000000000000081526004016109ff90612505565b60405180910390fd5b600860039054906101000a900460ff16610a57576040517f08c379a0000000000000000000000000000000000000000000000000000000008152600401610a4e90612571565b60405180910390fd5b60005b601080549050811015610be457600081601080549050610a7a9190612265565b600b54610a879190612591565b82610a929190612155565b9050600060108281548110610aaa57610aa96125c2565b5b9060005260206000200160009054906101000a900473ffffffffffffffffffffffffffffffffffffffff16905060108381548110610aeb57610aea6125c2565b5b9060005260206000200160009054906101000a900473ffffffffffffffffffffffffffffffffffffffff1660108381548110610b2a57610b296125c2565b5b9060005260206000200160006101000a81548173ffffffffffffffffffffffffffffffffffffffff021916908373ffffffffffffffffffffffffffffffffffffffff1602179055508060108481548110610b8757610b866125c2565b5b9060005260206000200160006101000a81548173ffffffffffffffffffffffffffffffffffffffff021916908373ffffffffffffffffffffffffffffffffffffffff16021790555050508080610bdc906125f1565b915050610a5a565b506001600860026101000a81548160ff0219169083151502179055507f97e4e5f083f1b7f83da9a614c9b2c912c45bb2959d0c901dcb0e27a6ee09c5d4601080549050604051610c349190611d46565b60405180910390a1565b600860009054906101000a900460ff16610c8d576040517f08c379a0000000000000000000000000000000000000000000000000000000008152600401610c8490612686565b60405180910390fd5b7f00000000000000000000000000000000000000000000000000000000000000008161ffff16610cbd91906121ab565b3414610cfe576040517f08c379a0000000000000000000000000000000000000000000000000000000008152600401610cf5906126f2565b60405180910390fd5b7f000000000000000000000000000000000000000000000000000000000000000067ffffffffffffffff16610d3360096119f4565b8261ffff16610d429190612155565b10610d82576040517f08c379a0000000000000000000000000000000000000000000000000000000008152600401610d799061275e565b60405180910390fd5b7f000000000000000000000000000000000000000000000000000000000000000061ffff1681600e60003373ffffffffffffffffffffffffffffffffffffffff1673ffffffffffffffffffffffffffffffffffffffff16815260200190815260200160002060009054906101000a900461ffff16610e00919061277e565b61ffff1610610e44576040517f08c379a0000000000000000000000000000000000000000000000000000000008152600401610e3b9061275e565b60405180910390fd5b80600e60003373ffffffffffffffffffffffffffffffffffffffff1673ffffffffffffffffffffffffffffffffffffffff16815260200190815260200160002060008282829054906101000a900461ffff16610ea0919061277e565b92506101000a81548161ffff021916908361ffff16021790555060005b8161ffff16811015610f4957610ed36009611a02565b6010339080600181540180825580915050600190039060005260206000200160009091909190916101000a81548173ffffffffffffffffffffffffffffffffffffffff021916908373ffffffffffffffffffffffffffffffffffffffff1602179055508080610f41906125f1565b915050610ebd565b507ebfb3db6f1f0b3cf355dda6c3aa8526769e470f39087d71a47ef5d1eed72bd03382604051610f7a9291906127b6565b60405180910390a150565b600060048281548110610f9b57610f9a6125c2565b5b9060005260206000200160009054906101000a900473ffffffffffffffffffffffffffffffffffffffff169050919050565b7f000000000000000000000000000000000000000000000000000000000000000073ffffffffffffffffffffffffffffffffffffffff163373ffffffffffffffffffffffffffffffffffffffff161461105b576040517f08c379a00000000000000000000000000000000000000000000000000000000081526004016110529061282b565b60405180910390fd5b6110658282611a18565b5050565b6000600360008373ffffffffffffffffffffffffffffffffffffffff1673ffffffffffffffffffffffffffffffffffffffff168152602001908152602001600020549050919050565b60007f0000000000000000000000000000000000000000000000000000000000000000905090565b600047905090565b600860009054906101000a900460ff1615611132576040517f08c379a0000000000000000000000000000000000000000000000000000000008152600401611129906128bd565b60405180910390fd5b600860019054906101000a900460ff16611181576040517f08c379a000000000000000000000000000000000000000000000000000000000815260040161117890612929565b60405180910390fd5b7f000000000000000000000000000000000000000000000000000000000000000067ffffffffffffffff16601080549050116111f2576040517f08c379a00000000000000000000000000000000000000000000000000000000081526004016111e990612995565b60405180910390fd5b7f000000000000000000000000000000000000000000000000000000000000000067ffffffffffffffff16601080549050111561127957600860029054906101000a900460ff16611278576040517f08c379a000000000000000000000000000000000000000000000000000000000815260040161126f90612a27565b60405180910390fd5b5b6000805b8383905081101561162e576010805490508484838181106112a1576112a06125c2565b5b90506020020160208101906112b69190611d8d565b61ffff16106112fa576040517f08c379a00000000000000000000000000000000000000000000000000000000081526004016112f190612a93565b60405180910390fd5b600f6000858584818110611311576113106125c2565b5b90506020020160208101906113269190611d8d565b61ffff1661ffff16815260200190815260200160002060009054906101000a900460ff161561138a576040517f08c379a000000000000000000000000000000000000000000000000000000000815260040161138190612b25565b60405180910390fd5b3373ffffffffffffffffffffffffffffffffffffffff1660108585848181106113b6576113b56125c2565b5b90506020020160208101906113cb9190611d8d565b61ffff16815481106113e0576113df6125c2565b5b9060005260206000200160009054906101000a900473ffffffffffffffffffffffffffffffffffffffff1673ffffffffffffffffffffffffffffffffffffffff1614611461576040517f08c379a000000000000000000000000000000000000000000000000000000000815260040161145890612b91565b60405180910390fd5b6001600f600086868581811061147a576114796125c2565b5b905060200201602081019061148f9190611d8d565b61ffff1661ffff16815260200190815260200160002060006101000a81548160ff0219169083151502179055507f000000000000000000000000000000000000000000000000000000000000000067ffffffffffffffff168484838181106114fa576114f96125c2565b5b905060200201602081019061150f9190611d8d565b61ffff16101561161b576000600a60009054906101000a900473ffffffffffffffffffffffffffffffffffffffff1673ffffffffffffffffffffffffffffffffffffffff16638d69f541336040518263ffffffff1660e01b81526004016115769190611c25565b602060405180830381600087803b15801561159057600080fd5b505af11580156115a4573d6000803e3d6000fd5b505050506040513d601f19601f820116820180604052508101906115c89190612be9565b90508061160a576040517f08c379a000000000000000000000000000000000000000000000000000000000815260040161160190612c62565b60405180910390fd5b600183611617919061277e565b9250505b8080611626906125f1565b91505061127d565b50828290508161ffff1610156116e95760003373ffffffffffffffffffffffffffffffffffffffff167f00000000000000000000000000000000000000000000000000000000000000008361ffff168686905061168b9190612265565b61169591906121ab565b6040516116a190612cb3565b60006040518083038185875af1925050503d80600081146116de576040519150601f19603f3d011682016040523d82523d6000602084013e6116e3565b606091505b50509050505b7fbc3d344f5bd6ab932d64c6cb48435488a62f7fc8655b16b3d6d9aedf6d54fffa338260405161171a9291906127b6565b60405180910390a1505050565b6000600260008373ffffffffffffffffffffffffffffffffffffffff1673ffffffffffffffffffffffffffffffffffffffff168152602001908152602001600020549050919050565b6000600154905090565b7f000000000000000000000000000000000000000000000000000000000000000081565b804710156117e1576040517f08c379a00000000000000000000000000000000000000000000000000000000081526004016117d890612d14565b60405180910390fd5b60008273ffffffffffffffffffffffffffffffffffffffff168260405161180790612cb3565b60006040518083038185875af1925050503d8060008114611844576040519150601f19603f3d011682016040523d82523d6000602084013e611849565b606091505b505090508061188d576040517f08c379a000000000000000000000000000000000000000000000000000000000815260040161188490612da6565b60405180910390fd5b505050565b60007f000000000000000000000000000000000000000000000000000000000000000073ffffffffffffffffffffffffffffffffffffffff16634000aea07f000000000000000000000000000000000000000000000000000000000000000084866000604051602001611906929190612dc6565b6040516020818303038152906040526040518463ffffffff1660e01b815260040161193393929190612e88565b602060405180830381600087803b15801561194d57600080fd5b505af1158015611961573d6000803e3d6000fd5b505050506040513d601f19601f820116820180604052508101906119859190612be9565b5060006119a8846000306005600089815260200190815260200160002054611aff565b9050600160056000868152602001908152602001600020546119ca9190612155565b60056000868152602001908152602001600020819055506119eb8482611b3b565b91505092915050565b600081600001549050919050565b6001816000016000828254019250508190555050565b7f000000000000000000000000000000000000000000000000000000000000000067ffffffffffffffff1660108054905011611a89576040517f08c379a0000000000000000000000000000000000000000000000000000000008152600401611a8090612f12565b60405180910390fd5b600860039054906101000a900460ff1615611ad9576040517f08c379a0000000000000000000000000000000000000000000000000000000008152600401611ad090612f7e565b60405180910390fd5b80600b819055506001600860036101000a81548160ff0219169083151502179055505050565b600084848484604051602001611b189493929190612f9e565b6040516020818303038152906040528051906020012060001c9050949350505050565b60008282604051602001611b50929190613025565b60405160208183030381529060405280519060200120905092915050565b600073ffffffffffffffffffffffffffffffffffffffff82169050919050565b6000611b9982611b6e565b9050919050565b611ba981611b8e565b82525050565b6000819050919050565b611bc281611baf565b82525050565b6000604082019050611bdd6000830185611ba0565b611bea6020830184611bb9565b9392505050565b6000819050919050565b611c0481611bf1565b82525050565b6000602082019050611c1f6000830184611bfb565b92915050565b6000602082019050611c3a6000830184611ba0565b92915050565b600080fd5b600080fd5b611c5381611b8e565b8114611c5e57600080fd5b50565b600081359050611c7081611c4a565b92915050565b600060208284031215611c8c57611c8b611c40565b5b6000611c9a84828501611c61565b91505092915050565b600061ffff82169050919050565b611cba81611ca3565b82525050565b6000602082019050611cd56000830184611cb1565b92915050565b6000611ce682611b6e565b9050919050565b611cf681611cdb565b8114611d0157600080fd5b50565b600081359050611d1381611ced565b92915050565b600060208284031215611d2f57611d2e611c40565b5b6000611d3d84828501611d04565b91505092915050565b6000602082019050611d5b6000830184611bb9565b92915050565b611d6a81611ca3565b8114611d7557600080fd5b50565b600081359050611d8781611d61565b92915050565b600060208284031215611da357611da2611c40565b5b6000611db184828501611d78565b91505092915050565b611dc381611baf565b8114611dce57600080fd5b50565b600081359050611de081611dba565b92915050565b600060208284031215611dfc57611dfb611c40565b5b6000611e0a84828501611dd1565b91505092915050565b611e1c81611bf1565b8114611e2757600080fd5b50565b600081359050611e3981611e13565b92915050565b60008060408385031215611e5657611e55611c40565b5b6000611e6485828601611e2a565b9250506020611e7585828601611dd1565b9150509250929050565b600080fd5b600080fd5b600080fd5b60008083601f840112611ea457611ea3611e7f565b5b8235905067ffffffffffffffff811115611ec157611ec0611e84565b5b602083019150836020820283011115611edd57611edc611e89565b5b9250929050565b60008060208385031215611efb57611efa611c40565b5b600083013567ffffffffffffffff811115611f1957611f18611c45565b5b611f2585828601611e8e565b92509250509250929050565b6000819050919050565b6000611f56611f51611f4c84611b6e565b611f31565b611b6e565b9050919050565b6000611f6882611f3b565b9050919050565b6000611f7a82611f5d565b9050919050565b611f8a81611f6f565b82525050565b6000602082019050611fa56000830184611f81565b92915050565b600082825260208201905092915050565b7f696e76616c696420616464726573730000000000000000000000000000000000600082015250565b6000611ff2600f83611fab565b9150611ffd82611fbc565b602082019050919050565b6000602082019050818103600083015261202181611fe5565b9050919050565b7f4e6f20546f6b656e732052657175657374656400000000000000000000000000600082015250565b600061205e601383611fab565b915061206982612028565b602082019050919050565b6000602082019050818103600083015261208d81612051565b9050919050565b7f5061796d656e7453706c69747465723a206163636f756e7420686173206e6f2060008201527f7368617265730000000000000000000000000000000000000000000000000000602082015250565b60006120f0602683611fab565b91506120fb82612094565b604082019050919050565b6000602082019050818103600083015261211f816120e3565b9050919050565b7f4e487b7100000000000000000000000000000000000000000000000000000000600052601160045260246000fd5b600061216082611baf565b915061216b83611baf565b9250827fffffffffffffffffffffffffffffffffffffffffffffffffffffffffffffffff038211156121a05761219f612126565b5b828201905092915050565b60006121b682611baf565b91506121c183611baf565b9250817fffffffffffffffffffffffffffffffffffffffffffffffffffffffffffffffff04831182151516156121fa576121f9612126565b5b828202905092915050565b7f4e487b7100000000000000000000000000000000000000000000000000000000600052601260045260246000fd5b600061223f82611baf565b915061224a83611baf565b92508261225a57612259612205565b5b828204905092915050565b600061227082611baf565b915061227b83611baf565b92508282101561228e5761228d612126565b5b828203905092915050565b7f5061796d656e7453706c69747465723a206163636f756e74206973206e6f742060008201527f647565207061796d656e74000000000000000000000000000000000000000000602082015250565b60006122f5602b83611fab565b915061230082612299565b604082019050919050565b60006020820190508181036000830152612324816122e8565b9050919050565b600061233682611f5d565b9050919050565b6123468161232b565b82525050565b6000604082019050612361600083018561233d565b61236e6020830184611bb9565b9392505050565b7f726166666c65206973207374696c6c2061637469766500000000000000000000600082015250565b60006123ab601683611fab565b91506123b682612375565b602082019050919050565b600060208201905081810360008301526123da8161239e565b9050919050565b7f456e74726f707920697320616c7265616479207365742c206e6f206e65656400600082015250565b6000612417601f83611fab565b9150612422826123e1565b602082019050919050565b600060208201905081810360008301526124468161240a565b9050919050565b7f526166666c65204973205374696c6c2041637469766500000000000000000000600082015250565b6000612483601683611fab565b915061248e8261244d565b602082019050919050565b600060208201905081810360008301526124b281612476565b9050919050565b7f4e6f206e65656420746f2073687566666c650000000000000000000000000000600082015250565b60006124ef601283611fab565b91506124fa826124b9565b602082019050919050565b6000602082019050818103600083015261251e816124e2565b9050919050565b7f4e6f2072616e646f6d6e65737320746f2073687566666c652077697468000000600082015250565b600061255b601d83611fab565b915061256682612525565b602082019050919050565b6000602082019050818103600083015261258a8161254e565b9050919050565b600061259c82611baf565b91506125a783611baf565b9250826125b7576125b6612205565b5b828206905092915050565b7f4e487b7100000000000000000000000000000000000000000000000000000000600052603260045260246000fd5b60006125fc82611baf565b91507fffffffffffffffffffffffffffffffffffffffffffffffffffffffffffffffff82141561262f5761262e612126565b5b600182019050919050565b7f526166666c65206973206e6f7420616374697665000000000000000000000000600082015250565b6000612670601483611fab565b915061267b8261263a565b602082019050919050565b6000602082019050818103600083015261269f81612663565b9050919050565b7f4e6f7420656e6f756768204554482073656e7400000000000000000000000000600082015250565b60006126dc601383611fab565b91506126e7826126a6565b602082019050919050565b6000602082019050818103600083015261270b816126cf565b9050919050565b7f506c65617365207265717565737420666577657220746f6b656e730000000000600082015250565b6000612748601b83611fab565b915061275382612712565b602082019050919050565b600060208201905081810360008301526127778161273b565b9050919050565b600061278982611ca3565b915061279483611ca3565b92508261ffff038211156127ab576127aa612126565b5b828201905092915050565b60006040820190506127cb6000830185611ba0565b6127d86020830184611cb1565b9392505050565b7f4f6e6c7920565246436f6f7264696e61746f722063616e2066756c66696c6c00600082015250565b6000612815601f83611fab565b9150612820826127df565b602082019050919050565b6000602082019050818103600083015261284481612808565b9050919050565b7f526166666c65206d757374206265206f76657220746f2067657420796f75722060008201527f746f6b656e000000000000000000000000000000000000000000000000000000602082015250565b60006128a7602583611fab565b91506128b28261284b565b604082019050919050565b600060208201905081810360008301526128d68161289a565b9050919050565b7f4d696e74696e67207374617465206e6565647320746f20626520616374697665600082015250565b6000612913602083611fab565b915061291e826128dd565b602082019050919050565b6000602082019050818103600083015261294281612906565b9050919050565b7f4576657279626f647920697320612077696e6e65720000000000000000000000600082015250565b600061297f601583611fab565b915061298a82612949565b602082019050919050565b600060208201905081810360008301526129ae81612972565b9050919050565b7f706c656173652073687566666c652077696e6e657273206265666f7265206d6960008201527f6e74696e67000000000000000000000000000000000000000000000000000000602082015250565b6000612a11602583611fab565b9150612a1c826129b5565b604082019050919050565b60006020820190508181036000830152612a4081612a04565b9050919050565b7f4e6f7420612076616c6964207469636b65740000000000000000000000000000600082015250565b6000612a7d601283611fab565b9150612a8882612a47565b602082019050919050565b60006020820190508181036000830152612aac81612a70565b9050919050565b7f5469636b657473206861766520616c7265616479206265656e20636c61696d6560008201527f6400000000000000000000000000000000000000000000000000000000000000602082015250565b6000612b0f602183611fab565b9150612b1a82612ab3565b604082019050919050565b60006020820190508181036000830152612b3e81612b02565b9050919050565b7f4e6f7420746865206f776e6572206f662074686973207469636b657473000000600082015250565b6000612b7b601d83611fab565b9150612b8682612b45565b602082019050919050565b60006020820190508181036000830152612baa81612b6e565b9050919050565b60008115159050919050565b612bc681612bb1565b8114612bd157600080fd5b50565b600081519050612be381612bbd565b92915050565b600060208284031215612bff57612bfe611c40565b5b6000612c0d84828501612bd4565b91505092915050565b7f536f6d657468696e672068617070656e64656400000000000000000000000000600082015250565b6000612c4c601383611fab565b9150612c5782612c16565b602082019050919050565b60006020820190508181036000830152612c7b81612c3f565b9050919050565b600081905092915050565b50565b6000612c9d600083612c82565b9150612ca882612c8d565b600082019050919050565b6000612cbe82612c90565b9150819050919050565b7f416464726573733a20696e73756666696369656e742062616c616e6365000000600082015250565b6000612cfe601d83611fab565b9150612d0982612cc8565b602082019050919050565b60006020820190508181036000830152612d2d81612cf1565b9050919050565b7f416464726573733a20756e61626c6520746f2073656e642076616c75652c207260008201527f6563697069656e74206d61792068617665207265766572746564000000000000602082015250565b6000612d90603a83611fab565b9150612d9b82612d34565b604082019050919050565b60006020820190508181036000830152612dbf81612d83565b9050919050565b6000604082019050612ddb6000830185611bfb565b612de86020830184611bb9565b9392505050565b600081519050919050565b600082825260208201905092915050565b60005b83811015612e29578082015181840152602081019050612e0e565b83811115612e38576000848401525b50505050565b6000601f19601f8301169050919050565b6000612e5a82612def565b612e648185612dfa565b9350612e74818560208601612e0b565b612e7d81612e3e565b840191505092915050565b6000606082019050612e9d6000830186611ba0565b612eaa6020830185611bb9565b8181036040830152612ebc8184612e4f565b9050949350505050565b7f4e6f206e65656420746f2073687566666c652061646472657373657300000000600082015250565b6000612efc601c83611fab565b9150612f0782612ec6565b602082019050919050565b60006020820190508181036000830152612f2b81612eef565b9050919050565b7f656e74726f707920616c72656164792073657400000000000000000000000000600082015250565b6000612f68601383611fab565b9150612f7382612f32565b602082019050919050565b60006020820190508181036000830152612f9781612f5b565b9050919050565b6000608082019050612fb36000830187611bfb565b612fc06020830186611bb9565b612fcd6040830185611ba0565b612fda6060830184611bb9565b95945050505050565b6000819050919050565b612ffe612ff982611bf1565b612fe3565b82525050565b6000819050919050565b61301f61301a82611baf565b613004565b82525050565b60006130318285612fed565b602082019150613041828461300e565b602082019150819050939250505056fea2646970667358221220c7727db219cc7edcfdb635fc87cd5a81d8bcb9ad7c9da95189e7a1867dbda84264736f6c63430008090033",
  "immutableReferences": {
    "73": [
      {
        "length": 32,
        "start": 6294
      }
    ],
    "75": [
      {
        "length": 32,
        "start": 4047
      },
      {
        "length": 32,
        "start": 6354
      }
    ],
    "3608": [
      {
        "length": 32,
        "start": 6012
      }
    ],
    "3610": [
      {
        "length": 32,
        "start": 2312
      }
    ],
    "3625": [
      {
        "length": 32,
        "start": 3215
      },
      {
        "length": 32,
        "start": 4278
      },
      {
        "length": 32,
        "start": 5721
      }
    ],
    "3628": [
      {
        "length": 32,
        "start": 2457
      },
      {
        "length": 32,
        "start": 3328
      },
      {
        "length": 32,
        "start": 4483
      },
      {
        "length": 32,
        "start": 4596
      },
      {
        "length": 32,
        "start": 5310
      },
      {
        "length": 32,
        "start": 6682
      }
    ],
    "3631": [
      {
        "length": 32,
        "start": 3460
      }
    ]
  },
  "source": "//SPDX-License-Identifier: UNLICENSED\npragma solidity ^0.8.0;\n\nimport \"@openzeppelin/contracts/finance/PaymentSplitter.sol\";\nimport \"@chainlink/contracts/src/v0.8/VRFConsumerBase.sol\";\nimport \"@openzeppelin/contracts/token/ERC20/IERC20.sol\";\nimport \"./MyWish.sol\";\n\n//Need to set up ownable for contract\n//Need to create reserve function\n\ncontract PaymentHandler is PaymentSplitter, VRFConsumerBase{\n\n    using Counters for Counters.Counter; \n\n\n    uint256 public randomnessOutput;\n    bytes32 public requestId;\n\n    IERC20 public immutable LINK_TOKEN;\n    bytes32 internal immutable KEY_HASH;\n    \n\n    uint16 immutable zachIndex = 0;\n    uint16 immutable evanIndex = 2;\n    uint16 immutable sebIndex = 1;\n    uint16 immutable wishIndex = 3;\n\n    uint256 immutable PRICE = 3000000000000000000 wei;\n    uint64 immutable TOKEN_CAP = 10000;\n    uint16 immutable USER_TOKEN_CAP = 5;\n\n    bool raffleIsActive = true;\n    bool mintingIsActive = false;\n    bool raffleIsShuffled = false;\n    bool entropySet = false;\n\n    Counters.Counter private raffleCount;       \n\n    MyWish _myWishContract;\n\n    \n    uint16 sebShares = 2;\n    uint16 zachShares = 2;\n    uint16 evanShares = 6;\n    uint16 makeAWishShares = 90;\n    uint256 entropy;\n\n    address makeAWish = address(0);\n    uint256[] shares_ = [sebShares, zachShares, evanShares, makeAWishShares];\n\n    mapping(address => uint16) tokensPerUser;\n    mapping(uint16 => bool) ticketsClaimed;\n    address[] raffleEntries;\n    \n    event fundsAccepted(address from);\n    event enteredRaffle(address from ,uint16 numTokens);\n    event raffleShuffled(uint256 totalEntries);\n    event ticketsRedeemed(address user, uint16 winningTicketCount);\n\n    constructor(\n        address tokenAddress,\n        address[] memory payees,\n        bytes32 _LINK_KEY_HASH,\n        address _LINK_ADDRESS,\n        address _LINK_VRF_COORDINATOR_ADDRESS\n       ) \n       PaymentSplitter(payees, shares_)\n       VRFConsumerBase(_LINK_VRF_COORDINATOR_ADDRESS, _LINK_ADDRESS)\n    {\n        LINK_TOKEN = IERC20(_LINK_ADDRESS);\n        KEY_HASH = _LINK_KEY_HASH;\n        _myWishContract = MyWish(tokenAddress);\n        makeAWish = payees[3];\n    }\n\n    function enterRaffle(uint16 numTokens)\n    public \n    payable\n    {\n        require(raffleIsActive, \"Raffle is not active\");\n        require(msg.value == numTokens * PRICE,\"Not enough ETH sent\");\n        require(numTokens + raffleCount.current() < TOKEN_CAP,\"Please request fewer tokens\");\n        require(tokensPerUser[msg.sender] + numTokens < USER_TOKEN_CAP,\"Please request fewer tokens\");\n\n        tokensPerUser[msg.sender] += numTokens;\n        for(uint i = 0; i < numTokens; i++){\n            raffleCount.increment();\n            raffleEntries.push(msg.sender);\n        }\n        \n        emit enteredRaffle(msg.sender, numTokens);\n\n    }\n    \n    function shuffleEntries() public {\n        require(!raffleIsActive,\"Raffle Is Still Active\");\n        require(raffleEntries.length > TOKEN_CAP,\"No need to shuffle\");\n        require(entropySet, \"No randomness to shuffle with\");\n\n        for (uint256 i = 0; i < raffleEntries.length; i++) {\n            // Generate a random index to select from\n            uint256 randomIndex = i + entropy % (raffleEntries.length - i);\n            // Collect the value at that random index\n            address randomTmp = raffleEntries[randomIndex];\n            // Update the value at the random index to the current value\n            raffleEntries[randomIndex] = raffleEntries[i];\n            // Update the current value to the value at the random index\n            raffleEntries[i] = randomTmp;\n        }\n\n        raffleIsShuffled = true;\n        emit raffleShuffled(raffleEntries.length);\n\n    }\n\n    function setEntropy() public {\n\n        require(!raffleIsActive,'raffle is still active');\n        require(!entropySet,'Entropy is already set, no need');\n        \n        requestRandomness(KEY_HASH, 2e18);\n\n    }\n    function isWinner(uint16[] calldata tickets) public { \n        require(!raffleIsActive,\"Raffle must be over to get your token\");\n        require(mintingIsActive,\"Minting state needs to be active\");\n        require(raffleEntries.length > TOKEN_CAP, \"Everybody is a winner\");\n        if(raffleEntries.length > TOKEN_CAP) {\n            require(raffleIsShuffled,\"please shuffle winners before minting\");\n        }\n\n        uint16 winningTicketCount = 0;\n        for(uint i = 0; i < tickets.length; i++){\n            require(tickets[i] < raffleEntries.length,\"Not a valid ticket\");\n            require(!ticketsClaimed[tickets[i]],\"Tickets have already been claimed\");\n            require(raffleEntries[tickets[i]] == msg.sender, \"Not the owner of this tickets\");\n\n            ticketsClaimed[tickets[i]] = true;\n\n            if(tickets[i] < TOKEN_CAP){\n                bool success = _myWishContract.createCollectable(msg.sender);\n                require(success,\"Something happended\");\n                winningTicketCount += 1;\n            }\n     \n        }\n        if(winningTicketCount < tickets.length){\n            (bool sent, ) = payable(msg.sender).call{\n                value: (tickets.length - winningTicketCount) * PRICE\n            }(\"\");\n        }\n\n        emit ticketsRedeemed(msg.sender, winningTicketCount);\n\n\n    }\n\n    function fulfillRandomness(bytes32 requestId, uint256 randomness) internal override {\n        require(raffleEntries.length > TOKEN_CAP, \"No need to shuffle addresses\");\n        require(!entropySet,\"entropy already set\");\n        entropy = randomness;\n        entropySet = true;\n    }\n\n\n\n\n    function getTokenAddress() external view returns(address) {\n        return address(_myWishContract);\n    }\n\n    //does this return the total balance in the contract? \n    function getBalanceOfPaymentHandler()\n    external\n    view\n    returns(uint256){\n        return address(this).balance;\n    }\n\n  \n    function releaseEther() internal {\n        address payable zach = payable(payee(zachIndex));\n        address payable evan = payable(payee(evanIndex));\n        address payable seb = payable(payee(sebIndex));\n        address payable wish = payable(payee(wishIndex));\n\n        require(seb !=  address(0), \"Address of Seb is not set\");\n        require(zach != address(0), \"Address of Zach is not set\");\n        require(evan != address(0), \"Address of Evan is not set\");\n        require(wish != address(0), \"Address of Make A Wish is not set\");\n        \n        release(zach);\n        release(wish); \n        release(evan); \n        release(seb);\n    }\n\n\n    function getTokensRequested(address user) public view returns(uint16) {\n        require(user != address(0),\"invalid address\");\n        require(tokensPerUser[user] > 0, \"No Tokens Requested\");\n        \n        return tokensPerUser[user];\n    }\n\n    function getPrice() public pure returns(uint256){\n        return PRICE;\n    }\n\n\n\n\n\n\n\n\n}\n",
  "sourcePath": "/Users/zlederman/Documents/Code/js/truffle-react/contracts/PaymentHandler.sol",
  "compiler": {
    "name": "solc",
    "version": "0.8.9+commit.e5eed63a.Emscripten.clang"
  },
  "schemaVersion": "3.4.2",
  "updatedAt": "2021-10-16T16:42:12.709Z",
  "networkType": "ethereum",
  "devdoc": {
    "kind": "dev",
    "methods": {
      "payee(uint256)": {
        "details": "Getter for the address of the payee number `index`."
      },
      "release(address)": {
        "details": "Triggers a transfer to `account` of the amount of Ether they are owed, according to their percentage of the total shares and their previous withdrawals."
      },
      "released(address)": {
        "details": "Getter for the amount of Ether already released to a payee."
      },
      "shares(address)": {
        "details": "Getter for the amount of shares held by an account."
      },
      "totalReleased()": {
        "details": "Getter for the total amount of Ether already released."
      },
      "totalShares()": {
        "details": "Getter for the total shares held by payees."
      }
    },
    "version": 1
  },
  "userdoc": {
    "kind": "user",
    "methods": {},
    "version": 1
  }
}