{
  "contractName": "PaymentHandler",
  "abi": [
    {
      "inputs": [
        {
          "internalType": "address",
          "name": "tokenAddress",
          "type": "address"
        },
        {
          "internalType": "address[]",
          "name": "payees",
          "type": "address[]"
        }
      ],
      "stateMutability": "nonpayable",
      "type": "constructor"
    },
    {
      "anonymous": false,
      "inputs": [
        {
          "indexed": false,
          "internalType": "address",
          "name": "account",
          "type": "address"
        },
        {
          "indexed": false,
          "internalType": "uint256",
          "name": "shares",
          "type": "uint256"
        }
      ],
      "name": "PayeeAdded",
      "type": "event"
    },
    {
      "anonymous": false,
      "inputs": [
        {
          "indexed": false,
          "internalType": "address",
          "name": "from",
          "type": "address"
        },
        {
          "indexed": false,
          "internalType": "uint256",
          "name": "amount",
          "type": "uint256"
        }
      ],
      "name": "PaymentReceived",
      "type": "event"
    },
    {
      "anonymous": false,
      "inputs": [
        {
          "indexed": false,
          "internalType": "address",
          "name": "to",
          "type": "address"
        },
        {
          "indexed": false,
          "internalType": "uint256",
          "name": "amount",
          "type": "uint256"
        }
      ],
      "name": "PaymentReleased",
      "type": "event"
    },
    {
      "anonymous": false,
      "inputs": [
        {
          "indexed": false,
          "internalType": "address",
          "name": "from",
          "type": "address"
        }
      ],
      "name": "fundsAccepted",
      "type": "event"
    },
    {
      "anonymous": false,
      "inputs": [
        {
          "indexed": false,
          "internalType": "address",
          "name": "beneficiary",
          "type": "address"
        },
        {
          "indexed": false,
          "internalType": "string",
          "name": "tokenParams",
          "type": "string"
        }
      ],
      "name": "tokenMintedEvent",
      "type": "event"
    },
    {
      "inputs": [
        {
          "internalType": "uint256",
          "name": "index",
          "type": "uint256"
        }
      ],
      "name": "payee",
      "outputs": [
        {
          "internalType": "address",
          "name": "",
          "type": "address"
        }
      ],
      "stateMutability": "view",
      "type": "function"
    },
    {
      "inputs": [
        {
          "internalType": "address payable",
          "name": "account",
          "type": "address"
        }
      ],
      "name": "release",
      "outputs": [],
      "stateMutability": "nonpayable",
      "type": "function"
    },
    {
      "inputs": [
        {
          "internalType": "address",
          "name": "account",
          "type": "address"
        }
      ],
      "name": "released",
      "outputs": [
        {
          "internalType": "uint256",
          "name": "",
          "type": "uint256"
        }
      ],
      "stateMutability": "view",
      "type": "function"
    },
    {
      "inputs": [
        {
          "internalType": "address",
          "name": "account",
          "type": "address"
        }
      ],
      "name": "shares",
      "outputs": [
        {
          "internalType": "uint256",
          "name": "",
          "type": "uint256"
        }
      ],
      "stateMutability": "view",
      "type": "function"
    },
    {
      "inputs": [],
      "name": "totalReleased",
      "outputs": [
        {
          "internalType": "uint256",
          "name": "",
          "type": "uint256"
        }
      ],
      "stateMutability": "view",
      "type": "function"
    },
    {
      "inputs": [],
      "name": "totalShares",
      "outputs": [
        {
          "internalType": "uint256",
          "name": "",
          "type": "uint256"
        }
      ],
      "stateMutability": "view",
      "type": "function"
    },
    {
      "stateMutability": "payable",
      "type": "receive"
    },
    {
      "inputs": [
        {
          "internalType": "address",
          "name": "beneficiary",
          "type": "address"
        },
        {
          "internalType": "string",
          "name": "tokenParams",
          "type": "string"
        }
      ],
      "name": "buyToken",
      "outputs": [],
      "stateMutability": "payable",
      "type": "function"
    },
    {
      "inputs": [],
      "name": "getTokenAddress",
      "outputs": [
        {
          "internalType": "address",
          "name": "",
          "type": "address"
        }
      ],
      "stateMutability": "view",
      "type": "function"
    },
    {
      "inputs": [],
      "name": "getBalanceOfPaymentHandler",
      "outputs": [
        {
          "internalType": "uint256",
          "name": "",
          "type": "uint256"
        }
      ],
      "stateMutability": "view",
      "type": "function"
    },
    {
      "inputs": [],
      "name": "getPrice",
      "outputs": [
        {
          "internalType": "uint256",
          "name": "",
          "type": "uint256"
        }
      ],
      "stateMutability": "pure",
      "type": "function"
    }
  ],
  "bytecode": "0x6080604052601e600760006101000a81548173ffffffffffffffffffffffffffffffffffffffff021916908373ffffffffffffffffffffffffffffffffffffffff160217905550600a600860006101000a81548173ffffffffffffffffffffffffffffffffffffffff021916908373ffffffffffffffffffffffffffffffffffffffff1602179055506010600960006101000a81548173ffffffffffffffffffffffffffffffffffffffff021916908373ffffffffffffffffffffffffffffffffffffffff1602179055506014600a60006101000a81548173ffffffffffffffffffffffffffffffffffffffff021916908373ffffffffffffffffffffffffffffffffffffffff1602179055506002600b556002600c556006600d55605a600e556040518060800160405280600b548152602001600c548152602001600d548152602001600e54815250600f9060046200015b92919062000566565b503480156200016957600080fd5b506040516200259b3803806200259b83398181016040528101906200018f91906200069c565b80600f805480602002602001604051908101604052809291908181526020018280548015620001de57602002820191906000526020600020905b815481526020019060010190808311620001c9575b505050505080518251146200022a576040517f08c379a0000000000000000000000000000000000000000000000000000000008152600401620002219062000836565b60405180910390fd5b600082511162000271576040517f08c379a000000000000000000000000000000000000000000000000000000000815260040162000268906200087a565b60405180910390fd5b60005b8251811015620002e057620002ca83828151811062000298576200029762000a75565b5b6020026020010151838381518110620002b657620002b562000a75565b5b60200260200101516200032c60201b60201c565b8080620002d790620009f8565b91505062000274565b50505081600660006101000a81548173ffffffffffffffffffffffffffffffffffffffff021916908373ffffffffffffffffffffffffffffffffffffffff160217905550505062000c51565b600073ffffffffffffffffffffffffffffffffffffffff168273ffffffffffffffffffffffffffffffffffffffff1614156200039f576040517f08c379a0000000000000000000000000000000000000000000000000000000008152600401620003969062000814565b60405180910390fd5b60008111620003e5576040517f08c379a0000000000000000000000000000000000000000000000000000000008152600401620003dc906200089c565b60405180910390fd5b6000600260008473ffffffffffffffffffffffffffffffffffffffff1673ffffffffffffffffffffffffffffffffffffffff16815260200190815260200160002054146200046a576040517f08c379a0000000000000000000000000000000000000000000000000000000008152600401620004619062000858565b60405180910390fd5b6004829080600181540180825580915050600190039060005260206000200160009091909190916101000a81548173ffffffffffffffffffffffffffffffffffffffff021916908373ffffffffffffffffffffffffffffffffffffffff16021790555080600260008473ffffffffffffffffffffffffffffffffffffffff1673ffffffffffffffffffffffffffffffffffffffff168152602001908152602001600020819055508060005462000521919062000927565b6000819055507f40c340f65e17194d14ddddb073d3c9f888e3cb52b5aae0c6c7706b4fbc905fac82826040516200055a929190620007e7565b60405180910390a15050565b828054828255906000526020600020908101928215620005a5579160200282015b82811115620005a457825182559160200191906001019062000587565b5b509050620005b49190620005b8565b5090565b5b80821115620005d3576000816000905550600101620005b9565b5090565b6000620005ee620005e884620008e7565b620008be565b9050808382526020820190508285602086028201111562000614576200061362000ad8565b5b60005b858110156200064857816200062d888262000652565b84526020840193506020830192505060018101905062000617565b5050509392505050565b600081519050620006638162000c37565b92915050565b600082601f83011262000681576200068062000ad3565b5b815162000693848260208601620005d7565b91505092915050565b60008060408385031215620006b657620006b562000ae2565b5b6000620006c68582860162000652565b925050602083015167ffffffffffffffff811115620006ea57620006e962000add565b5b620006f88582860162000669565b9150509250929050565b6200070d8162000984565b82525050565b600062000722602c8362000916565b91506200072f8262000af8565b604082019050919050565b60006200074960328362000916565b9150620007568262000b47565b604082019050919050565b600062000770602b8362000916565b91506200077d8262000b96565b604082019050919050565b600062000797601a8362000916565b9150620007a48262000be5565b602082019050919050565b6000620007be601d8362000916565b9150620007cb8262000c0e565b602082019050919050565b620007e181620009b8565b82525050565b6000604082019050620007fe600083018562000702565b6200080d6020830184620007d6565b9392505050565b600060208201905081810360008301526200082f8162000713565b9050919050565b6000602082019050818103600083015262000851816200073a565b9050919050565b60006020820190508181036000830152620008738162000761565b9050919050565b60006020820190508181036000830152620008958162000788565b9050919050565b60006020820190508181036000830152620008b781620007af565b9050919050565b6000620008ca620008dd565b9050620008d88282620009c2565b919050565b6000604051905090565b600067ffffffffffffffff82111562000905576200090462000aa4565b5b602082029050602081019050919050565b600082825260208201905092915050565b60006200093482620009b8565b91506200094183620009b8565b9250827fffffffffffffffffffffffffffffffffffffffffffffffffffffffffffffffff0382111562000979576200097862000a46565b5b828201905092915050565b6000620009918262000998565b9050919050565b600073ffffffffffffffffffffffffffffffffffffffff82169050919050565b6000819050919050565b620009cd8262000ae7565b810181811067ffffffffffffffff82111715620009ef57620009ee62000aa4565b5b80604052505050565b600062000a0582620009b8565b91507fffffffffffffffffffffffffffffffffffffffffffffffffffffffffffffffff82141562000a3b5762000a3a62000a46565b5b600182019050919050565b7f4e487b7100000000000000000000000000000000000000000000000000000000600052601160045260246000fd5b7f4e487b7100000000000000000000000000000000000000000000000000000000600052603260045260246000fd5b7f4e487b7100000000000000000000000000000000000000000000000000000000600052604160045260246000fd5b600080fd5b600080fd5b600080fd5b600080fd5b6000601f19601f8301169050919050565b7f5061796d656e7453706c69747465723a206163636f756e74206973207468652060008201527f7a65726f20616464726573730000000000000000000000000000000000000000602082015250565b7f5061796d656e7453706c69747465723a2070617965657320616e64207368617260008201527f6573206c656e677468206d69736d617463680000000000000000000000000000602082015250565b7f5061796d656e7453706c69747465723a206163636f756e7420616c726561647960008201527f2068617320736861726573000000000000000000000000000000000000000000602082015250565b7f5061796d656e7453706c69747465723a206e6f20706179656573000000000000600082015250565b7f5061796d656e7453706c69747465723a20736861726573206172652030000000600082015250565b62000c428162000984565b811462000c4e57600080fd5b50565b61193a8062000c616000396000f3fe6080604052600436106100955760003560e01c806398d5fdca1161005957806398d5fdca146101da578063a332099914610205578063b0dfa98e14610230578063ce7c2ac21461024c578063e33b7de314610289576100dc565b806310fe9ae8146100e1578063191655871461010c5780633a98ef39146101355780638b83209b146101605780639852595c1461019d576100dc565b366100dc577f6ef95f06320e7a25a04a175ca677b7052bdd97131872c2192525a629f51be7706100c36102b4565b346040516100d2929190611167565b60405180910390a1005b600080fd5b3480156100ed57600080fd5b506100f66102bc565b60405161010391906110f1565b60405180910390f35b34801561011857600080fd5b50610133600480360381019061012e9190610db1565b6102e6565b005b34801561014157600080fd5b5061014a61054e565b6040516101579190611330565b60405180910390f35b34801561016c57600080fd5b5061018760048036038101906101829190610e6b565b610557565b60405161019491906110f1565b60405180910390f35b3480156101a957600080fd5b506101c460048036038101906101bf9190610d84565b61059f565b6040516101d19190611330565b60405180910390f35b3480156101e657600080fd5b506101ef6105e8565b6040516101fc9190611330565b60405180910390f35b34801561021157600080fd5b5061021a6105f8565b6040516102279190611330565b60405180910390f35b61024a60048036038101906102459190610dde565b610600565b005b34801561025857600080fd5b50610273600480360381019061026e9190610d84565b61075a565b6040516102809190611330565b60405180910390f35b34801561029557600080fd5b5061029e6107a3565b6040516102ab9190611330565b60405180910390f35b600033905090565b6000600660009054906101000a900473ffffffffffffffffffffffffffffffffffffffff16905090565b6000600260008373ffffffffffffffffffffffffffffffffffffffff1673ffffffffffffffffffffffffffffffffffffffff1681526020019081526020016000205411610368576040517f08c379a000000000000000000000000000000000000000000000000000000000815260040161035f906111b0565b60405180910390fd5b6000600154476103789190611367565b90506000600360008473ffffffffffffffffffffffffffffffffffffffff1673ffffffffffffffffffffffffffffffffffffffff16815260200190815260200160002054600054600260008673ffffffffffffffffffffffffffffffffffffffff1673ffffffffffffffffffffffffffffffffffffffff168152602001908152602001600020548461040a91906113ee565b61041491906113bd565b61041e9190611448565b90506000811415610464576040517f08c379a000000000000000000000000000000000000000000000000000000000815260040161045b90611210565b60405180910390fd5b80600360008573ffffffffffffffffffffffffffffffffffffffff1673ffffffffffffffffffffffffffffffffffffffff168152602001908152602001600020546104af9190611367565b600360008573ffffffffffffffffffffffffffffffffffffffff1673ffffffffffffffffffffffffffffffffffffffff16815260200190815260200160002081905550806001546105009190611367565b60018190555061051083826107ad565b7fdf20fd1e76bc69d672e4814fafb2c449bba3a5369d8359adf9e05e6fde87b056838260405161054192919061110c565b60405180910390a1505050565b60008054905090565b60006004828154811061056d5761056c611579565b5b9060005260206000200160009054906101000a900473ffffffffffffffffffffffffffffffffffffffff169050919050565b6000600360008373ffffffffffffffffffffffffffffffffffffffff1673ffffffffffffffffffffffffffffffffffffffff168152602001908152602001600020549050919050565b60006729a2241af62c0000905090565b600047905090565b60003411610643576040517f08c379a000000000000000000000000000000000000000000000000000000000815260040161063a90611230565b60405180910390fd5b6729a2241af62c0000341161068d576040517f08c379a0000000000000000000000000000000000000000000000000000000008152600401610684906112f0565b60405180910390fd5b600073ffffffffffffffffffffffffffffffffffffffff168373ffffffffffffffffffffffffffffffffffffffff1614156106fd576040517f08c379a00000000000000000000000000000000000000000000000000000000081526004016106f4906112d0565b60405180910390fd5b600061070a8484846108a1565b90508061074c576040517f08c379a000000000000000000000000000000000000000000000000000000000815260040161074390611270565b60405180910390fd5b6107546109e4565b50505050565b6000600260008373ffffffffffffffffffffffffffffffffffffffff1673ffffffffffffffffffffffffffffffffffffffff168152602001908152602001600020549050919050565b6000600154905090565b804710156107f0576040517f08c379a00000000000000000000000000000000000000000000000000000000081526004016107e7906111f0565b60405180910390fd5b60008273ffffffffffffffffffffffffffffffffffffffff1682604051610816906110dc565b60006040518083038185875af1925050503d8060008114610853576040519150601f19603f3d011682016040523d82523d6000602084013e610858565b606091505b505090508061089c576040517f08c379a0000000000000000000000000000000000000000000000000000000008152600401610893906111d0565b60405180910390fd5b505050565b600080600660009054906101000a900473ffffffffffffffffffffffffffffffffffffffff1673ffffffffffffffffffffffffffffffffffffffff1663e16cfb878686866040518463ffffffff1660e01b815260040161090393929190611135565b602060405180830381600087803b15801561091d57600080fd5b505af1158015610931573d6000803e3d6000fd5b505050506040513d601f19601f820116820180604052508101906109559190610e3e565b905080610997576040517f08c379a000000000000000000000000000000000000000000000000000000000815260040161098e90611290565b60405180910390fd5b7fc73fd55c21cc25aba3cede2e392471e67a6e9adbbb735362a2e5715991654f568585856040516109ca93929190611135565b60405180910390a160011515811515149150509392505050565b600073ffffffffffffffffffffffffffffffffffffffff16600760009054906101000a900473ffffffffffffffffffffffffffffffffffffffff1673ffffffffffffffffffffffffffffffffffffffff161415610a76576040517f08c379a0000000000000000000000000000000000000000000000000000000008152600401610a6d90611310565b60405180910390fd5b600073ffffffffffffffffffffffffffffffffffffffff16600860009054906101000a900473ffffffffffffffffffffffffffffffffffffffff1673ffffffffffffffffffffffffffffffffffffffff161415610b08576040517f08c379a0000000000000000000000000000000000000000000000000000000008152600401610aff906112b0565b60405180910390fd5b600073ffffffffffffffffffffffffffffffffffffffff16600960009054906101000a900473ffffffffffffffffffffffffffffffffffffffff1673ffffffffffffffffffffffffffffffffffffffff161415610b9a576040517f08c379a0000000000000000000000000000000000000000000000000000000008152600401610b9190611250565b60405180910390fd5b600073ffffffffffffffffffffffffffffffffffffffff16600a60009054906101000a900473ffffffffffffffffffffffffffffffffffffffff1673ffffffffffffffffffffffffffffffffffffffff161415610c2c576040517f08c379a0000000000000000000000000000000000000000000000000000000008152600401610c2390611190565b60405180910390fd5b610c57600760009054906101000a900473ffffffffffffffffffffffffffffffffffffffff166102e6565b610c82600860009054906101000a900473ffffffffffffffffffffffffffffffffffffffff166102e6565b610cad600960009054906101000a900473ffffffffffffffffffffffffffffffffffffffff166102e6565b610cd8600a60009054906101000a900473ffffffffffffffffffffffffffffffffffffffff166102e6565b565b600081359050610ce9816118a8565b92915050565b600081359050610cfe816118bf565b92915050565b600081519050610d13816118d6565b92915050565b60008083601f840112610d2f57610d2e6115ad565b5b8235905067ffffffffffffffff811115610d4c57610d4b6115a8565b5b602083019150836001820283011115610d6857610d676115b2565b5b9250929050565b600081359050610d7e816118ed565b92915050565b600060208284031215610d9a57610d996115bc565b5b6000610da884828501610cda565b91505092915050565b600060208284031215610dc757610dc66115bc565b5b6000610dd584828501610cef565b91505092915050565b600080600060408486031215610df757610df66115bc565b5b6000610e0586828701610cda565b935050602084013567ffffffffffffffff811115610e2657610e256115b7565b5b610e3286828701610d19565b92509250509250925092565b600060208284031215610e5457610e536115bc565b5b6000610e6284828501610d04565b91505092915050565b600060208284031215610e8157610e806115bc565b5b6000610e8f84828501610d6f565b91505092915050565b610ea1816114d6565b82525050565b610eb08161147c565b82525050565b6000610ec28385611356565b9350610ecf83858461150c565b610ed8836115c1565b840190509392505050565b6000610ef0602183611356565b9150610efb826115d2565b604082019050919050565b6000610f13602683611356565b9150610f1e82611621565b604082019050919050565b6000610f36603a83611356565b9150610f4182611670565b604082019050919050565b6000610f59601d83611356565b9150610f64826116bf565b602082019050919050565b6000610f7c602b83611356565b9150610f87826116e8565b604082019050919050565b6000610f9f601583611356565b9150610faa82611737565b602082019050919050565b6000610fc2601a83611356565b9150610fcd82611760565b602082019050919050565b6000610fe5601683611356565b9150610ff082611789565b602082019050919050565b6000611008602183611356565b9150611013826117b2565b604082019050919050565b600061102b601a83611356565b915061103682611801565b602082019050919050565b600061104e600f83611356565b91506110598261182a565b602082019050919050565b6000611071601b83611356565b915061107c82611853565b602082019050919050565b600061109460008361134b565b915061109f8261187c565b600082019050919050565b60006110b7601983611356565b91506110c28261187f565b602082019050919050565b6110d6816114cc565b82525050565b60006110e782611087565b9150819050919050565b60006020820190506111066000830184610ea7565b92915050565b60006040820190506111216000830185610e98565b61112e60208301846110cd565b9392505050565b600060408201905061114a6000830186610ea7565b818103602083015261115d818486610eb6565b9050949350505050565b600060408201905061117c6000830185610ea7565b61118960208301846110cd565b9392505050565b600060208201905081810360008301526111a981610ee3565b9050919050565b600060208201905081810360008301526111c981610f06565b9050919050565b600060208201905081810360008301526111e981610f29565b9050919050565b6000602082019050818103600083015261120981610f4c565b9050919050565b6000602082019050818103600083015261122981610f6f565b9050919050565b6000602082019050818103600083015261124981610f92565b9050919050565b6000602082019050818103600083015261126981610fb5565b9050919050565b6000602082019050818103600083015261128981610fd8565b9050919050565b600060208201905081810360008301526112a981610ffb565b9050919050565b600060208201905081810360008301526112c98161101e565b9050919050565b600060208201905081810360008301526112e981611041565b9050919050565b6000602082019050818103600083015261130981611064565b9050919050565b60006020820190508181036000830152611329816110aa565b9050919050565b600060208201905061134560008301846110cd565b92915050565b600081905092915050565b600082825260208201905092915050565b6000611372826114cc565b915061137d836114cc565b9250827fffffffffffffffffffffffffffffffffffffffffffffffffffffffffffffffff038211156113b2576113b161151b565b5b828201905092915050565b60006113c8826114cc565b91506113d3836114cc565b9250826113e3576113e261154a565b5b828204905092915050565b60006113f9826114cc565b9150611404836114cc565b9250817fffffffffffffffffffffffffffffffffffffffffffffffffffffffffffffffff048311821515161561143d5761143c61151b565b5b828202905092915050565b6000611453826114cc565b915061145e836114cc565b9250828210156114715761147061151b565b5b828203905092915050565b6000611487826114ac565b9050919050565b6000611499826114ac565b9050919050565b60008115159050919050565b600073ffffffffffffffffffffffffffffffffffffffff82169050919050565b6000819050919050565b60006114e1826114e8565b9050919050565b60006114f3826114fa565b9050919050565b6000611505826114ac565b9050919050565b82818337600083830152505050565b7f4e487b7100000000000000000000000000000000000000000000000000000000600052601160045260246000fd5b7f4e487b7100000000000000000000000000000000000000000000000000000000600052601260045260246000fd5b7f4e487b7100000000000000000000000000000000000000000000000000000000600052603260045260246000fd5b600080fd5b600080fd5b600080fd5b600080fd5b600080fd5b6000601f19601f8301169050919050565b7f41646472657373206f66204d616b6520412057697368206973206e6f7420736560008201527f7400000000000000000000000000000000000000000000000000000000000000602082015250565b7f5061796d656e7453706c69747465723a206163636f756e7420686173206e6f2060008201527f7368617265730000000000000000000000000000000000000000000000000000602082015250565b7f416464726573733a20756e61626c6520746f2073656e642076616c75652c207260008201527f6563697069656e74206d61792068617665207265766572746564000000000000602082015250565b7f416464726573733a20696e73756666696369656e742062616c616e6365000000600082015250565b7f5061796d656e7453706c69747465723a206163636f756e74206973206e6f742060008201527f647565207061796d656e74000000000000000000000000000000000000000000602082015250565b7f5a65726f2046756e64732053656e74204572726f720000000000000000000000600082015250565b7f41646472657373206f66204576616e206973206e6f7420736574000000000000600082015250565b7f546f6b656e204e6f74204d696e746564204572726f7200000000000000000000600082015250565b7f546f6b656e20436f6e747261637420446964204e6f74204d696e7420546f6b6560008201527f6e00000000000000000000000000000000000000000000000000000000000000602082015250565b7f41646472657373206f66205a616368206973206e6f7420736574000000000000600082015250565b7f496e76616c696420416464726573730000000000000000000000000000000000600082015250565b7f4e6f7420456e6f7567682046756e64732053656e74204572726f720000000000600082015250565b50565b7f41646472657373206f6620536562206973206e6f742073657400000000000000600082015250565b6118b18161147c565b81146118bc57600080fd5b50565b6118c88161148e565b81146118d357600080fd5b50565b6118df816114a0565b81146118ea57600080fd5b50565b6118f6816114cc565b811461190157600080fd5b5056fea2646970667358221220cf069f1aa169cc854bc0ff3cff04e9788d511e69610f9b702dedcba28c3af3e464736f6c63430008070033",
  "immutableReferences": {},
  "source": "//SPDX-License-Identifier: UNLICENSED\npragma solidity ^0.8.0;\n\nimport \"@openzeppelin/contracts/finance/PaymentSplitter.sol\";\nimport \"@openzeppelin/contracts/access/Ownable.sol\";\nimport \"./MyWish.sol\";\n\n//Need to set up ownable for contract\n//Need to create reserve function\n\ncontract PaymentHandler is PaymentSplitter {\n\n    mapping(address => uint256) balances;\n    uint256 constant PRICE = 3000000000000000000 wei;\n    event fundsAccepted(address from);\n\n    \n    /*\n        Need to add values to the following variables\n    */\n    MyWish _myWishContract; \n    address payable _Seb = payable(address(30));\n    address payable _Zach = payable(address(10));\n    address payable _Evan = payable(address(16)); \n    address payable _MakeAWish = payable(address(20));  \n\n    //Make Shares out of 100\n    uint256 _SebShares = 2;\n    uint256 _ZachShares = 2;\n    uint256 _EvanShares = 6;\n    uint256 _MakeAWishShares = 90;\n\n    // address[] payees = [_Seb, _Zach, _Evan, _MakeAWish];\n    uint256[] shares_ = [_SebShares, _ZachShares, _EvanShares, _MakeAWishShares];\n\n    event tokenMintedEvent(address beneficiary,string tokenParams);\n\n    constructor(address tokenAddress,address[] memory payees) PaymentSplitter(payees, shares_) {\n        _myWishContract = MyWish(tokenAddress);\n    }\n\n\n    function buyToken(\n        address beneficiary,\n        string calldata tokenParams\n    )\n    public\n    payable\n    {\n        require(msg.value > 0 , \"Zero Funds Sent Error\");\n        require(msg.value > PRICE,\"Not Enough Funds Sent Error\");\n        require(beneficiary != address(0),\"Invalid Address\");\n    \n        // validateTokenParams(tokenParams);\n        bool success = processPurchase(beneficiary, tokenParams);\n        require(success,\"Token Not Minted Error\");\n        releaseEther();\n\n    }\n\n    function getTokenAddress() external view returns(address) {\n        return address(_myWishContract);\n    }\n\n    //does this return the total balance in the contract? \n    function getBalanceOfPaymentHandler()\n   \n    external\n    view\n    returns(uint256){\n        return address(this).balance;\n    }\n\n\n    function getPrice() \n    external pure\n    returns (uint256){\n        return PRICE;\n    }\n  \n    function releaseEther() internal {\n        require(_Seb !=  address(0), \"Address of Seb is not set\");\n        require(_Zach != address(0), \"Address of Zach is not set\");\n        require(_Evan != address(0), \"Address of Evan is not set\");\n        require(_MakeAWish != address(0), \"Address of Make A Wish is not set\");\n        \n        release(_Seb);\n        release(_Zach); \n        release(_Evan); \n        release(_MakeAWish);\n    }\n\n    // function setPayees(uint name, address payable _address) onlyOwner  public {\n    //     uint Seb = 0; \n    //     uint Zach = 1; \n    //     uint Evan = 2; \n    //     uint MakeAWish = 3; \n\n    //     require(name >= 0 && name <=3, \"Payee Not Found\");\n    //     require(_address != address(0),\"Incorrect Address\");\n\n    //     if (Seb == name) \n    //         _Seb = _address; \n    //     else if (Zach == name)\n    //         _Zach = _address; \n    //     else if (Evan == name)\n    //         _Evan = _address; \n    //     else if (MakeAWish == name)\n    //         _MakeAWish = _address; \n\n    // }\n\n    function processPurchase(address beneficiary, string calldata tokenParams) internal returns(bool) {\n\n        bool success = _myWishContract.createCollectable(beneficiary,tokenParams);\n        require(success,\"Token Contract Did Not Mint Token\");\n        emit tokenMintedEvent(beneficiary, tokenParams);\n        return success == true;\n    }\n\n    // function getPayees(uint name) public view returns (address) {\n    //     uint Seb = 0; \n    //     uint Zach = 1; \n    //     uint Evan = 2; \n    //     uint MakeAWish = 3; \n\n    //     require(name >= 0 && name <=3, \"Payee Not Found\");\n    //     if (Seb == name) \n    //         return _Seb;\n    //     else if (Zach == name)\n    //         return _Zach;\n    //     else if (Evan == name)\n    //         return _Evan;\n    //     else if (MakeAWish == name)\n    //         return _MakeAWish;\n\n\n    // }\n    \n\n\n\n}\n",
  "sourcePath": "/Users/zlederman/Documents/Code/js/truffle-react/contracts/PaymentHandler.sol",
  "compiler": {
    "name": "solc",
    "version": "0.8.7+commit.e28d00a7.Emscripten.clang"
  },
  "schemaVersion": "3.4.2",
  "updatedAt": "2021-09-20T02:45:21.488Z",
  "devdoc": {
    "kind": "dev",
    "methods": {
      "payee(uint256)": {
        "details": "Getter for the address of the payee number `index`."
      },
      "release(address)": {
        "details": "Triggers a transfer to `account` of the amount of Ether they are owed, according to their percentage of the total shares and their previous withdrawals."
      },
      "released(address)": {
        "details": "Getter for the amount of Ether already released to a payee."
      },
      "shares(address)": {
        "details": "Getter for the amount of shares held by an account."
      },
      "totalReleased()": {
        "details": "Getter for the total amount of Ether already released."
      },
      "totalShares()": {
        "details": "Getter for the total shares held by payees."
      }
    },
    "version": 1
  },
  "userdoc": {
    "kind": "user",
    "methods": {},
    "version": 1
  }
}