{
  "contractName": "SimpleToken",
  "abi": [
    {
      "inputs": [],
      "stateMutability": "nonpayable",
      "type": "constructor"
    },
    {
      "anonymous": false,
      "inputs": [
        {
          "indexed": true,
          "internalType": "address",
          "name": "owner",
          "type": "address"
        },
        {
          "indexed": true,
          "internalType": "address",
          "name": "approved",
          "type": "address"
        },
        {
          "indexed": true,
          "internalType": "uint256",
          "name": "tokenId",
          "type": "uint256"
        }
      ],
      "name": "Approval",
      "type": "event"
    },
    {
      "anonymous": false,
      "inputs": [
        {
          "indexed": true,
          "internalType": "address",
          "name": "owner",
          "type": "address"
        },
        {
          "indexed": true,
          "internalType": "address",
          "name": "operator",
          "type": "address"
        },
        {
          "indexed": false,
          "internalType": "bool",
          "name": "approved",
          "type": "bool"
        }
      ],
      "name": "ApprovalForAll",
      "type": "event"
    },
    {
      "anonymous": false,
      "inputs": [
        {
          "indexed": true,
          "internalType": "address",
          "name": "previousOwner",
          "type": "address"
        },
        {
          "indexed": true,
          "internalType": "address",
          "name": "newOwner",
          "type": "address"
        }
      ],
      "name": "OwnershipTransferred",
      "type": "event"
    },
    {
      "anonymous": false,
      "inputs": [
        {
          "indexed": true,
          "internalType": "address",
          "name": "from",
          "type": "address"
        },
        {
          "indexed": true,
          "internalType": "address",
          "name": "to",
          "type": "address"
        },
        {
          "indexed": true,
          "internalType": "uint256",
          "name": "tokenId",
          "type": "uint256"
        }
      ],
      "name": "Transfer",
      "type": "event"
    },
    {
      "inputs": [
        {
          "internalType": "address",
          "name": "to",
          "type": "address"
        },
        {
          "internalType": "uint256",
          "name": "tokenId",
          "type": "uint256"
        }
      ],
      "name": "approve",
      "outputs": [],
      "stateMutability": "nonpayable",
      "type": "function"
    },
    {
      "inputs": [
        {
          "internalType": "address",
          "name": "owner",
          "type": "address"
        }
      ],
      "name": "balanceOf",
      "outputs": [
        {
          "internalType": "uint256",
          "name": "",
          "type": "uint256"
        }
      ],
      "stateMutability": "view",
      "type": "function"
    },
    {
      "inputs": [
        {
          "internalType": "uint256",
          "name": "tokenId",
          "type": "uint256"
        }
      ],
      "name": "getApproved",
      "outputs": [
        {
          "internalType": "address",
          "name": "",
          "type": "address"
        }
      ],
      "stateMutability": "view",
      "type": "function"
    },
    {
      "inputs": [
        {
          "internalType": "address",
          "name": "",
          "type": "address"
        }
      ],
      "name": "getTokenId",
      "outputs": [
        {
          "internalType": "uint256",
          "name": "",
          "type": "uint256"
        }
      ],
      "stateMutability": "view",
      "type": "function"
    },
    {
      "inputs": [
        {
          "internalType": "address",
          "name": "owner",
          "type": "address"
        },
        {
          "internalType": "address",
          "name": "operator",
          "type": "address"
        }
      ],
      "name": "isApprovedForAll",
      "outputs": [
        {
          "internalType": "bool",
          "name": "",
          "type": "bool"
        }
      ],
      "stateMutability": "view",
      "type": "function"
    },
    {
      "inputs": [],
      "name": "name",
      "outputs": [
        {
          "internalType": "string",
          "name": "",
          "type": "string"
        }
      ],
      "stateMutability": "view",
      "type": "function"
    },
    {
      "inputs": [],
      "name": "owner",
      "outputs": [
        {
          "internalType": "address",
          "name": "",
          "type": "address"
        }
      ],
      "stateMutability": "view",
      "type": "function"
    },
    {
      "inputs": [
        {
          "internalType": "uint256",
          "name": "tokenId",
          "type": "uint256"
        }
      ],
      "name": "ownerOf",
      "outputs": [
        {
          "internalType": "address",
          "name": "",
          "type": "address"
        }
      ],
      "stateMutability": "view",
      "type": "function"
    },
    {
      "inputs": [],
      "name": "renounceOwnership",
      "outputs": [],
      "stateMutability": "nonpayable",
      "type": "function"
    },
    {
      "inputs": [
        {
          "internalType": "address",
          "name": "from",
          "type": "address"
        },
        {
          "internalType": "address",
          "name": "to",
          "type": "address"
        },
        {
          "internalType": "uint256",
          "name": "tokenId",
          "type": "uint256"
        }
      ],
      "name": "safeTransferFrom",
      "outputs": [],
      "stateMutability": "nonpayable",
      "type": "function"
    },
    {
      "inputs": [
        {
          "internalType": "address",
          "name": "from",
          "type": "address"
        },
        {
          "internalType": "address",
          "name": "to",
          "type": "address"
        },
        {
          "internalType": "uint256",
          "name": "tokenId",
          "type": "uint256"
        },
        {
          "internalType": "bytes",
          "name": "_data",
          "type": "bytes"
        }
      ],
      "name": "safeTransferFrom",
      "outputs": [],
      "stateMutability": "nonpayable",
      "type": "function"
    },
    {
      "inputs": [
        {
          "internalType": "address",
          "name": "operator",
          "type": "address"
        },
        {
          "internalType": "bool",
          "name": "approved",
          "type": "bool"
        }
      ],
      "name": "setApprovalForAll",
      "outputs": [],
      "stateMutability": "nonpayable",
      "type": "function"
    },
    {
      "inputs": [
        {
          "internalType": "bytes4",
          "name": "interfaceId",
          "type": "bytes4"
        }
      ],
      "name": "supportsInterface",
      "outputs": [
        {
          "internalType": "bool",
          "name": "",
          "type": "bool"
        }
      ],
      "stateMutability": "view",
      "type": "function"
    },
    {
      "inputs": [],
      "name": "symbol",
      "outputs": [
        {
          "internalType": "string",
          "name": "",
          "type": "string"
        }
      ],
      "stateMutability": "view",
      "type": "function"
    },
    {
      "inputs": [
        {
          "internalType": "address",
          "name": "from",
          "type": "address"
        },
        {
          "internalType": "address",
          "name": "to",
          "type": "address"
        },
        {
          "internalType": "uint256",
          "name": "tokenId",
          "type": "uint256"
        }
      ],
      "name": "transferFrom",
      "outputs": [],
      "stateMutability": "nonpayable",
      "type": "function"
    },
    {
      "inputs": [
        {
          "internalType": "address",
          "name": "newOwner",
          "type": "address"
        }
      ],
      "name": "transferOwnership",
      "outputs": [],
      "stateMutability": "nonpayable",
      "type": "function"
    },
    {
      "inputs": [
        {
          "internalType": "address",
          "name": "to",
          "type": "address"
        },
        {
          "internalType": "uint256",
          "name": "tokenId",
          "type": "uint256"
        }
      ],
      "name": "safeMint",
      "outputs": [],
      "stateMutability": "nonpayable",
      "type": "function"
    },
    {
      "inputs": [
        {
          "internalType": "uint256",
          "name": "tokenId",
          "type": "uint256"
        }
      ],
      "name": "tokenURI",
      "outputs": [
        {
          "internalType": "string",
          "name": "",
          "type": "string"
        }
      ],
      "stateMutability": "view",
      "type": "function"
    },
    {
      "inputs": [
        {
          "internalType": "address",
          "name": "reciever",
          "type": "address"
        }
      ],
      "name": "get_token",
      "outputs": [
        {
          "internalType": "uint256",
          "name": "",
          "type": "uint256"
        }
      ],
      "stateMutability": "nonpayable",
      "type": "function"
    }
  ],
  "bytecode": "0x60806040523480156200001157600080fd5b506040518060400160405280600781526020017f4d79546f6b656e000000000000000000000000000000000000000000000000008152506040518060400160405280600381526020017f4d544b0000000000000000000000000000000000000000000000000000000000815250816000908051906020019062000096929190620001a6565b508060019080519060200190620000af929190620001a6565b505050620000d2620000c6620000d860201b60201c565b620000e060201b60201c565b620002bb565b600033905090565b6000600760009054906101000a900473ffffffffffffffffffffffffffffffffffffffff16905081600760006101000a81548173ffffffffffffffffffffffffffffffffffffffff021916908373ffffffffffffffffffffffffffffffffffffffff1602179055508173ffffffffffffffffffffffffffffffffffffffff168173ffffffffffffffffffffffffffffffffffffffff167f8be0079c531659141344cd1fd0a4f28419497f9722a3daafe3b4186f6b6457e060405160405180910390a35050565b828054620001b49062000256565b90600052602060002090601f016020900481019282620001d8576000855562000224565b82601f10620001f357805160ff191683800117855562000224565b8280016001018555821562000224579182015b828111156200022357825182559160200191906001019062000206565b5b50905062000233919062000237565b5090565b5b808211156200025257600081600090555060010162000238565b5090565b600060028204905060018216806200026f57607f821691505b602082108114156200028657620002856200028c565b5b50919050565b7f4e487b7100000000000000000000000000000000000000000000000000000000600052602260045260246000fd5b612e9080620002cb6000396000f3fe608060405234801561001057600080fd5b50600436106101215760003560e01c80638da5cb5b116100ad578063b88d4fde11610071578063b88d4fde14610306578063c87b56dd14610322578063e985e9c514610352578063f153768614610382578063f2fde38b146103b257610121565b80638da5cb5b1461026257806395d89b4114610280578063977d91221461029e578063a1448194146102ce578063a22cb465146102ea57610121565b806323b872dd116100f457806323b872dd146101c057806342842e0e146101dc5780636352211e146101f857806370a0823114610228578063715018a61461025857610121565b806301ffc9a71461012657806306fdde0314610156578063081812fc14610174578063095ea7b3146101a4575b600080fd5b610140600480360381019061013b9190611eb3565b6103ce565b60405161014d91906122e8565b60405180910390f35b61015e6104b0565b60405161016b9190612303565b60405180910390f35b61018e60048036038101906101899190611f0d565b610542565b60405161019b9190612281565b60405180910390f35b6101be60048036038101906101b99190611e73565b6105c7565b005b6101da60048036038101906101d59190611d5d565b6106df565b005b6101f660048036038101906101f19190611d5d565b61073f565b005b610212600480360381019061020d9190611f0d565b61075f565b60405161021f9190612281565b60405180910390f35b610242600480360381019061023d9190611cf0565b610811565b60405161024f9190612545565b60405180910390f35b6102606108c9565b005b61026a610951565b6040516102779190612281565b60405180910390f35b61028861097b565b6040516102959190612303565b60405180910390f35b6102b860048036038101906102b39190611cf0565b610a0d565b6040516102c59190612545565b60405180910390f35b6102e860048036038101906102e39190611e73565b610a56565b005b61030460048036038101906102ff9190611e33565b610b24565b005b610320600480360381019061031b9190611db0565b610ca5565b005b61033c60048036038101906103379190611f0d565b610d07565b6040516103499190612303565b60405180910390f35b61036c60048036038101906103679190611d1d565b610d19565b60405161037991906122e8565b60405180910390f35b61039c60048036038101906103979190611cf0565b610dad565b6040516103a99190612545565b60405180910390f35b6103cc60048036038101906103c79190611cf0565b610dc5565b005b60007f80ac58cd000000000000000000000000000000000000000000000000000000007bffffffffffffffffffffffffffffffffffffffffffffffffffffffff1916827bffffffffffffffffffffffffffffffffffffffffffffffffffffffff1916148061049957507f5b5e139f000000000000000000000000000000000000000000000000000000007bffffffffffffffffffffffffffffffffffffffffffffffffffffffff1916827bffffffffffffffffffffffffffffffffffffffffffffffffffffffff1916145b806104a957506104a882610ebd565b5b9050919050565b6060600080546104bf9061276a565b80601f01602080910402602001604051908101604052809291908181526020018280546104eb9061276a565b80156105385780601f1061050d57610100808354040283529160200191610538565b820191906000526020600020905b81548152906001019060200180831161051b57829003601f168201915b5050505050905090565b600061054d82610f27565b61058c576040517f08c379a000000000000000000000000000000000000000000000000000000000815260040161058390612485565b60405180910390fd5b6004600083815260200190815260200160002060009054906101000a900473ffffffffffffffffffffffffffffffffffffffff169050919050565b60006105d28261075f565b90508073ffffffffffffffffffffffffffffffffffffffff168373ffffffffffffffffffffffffffffffffffffffff161415610643576040517f08c379a000000000000000000000000000000000000000000000000000000000815260040161063a90612505565b60405180910390fd5b8073ffffffffffffffffffffffffffffffffffffffff16610662610f93565b73ffffffffffffffffffffffffffffffffffffffff16148061069157506106908161068b610f93565b610d19565b5b6106d0576040517f08c379a00000000000000000000000000000000000000000000000000000000081526004016106c7906123e5565b60405180910390fd5b6106da8383610f9b565b505050565b6106f06106ea610f93565b82611054565b61072f576040517f08c379a000000000000000000000000000000000000000000000000000000000815260040161072690612525565b60405180910390fd5b61073a838383611132565b505050565b61075a83838360405180602001604052806000815250610ca5565b505050565b6000806002600084815260200190815260200160002060009054906101000a900473ffffffffffffffffffffffffffffffffffffffff169050600073ffffffffffffffffffffffffffffffffffffffff168173ffffffffffffffffffffffffffffffffffffffff161415610808576040517f08c379a00000000000000000000000000000000000000000000000000000000081526004016107ff90612425565b60405180910390fd5b80915050919050565b60008073ffffffffffffffffffffffffffffffffffffffff168273ffffffffffffffffffffffffffffffffffffffff161415610882576040517f08c379a000000000000000000000000000000000000000000000000000000000815260040161087990612405565b60405180910390fd5b600360008373ffffffffffffffffffffffffffffffffffffffff1673ffffffffffffffffffffffffffffffffffffffff168152602001908152602001600020549050919050565b6108d1610f93565b73ffffffffffffffffffffffffffffffffffffffff166108ef610951565b73ffffffffffffffffffffffffffffffffffffffff1614610945576040517f08c379a000000000000000000000000000000000000000000000000000000000815260040161093c906124a5565b60405180910390fd5b61094f600061138e565b565b6000600760009054906101000a900473ffffffffffffffffffffffffffffffffffffffff16905090565b60606001805461098a9061276a565b80601f01602080910402602001604051908101604052809291908181526020018280546109b69061276a565b8015610a035780601f106109d857610100808354040283529160200191610a03565b820191906000526020600020905b8154815290600101906020018083116109e657829003601f168201915b5050505050905090565b6000600860008373ffffffffffffffffffffffffffffffffffffffff1673ffffffffffffffffffffffffffffffffffffffff168152602001908152602001600020549050919050565b610a5e610f93565b73ffffffffffffffffffffffffffffffffffffffff16610a7c610951565b73ffffffffffffffffffffffffffffffffffffffff1614610ad2576040517f08c379a0000000000000000000000000000000000000000000000000000000008152600401610ac9906124a5565b60405180910390fd5b610adc8282611454565b80600860008473ffffffffffffffffffffffffffffffffffffffff1673ffffffffffffffffffffffffffffffffffffffff168152602001908152602001600020819055505050565b610b2c610f93565b73ffffffffffffffffffffffffffffffffffffffff168273ffffffffffffffffffffffffffffffffffffffff161415610b9a576040517f08c379a0000000000000000000000000000000000000000000000000000000008152600401610b91906123a5565b60405180910390fd5b8060056000610ba7610f93565b73ffffffffffffffffffffffffffffffffffffffff1673ffffffffffffffffffffffffffffffffffffffff16815260200190815260200160002060008473ffffffffffffffffffffffffffffffffffffffff1673ffffffffffffffffffffffffffffffffffffffff16815260200190815260200160002060006101000a81548160ff0219169083151502179055508173ffffffffffffffffffffffffffffffffffffffff16610c54610f93565b73ffffffffffffffffffffffffffffffffffffffff167f17307eab39ab6107e8899845ad3d59bd9653f200f220920489ca2b5937696c3183604051610c9991906122e8565b60405180910390a35050565b610cb6610cb0610f93565b83611054565b610cf5576040517f08c379a0000000000000000000000000000000000000000000000000000000008152600401610cec90612525565b60405180910390fd5b610d0184848484611472565b50505050565b6060610d12826114ce565b9050919050565b6000600560008473ffffffffffffffffffffffffffffffffffffffff1673ffffffffffffffffffffffffffffffffffffffff16815260200190815260200160002060008373ffffffffffffffffffffffffffffffffffffffff1673ffffffffffffffffffffffffffffffffffffffff16815260200190815260200160002060009054906101000a900460ff16905092915050565b60086020528060005260406000206000915090505481565b610dcd610f93565b73ffffffffffffffffffffffffffffffffffffffff16610deb610951565b73ffffffffffffffffffffffffffffffffffffffff1614610e41576040517f08c379a0000000000000000000000000000000000000000000000000000000008152600401610e38906124a5565b60405180910390fd5b600073ffffffffffffffffffffffffffffffffffffffff168173ffffffffffffffffffffffffffffffffffffffff161415610eb1576040517f08c379a0000000000000000000000000000000000000000000000000000000008152600401610ea890612345565b60405180910390fd5b610eba8161138e565b50565b60007f01ffc9a7000000000000000000000000000000000000000000000000000000007bffffffffffffffffffffffffffffffffffffffffffffffffffffffff1916827bffffffffffffffffffffffffffffffffffffffffffffffffffffffff1916149050919050565b60008073ffffffffffffffffffffffffffffffffffffffff166002600084815260200190815260200160002060009054906101000a900473ffffffffffffffffffffffffffffffffffffffff1673ffffffffffffffffffffffffffffffffffffffff1614159050919050565b600033905090565b816004600083815260200190815260200160002060006101000a81548173ffffffffffffffffffffffffffffffffffffffff021916908373ffffffffffffffffffffffffffffffffffffffff160217905550808273ffffffffffffffffffffffffffffffffffffffff1661100e8361075f565b73ffffffffffffffffffffffffffffffffffffffff167f8c5be1e5ebec7d5bd14f71427d1e84f3dd0314c0f7b2291e5b200ac8c7c3b92560405160405180910390a45050565b600061105f82610f27565b61109e576040517f08c379a0000000000000000000000000000000000000000000000000000000008152600401611095906123c5565b60405180910390fd5b60006110a98361075f565b90508073ffffffffffffffffffffffffffffffffffffffff168473ffffffffffffffffffffffffffffffffffffffff16148061111857508373ffffffffffffffffffffffffffffffffffffffff1661110084610542565b73ffffffffffffffffffffffffffffffffffffffff16145b8061112957506111288185610d19565b5b91505092915050565b8273ffffffffffffffffffffffffffffffffffffffff166111528261075f565b73ffffffffffffffffffffffffffffffffffffffff16146111a8576040517f08c379a000000000000000000000000000000000000000000000000000000000815260040161119f906124c5565b60405180910390fd5b600073ffffffffffffffffffffffffffffffffffffffff168273ffffffffffffffffffffffffffffffffffffffff161415611218576040517f08c379a000000000000000000000000000000000000000000000000000000000815260040161120f90612385565b60405180910390fd5b611223838383611620565b61122e600082610f9b565b6001600360008573ffffffffffffffffffffffffffffffffffffffff1673ffffffffffffffffffffffffffffffffffffffff168152602001908152602001600020600082825461127e9190612680565b925050819055506001600360008473ffffffffffffffffffffffffffffffffffffffff1673ffffffffffffffffffffffffffffffffffffffff16815260200190815260200160002060008282546112d591906125f9565b92505081905550816002600083815260200190815260200160002060006101000a81548173ffffffffffffffffffffffffffffffffffffffff021916908373ffffffffffffffffffffffffffffffffffffffff160217905550808273ffffffffffffffffffffffffffffffffffffffff168473ffffffffffffffffffffffffffffffffffffffff167fddf252ad1be2c89b69c2b068fc378daa952ba7f163c4a11628f55a4df523b3ef60405160405180910390a4505050565b6000600760009054906101000a900473ffffffffffffffffffffffffffffffffffffffff16905081600760006101000a81548173ffffffffffffffffffffffffffffffffffffffff021916908373ffffffffffffffffffffffffffffffffffffffff1602179055508173ffffffffffffffffffffffffffffffffffffffff168173ffffffffffffffffffffffffffffffffffffffff167f8be0079c531659141344cd1fd0a4f28419497f9722a3daafe3b4186f6b6457e060405160405180910390a35050565b61146e828260405180602001604052806000815250611625565b5050565b61147d848484611132565b61148984848484611680565b6114c8576040517f08c379a00000000000000000000000000000000000000000000000000000000081526004016114bf90612325565b60405180910390fd5b50505050565b60606114d982610f27565b611518576040517f08c379a000000000000000000000000000000000000000000000000000000000815260040161150f90612465565b60405180910390fd5b60006006600084815260200190815260200160002080546115389061276a565b80601f01602080910402602001604051908101604052809291908181526020018280546115649061276a565b80156115b15780601f10611586576101008083540402835291602001916115b1565b820191906000526020600020905b81548152906001019060200180831161159457829003601f168201915b5050505050905060006115c2611817565b90506000815114156115d857819250505061161b565b60008251111561160d5780826040516020016115f592919061225d565b6040516020818303038152906040529250505061161b565b6116168461182e565b925050505b919050565b505050565b61162f83836118d5565b61163c6000848484611680565b61167b576040517f08c379a000000000000000000000000000000000000000000000000000000000815260040161167290612325565b60405180910390fd5b505050565b60006116a18473ffffffffffffffffffffffffffffffffffffffff16611aa3565b1561180a578373ffffffffffffffffffffffffffffffffffffffff1663150b7a026116ca610f93565b8786866040518563ffffffff1660e01b81526004016116ec949392919061229c565b602060405180830381600087803b15801561170657600080fd5b505af192505050801561173757506040513d601f19601f820116820180604052508101906117349190611ee0565b60015b6117ba573d8060008114611767576040519150601f19603f3d011682016040523d82523d6000602084013e61176c565b606091505b506000815114156117b2576040517f08c379a00000000000000000000000000000000000000000000000000000000081526004016117a990612325565b60405180910390fd5b805181602001fd5b63150b7a0260e01b7bffffffffffffffffffffffffffffffffffffffffffffffffffffffff1916817bffffffffffffffffffffffffffffffffffffffffffffffffffffffff19161491505061180f565b600190505b949350505050565b606060405180602001604052806000815250905090565b606061183982610f27565b611878576040517f08c379a000000000000000000000000000000000000000000000000000000000815260040161186f906124e5565b60405180910390fd5b6000611882611817565b905060008151116118a257604051806020016040528060008152506118cd565b806118ac84611ab6565b6040516020016118bd92919061225d565b6040516020818303038152906040525b915050919050565b600073ffffffffffffffffffffffffffffffffffffffff168273ffffffffffffffffffffffffffffffffffffffff161415611945576040517f08c379a000000000000000000000000000000000000000000000000000000000815260040161193c90612445565b60405180910390fd5b61194e81610f27565b1561198e576040517f08c379a000000000000000000000000000000000000000000000000000000000815260040161198590612365565b60405180910390fd5b61199a60008383611620565b6001600360008473ffffffffffffffffffffffffffffffffffffffff1673ffffffffffffffffffffffffffffffffffffffff16815260200190815260200160002060008282546119ea91906125f9565b92505081905550816002600083815260200190815260200160002060006101000a81548173ffffffffffffffffffffffffffffffffffffffff021916908373ffffffffffffffffffffffffffffffffffffffff160217905550808273ffffffffffffffffffffffffffffffffffffffff16600073ffffffffffffffffffffffffffffffffffffffff167fddf252ad1be2c89b69c2b068fc378daa952ba7f163c4a11628f55a4df523b3ef60405160405180910390a45050565b600080823b905060008111915050919050565b60606000821415611afe576040518060400160405280600181526020017f30000000000000000000000000000000000000000000000000000000000000008152509050611c12565b600082905060005b60008214611b30578080611b19906127cd565b915050600a82611b29919061264f565b9150611b06565b60008167ffffffffffffffff811115611b4c57611b4b612903565b5b6040519080825280601f01601f191660200182016040528015611b7e5781602001600182028036833780820191505090505b5090505b60008514611c0b57600182611b979190612680565b9150600a85611ba69190612816565b6030611bb291906125f9565b60f81b818381518110611bc857611bc76128d4565b5b60200101907effffffffffffffffffffffffffffffffffffffffffffffffffffffffffffff1916908160001a905350600a85611c04919061264f565b9450611b82565b8093505050505b919050565b6000611c2a611c2584612585565b612560565b905082815260208101848484011115611c4657611c45612937565b5b611c51848285612728565b509392505050565b600081359050611c6881612dfe565b92915050565b600081359050611c7d81612e15565b92915050565b600081359050611c9281612e2c565b92915050565b600081519050611ca781612e2c565b92915050565b600082601f830112611cc257611cc1612932565b5b8135611cd2848260208601611c17565b91505092915050565b600081359050611cea81612e43565b92915050565b600060208284031215611d0657611d05612941565b5b6000611d1484828501611c59565b91505092915050565b60008060408385031215611d3457611d33612941565b5b6000611d4285828601611c59565b9250506020611d5385828601611c59565b9150509250929050565b600080600060608486031215611d7657611d75612941565b5b6000611d8486828701611c59565b9350506020611d9586828701611c59565b9250506040611da686828701611cdb565b9150509250925092565b60008060008060808587031215611dca57611dc9612941565b5b6000611dd887828801611c59565b9450506020611de987828801611c59565b9350506040611dfa87828801611cdb565b925050606085013567ffffffffffffffff811115611e1b57611e1a61293c565b5b611e2787828801611cad565b91505092959194509250565b60008060408385031215611e4a57611e49612941565b5b6000611e5885828601611c59565b9250506020611e6985828601611c6e565b9150509250929050565b60008060408385031215611e8a57611e89612941565b5b6000611e9885828601611c59565b9250506020611ea985828601611cdb565b9150509250929050565b600060208284031215611ec957611ec8612941565b5b6000611ed784828501611c83565b91505092915050565b600060208284031215611ef657611ef5612941565b5b6000611f0484828501611c98565b91505092915050565b600060208284031215611f2357611f22612941565b5b6000611f3184828501611cdb565b91505092915050565b611f43816126b4565b82525050565b611f52816126c6565b82525050565b6000611f63826125b6565b611f6d81856125cc565b9350611f7d818560208601612737565b611f8681612946565b840191505092915050565b6000611f9c826125c1565b611fa681856125dd565b9350611fb6818560208601612737565b611fbf81612946565b840191505092915050565b6000611fd5826125c1565b611fdf81856125ee565b9350611fef818560208601612737565b80840191505092915050565b60006120086032836125dd565b915061201382612957565b604082019050919050565b600061202b6026836125dd565b9150612036826129a6565b604082019050919050565b600061204e601c836125dd565b9150612059826129f5565b602082019050919050565b60006120716024836125dd565b915061207c82612a1e565b604082019050919050565b60006120946019836125dd565b915061209f82612a6d565b602082019050919050565b60006120b7602c836125dd565b91506120c282612a96565b604082019050919050565b60006120da6038836125dd565b91506120e582612ae5565b604082019050919050565b60006120fd602a836125dd565b915061210882612b34565b604082019050919050565b60006121206029836125dd565b915061212b82612b83565b604082019050919050565b60006121436020836125dd565b915061214e82612bd2565b602082019050919050565b60006121666031836125dd565b915061217182612bfb565b604082019050919050565b6000612189602c836125dd565b915061219482612c4a565b604082019050919050565b60006121ac6020836125dd565b91506121b782612c99565b602082019050919050565b60006121cf6029836125dd565b91506121da82612cc2565b604082019050919050565b60006121f2602f836125dd565b91506121fd82612d11565b604082019050919050565b60006122156021836125dd565b915061222082612d60565b604082019050919050565b60006122386031836125dd565b915061224382612daf565b604082019050919050565b6122578161271e565b82525050565b60006122698285611fca565b91506122758284611fca565b91508190509392505050565b60006020820190506122966000830184611f3a565b92915050565b60006080820190506122b16000830187611f3a565b6122be6020830186611f3a565b6122cb604083018561224e565b81810360608301526122dd8184611f58565b905095945050505050565b60006020820190506122fd6000830184611f49565b92915050565b6000602082019050818103600083015261231d8184611f91565b905092915050565b6000602082019050818103600083015261233e81611ffb565b9050919050565b6000602082019050818103600083015261235e8161201e565b9050919050565b6000602082019050818103600083015261237e81612041565b9050919050565b6000602082019050818103600083015261239e81612064565b9050919050565b600060208201905081810360008301526123be81612087565b9050919050565b600060208201905081810360008301526123de816120aa565b9050919050565b600060208201905081810360008301526123fe816120cd565b9050919050565b6000602082019050818103600083015261241e816120f0565b9050919050565b6000602082019050818103600083015261243e81612113565b9050919050565b6000602082019050818103600083015261245e81612136565b9050919050565b6000602082019050818103600083015261247e81612159565b9050919050565b6000602082019050818103600083015261249e8161217c565b9050919050565b600060208201905081810360008301526124be8161219f565b9050919050565b600060208201905081810360008301526124de816121c2565b9050919050565b600060208201905081810360008301526124fe816121e5565b9050919050565b6000602082019050818103600083015261251e81612208565b9050919050565b6000602082019050818103600083015261253e8161222b565b9050919050565b600060208201905061255a600083018461224e565b92915050565b600061256a61257b565b9050612576828261279c565b919050565b6000604051905090565b600067ffffffffffffffff8211156125a05761259f612903565b5b6125a982612946565b9050602081019050919050565b600081519050919050565b600081519050919050565b600082825260208201905092915050565b600082825260208201905092915050565b600081905092915050565b60006126048261271e565b915061260f8361271e565b9250827fffffffffffffffffffffffffffffffffffffffffffffffffffffffffffffffff0382111561264457612643612847565b5b828201905092915050565b600061265a8261271e565b91506126658361271e565b92508261267557612674612876565b5b828204905092915050565b600061268b8261271e565b91506126968361271e565b9250828210156126a9576126a8612847565b5b828203905092915050565b60006126bf826126fe565b9050919050565b60008115159050919050565b60007fffffffff0000000000000000000000000000000000000000000000000000000082169050919050565b600073ffffffffffffffffffffffffffffffffffffffff82169050919050565b6000819050919050565b82818337600083830152505050565b60005b8381101561275557808201518184015260208101905061273a565b83811115612764576000848401525b50505050565b6000600282049050600182168061278257607f821691505b60208210811415612796576127956128a5565b5b50919050565b6127a582612946565b810181811067ffffffffffffffff821117156127c4576127c3612903565b5b80604052505050565b60006127d88261271e565b91507fffffffffffffffffffffffffffffffffffffffffffffffffffffffffffffffff82141561280b5761280a612847565b5b600182019050919050565b60006128218261271e565b915061282c8361271e565b92508261283c5761283b612876565b5b828206905092915050565b7f4e487b7100000000000000000000000000000000000000000000000000000000600052601160045260246000fd5b7f4e487b7100000000000000000000000000000000000000000000000000000000600052601260045260246000fd5b7f4e487b7100000000000000000000000000000000000000000000000000000000600052602260045260246000fd5b7f4e487b7100000000000000000000000000000000000000000000000000000000600052603260045260246000fd5b7f4e487b7100000000000000000000000000000000000000000000000000000000600052604160045260246000fd5b600080fd5b600080fd5b600080fd5b600080fd5b6000601f19601f8301169050919050565b7f4552433732313a207472616e7366657220746f206e6f6e20455243373231526560008201527f63656976657220696d706c656d656e7465720000000000000000000000000000602082015250565b7f4f776e61626c653a206e6577206f776e657220697320746865207a65726f206160008201527f6464726573730000000000000000000000000000000000000000000000000000602082015250565b7f4552433732313a20746f6b656e20616c7265616479206d696e74656400000000600082015250565b7f4552433732313a207472616e7366657220746f20746865207a65726f2061646460008201527f7265737300000000000000000000000000000000000000000000000000000000602082015250565b7f4552433732313a20617070726f766520746f2063616c6c657200000000000000600082015250565b7f4552433732313a206f70657261746f7220717565727920666f72206e6f6e657860008201527f697374656e7420746f6b656e0000000000000000000000000000000000000000602082015250565b7f4552433732313a20617070726f76652063616c6c6572206973206e6f74206f7760008201527f6e6572206e6f7220617070726f76656420666f7220616c6c0000000000000000602082015250565b7f4552433732313a2062616c616e636520717565727920666f7220746865207a6560008201527f726f206164647265737300000000000000000000000000000000000000000000602082015250565b7f4552433732313a206f776e657220717565727920666f72206e6f6e657869737460008201527f656e7420746f6b656e0000000000000000000000000000000000000000000000602082015250565b7f4552433732313a206d696e7420746f20746865207a65726f2061646472657373600082015250565b7f45524337323155524953746f726167653a2055524920717565727920666f722060008201527f6e6f6e6578697374656e7420746f6b656e000000000000000000000000000000602082015250565b7f4552433732313a20617070726f76656420717565727920666f72206e6f6e657860008201527f697374656e7420746f6b656e0000000000000000000000000000000000000000602082015250565b7f4f776e61626c653a2063616c6c6572206973206e6f7420746865206f776e6572600082015250565b7f4552433732313a207472616e73666572206f6620746f6b656e2074686174206960008201527f73206e6f74206f776e0000000000000000000000000000000000000000000000602082015250565b7f4552433732314d657461646174613a2055524920717565727920666f72206e6f60008201527f6e6578697374656e7420746f6b656e0000000000000000000000000000000000602082015250565b7f4552433732313a20617070726f76616c20746f2063757272656e74206f776e6560008201527f7200000000000000000000000000000000000000000000000000000000000000602082015250565b7f4552433732313a207472616e736665722063616c6c6572206973206e6f74206f60008201527f776e6572206e6f7220617070726f766564000000000000000000000000000000602082015250565b612e07816126b4565b8114612e1257600080fd5b50565b612e1e816126c6565b8114612e2957600080fd5b50565b612e35816126d2565b8114612e4057600080fd5b50565b612e4c8161271e565b8114612e5757600080fd5b5056fea2646970667358221220cc1199365e44f7c30f88833c5bb8e6db9e7aeba5656c7ab4dc5148a1c56650f964736f6c63430008060033",
  "immutableReferences": {},
  "source": "pragma solidity ^0.8.2;\n\nimport \"@openzeppelin/contracts/token/ERC721/ERC721.sol\";\nimport \"@openzeppelin/contracts/token/ERC721/extensions/ERC721URIStorage.sol\";\nimport \"@openzeppelin/contracts/access/Ownable.sol\";\n\ncontract SimpleToken is ERC721, ERC721URIStorage, Ownable {\n    mapping(address => uint256)public getTokenId;\n\n    constructor() ERC721(\"MyToken\", \"MTK\") {}\n\n    function safeMint(address to, uint256 tokenId) public onlyOwner {\n        _safeMint(to, tokenId);\n        getTokenId[to] = tokenId;\n    }\n\n    function _burn(uint256 tokenId) internal override(ERC721, ERC721URIStorage) {\n        super._burn(tokenId);\n    }\n\n    function tokenURI(uint256 tokenId)\n        public\n        view\n        override(ERC721, ERC721URIStorage)\n        returns (string memory)\n    {\n        return super.tokenURI(tokenId);\n    }\n\n    function get_token(address reciever) public returns (uint256){\n        return getTokenId[reciever];\n    }\n}",
  "sourcePath": "/Users/zlederman/Documents/MyCryptoWish/contracts/SimpleToken.sol",
  "compiler": {
    "name": "solc",
    "version": "0.8.6+commit.11564f7e.Emscripten.clang"
  },
  "schemaVersion": "3.4.1",
  "updatedAt": "2021-08-07T01:25:54.588Z",
  "devdoc": {
    "kind": "dev",
    "methods": {
      "approve(address,uint256)": {
        "details": "See {IERC721-approve}."
      },
      "balanceOf(address)": {
        "details": "See {IERC721-balanceOf}."
      },
      "getApproved(uint256)": {
        "details": "See {IERC721-getApproved}."
      },
      "isApprovedForAll(address,address)": {
        "details": "See {IERC721-isApprovedForAll}."
      },
      "name()": {
        "details": "See {IERC721Metadata-name}."
      },
      "owner()": {
        "details": "Returns the address of the current owner."
      },
      "ownerOf(uint256)": {
        "details": "See {IERC721-ownerOf}."
      },
      "renounceOwnership()": {
        "details": "Leaves the contract without owner. It will not be possible to call `onlyOwner` functions anymore. Can only be called by the current owner. NOTE: Renouncing ownership will leave the contract without an owner, thereby removing any functionality that is only available to the owner."
      },
      "safeTransferFrom(address,address,uint256)": {
        "details": "See {IERC721-safeTransferFrom}."
      },
      "safeTransferFrom(address,address,uint256,bytes)": {
        "details": "See {IERC721-safeTransferFrom}."
      },
      "setApprovalForAll(address,bool)": {
        "details": "See {IERC721-setApprovalForAll}."
      },
      "supportsInterface(bytes4)": {
        "details": "See {IERC165-supportsInterface}."
      },
      "symbol()": {
        "details": "See {IERC721Metadata-symbol}."
      },
      "transferFrom(address,address,uint256)": {
        "details": "See {IERC721-transferFrom}."
      },
      "transferOwnership(address)": {
        "details": "Transfers ownership of the contract to a new account (`newOwner`). Can only be called by the current owner."
      }
    },
    "version": 1
  },
  "userdoc": {
    "kind": "user",
    "methods": {},
    "version": 1
  }
}