{
  "contractName": "SimpleToken",
  "abi": [
    {
      "inputs": [],
      "stateMutability": "nonpayable",
      "type": "constructor"
    },
    {
      "anonymous": false,
      "inputs": [
        {
          "indexed": true,
          "internalType": "address",
          "name": "owner",
          "type": "address"
        },
        {
          "indexed": true,
          "internalType": "address",
          "name": "approved",
          "type": "address"
        },
        {
          "indexed": true,
          "internalType": "uint256",
          "name": "tokenId",
          "type": "uint256"
        }
      ],
      "name": "Approval",
      "type": "event"
    },
    {
      "anonymous": false,
      "inputs": [
        {
          "indexed": true,
          "internalType": "address",
          "name": "owner",
          "type": "address"
        },
        {
          "indexed": true,
          "internalType": "address",
          "name": "operator",
          "type": "address"
        },
        {
          "indexed": false,
          "internalType": "bool",
          "name": "approved",
          "type": "bool"
        }
      ],
      "name": "ApprovalForAll",
      "type": "event"
    },
    {
      "anonymous": false,
      "inputs": [
        {
          "indexed": true,
          "internalType": "address",
          "name": "from",
          "type": "address"
        },
        {
          "indexed": true,
          "internalType": "address",
          "name": "to",
          "type": "address"
        },
        {
          "indexed": true,
          "internalType": "uint256",
          "name": "tokenId",
          "type": "uint256"
        }
      ],
      "name": "Transfer",
      "type": "event"
    },
    {
      "inputs": [
        {
          "internalType": "address",
          "name": "to",
          "type": "address"
        },
        {
          "internalType": "uint256",
          "name": "tokenId",
          "type": "uint256"
        }
      ],
      "name": "approve",
      "outputs": [],
      "stateMutability": "nonpayable",
      "type": "function"
    },
    {
      "inputs": [
        {
          "internalType": "address",
          "name": "owner",
          "type": "address"
        }
      ],
      "name": "balanceOf",
      "outputs": [
        {
          "internalType": "uint256",
          "name": "",
          "type": "uint256"
        }
      ],
      "stateMutability": "view",
      "type": "function",
      "constant": true
    },
    {
      "inputs": [
        {
          "internalType": "address",
          "name": "",
          "type": "address"
        }
      ],
      "name": "balances",
      "outputs": [
        {
          "internalType": "uint256",
          "name": "",
          "type": "uint256"
        }
      ],
      "stateMutability": "view",
      "type": "function",
      "constant": true
    },
    {
      "inputs": [
        {
          "internalType": "uint256",
          "name": "tokenId",
          "type": "uint256"
        }
      ],
      "name": "getApproved",
      "outputs": [
        {
          "internalType": "address",
          "name": "",
          "type": "address"
        }
      ],
      "stateMutability": "view",
      "type": "function",
      "constant": true
    },
    {
      "inputs": [
        {
          "internalType": "address",
          "name": "",
          "type": "address"
        }
      ],
      "name": "getTokenId",
      "outputs": [
        {
          "internalType": "uint256",
          "name": "",
          "type": "uint256"
        }
      ],
      "stateMutability": "view",
      "type": "function",
      "constant": true
    },
    {
      "inputs": [
        {
          "internalType": "address",
          "name": "owner",
          "type": "address"
        },
        {
          "internalType": "address",
          "name": "operator",
          "type": "address"
        }
      ],
      "name": "isApprovedForAll",
      "outputs": [
        {
          "internalType": "bool",
          "name": "",
          "type": "bool"
        }
      ],
      "stateMutability": "view",
      "type": "function",
      "constant": true
    },
    {
      "inputs": [],
      "name": "name",
      "outputs": [
        {
          "internalType": "string",
          "name": "",
          "type": "string"
        }
      ],
      "stateMutability": "view",
      "type": "function",
      "constant": true
    },
    {
      "inputs": [
        {
          "internalType": "uint256",
          "name": "tokenId",
          "type": "uint256"
        }
      ],
      "name": "ownerOf",
      "outputs": [
        {
          "internalType": "address",
          "name": "",
          "type": "address"
        }
      ],
      "stateMutability": "view",
      "type": "function",
      "constant": true
    },
    {
      "inputs": [
        {
          "internalType": "address",
          "name": "from",
          "type": "address"
        },
        {
          "internalType": "address",
          "name": "to",
          "type": "address"
        },
        {
          "internalType": "uint256",
          "name": "tokenId",
          "type": "uint256"
        }
      ],
      "name": "safeTransferFrom",
      "outputs": [],
      "stateMutability": "nonpayable",
      "type": "function"
    },
    {
      "inputs": [
        {
          "internalType": "address",
          "name": "from",
          "type": "address"
        },
        {
          "internalType": "address",
          "name": "to",
          "type": "address"
        },
        {
          "internalType": "uint256",
          "name": "tokenId",
          "type": "uint256"
        },
        {
          "internalType": "bytes",
          "name": "_data",
          "type": "bytes"
        }
      ],
      "name": "safeTransferFrom",
      "outputs": [],
      "stateMutability": "nonpayable",
      "type": "function"
    },
    {
      "inputs": [
        {
          "internalType": "address",
          "name": "operator",
          "type": "address"
        },
        {
          "internalType": "bool",
          "name": "approved",
          "type": "bool"
        }
      ],
      "name": "setApprovalForAll",
      "outputs": [],
      "stateMutability": "nonpayable",
      "type": "function"
    },
    {
      "inputs": [
        {
          "internalType": "bytes4",
          "name": "interfaceId",
          "type": "bytes4"
        }
      ],
      "name": "supportsInterface",
      "outputs": [
        {
          "internalType": "bool",
          "name": "",
          "type": "bool"
        }
      ],
      "stateMutability": "view",
      "type": "function",
      "constant": true
    },
    {
      "inputs": [],
      "name": "symbol",
      "outputs": [
        {
          "internalType": "string",
          "name": "",
          "type": "string"
        }
      ],
      "stateMutability": "view",
      "type": "function",
      "constant": true
    },
    {
      "inputs": [
        {
          "internalType": "address",
          "name": "from",
          "type": "address"
        },
        {
          "internalType": "address",
          "name": "to",
          "type": "address"
        },
        {
          "internalType": "uint256",
          "name": "tokenId",
          "type": "uint256"
        }
      ],
      "name": "transferFrom",
      "outputs": [],
      "stateMutability": "nonpayable",
      "type": "function"
    },
    {
      "inputs": [
        {
          "internalType": "address",
          "name": "to",
          "type": "address"
        },
        {
          "internalType": "uint256",
          "name": "tokenId",
          "type": "uint256"
        }
      ],
      "name": "safeMint",
      "outputs": [],
      "stateMutability": "nonpayable",
      "type": "function"
    },
    {
      "inputs": [
        {
          "internalType": "uint256",
          "name": "tokenId",
          "type": "uint256"
        }
      ],
      "name": "tokenURI",
      "outputs": [
        {
          "internalType": "string",
          "name": "",
          "type": "string"
        }
      ],
      "stateMutability": "view",
      "type": "function",
      "constant": true
    },
    {
      "inputs": [
        {
          "internalType": "address",
          "name": "reciever",
          "type": "address"
        }
      ],
      "name": "get_token",
      "outputs": [
        {
          "internalType": "uint256",
          "name": "",
          "type": "uint256"
        }
      ],
      "stateMutability": "view",
      "type": "function",
      "constant": true
    },
    {
      "inputs": [
        {
          "internalType": "address",
          "name": "reciever",
          "type": "address"
        }
      ],
      "name": "get_balances",
      "outputs": [
        {
          "internalType": "uint256",
          "name": "",
          "type": "uint256"
        }
      ],
      "stateMutability": "view",
      "type": "function",
      "constant": true
    }
  ],
  "bytecode": "0x60806040523480156200001157600080fd5b506040518060400160405280600781526020017f4d79546f6b656e000000000000000000000000000000000000000000000000008152506040518060400160405280600381526020017f4d544b0000000000000000000000000000000000000000000000000000000000815250816000908051906020019062000096929190620000b8565b508060019080519060200190620000af929190620000b8565b505050620001cd565b828054620000c69062000168565b90600052602060002090601f016020900481019282620000ea576000855562000136565b82601f106200010557805160ff191683800117855562000136565b8280016001018555821562000136579182015b828111156200013557825182559160200191906001019062000118565b5b50905062000145919062000149565b5090565b5b80821115620001645760008160009055506001016200014a565b5090565b600060028204905060018216806200018157607f821691505b602082108114156200019857620001976200019e565b5b50919050565b7f4e487b7100000000000000000000000000000000000000000000000000000000600052602260045260246000fd5b612b6f80620001dd6000396000f3fe608060405234801561001057600080fd5b50600436106101165760003560e01c806392e3cc2d116100a2578063a22cb46511610071578063a22cb46514610317578063b88d4fde14610333578063c87b56dd1461034f578063e985e9c51461037f578063f1537686146103af57610116565b806392e3cc2d1461027d57806395d89b41146102ad578063977d9122146102cb578063a1448194146102fb57610116565b806323b872dd116100e957806323b872dd146101b557806327e235e3146101d157806342842e0e146102015780636352211e1461021d57806370a082311461024d57610116565b806301ffc9a71461011b57806306fdde031461014b578063081812fc14610169578063095ea7b314610199575b600080fd5b61013560048036038101906101309190611c90565b6103df565b604051610142919061207f565b60405180910390f35b6101536104c1565b604051610160919061209a565b60405180910390f35b610183600480360381019061017e9190611cea565b610553565b6040516101909190612018565b60405180910390f35b6101b360048036038101906101ae9190611c50565b6105d8565b005b6101cf60048036038101906101ca9190611b3a565b6106f0565b005b6101eb60048036038101906101e69190611acd565b610750565b6040516101f8919061229c565b60405180910390f35b61021b60048036038101906102169190611b3a565b610768565b005b61023760048036038101906102329190611cea565b610788565b6040516102449190612018565b60405180910390f35b61026760048036038101906102629190611acd565b61083a565b604051610274919061229c565b60405180910390f35b61029760048036038101906102929190611acd565b6108f2565b6040516102a4919061229c565b60405180910390f35b6102b561093b565b6040516102c2919061209a565b60405180910390f35b6102e560048036038101906102e09190611acd565b6109cd565b6040516102f2919061229c565b60405180910390f35b61031560048036038101906103109190611c50565b610a16565b005b610331600480360381019061032c9190611c10565b610abf565b005b61034d60048036038101906103489190611b8d565b610c40565b005b61036960048036038101906103649190611cea565b610ca2565b604051610376919061209a565b60405180910390f35b61039960048036038101906103949190611afa565b610cb4565b6040516103a6919061207f565b60405180910390f35b6103c960048036038101906103c49190611acd565b610d48565b6040516103d6919061229c565b60405180910390f35b60007f80ac58cd000000000000000000000000000000000000000000000000000000007bffffffffffffffffffffffffffffffffffffffffffffffffffffffff1916827bffffffffffffffffffffffffffffffffffffffffffffffffffffffff191614806104aa57507f5b5e139f000000000000000000000000000000000000000000000000000000007bffffffffffffffffffffffffffffffffffffffffffffffffffffffff1916827bffffffffffffffffffffffffffffffffffffffffffffffffffffffff1916145b806104ba57506104b982610d60565b5b9050919050565b6060600080546104d0906124c1565b80601f01602080910402602001604051908101604052809291908181526020018280546104fc906124c1565b80156105495780601f1061051e57610100808354040283529160200191610549565b820191906000526020600020905b81548152906001019060200180831161052c57829003601f168201915b5050505050905090565b600061055e82610dca565b61059d576040517f08c379a0000000000000000000000000000000000000000000000000000000008152600401610594906121fc565b60405180910390fd5b6004600083815260200190815260200160002060009054906101000a900473ffffffffffffffffffffffffffffffffffffffff169050919050565b60006105e382610788565b90508073ffffffffffffffffffffffffffffffffffffffff168373ffffffffffffffffffffffffffffffffffffffff161415610654576040517f08c379a000000000000000000000000000000000000000000000000000000000815260040161064b9061225c565b60405180910390fd5b8073ffffffffffffffffffffffffffffffffffffffff16610673610e36565b73ffffffffffffffffffffffffffffffffffffffff1614806106a257506106a18161069c610e36565b610cb4565b5b6106e1576040517f08c379a00000000000000000000000000000000000000000000000000000000081526004016106d89061215c565b60405180910390fd5b6106eb8383610e3e565b505050565b6107016106fb610e36565b82610ef7565b610740576040517f08c379a00000000000000000000000000000000000000000000000000000000081526004016107379061227c565b60405180910390fd5b61074b838383610fd5565b505050565b60086020528060005260406000206000915090505481565b61078383838360405180602001604052806000815250610c40565b505050565b6000806002600084815260200190815260200160002060009054906101000a900473ffffffffffffffffffffffffffffffffffffffff169050600073ffffffffffffffffffffffffffffffffffffffff168173ffffffffffffffffffffffffffffffffffffffff161415610831576040517f08c379a00000000000000000000000000000000000000000000000000000000081526004016108289061219c565b60405180910390fd5b80915050919050565b60008073ffffffffffffffffffffffffffffffffffffffff168273ffffffffffffffffffffffffffffffffffffffff1614156108ab576040517f08c379a00000000000000000000000000000000000000000000000000000000081526004016108a29061217c565b60405180910390fd5b600360008373ffffffffffffffffffffffffffffffffffffffff1673ffffffffffffffffffffffffffffffffffffffff168152602001908152602001600020549050919050565b6000600860008373ffffffffffffffffffffffffffffffffffffffff1673ffffffffffffffffffffffffffffffffffffffff168152602001908152602001600020549050919050565b60606001805461094a906124c1565b80601f0160208091040260200160405190810160405280929190818152602001828054610976906124c1565b80156109c35780601f10610998576101008083540402835291602001916109c3565b820191906000526020600020905b8154815290600101906020018083116109a657829003601f168201915b5050505050905090565b6000600760008373ffffffffffffffffffffffffffffffffffffffff1673ffffffffffffffffffffffffffffffffffffffff168152602001908152602001600020549050919050565b610a208282611231565b80600760008473ffffffffffffffffffffffffffffffffffffffff1673ffffffffffffffffffffffffffffffffffffffff168152602001908152602001600020819055506001600860008473ffffffffffffffffffffffffffffffffffffffff1673ffffffffffffffffffffffffffffffffffffffff1681526020019081526020016000206000828254610ab49190612350565b925050819055505050565b610ac7610e36565b73ffffffffffffffffffffffffffffffffffffffff168273ffffffffffffffffffffffffffffffffffffffff161415610b35576040517f08c379a0000000000000000000000000000000000000000000000000000000008152600401610b2c9061211c565b60405180910390fd5b8060056000610b42610e36565b73ffffffffffffffffffffffffffffffffffffffff1673ffffffffffffffffffffffffffffffffffffffff16815260200190815260200160002060008473ffffffffffffffffffffffffffffffffffffffff1673ffffffffffffffffffffffffffffffffffffffff16815260200190815260200160002060006101000a81548160ff0219169083151502179055508173ffffffffffffffffffffffffffffffffffffffff16610bef610e36565b73ffffffffffffffffffffffffffffffffffffffff167f17307eab39ab6107e8899845ad3d59bd9653f200f220920489ca2b5937696c3183604051610c34919061207f565b60405180910390a35050565b610c51610c4b610e36565b83610ef7565b610c90576040517f08c379a0000000000000000000000000000000000000000000000000000000008152600401610c879061227c565b60405180910390fd5b610c9c8484848461124f565b50505050565b6060610cad826112ab565b9050919050565b6000600560008473ffffffffffffffffffffffffffffffffffffffff1673ffffffffffffffffffffffffffffffffffffffff16815260200190815260200160002060008373ffffffffffffffffffffffffffffffffffffffff1673ffffffffffffffffffffffffffffffffffffffff16815260200190815260200160002060009054906101000a900460ff16905092915050565b60076020528060005260406000206000915090505481565b60007f01ffc9a7000000000000000000000000000000000000000000000000000000007bffffffffffffffffffffffffffffffffffffffffffffffffffffffff1916827bffffffffffffffffffffffffffffffffffffffffffffffffffffffff1916149050919050565b60008073ffffffffffffffffffffffffffffffffffffffff166002600084815260200190815260200160002060009054906101000a900473ffffffffffffffffffffffffffffffffffffffff1673ffffffffffffffffffffffffffffffffffffffff1614159050919050565b600033905090565b816004600083815260200190815260200160002060006101000a81548173ffffffffffffffffffffffffffffffffffffffff021916908373ffffffffffffffffffffffffffffffffffffffff160217905550808273ffffffffffffffffffffffffffffffffffffffff16610eb183610788565b73ffffffffffffffffffffffffffffffffffffffff167f8c5be1e5ebec7d5bd14f71427d1e84f3dd0314c0f7b2291e5b200ac8c7c3b92560405160405180910390a45050565b6000610f0282610dca565b610f41576040517f08c379a0000000000000000000000000000000000000000000000000000000008152600401610f389061213c565b60405180910390fd5b6000610f4c83610788565b90508073ffffffffffffffffffffffffffffffffffffffff168473ffffffffffffffffffffffffffffffffffffffff161480610fbb57508373ffffffffffffffffffffffffffffffffffffffff16610fa384610553565b73ffffffffffffffffffffffffffffffffffffffff16145b80610fcc5750610fcb8185610cb4565b5b91505092915050565b8273ffffffffffffffffffffffffffffffffffffffff16610ff582610788565b73ffffffffffffffffffffffffffffffffffffffff161461104b576040517f08c379a00000000000000000000000000000000000000000000000000000000081526004016110429061221c565b60405180910390fd5b600073ffffffffffffffffffffffffffffffffffffffff168273ffffffffffffffffffffffffffffffffffffffff1614156110bb576040517f08c379a00000000000000000000000000000000000000000000000000000000081526004016110b2906120fc565b60405180910390fd5b6110c68383836113fd565b6110d1600082610e3e565b6001600360008573ffffffffffffffffffffffffffffffffffffffff1673ffffffffffffffffffffffffffffffffffffffff168152602001908152602001600020600082825461112191906123d7565b925050819055506001600360008473ffffffffffffffffffffffffffffffffffffffff1673ffffffffffffffffffffffffffffffffffffffff16815260200190815260200160002060008282546111789190612350565b92505081905550816002600083815260200190815260200160002060006101000a81548173ffffffffffffffffffffffffffffffffffffffff021916908373ffffffffffffffffffffffffffffffffffffffff160217905550808273ffffffffffffffffffffffffffffffffffffffff168473ffffffffffffffffffffffffffffffffffffffff167fddf252ad1be2c89b69c2b068fc378daa952ba7f163c4a11628f55a4df523b3ef60405160405180910390a4505050565b61124b828260405180602001604052806000815250611402565b5050565b61125a848484610fd5565b6112668484848461145d565b6112a5576040517f08c379a000000000000000000000000000000000000000000000000000000000815260040161129c906120bc565b60405180910390fd5b50505050565b60606112b682610dca565b6112f5576040517f08c379a00000000000000000000000000000000000000000000000000000000081526004016112ec906121dc565b60405180910390fd5b6000600660008481526020019081526020016000208054611315906124c1565b80601f0160208091040260200160405190810160405280929190818152602001828054611341906124c1565b801561138e5780601f106113635761010080835404028352916020019161138e565b820191906000526020600020905b81548152906001019060200180831161137157829003601f168201915b50505050509050600061139f6115f4565b90506000815114156113b55781925050506113f8565b6000825111156113ea5780826040516020016113d2929190611ff4565b604051602081830303815290604052925050506113f8565b6113f38461160b565b925050505b919050565b505050565b61140c83836116b2565b611419600084848461145d565b611458576040517f08c379a000000000000000000000000000000000000000000000000000000000815260040161144f906120bc565b60405180910390fd5b505050565b600061147e8473ffffffffffffffffffffffffffffffffffffffff16611880565b156115e7578373ffffffffffffffffffffffffffffffffffffffff1663150b7a026114a7610e36565b8786866040518563ffffffff1660e01b81526004016114c99493929190612033565b602060405180830381600087803b1580156114e357600080fd5b505af192505050801561151457506040513d601f19601f820116820180604052508101906115119190611cbd565b60015b611597573d8060008114611544576040519150601f19603f3d011682016040523d82523d6000602084013e611549565b606091505b5060008151141561158f576040517f08c379a0000000000000000000000000000000000000000000000000000000008152600401611586906120bc565b60405180910390fd5b805181602001fd5b63150b7a0260e01b7bffffffffffffffffffffffffffffffffffffffffffffffffffffffff1916817bffffffffffffffffffffffffffffffffffffffffffffffffffffffff1916149150506115ec565b600190505b949350505050565b606060405180602001604052806000815250905090565b606061161682610dca565b611655576040517f08c379a000000000000000000000000000000000000000000000000000000000815260040161164c9061223c565b60405180910390fd5b600061165f6115f4565b9050600081511161167f57604051806020016040528060008152506116aa565b8061168984611893565b60405160200161169a929190611ff4565b6040516020818303038152906040525b915050919050565b600073ffffffffffffffffffffffffffffffffffffffff168273ffffffffffffffffffffffffffffffffffffffff161415611722576040517f08c379a0000000000000000000000000000000000000000000000000000000008152600401611719906121bc565b60405180910390fd5b61172b81610dca565b1561176b576040517f08c379a0000000000000000000000000000000000000000000000000000000008152600401611762906120dc565b60405180910390fd5b611777600083836113fd565b6001600360008473ffffffffffffffffffffffffffffffffffffffff1673ffffffffffffffffffffffffffffffffffffffff16815260200190815260200160002060008282546117c79190612350565b92505081905550816002600083815260200190815260200160002060006101000a81548173ffffffffffffffffffffffffffffffffffffffff021916908373ffffffffffffffffffffffffffffffffffffffff160217905550808273ffffffffffffffffffffffffffffffffffffffff16600073ffffffffffffffffffffffffffffffffffffffff167fddf252ad1be2c89b69c2b068fc378daa952ba7f163c4a11628f55a4df523b3ef60405160405180910390a45050565b600080823b905060008111915050919050565b606060008214156118db576040518060400160405280600181526020017f300000000000000000000000000000000000000000000000000000000000000081525090506119ef565b600082905060005b6000821461190d5780806118f690612524565b915050600a8261190691906123a6565b91506118e3565b60008167ffffffffffffffff8111156119295761192861265a565b5b6040519080825280601f01601f19166020018201604052801561195b5781602001600182028036833780820191505090505b5090505b600085146119e85760018261197491906123d7565b9150600a85611983919061256d565b603061198f9190612350565b60f81b8183815181106119a5576119a461262b565b5b60200101907effffffffffffffffffffffffffffffffffffffffffffffffffffffffffffff1916908160001a905350600a856119e191906123a6565b945061195f565b8093505050505b919050565b6000611a07611a02846122dc565b6122b7565b905082815260208101848484011115611a2357611a2261268e565b5b611a2e84828561247f565b509392505050565b600081359050611a4581612add565b92915050565b600081359050611a5a81612af4565b92915050565b600081359050611a6f81612b0b565b92915050565b600081519050611a8481612b0b565b92915050565b600082601f830112611a9f57611a9e612689565b5b8135611aaf8482602086016119f4565b91505092915050565b600081359050611ac781612b22565b92915050565b600060208284031215611ae357611ae2612698565b5b6000611af184828501611a36565b91505092915050565b60008060408385031215611b1157611b10612698565b5b6000611b1f85828601611a36565b9250506020611b3085828601611a36565b9150509250929050565b600080600060608486031215611b5357611b52612698565b5b6000611b6186828701611a36565b9350506020611b7286828701611a36565b9250506040611b8386828701611ab8565b9150509250925092565b60008060008060808587031215611ba757611ba6612698565b5b6000611bb587828801611a36565b9450506020611bc687828801611a36565b9350506040611bd787828801611ab8565b925050606085013567ffffffffffffffff811115611bf857611bf7612693565b5b611c0487828801611a8a565b91505092959194509250565b60008060408385031215611c2757611c26612698565b5b6000611c3585828601611a36565b9250506020611c4685828601611a4b565b9150509250929050565b60008060408385031215611c6757611c66612698565b5b6000611c7585828601611a36565b9250506020611c8685828601611ab8565b9150509250929050565b600060208284031215611ca657611ca5612698565b5b6000611cb484828501611a60565b91505092915050565b600060208284031215611cd357611cd2612698565b5b6000611ce184828501611a75565b91505092915050565b600060208284031215611d0057611cff612698565b5b6000611d0e84828501611ab8565b91505092915050565b611d208161240b565b82525050565b611d2f8161241d565b82525050565b6000611d408261230d565b611d4a8185612323565b9350611d5a81856020860161248e565b611d638161269d565b840191505092915050565b6000611d7982612318565b611d838185612334565b9350611d9381856020860161248e565b611d9c8161269d565b840191505092915050565b6000611db282612318565b611dbc8185612345565b9350611dcc81856020860161248e565b80840191505092915050565b6000611de5603283612334565b9150611df0826126ae565b604082019050919050565b6000611e08601c83612334565b9150611e13826126fd565b602082019050919050565b6000611e2b602483612334565b9150611e3682612726565b604082019050919050565b6000611e4e601983612334565b9150611e5982612775565b602082019050919050565b6000611e71602c83612334565b9150611e7c8261279e565b604082019050919050565b6000611e94603883612334565b9150611e9f826127ed565b604082019050919050565b6000611eb7602a83612334565b9150611ec28261283c565b604082019050919050565b6000611eda602983612334565b9150611ee58261288b565b604082019050919050565b6000611efd602083612334565b9150611f08826128da565b602082019050919050565b6000611f20603183612334565b9150611f2b82612903565b604082019050919050565b6000611f43602c83612334565b9150611f4e82612952565b604082019050919050565b6000611f66602983612334565b9150611f71826129a1565b604082019050919050565b6000611f89602f83612334565b9150611f94826129f0565b604082019050919050565b6000611fac602183612334565b9150611fb782612a3f565b604082019050919050565b6000611fcf603183612334565b9150611fda82612a8e565b604082019050919050565b611fee81612475565b82525050565b60006120008285611da7565b915061200c8284611da7565b91508190509392505050565b600060208201905061202d6000830184611d17565b92915050565b60006080820190506120486000830187611d17565b6120556020830186611d17565b6120626040830185611fe5565b81810360608301526120748184611d35565b905095945050505050565b60006020820190506120946000830184611d26565b92915050565b600060208201905081810360008301526120b48184611d6e565b905092915050565b600060208201905081810360008301526120d581611dd8565b9050919050565b600060208201905081810360008301526120f581611dfb565b9050919050565b6000602082019050818103600083015261211581611e1e565b9050919050565b6000602082019050818103600083015261213581611e41565b9050919050565b6000602082019050818103600083015261215581611e64565b9050919050565b6000602082019050818103600083015261217581611e87565b9050919050565b6000602082019050818103600083015261219581611eaa565b9050919050565b600060208201905081810360008301526121b581611ecd565b9050919050565b600060208201905081810360008301526121d581611ef0565b9050919050565b600060208201905081810360008301526121f581611f13565b9050919050565b6000602082019050818103600083015261221581611f36565b9050919050565b6000602082019050818103600083015261223581611f59565b9050919050565b6000602082019050818103600083015261225581611f7c565b9050919050565b6000602082019050818103600083015261227581611f9f565b9050919050565b6000602082019050818103600083015261229581611fc2565b9050919050565b60006020820190506122b16000830184611fe5565b92915050565b60006122c16122d2565b90506122cd82826124f3565b919050565b6000604051905090565b600067ffffffffffffffff8211156122f7576122f661265a565b5b6123008261269d565b9050602081019050919050565b600081519050919050565b600081519050919050565b600082825260208201905092915050565b600082825260208201905092915050565b600081905092915050565b600061235b82612475565b915061236683612475565b9250827fffffffffffffffffffffffffffffffffffffffffffffffffffffffffffffffff0382111561239b5761239a61259e565b5b828201905092915050565b60006123b182612475565b91506123bc83612475565b9250826123cc576123cb6125cd565b5b828204905092915050565b60006123e282612475565b91506123ed83612475565b925082821015612400576123ff61259e565b5b828203905092915050565b600061241682612455565b9050919050565b60008115159050919050565b60007fffffffff0000000000000000000000000000000000000000000000000000000082169050919050565b600073ffffffffffffffffffffffffffffffffffffffff82169050919050565b6000819050919050565b82818337600083830152505050565b60005b838110156124ac578082015181840152602081019050612491565b838111156124bb576000848401525b50505050565b600060028204905060018216806124d957607f821691505b602082108114156124ed576124ec6125fc565b5b50919050565b6124fc8261269d565b810181811067ffffffffffffffff8211171561251b5761251a61265a565b5b80604052505050565b600061252f82612475565b91507fffffffffffffffffffffffffffffffffffffffffffffffffffffffffffffffff8214156125625761256161259e565b5b600182019050919050565b600061257882612475565b915061258383612475565b925082612593576125926125cd565b5b828206905092915050565b7f4e487b7100000000000000000000000000000000000000000000000000000000600052601160045260246000fd5b7f4e487b7100000000000000000000000000000000000000000000000000000000600052601260045260246000fd5b7f4e487b7100000000000000000000000000000000000000000000000000000000600052602260045260246000fd5b7f4e487b7100000000000000000000000000000000000000000000000000000000600052603260045260246000fd5b7f4e487b7100000000000000000000000000000000000000000000000000000000600052604160045260246000fd5b600080fd5b600080fd5b600080fd5b600080fd5b6000601f19601f8301169050919050565b7f4552433732313a207472616e7366657220746f206e6f6e20455243373231526560008201527f63656976657220696d706c656d656e7465720000000000000000000000000000602082015250565b7f4552433732313a20746f6b656e20616c7265616479206d696e74656400000000600082015250565b7f4552433732313a207472616e7366657220746f20746865207a65726f2061646460008201527f7265737300000000000000000000000000000000000000000000000000000000602082015250565b7f4552433732313a20617070726f766520746f2063616c6c657200000000000000600082015250565b7f4552433732313a206f70657261746f7220717565727920666f72206e6f6e657860008201527f697374656e7420746f6b656e0000000000000000000000000000000000000000602082015250565b7f4552433732313a20617070726f76652063616c6c6572206973206e6f74206f7760008201527f6e6572206e6f7220617070726f76656420666f7220616c6c0000000000000000602082015250565b7f4552433732313a2062616c616e636520717565727920666f7220746865207a6560008201527f726f206164647265737300000000000000000000000000000000000000000000602082015250565b7f4552433732313a206f776e657220717565727920666f72206e6f6e657869737460008201527f656e7420746f6b656e0000000000000000000000000000000000000000000000602082015250565b7f4552433732313a206d696e7420746f20746865207a65726f2061646472657373600082015250565b7f45524337323155524953746f726167653a2055524920717565727920666f722060008201527f6e6f6e6578697374656e7420746f6b656e000000000000000000000000000000602082015250565b7f4552433732313a20617070726f76656420717565727920666f72206e6f6e657860008201527f697374656e7420746f6b656e0000000000000000000000000000000000000000602082015250565b7f4552433732313a207472616e73666572206f6620746f6b656e2074686174206960008201527f73206e6f74206f776e0000000000000000000000000000000000000000000000602082015250565b7f4552433732314d657461646174613a2055524920717565727920666f72206e6f60008201527f6e6578697374656e7420746f6b656e0000000000000000000000000000000000602082015250565b7f4552433732313a20617070726f76616c20746f2063757272656e74206f776e6560008201527f7200000000000000000000000000000000000000000000000000000000000000602082015250565b7f4552433732313a207472616e736665722063616c6c6572206973206e6f74206f60008201527f776e6572206e6f7220617070726f766564000000000000000000000000000000602082015250565b612ae68161240b565b8114612af157600080fd5b50565b612afd8161241d565b8114612b0857600080fd5b50565b612b1481612429565b8114612b1f57600080fd5b50565b612b2b81612475565b8114612b3657600080fd5b5056fea2646970667358221220a59b8989b4223aa161a85eff6363a575cddae465b5462ac237797e7b51a4874464736f6c63430008070033",
  "immutableReferences": {},
  "source": "pragma solidity ^0.8.2;\n\nimport \"@openzeppelin/contracts/token/ERC721/ERC721.sol\";\nimport \"@openzeppelin/contracts/token/ERC721/extensions/ERC721URIStorage.sol\";\n// impogetrt \"@openzeppelin/contracts/access/Ownable.sol\";\n\ncontract SimpleToken is ERC721, ERC721URIStorage {\n    mapping(address => uint256)public getTokenId;\n    mapping(address => uint256)public balances;\n    \n    constructor() ERC721(\"MyToken\", \"MTK\") {}\n\n    function safeMint(address to, uint256 tokenId) public {\n        _safeMint(to, tokenId);\n        getTokenId[to] = tokenId;\n        balances[to] += 1;\n    }\n\n    function _burn(uint256 tokenId) internal override(ERC721, ERC721URIStorage) {\n        super._burn(tokenId);\n    }\n\n    function tokenURI(uint256 tokenId)\n        public\n        view\n        override(ERC721, ERC721URIStorage)\n        returns (string memory)\n    {\n        return super.tokenURI(tokenId);\n    }\n\n    function get_token(address reciever) external view returns (uint256){\n        return getTokenId[reciever];\n    }\n\n    function get_balances(address reciever) external view returns (uint256){\n        return balances[reciever];\n    }\n}",
  "sourcePath": "/Users/zlederman/Documents/Code/js/truffle-react/contracts/SimpleToken.sol",
  "compiler": {
    "name": "solc",
    "version": "0.8.7+commit.e28d00a7.Emscripten.clang"
  },
  "schemaVersion": "3.4.2",
  "updatedAt": "2021-08-31T22:30:10.190Z",
  "networkType": "ethereum",
  "devdoc": {
    "kind": "dev",
    "methods": {
      "approve(address,uint256)": {
        "details": "See {IERC721-approve}."
      },
      "balanceOf(address)": {
        "details": "See {IERC721-balanceOf}."
      },
      "getApproved(uint256)": {
        "details": "See {IERC721-getApproved}."
      },
      "isApprovedForAll(address,address)": {
        "details": "See {IERC721-isApprovedForAll}."
      },
      "name()": {
        "details": "See {IERC721Metadata-name}."
      },
      "ownerOf(uint256)": {
        "details": "See {IERC721-ownerOf}."
      },
      "safeTransferFrom(address,address,uint256)": {
        "details": "See {IERC721-safeTransferFrom}."
      },
      "safeTransferFrom(address,address,uint256,bytes)": {
        "details": "See {IERC721-safeTransferFrom}."
      },
      "setApprovalForAll(address,bool)": {
        "details": "See {IERC721-setApprovalForAll}."
      },
      "supportsInterface(bytes4)": {
        "details": "See {IERC165-supportsInterface}."
      },
      "symbol()": {
        "details": "See {IERC721Metadata-symbol}."
      },
      "transferFrom(address,address,uint256)": {
        "details": "See {IERC721-transferFrom}."
      }
    },
    "version": 1
  },
  "userdoc": {
    "kind": "user",
    "methods": {},
    "version": 1
  }
}