{
  "contractName": "PaymentHandler",
  "abi": [
    {
      "inputs": [
        {
          "internalType": "address",
          "name": "tokenAddress",
          "type": "address"
        },
        {
          "internalType": "address[]",
          "name": "payees",
          "type": "address[]"
        }
      ],
      "stateMutability": "nonpayable",
      "type": "constructor"
    },
    {
      "anonymous": false,
      "inputs": [
        {
          "indexed": false,
          "internalType": "address",
          "name": "account",
          "type": "address"
        },
        {
          "indexed": false,
          "internalType": "uint256",
          "name": "shares",
          "type": "uint256"
        }
      ],
      "name": "PayeeAdded",
      "type": "event"
    },
    {
      "anonymous": false,
      "inputs": [
        {
          "indexed": false,
          "internalType": "address",
          "name": "from",
          "type": "address"
        },
        {
          "indexed": false,
          "internalType": "uint256",
          "name": "amount",
          "type": "uint256"
        }
      ],
      "name": "PaymentReceived",
      "type": "event"
    },
    {
      "anonymous": false,
      "inputs": [
        {
          "indexed": false,
          "internalType": "address",
          "name": "to",
          "type": "address"
        },
        {
          "indexed": false,
          "internalType": "uint256",
          "name": "amount",
          "type": "uint256"
        }
      ],
      "name": "PaymentReleased",
      "type": "event"
    },
    {
      "anonymous": false,
      "inputs": [
        {
          "indexed": false,
          "internalType": "address",
          "name": "from",
          "type": "address"
        }
      ],
      "name": "fundsAccepted",
      "type": "event"
    },
    {
      "anonymous": false,
      "inputs": [
        {
          "indexed": false,
          "internalType": "address",
          "name": "beneficiary",
          "type": "address"
        },
        {
          "indexed": false,
          "internalType": "string",
          "name": "tokenParams",
          "type": "string"
        }
      ],
      "name": "tokenMintedEvent",
      "type": "event"
    },
    {
      "inputs": [
        {
          "internalType": "uint256",
          "name": "index",
          "type": "uint256"
        }
      ],
      "name": "payee",
      "outputs": [
        {
          "internalType": "address",
          "name": "",
          "type": "address"
        }
      ],
      "stateMutability": "view",
      "type": "function"
    },
    {
      "inputs": [
        {
          "internalType": "address payable",
          "name": "account",
          "type": "address"
        }
      ],
      "name": "release",
      "outputs": [],
      "stateMutability": "nonpayable",
      "type": "function"
    },
    {
      "inputs": [
        {
          "internalType": "address",
          "name": "account",
          "type": "address"
        }
      ],
      "name": "released",
      "outputs": [
        {
          "internalType": "uint256",
          "name": "",
          "type": "uint256"
        }
      ],
      "stateMutability": "view",
      "type": "function"
    },
    {
      "inputs": [
        {
          "internalType": "address",
          "name": "account",
          "type": "address"
        }
      ],
      "name": "shares",
      "outputs": [
        {
          "internalType": "uint256",
          "name": "",
          "type": "uint256"
        }
      ],
      "stateMutability": "view",
      "type": "function"
    },
    {
      "inputs": [],
      "name": "totalReleased",
      "outputs": [
        {
          "internalType": "uint256",
          "name": "",
          "type": "uint256"
        }
      ],
      "stateMutability": "view",
      "type": "function"
    },
    {
      "inputs": [],
      "name": "totalShares",
      "outputs": [
        {
          "internalType": "uint256",
          "name": "",
          "type": "uint256"
        }
      ],
      "stateMutability": "view",
      "type": "function"
    },
    {
      "stateMutability": "payable",
      "type": "receive"
    },
    {
      "inputs": [
        {
          "internalType": "address",
          "name": "beneficiary",
          "type": "address"
        },
        {
          "internalType": "string",
          "name": "tokenParams",
          "type": "string"
        }
      ],
      "name": "buyToken",
      "outputs": [],
      "stateMutability": "payable",
      "type": "function"
    },
    {
      "inputs": [],
      "name": "getTokenAddress",
      "outputs": [
        {
          "internalType": "address",
          "name": "",
          "type": "address"
        }
      ],
      "stateMutability": "view",
      "type": "function"
    },
    {
      "inputs": [],
      "name": "getBalanceOfPaymentHandler",
      "outputs": [
        {
          "internalType": "uint256",
          "name": "",
          "type": "uint256"
        }
      ],
      "stateMutability": "view",
      "type": "function"
    },
    {
      "inputs": [],
      "name": "getPrice",
      "outputs": [
        {
          "internalType": "uint256",
          "name": "",
          "type": "uint256"
        }
      ],
      "stateMutability": "pure",
      "type": "function"
    },
    {
      "inputs": [],
      "name": "getTotalSales",
      "outputs": [
        {
          "internalType": "uint256",
          "name": "",
          "type": "uint256"
        }
      ],
      "stateMutability": "view",
      "type": "function"
    }
  ],
  "bytecode": "0x6080604052601e600860006101000a81548173ffffffffffffffffffffffffffffffffffffffff021916908373ffffffffffffffffffffffffffffffffffffffff160217905550600a600960006101000a81548173ffffffffffffffffffffffffffffffffffffffff021916908373ffffffffffffffffffffffffffffffffffffffff1602179055506010600a60006101000a81548173ffffffffffffffffffffffffffffffffffffffff021916908373ffffffffffffffffffffffffffffffffffffffff1602179055506014600b60006101000a81548173ffffffffffffffffffffffffffffffffffffffff021916908373ffffffffffffffffffffffffffffffffffffffff1602179055506002600c556002600d556006600e55605a600f556040518060800160405280600c548152602001600d548152602001600e548152602001600f5481525060109060046200015b9291906200056e565b503480156200016957600080fd5b50604051620026103803806200261083398181016040528101906200018f9190620007cd565b806010805480602002602001604051908101604052809291908181526020018280548015620001de57602002820191906000526020600020905b815481526020019060010190808311620001c9575b505050505080518251146200022a576040517f08c379a00000000000000000000000000000000000000000000000000000000081526004016200022190620008ba565b60405180910390fd5b600082511162000271576040517f08c379a000000000000000000000000000000000000000000000000000000000815260040162000268906200092c565b60405180910390fd5b60005b8251811015620002e057620002ca8382815181106200029857620002976200094e565b5b6020026020010151838381518110620002b657620002b56200094e565b5b60200260200101516200033460201b60201c565b8080620002d790620009b6565b91505062000274565b50505081600760006101000a81548173ffffffffffffffffffffffffffffffffffffffff021916908373ffffffffffffffffffffffffffffffffffffffff1602179055506000600681905550505062000c52565b600073ffffffffffffffffffffffffffffffffffffffff168273ffffffffffffffffffffffffffffffffffffffff161415620003a7576040517f08c379a00000000000000000000000000000000000000000000000000000000081526004016200039e9062000a7a565b60405180910390fd5b60008111620003ed576040517f08c379a0000000000000000000000000000000000000000000000000000000008152600401620003e49062000aec565b60405180910390fd5b6000600260008473ffffffffffffffffffffffffffffffffffffffff1673ffffffffffffffffffffffffffffffffffffffff168152602001908152602001600020541462000472576040517f08c379a0000000000000000000000000000000000000000000000000000000008152600401620004699062000b84565b60405180910390fd5b6004829080600181540180825580915050600190039060005260206000200160009091909190916101000a81548173ffffffffffffffffffffffffffffffffffffffff021916908373ffffffffffffffffffffffffffffffffffffffff16021790555080600260008473ffffffffffffffffffffffffffffffffffffffff1673ffffffffffffffffffffffffffffffffffffffff168152602001908152602001600020819055508060005462000529919062000ba6565b6000819055507f40c340f65e17194d14ddddb073d3c9f888e3cb52b5aae0c6c7706b4fbc905fac82826040516200056292919062000c25565b60405180910390a15050565b828054828255906000526020600020908101928215620005ad579160200282015b82811115620005ac5782518255916020019190600101906200058f565b5b509050620005bc9190620005c0565b5090565b5b80821115620005db576000816000905550600101620005c1565b5090565b6000604051905090565b600080fd5b600080fd5b600073ffffffffffffffffffffffffffffffffffffffff82169050919050565b60006200062082620005f3565b9050919050565b620006328162000613565b81146200063e57600080fd5b50565b600081519050620006528162000627565b92915050565b600080fd5b6000601f19601f8301169050919050565b7f4e487b7100000000000000000000000000000000000000000000000000000000600052604160045260246000fd5b620006a8826200065d565b810181811067ffffffffffffffff82111715620006ca57620006c96200066e565b5b80604052505050565b6000620006df620005df565b9050620006ed82826200069d565b919050565b600067ffffffffffffffff82111562000710576200070f6200066e565b5b602082029050602081019050919050565b600080fd5b60006200073d6200073784620006f2565b620006d3565b9050808382526020820190506020840283018581111562000763576200076262000721565b5b835b818110156200079057806200077b888262000641565b84526020840193505060208101905062000765565b5050509392505050565b600082601f830112620007b257620007b162000658565b5b8151620007c484826020860162000726565b91505092915050565b60008060408385031215620007e757620007e6620005e9565b5b6000620007f78582860162000641565b925050602083015167ffffffffffffffff8111156200081b576200081a620005ee565b5b62000829858286016200079a565b9150509250929050565b600082825260208201905092915050565b7f5061796d656e7453706c69747465723a2070617965657320616e64207368617260008201527f6573206c656e677468206d69736d617463680000000000000000000000000000602082015250565b6000620008a260328362000833565b9150620008af8262000844565b604082019050919050565b60006020820190508181036000830152620008d58162000893565b9050919050565b7f5061796d656e7453706c69747465723a206e6f20706179656573000000000000600082015250565b600062000914601a8362000833565b91506200092182620008dc565b602082019050919050565b60006020820190508181036000830152620009478162000905565b9050919050565b7f4e487b7100000000000000000000000000000000000000000000000000000000600052603260045260246000fd5b7f4e487b7100000000000000000000000000000000000000000000000000000000600052601160045260246000fd5b6000819050919050565b6000620009c382620009ac565b91507fffffffffffffffffffffffffffffffffffffffffffffffffffffffffffffffff821415620009f957620009f86200097d565b5b600182019050919050565b7f5061796d656e7453706c69747465723a206163636f756e74206973207468652060008201527f7a65726f20616464726573730000000000000000000000000000000000000000602082015250565b600062000a62602c8362000833565b915062000a6f8262000a04565b604082019050919050565b6000602082019050818103600083015262000a958162000a53565b9050919050565b7f5061796d656e7453706c69747465723a20736861726573206172652030000000600082015250565b600062000ad4601d8362000833565b915062000ae18262000a9c565b602082019050919050565b6000602082019050818103600083015262000b078162000ac5565b9050919050565b7f5061796d656e7453706c69747465723a206163636f756e7420616c726561647960008201527f2068617320736861726573000000000000000000000000000000000000000000602082015250565b600062000b6c602b8362000833565b915062000b798262000b0e565b604082019050919050565b6000602082019050818103600083015262000b9f8162000b5d565b9050919050565b600062000bb382620009ac565b915062000bc083620009ac565b9250827fffffffffffffffffffffffffffffffffffffffffffffffffffffffffffffffff0382111562000bf85762000bf76200097d565b5b828201905092915050565b62000c0e8162000613565b82525050565b62000c1f81620009ac565b82525050565b600060408201905062000c3c600083018562000c03565b62000c4b602083018462000c14565b9392505050565b6119ae8062000c626000396000f3fe6080604052600436106100a05760003560e01c80639852595c116100645780639852595c146101d357806398d5fdca14610210578063a33209991461023b578063b0dfa98e14610266578063ce7c2ac214610282578063e33b7de3146102bf576100e7565b806310fe9ae8146100ec57806319165587146101175780632156a96c146101405780633a98ef391461016b5780638b83209b14610196576100e7565b366100e7577f6ef95f06320e7a25a04a175ca677b7052bdd97131872c2192525a629f51be7706100ce6102ea565b346040516100dd929190610d8e565b60405180910390a1005b600080fd5b3480156100f857600080fd5b506101016102f2565b60405161010e9190610db7565b60405180910390f35b34801561012357600080fd5b5061013e60048036038101906101399190610e1a565b61031c565b005b34801561014c57600080fd5b50610155610584565b6040516101629190610e47565b60405180910390f35b34801561017757600080fd5b5061018061058e565b60405161018d9190610e47565b60405180910390f35b3480156101a257600080fd5b506101bd60048036038101906101b89190610e8e565b610597565b6040516101ca9190610db7565b60405180910390f35b3480156101df57600080fd5b506101fa60048036038101906101f59190610ee7565b6105df565b6040516102079190610e47565b60405180910390f35b34801561021c57600080fd5b50610225610628565b6040516102329190610e47565b60405180910390f35b34801561024757600080fd5b50610250610638565b60405161025d9190610e47565b60405180910390f35b610280600480360381019061027b9190610f79565b610640565b005b34801561028e57600080fd5b506102a960048036038101906102a49190610ee7565b6107b4565b6040516102b69190610e47565b60405180910390f35b3480156102cb57600080fd5b506102d46107fd565b6040516102e19190610e47565b60405180910390f35b600033905090565b6000600760009054906101000a900473ffffffffffffffffffffffffffffffffffffffff16905090565b6000600260008373ffffffffffffffffffffffffffffffffffffffff1673ffffffffffffffffffffffffffffffffffffffff168152602001908152602001600020541161039e576040517f08c379a00000000000000000000000000000000000000000000000000000000081526004016103959061105c565b60405180910390fd5b6000600154476103ae91906110ab565b90506000600360008473ffffffffffffffffffffffffffffffffffffffff1673ffffffffffffffffffffffffffffffffffffffff16815260200190815260200160002054600054600260008673ffffffffffffffffffffffffffffffffffffffff1673ffffffffffffffffffffffffffffffffffffffff16815260200190815260200160002054846104409190611101565b61044a919061118a565b61045491906111bb565b9050600081141561049a576040517f08c379a000000000000000000000000000000000000000000000000000000000815260040161049190611261565b60405180910390fd5b80600360008573ffffffffffffffffffffffffffffffffffffffff1673ffffffffffffffffffffffffffffffffffffffff168152602001908152602001600020546104e591906110ab565b600360008573ffffffffffffffffffffffffffffffffffffffff1673ffffffffffffffffffffffffffffffffffffffff168152602001908152602001600020819055508060015461053691906110ab565b6001819055506105468382610807565b7fdf20fd1e76bc69d672e4814fafb2c449bba3a5369d8359adf9e05e6fde87b05683826040516105779291906112e0565b60405180910390a1505050565b6000600654905090565b60008054905090565b6000600482815481106105ad576105ac611309565b5b9060005260206000200160009054906101000a900473ffffffffffffffffffffffffffffffffffffffff169050919050565b6000600360008373ffffffffffffffffffffffffffffffffffffffff1673ffffffffffffffffffffffffffffffffffffffff168152602001908152602001600020549050919050565b60006729a2241af62c0000905090565b600047905090565b60003411610683576040517f08c379a000000000000000000000000000000000000000000000000000000000815260040161067a90611384565b60405180910390fd5b6729a2241af62c000034116106cd576040517f08c379a00000000000000000000000000000000000000000000000000000000081526004016106c4906113f0565b60405180910390fd5b600073ffffffffffffffffffffffffffffffffffffffff168373ffffffffffffffffffffffffffffffffffffffff16141561073d576040517f08c379a00000000000000000000000000000000000000000000000000000000081526004016107349061145c565b60405180910390fd5b600061074a8484846108fb565b90508061078c576040517f08c379a0000000000000000000000000000000000000000000000000000000008152600401610783906114c8565b60405180910390fd5b610794610a3e565b6001600660008282546107a791906110ab565b9250508190555050505050565b6000600260008373ffffffffffffffffffffffffffffffffffffffff1673ffffffffffffffffffffffffffffffffffffffff168152602001908152602001600020549050919050565b6000600154905090565b8047101561084a576040517f08c379a000000000000000000000000000000000000000000000000000000000815260040161084190611534565b60405180910390fd5b60008273ffffffffffffffffffffffffffffffffffffffff168260405161087090611585565b60006040518083038185875af1925050503d80600081146108ad576040519150601f19603f3d011682016040523d82523d6000602084013e6108b2565b606091505b50509050806108f6576040517f08c379a00000000000000000000000000000000000000000000000000000000081526004016108ed9061160c565b60405180910390fd5b505050565b600080600760009054906101000a900473ffffffffffffffffffffffffffffffffffffffff1673ffffffffffffffffffffffffffffffffffffffff1663e16cfb878686866040518463ffffffff1660e01b815260040161095d93929190611679565b602060405180830381600087803b15801561097757600080fd5b505af115801561098b573d6000803e3d6000fd5b505050506040513d601f19601f820116820180604052508101906109af91906116e3565b9050806109f1576040517f08c379a00000000000000000000000000000000000000000000000000000000081526004016109e890611782565b60405180910390fd5b7fc73fd55c21cc25aba3cede2e392471e67a6e9adbbb735362a2e5715991654f56858585604051610a2493929190611679565b60405180910390a160011515811515149150509392505050565b600073ffffffffffffffffffffffffffffffffffffffff16600860009054906101000a900473ffffffffffffffffffffffffffffffffffffffff1673ffffffffffffffffffffffffffffffffffffffff161415610ad0576040517f08c379a0000000000000000000000000000000000000000000000000000000008152600401610ac7906117ee565b60405180910390fd5b600073ffffffffffffffffffffffffffffffffffffffff16600960009054906101000a900473ffffffffffffffffffffffffffffffffffffffff1673ffffffffffffffffffffffffffffffffffffffff161415610b62576040517f08c379a0000000000000000000000000000000000000000000000000000000008152600401610b599061185a565b60405180910390fd5b600073ffffffffffffffffffffffffffffffffffffffff16600a60009054906101000a900473ffffffffffffffffffffffffffffffffffffffff1673ffffffffffffffffffffffffffffffffffffffff161415610bf4576040517f08c379a0000000000000000000000000000000000000000000000000000000008152600401610beb906118c6565b60405180910390fd5b600073ffffffffffffffffffffffffffffffffffffffff16600b60009054906101000a900473ffffffffffffffffffffffffffffffffffffffff1673ffffffffffffffffffffffffffffffffffffffff161415610c86576040517f08c379a0000000000000000000000000000000000000000000000000000000008152600401610c7d90611958565b60405180910390fd5b610cb1600860009054906101000a900473ffffffffffffffffffffffffffffffffffffffff1661031c565b610cdc600960009054906101000a900473ffffffffffffffffffffffffffffffffffffffff1661031c565b610d07600a60009054906101000a900473ffffffffffffffffffffffffffffffffffffffff1661031c565b610d32600b60009054906101000a900473ffffffffffffffffffffffffffffffffffffffff1661031c565b565b600073ffffffffffffffffffffffffffffffffffffffff82169050919050565b6000610d5f82610d34565b9050919050565b610d6f81610d54565b82525050565b6000819050919050565b610d8881610d75565b82525050565b6000604082019050610da36000830185610d66565b610db06020830184610d7f565b9392505050565b6000602082019050610dcc6000830184610d66565b92915050565b600080fd5b600080fd5b6000610de782610d34565b9050919050565b610df781610ddc565b8114610e0257600080fd5b50565b600081359050610e1481610dee565b92915050565b600060208284031215610e3057610e2f610dd2565b5b6000610e3e84828501610e05565b91505092915050565b6000602082019050610e5c6000830184610d7f565b92915050565b610e6b81610d75565b8114610e7657600080fd5b50565b600081359050610e8881610e62565b92915050565b600060208284031215610ea457610ea3610dd2565b5b6000610eb284828501610e79565b91505092915050565b610ec481610d54565b8114610ecf57600080fd5b50565b600081359050610ee181610ebb565b92915050565b600060208284031215610efd57610efc610dd2565b5b6000610f0b84828501610ed2565b91505092915050565b600080fd5b600080fd5b600080fd5b60008083601f840112610f3957610f38610f14565b5b8235905067ffffffffffffffff811115610f5657610f55610f19565b5b602083019150836001820283011115610f7257610f71610f1e565b5b9250929050565b600080600060408486031215610f9257610f91610dd2565b5b6000610fa086828701610ed2565b935050602084013567ffffffffffffffff811115610fc157610fc0610dd7565b5b610fcd86828701610f23565b92509250509250925092565b600082825260208201905092915050565b7f5061796d656e7453706c69747465723a206163636f756e7420686173206e6f2060008201527f7368617265730000000000000000000000000000000000000000000000000000602082015250565b6000611046602683610fd9565b915061105182610fea565b604082019050919050565b6000602082019050818103600083015261107581611039565b9050919050565b7f4e487b7100000000000000000000000000000000000000000000000000000000600052601160045260246000fd5b60006110b682610d75565b91506110c183610d75565b9250827fffffffffffffffffffffffffffffffffffffffffffffffffffffffffffffffff038211156110f6576110f561107c565b5b828201905092915050565b600061110c82610d75565b915061111783610d75565b9250817fffffffffffffffffffffffffffffffffffffffffffffffffffffffffffffffff04831182151516156111505761114f61107c565b5b828202905092915050565b7f4e487b7100000000000000000000000000000000000000000000000000000000600052601260045260246000fd5b600061119582610d75565b91506111a083610d75565b9250826111b0576111af61115b565b5b828204905092915050565b60006111c682610d75565b91506111d183610d75565b9250828210156111e4576111e361107c565b5b828203905092915050565b7f5061796d656e7453706c69747465723a206163636f756e74206973206e6f742060008201527f647565207061796d656e74000000000000000000000000000000000000000000602082015250565b600061124b602b83610fd9565b9150611256826111ef565b604082019050919050565b6000602082019050818103600083015261127a8161123e565b9050919050565b6000819050919050565b60006112a66112a161129c84610d34565b611281565b610d34565b9050919050565b60006112b88261128b565b9050919050565b60006112ca826112ad565b9050919050565b6112da816112bf565b82525050565b60006040820190506112f560008301856112d1565b6113026020830184610d7f565b9392505050565b7f4e487b7100000000000000000000000000000000000000000000000000000000600052603260045260246000fd5b7f5a65726f2046756e64732053656e74204572726f720000000000000000000000600082015250565b600061136e601583610fd9565b915061137982611338565b602082019050919050565b6000602082019050818103600083015261139d81611361565b9050919050565b7f4e6f7420456e6f7567682046756e64732053656e74204572726f720000000000600082015250565b60006113da601b83610fd9565b91506113e5826113a4565b602082019050919050565b60006020820190508181036000830152611409816113cd565b9050919050565b7f496e76616c696420416464726573730000000000000000000000000000000000600082015250565b6000611446600f83610fd9565b915061145182611410565b602082019050919050565b6000602082019050818103600083015261147581611439565b9050919050565b7f546f6b656e204e6f74204d696e746564204572726f7200000000000000000000600082015250565b60006114b2601683610fd9565b91506114bd8261147c565b602082019050919050565b600060208201905081810360008301526114e1816114a5565b9050919050565b7f416464726573733a20696e73756666696369656e742062616c616e6365000000600082015250565b600061151e601d83610fd9565b9150611529826114e8565b602082019050919050565b6000602082019050818103600083015261154d81611511565b9050919050565b600081905092915050565b50565b600061156f600083611554565b915061157a8261155f565b600082019050919050565b600061159082611562565b9150819050919050565b7f416464726573733a20756e61626c6520746f2073656e642076616c75652c207260008201527f6563697069656e74206d61792068617665207265766572746564000000000000602082015250565b60006115f6603a83610fd9565b91506116018261159a565b604082019050919050565b60006020820190508181036000830152611625816115e9565b9050919050565b82818337600083830152505050565b6000601f19601f8301169050919050565b60006116588385610fd9565b935061166583858461162c565b61166e8361163b565b840190509392505050565b600060408201905061168e6000830186610d66565b81810360208301526116a181848661164c565b9050949350505050565b60008115159050919050565b6116c0816116ab565b81146116cb57600080fd5b50565b6000815190506116dd816116b7565b92915050565b6000602082840312156116f9576116f8610dd2565b5b6000611707848285016116ce565b91505092915050565b7f546f6b656e20436f6e747261637420446964204e6f74204d696e7420546f6b6560008201527f6e00000000000000000000000000000000000000000000000000000000000000602082015250565b600061176c602183610fd9565b915061177782611710565b604082019050919050565b6000602082019050818103600083015261179b8161175f565b9050919050565b7f41646472657373206f6620536562206973206e6f742073657400000000000000600082015250565b60006117d8601983610fd9565b91506117e3826117a2565b602082019050919050565b60006020820190508181036000830152611807816117cb565b9050919050565b7f41646472657373206f66205a616368206973206e6f7420736574000000000000600082015250565b6000611844601a83610fd9565b915061184f8261180e565b602082019050919050565b6000602082019050818103600083015261187381611837565b9050919050565b7f41646472657373206f66204576616e206973206e6f7420736574000000000000600082015250565b60006118b0601a83610fd9565b91506118bb8261187a565b602082019050919050565b600060208201905081810360008301526118df816118a3565b9050919050565b7f41646472657373206f66204d616b6520412057697368206973206e6f7420736560008201527f7400000000000000000000000000000000000000000000000000000000000000602082015250565b6000611942602183610fd9565b915061194d826118e6565b604082019050919050565b6000602082019050818103600083015261197181611935565b905091905056fea2646970667358221220141b69e787f57acc03d1befefd5a3fd5c0c58efdf5bb4e19f5996f64a68c1d4664736f6c63430008090033",
  "immutableReferences": {},
  "source": "//SPDX-License-Identifier: UNLICENSED\npragma solidity ^0.8.0;\n\nimport \"@openzeppelin/contracts/finance/PaymentSplitter.sol\";\nimport \"@openzeppelin/contracts/access/Ownable.sol\";\nimport \"./MyWish.sol\";\n\n//Need to set up ownable for contract\n//Need to create reserve function\n\ncontract PaymentHandler is PaymentSplitter {\n\n    mapping(address => uint256) balances;\n    uint256 constant PRICE = 3000000000000000000 wei;\n    event fundsAccepted(address from);\n    uint256 totalSales;\n\n    \n    /*\n        Need to add values to the following variables\n    */\n    MyWish _myWishContract; \n    address payable _Seb = payable(address(30));\n    address payable _Zach = payable(address(10));\n    address payable _Evan = payable(address(16)); \n    address payable _MakeAWish = payable(address(20));  \n\n    //Make Shares out of 100\n    uint256 _SebShares = 2;\n    uint256 _ZachShares = 2;\n    uint256 _EvanShares = 6;\n    uint256 _MakeAWishShares = 90;\n\n    // address[] payees = [_Seb, _Zach, _Evan, _MakeAWish];\n    uint256[] shares_ = [_SebShares, _ZachShares, _EvanShares, _MakeAWishShares];\n\n    event tokenMintedEvent(address beneficiary,string tokenParams);\n\n    constructor(address tokenAddress,address[] memory payees) PaymentSplitter(payees, shares_) {\n        _myWishContract = MyWish(tokenAddress);\n        totalSales = 0;\n    }\n\n\n    function buyToken(\n        address beneficiary,\n        string calldata tokenParams\n    )\n    public\n    payable\n    {\n        require(msg.value > 0 , \"Zero Funds Sent Error\");\n        require(msg.value > PRICE,\"Not Enough Funds Sent Error\");\n        require(beneficiary != address(0),\"Invalid Address\");\n    \n        // validateTokenParams(tokenParams);\n        bool success = processPurchase(beneficiary, tokenParams);\n        require(success,\"Token Not Minted Error\");\n        releaseEther();\n        totalSales +=1;\n\n\n    }\n\n    function getTokenAddress() external view returns(address) {\n        return address(_myWishContract);\n    }\n\n    //does this return the total balance in the contract? \n    function getBalanceOfPaymentHandler()\n   \n    external\n    view\n    returns(uint256){\n        return address(this).balance;\n    }\n\n\n    function getPrice() \n    external pure\n    returns (uint256){\n        return PRICE;\n    }\n  \n    function releaseEther() internal {\n        require(_Seb !=  address(0), \"Address of Seb is not set\");\n        require(_Zach != address(0), \"Address of Zach is not set\");\n        require(_Evan != address(0), \"Address of Evan is not set\");\n        require(_MakeAWish != address(0), \"Address of Make A Wish is not set\");\n        \n        release(_Seb);\n        release(_Zach); \n        release(_Evan); \n        release(_MakeAWish);\n    }\n\n\n    function processPurchase(address beneficiary, string calldata tokenParams) internal returns(bool) {\n\n        bool success = _myWishContract.createCollectable(beneficiary,tokenParams);\n        require(success,\"Token Contract Did Not Mint Token\");\n        emit tokenMintedEvent(beneficiary, tokenParams);\n\n        return success == true;\n    }\n\n    function getTotalSales() public view returns (uint256) {\n            return totalSales;\n    }\n\n\n\n\n\n}\n",
  "sourcePath": "/Users/zlederman/Documents/Code/js/truffle-react/contracts/PaymentHandler.sol",
  "compiler": {
    "name": "solc",
    "version": "0.8.9+commit.e5eed63a.Emscripten.clang"
  },
  "schemaVersion": "3.4.2",
  "updatedAt": "2021-10-07T19:28:03.204Z",
  "devdoc": {
    "kind": "dev",
    "methods": {
      "payee(uint256)": {
        "details": "Getter for the address of the payee number `index`."
      },
      "release(address)": {
        "details": "Triggers a transfer to `account` of the amount of Ether they are owed, according to their percentage of the total shares and their previous withdrawals."
      },
      "released(address)": {
        "details": "Getter for the amount of Ether already released to a payee."
      },
      "shares(address)": {
        "details": "Getter for the amount of shares held by an account."
      },
      "totalReleased()": {
        "details": "Getter for the total amount of Ether already released."
      },
      "totalShares()": {
        "details": "Getter for the total shares held by payees."
      }
    },
    "version": 1
  },
  "userdoc": {
    "kind": "user",
    "methods": {},
    "version": 1
  }
}